{"contracts/oracles/OracleAdapter.sol":{"OracleAdapter":{"abi":[{"anonymous":false,"inputs":[{"indexed":true,"internalType":"address","name":"previousOwner","type":"address"},{"indexed":true,"internalType":"address","name":"newOwner","type":"address"}],"name":"OwnershipTransferred","type":"event"},{"anonymous":false,"inputs":[{"indexed":true,"internalType":"address","name":"token","type":"address"}],"name":"PriceFeedDeactivated","type":"event"},{"anonymous":false,"inputs":[{"indexed":true,"internalType":"address","name":"token","type":"address"},{"indexed":true,"internalType":"address","name":"oracle","type":"address"}],"name":"PriceFeedUpdated","type":"event"},{"anonymous":false,"inputs":[{"indexed":true,"internalType":"address","name":"token","type":"address"},{"indexed":false,"internalType":"uint256","name":"price","type":"uint256"}],"name":"PriceUpdated","type":"event"},{"inputs":[],"name":"HISTORY_SIZE","outputs":[{"internalType":"uint256","name":"","type":"uint256"}],"stateMutability":"view","type":"function"},{"inputs":[],"name":"MAX_PRICE_AGE","outputs":[{"internalType":"uint256","name":"","type":"uint256"}],"stateMutability":"view","type":"function"},{"inputs":[],"name":"PRECISION","outputs":[{"internalType":"uint256","name":"","type":"uint256"}],"stateMutability":"view","type":"function"},{"inputs":[{"internalType":"address","name":"","type":"address"}],"name":"currentPriceIndex","outputs":[{"internalType":"uint256","name":"","type":"uint256"}],"stateMutability":"view","type":"function"},{"inputs":[{"internalType":"address","name":"token","type":"address"}],"name":"deactivatePriceFeed","outputs":[],"stateMutability":"nonpayable","type":"function"},{"inputs":[{"internalType":"address","name":"baseToken","type":"address"},{"internalType":"address","name":"quoteToken","type":"address"}],"name":"getExchangeRate","outputs":[{"internalType":"uint256","name":"rate","type":"uint256"}],"stateMutability":"view","type":"function"},{"inputs":[{"internalType":"address","name":"token","type":"address"}],"name":"getHistoricalPrices","outputs":[{"components":[{"internalType":"uint256","name":"price","type":"uint256"},{"internalType":"uint256","name":"timestamp","type":"uint256"}],"internalType":"struct OracleAdapter.HistoricalPrice[]","name":"prices","type":"tuple[]"}],"stateMutability":"view","type":"function"},{"inputs":[{"internalType":"address","name":"token","type":"address"}],"name":"getPrice","outputs":[{"internalType":"uint256","name":"price","type":"uint256"}],"stateMutability":"view","type":"function"},{"inputs":[{"internalType":"address","name":"token","type":"address"}],"name":"getPriceDeviation","outputs":[{"internalType":"uint256","name":"deviation","type":"uint256"}],"stateMutability":"view","type":"function"},{"inputs":[{"internalType":"address","name":"token","type":"address"}],"name":"getVolatility","outputs":[{"internalType":"uint256","name":"volatility","type":"uint256"}],"stateMutability":"view","type":"function"},{"inputs":[{"internalType":"address","name":"","type":"address"},{"internalType":"uint256","name":"","type":"uint256"}],"name":"historicalPrices","outputs":[{"internalType":"uint256","name":"price","type":"uint256"},{"internalType":"uint256","name":"timestamp","type":"uint256"}],"stateMutability":"view","type":"function"},{"inputs":[],"name":"owner","outputs":[{"internalType":"address","name":"","type":"address"}],"stateMutability":"view","type":"function"},{"inputs":[{"internalType":"address","name":"","type":"address"}],"name":"priceFeeds","outputs":[{"internalType":"address","name":"oracleAddress","type":"address"},{"internalType":"uint8","name":"decimals","type":"uint8"},{"internalType":"bool","name":"isActive","type":"bool"},{"internalType":"uint256","name":"lastPrice","type":"uint256"},{"internalType":"uint256","name":"lastUpdateTime","type":"uint256"}],"stateMutability":"view","type":"function"},{"inputs":[],"name":"renounceOwnership","outputs":[],"stateMutability":"nonpayable","type":"function"},{"inputs":[{"internalType":"address","name":"token","type":"address"},{"internalType":"address","name":"oracle","type":"address"},{"internalType":"uint8","name":"decimals","type":"uint8"}],"name":"setPriceFeed","outputs":[],"stateMutability":"nonpayable","type":"function"},{"inputs":[{"internalType":"address","name":"newOwner","type":"address"}],"name":"transferOwnership","outputs":[],"stateMutability":"nonpayable","type":"function"},{"inputs":[{"internalType":"address","name":"token","type":"address"}],"name":"updatePriceHistory","outputs":[],"stateMutability":"nonpayable","type":"function"}],"evm":{"bytecode":{"linkReferences":{},"object":"608060405234801561001057600080fd5b5061001a3361001f565b61006f565b600080546001600160a01b038381166001600160a01b0319831681178455604051919092169283917f8be0079c531659141344cd1fd0a4f28419497f9722a3daafe3b4186f6b6457e09190a35050565b6114a68061007e6000396000f3fe608060405234801561001057600080fd5b506004361061010b5760003560e01c80638da5cb5b116100a2578063aaf5eb6811610071578063aaf5eb68146102b5578063baaa61be146102c4578063f2fde38b146102d7578063fd4690b6146102ea578063fe193e14146102fd57600080fd5b80638da5cb5b146101f55780639d7f7e86146102105780639dcb511a146102195780639e7a4dc5146102a257600080fd5b806341976e09116100de57806341976e09146101b2578063652c462e146101c5578063715018a6146101cd5780638998ecdc146101d557600080fd5b806315b42e5e146101105780631a68f75f1461015c5780632685e434146101715780633029cafc1461019f575b600080fd5b61014261011e3660046110db565b60026020908152600092835260408084209091529082529020805460019091015482565b604080519283526020830191909152015b60405180910390f35b61016f61016a366004611105565b610310565b005b61019161017f366004611105565b60036020526000908152604090205481565b604051908152602001610153565b6101916101ad366004611105565b6103d8565b6101916101c0366004611105565b610567565b610191600a81565b61016f610736565b6101e86101e3366004611105565b61074a565b6040516101539190611120565b6000546040516001600160a01b039091168152602001610153565b610191610e1081565b610268610227366004611105565b60016020819052600091825260409091208054918101546002909101546001600160a01b0383169260ff600160a01b8204811693600160a81b909204169185565b604080516001600160a01b03909616865260ff9094166020860152911515928401929092526060830191909152608082015260a001610153565b61016f6102b0366004611105565b610808565b610191670de0b6b3a764000081565b6101916102d236600461116f565b61098f565b61016f6102e5366004611105565b610ad9565b61016f6102f83660046111a2565b610b52565b61019161030b366004611105565b610d15565b610318610e4f565b6001600160a01b038116600090815260016020526040902054600160a81b900460ff1661038c5760405162461bcd60e51b815260206004820152601b60248201527f5072696365206665656420616c726561647920696e616374697665000000000060448201526064015b60405180910390fd5b6001600160a01b038116600081815260016020526040808220805460ff60a81b19169055517f8b46412991fecbe58f45dfd2d74cfc2e19d66105ce7920fb8c92e8f6ef31a4c29190a250565b60408051600a808252610160820190925260009182919060208201610140803683370190505090506000805b600a8110156104a5576001600160a01b038516600090815260026020908152604080832084845282529182902082518084019093528054808452600190910154918301919091521580159061045d575060008160200151115b1561049257806000015184848151811061047957610479611205565b60209081029190910101528261048e81611231565b9350505b508061049d81611231565b915050610404565b5060028110156104b9575060009392505050565b60008167ffffffffffffffff8111156104d4576104d46111ef565b6040519080825280602002602001820160405280156104fd578160200160208202803683370190505b50905060005b828110156105545783818151811061051d5761051d611205565b602002602001015182828151811061053757610537611205565b60209081029190910101528061054c81611231565b915050610503565b5061055e81610ea9565b95945050505050565b6001600160a01b0381166000908152600160205260408120548290600160a81b900460ff166105a85760405162461bcd60e51b81526004016103839061124a565b6001600160a01b03808416600090815260016020526040808220548151633fabe5a360e21b815291519316928291849163feaf968c9160048082019260a0929091908290030181865afa158015610603573d6000803e3d6000fd5b505050506040513d601f19601f820116820180604052508101906106279190611293565b509350509250506000821361066e5760405162461bcd60e51b815260206004820152600d60248201526c496e76616c696420707269636560981b6044820152606401610383565b600081116106b25760405162461bcd60e51b81526020600482015260116024820152700496e76616c69642074696d657374616d7607c1b6044820152606401610383565b610e106106bf82426112e3565b106106fe5760405162461bcd60e51b815260206004820152600f60248201526e507269636520746f6f207374616c6560881b6044820152606401610383565b6001600160a01b03861660009081526001602052604090205461072c908390600160a01b900460ff16610fd2565b9695505050505050565b61073e610e4f565b6107486000611007565b565b60408051600a8082526101608201909252606091816020015b604080518082019091526000808252602082015281526020019060019003908161076357905050905060005b600a811015610802576001600160a01b0383166000908152600260209081526040808320848452825291829020825180840190935280548352600101549082015282518390839081106107e4576107e4611205565b602002602001018190525080806107fa90611231565b91505061078f565b50919050565b6001600160a01b0381166000908152600160205260409020548190600160a81b900460ff166108495760405162461bcd60e51b81526004016103839061124a565b6040516341976e0960e01b81526001600160a01b038316600482015260009030906341976e0990602401602060405180830381865afa158015610890573d6000803e3d6000fd5b505050506040513d601f19601f820116820180604052508101906108b491906112fc565b6001600160a01b0384166000818152600360209081526040808320548151808301835286815242818501908152958552600284528285208286529093529220905181559151600192830155919250600a90610910908390611315565b61091a919061133e565b6001600160a01b038516600081815260036020908152604080832094909455600190819052908390209081018590554260029091015590517f0d86730737b142fc160892fa8a0f2db687a92a0e294d1ad70624cf5acef03b84906109819085815260200190565b60405180910390a250505050565b6040516341976e0960e01b81526001600160a01b0383166004820152600090819030906341976e0990602401602060405180830381865afa1580156109d8573d6000803e3d6000fd5b505050506040513d601f19601f820116820180604052508101906109fc91906112fc565b6040516341976e0960e01b81526001600160a01b038516600482015290915060009030906341976e0990602401602060405180830381865afa158015610a46573d6000803e3d6000fd5b505050506040513d601f19601f82011682018060405250810190610a6a91906112fc565b905060008111610abc5760405162461bcd60e51b815260206004820152601a60248201527f51756f74652070726963652063616e6e6f74206265207a65726f0000000000006044820152606401610383565b80610acf670de0b6b3a764000084611352565b61055e9190611369565b610ae1610e4f565b6001600160a01b038116610b465760405162461bcd60e51b815260206004820152602660248201527f4f776e61626c653a206e6577206f776e657220697320746865207a65726f206160448201526564647265737360d01b6064820152608401610383565b610b4f81611007565b50565b610b5a610e4f565b826001600160a01b038116610ba35760405162461bcd60e51b815260206004820152600f60248201526e496e76616c6964206164647265737360881b6044820152606401610383565b826001600160a01b038116610bec5760405162461bcd60e51b815260206004820152600f60248201526e496e76616c6964206164647265737360881b6044820152606401610383565b6040518060a00160405280856001600160a01b031681526020018460ff16815260200160011515815260200160008152602001600081525060016000876001600160a01b03166001600160a01b0316815260200190815260200160002060008201518160000160006101000a8154816001600160a01b0302191690836001600160a01b0316021790555060208201518160000160146101000a81548160ff021916908360ff16021790555060408201518160000160156101000a81548160ff0219169083151502179055506060820151816001015560808201518160020155905050836001600160a01b0316856001600160a01b03167fa8abe0398416476db5b05737cd4da3b3cbde5012d978a6a6c3fd49d32175353660405160405180910390a35050505050565b6001600160a01b0381166000908152600160205260408120548290600160a81b900460ff16610d565760405162461bcd60e51b81526004016103839061124a565b6040516341976e0960e01b81526001600160a01b038416600482015260009030906341976e0990602401602060405180830381865afa158015610d9d573d6000803e3d6000fd5b505050506040513d601f19601f82011682018060405250810190610dc191906112fc565b6001600160a01b038516600090815260016020819052604082200154919250819003610df257600093505050610802565b80821115610e295780670de0b6b3a7640000610e0e82856112e3565b610e189190611352565b610e229190611369565b9350610e47565b80670de0b6b3a7640000610e3d84836112e3565b610acf9190611352565b505050919050565b6000546001600160a01b031633146107485760405162461bcd60e51b815260206004820181905260248201527f4f776e61626c653a2063616c6c6572206973206e6f7420746865206f776e65726044820152606401610383565b80516000906002811015610ec05750600092915050565b6000805b82811015610f0557848181518110610ede57610ede611205565b602002602001015182610ef19190611315565b915080610efd81611231565b915050610ec4565b506000610f128383611369565b90506000805b84811015610fc857600083888381518110610f3557610f35611205565b602002602001015111610f6c57878281518110610f5457610f54611205565b602002602001015184610f6791906112e3565b610f91565b83888381518110610f7f57610f7f611205565b6020026020010151610f9191906112e3565b905085610f9e8280611352565b610fa89190611369565b610fb29084611315565b9250508080610fc090611231565b915050610f18565b5061072c81611057565b600080610fe083600a611461565b905080610ff5670de0b6b3a764000086611352565b610fff9190611369565b949350505050565b600080546001600160a01b038381166001600160a01b0319831681178455604051919092169283917f8be0079c531659141344cd1fd0a4f28419497f9722a3daafe3b4186f6b6457e09190a35050565b60008160000361106957506000919050565b60006002611078846001611315565b6110829190611369565b9050825b808210156110b857508060028161109d8187611369565b6110a79190611315565b6110b19190611369565b9150611086565b9392505050565b80356001600160a01b03811681146110d657600080fd5b919050565b600080604083850312156110ee57600080fd5b6110f7836110bf565b946020939093013593505050565b60006020828403121561111757600080fd5b6110b8826110bf565b602080825282518282018190526000919060409081850190868401855b828110156111625781518051855286015186850152928401929085019060010161113d565b5091979650505050505050565b6000806040838503121561118257600080fd5b61118b836110bf565b9150611199602084016110bf565b90509250929050565b6000806000606084860312156111b757600080fd5b6111c0846110bf565b92506111ce602085016110bf565b9150604084013560ff811681146111e457600080fd5b809150509250925092565b634e487b7160e01b600052604160045260246000fd5b634e487b7160e01b600052603260045260246000fd5b634e487b7160e01b600052601160045260246000fd5b6000600182016112435761124361121b565b5060010190565b60208082526015908201527450726963652066656564206e6f742061637469766560581b604082015260600190565b805169ffffffffffffffffffff811681146110d657600080fd5b600080600080600060a086880312156112ab57600080fd5b6112b486611279565b94506020860151935060408601519250606086015191506112d760808701611279565b90509295509295909350565b818103818111156112f6576112f661121b565b92915050565b60006020828403121561130e57600080fd5b5051919050565b808201808211156112f6576112f661121b565b634e487b7160e01b600052601260045260246000fd5b60008261134d5761134d611328565b500690565b80820281158282048414176112f6576112f661121b565b60008261137857611378611328565b500490565b600181815b808511156113b857816000190482111561139e5761139e61121b565b808516156113ab57918102915b93841c9390800290611382565b509250929050565b6000826113cf575060016112f6565b816113dc575060006112f6565b81600181146113f257600281146113fc57611418565b60019150506112f6565b60ff84111561140d5761140d61121b565b50506001821b6112f6565b5060208310610133831016604e8410600b841016171561143b575081810a6112f6565b611445838361137d565b80600019048211156114595761145961121b565b029392505050565b60006110b860ff8416836113c056fea26469706673582212204857e6d1c6547349c66868363d336054ebb3b3bce7d1d6c2bb96a691ec546f6964736f6c63430008130033","opcodes":"PUSH1 0x80 PUSH1 0x40 MSTORE CALLVALUE DUP1 ISZERO PUSH2 0x10 JUMPI PUSH1 0x0 DUP1 REVERT JUMPDEST POP PUSH2 0x1A CALLER PUSH2 0x1F JUMP JUMPDEST PUSH2 0x6F JUMP JUMPDEST PUSH1 0x0 DUP1 SLOAD PUSH1 0x1 PUSH1 0x1 PUSH1 0xA0 SHL SUB DUP4 DUP2 AND PUSH1 0x1 PUSH1 0x1 PUSH1 0xA0 SHL SUB NOT DUP4 AND DUP2 OR DUP5 SSTORE PUSH1 0x40 MLOAD SWAP2 SWAP1 SWAP3 AND SWAP3 DUP4 SWAP2 PUSH32 0x8BE0079C531659141344CD1FD0A4F28419497F9722A3DAAFE3B4186F6B6457E0 SWAP2 SWAP1 LOG3 POP POP JUMP JUMPDEST PUSH2 0x14A6 DUP1 PUSH2 0x7E PUSH1 0x0 CODECOPY PUSH1 0x0 RETURN INVALID PUSH1 0x80 PUSH1 0x40 MSTORE CALLVALUE DUP1 ISZERO PUSH2 0x10 JUMPI PUSH1 0x0 DUP1 REVERT JUMPDEST POP PUSH1 0x4 CALLDATASIZE LT PUSH2 0x10B JUMPI PUSH1 0x0 CALLDATALOAD PUSH1 0xE0 SHR DUP1 PUSH4 0x8DA5CB5B GT PUSH2 0xA2 JUMPI DUP1 PUSH4 0xAAF5EB68 GT PUSH2 0x71 JUMPI DUP1 PUSH4 0xAAF5EB68 EQ PUSH2 0x2B5 JUMPI DUP1 PUSH4 0xBAAA61BE EQ PUSH2 0x2C4 JUMPI DUP1 PUSH4 0xF2FDE38B EQ PUSH2 0x2D7 JUMPI DUP1 PUSH4 0xFD4690B6 EQ PUSH2 0x2EA JUMPI DUP1 PUSH4 0xFE193E14 EQ PUSH2 0x2FD JUMPI PUSH1 0x0 DUP1 REVERT JUMPDEST DUP1 PUSH4 0x8DA5CB5B EQ PUSH2 0x1F5 JUMPI DUP1 PUSH4 0x9D7F7E86 EQ PUSH2 0x210 JUMPI DUP1 PUSH4 0x9DCB511A EQ PUSH2 0x219 JUMPI DUP1 PUSH4 0x9E7A4DC5 EQ PUSH2 0x2A2 JUMPI PUSH1 0x0 DUP1 REVERT JUMPDEST DUP1 PUSH4 0x41976E09 GT PUSH2 0xDE JUMPI DUP1 PUSH4 0x41976E09 EQ PUSH2 0x1B2 JUMPI DUP1 PUSH4 0x652C462E EQ PUSH2 0x1C5 JUMPI DUP1 PUSH4 0x715018A6 EQ PUSH2 0x1CD JUMPI DUP1 PUSH4 0x8998ECDC EQ PUSH2 0x1D5 JUMPI PUSH1 0x0 DUP1 REVERT JUMPDEST DUP1 PUSH4 0x15B42E5E EQ PUSH2 0x110 JUMPI DUP1 PUSH4 0x1A68F75F EQ PUSH2 0x15C JUMPI DUP1 PUSH4 0x2685E434 EQ PUSH2 0x171 JUMPI DUP1 PUSH4 0x3029CAFC EQ PUSH2 0x19F JUMPI JUMPDEST PUSH1 0x0 DUP1 REVERT JUMPDEST PUSH2 0x142 PUSH2 0x11E CALLDATASIZE PUSH1 0x4 PUSH2 0x10DB JUMP JUMPDEST PUSH1 0x2 PUSH1 0x20 SWAP1 DUP2 MSTORE PUSH1 0x0 SWAP3 DUP4 MSTORE PUSH1 0x40 DUP1 DUP5 KECCAK256 SWAP1 SWAP2 MSTORE SWAP1 DUP3 MSTORE SWAP1 KECCAK256 DUP1 SLOAD PUSH1 0x1 SWAP1 SWAP2 ADD SLOAD DUP3 JUMP JUMPDEST PUSH1 0x40 DUP1 MLOAD SWAP3 DUP4 MSTORE PUSH1 0x20 DUP4 ADD SWAP2 SWAP1 SWAP2 MSTORE ADD JUMPDEST PUSH1 0x40 MLOAD DUP1 SWAP2 SUB SWAP1 RETURN JUMPDEST PUSH2 0x16F PUSH2 0x16A CALLDATASIZE PUSH1 0x4 PUSH2 0x1105 JUMP JUMPDEST PUSH2 0x310 JUMP JUMPDEST STOP JUMPDEST PUSH2 0x191 PUSH2 0x17F CALLDATASIZE PUSH1 0x4 PUSH2 0x1105 JUMP JUMPDEST PUSH1 0x3 PUSH1 0x20 MSTORE PUSH1 0x0 SWAP1 DUP2 MSTORE PUSH1 0x40 SWAP1 KECCAK256 SLOAD DUP2 JUMP JUMPDEST PUSH1 0x40 MLOAD SWAP1 DUP2 MSTORE PUSH1 0x20 ADD PUSH2 0x153 JUMP JUMPDEST PUSH2 0x191 PUSH2 0x1AD CALLDATASIZE PUSH1 0x4 PUSH2 0x1105 JUMP JUMPDEST PUSH2 0x3D8 JUMP JUMPDEST PUSH2 0x191 PUSH2 0x1C0 CALLDATASIZE PUSH1 0x4 PUSH2 0x1105 JUMP JUMPDEST PUSH2 0x567 JUMP JUMPDEST PUSH2 0x191 PUSH1 0xA DUP2 JUMP JUMPDEST PUSH2 0x16F PUSH2 0x736 JUMP JUMPDEST PUSH2 0x1E8 PUSH2 0x1E3 CALLDATASIZE PUSH1 0x4 PUSH2 0x1105 JUMP JUMPDEST PUSH2 0x74A JUMP JUMPDEST PUSH1 0x40 MLOAD PUSH2 0x153 SWAP2 SWAP1 PUSH2 0x1120 JUMP JUMPDEST PUSH1 0x0 SLOAD PUSH1 0x40 MLOAD PUSH1 0x1 PUSH1 0x1 PUSH1 0xA0 SHL SUB SWAP1 SWAP2 AND DUP2 MSTORE PUSH1 0x20 ADD PUSH2 0x153 JUMP JUMPDEST PUSH2 0x191 PUSH2 0xE10 DUP2 JUMP JUMPDEST PUSH2 0x268 PUSH2 0x227 CALLDATASIZE PUSH1 0x4 PUSH2 0x1105 JUMP JUMPDEST PUSH1 0x1 PUSH1 0x20 DUP2 SWAP1 MSTORE PUSH1 0x0 SWAP2 DUP3 MSTORE PUSH1 0x40 SWAP1 SWAP2 KECCAK256 DUP1 SLOAD SWAP2 DUP2 ADD SLOAD PUSH1 0x2 SWAP1 SWAP2 ADD SLOAD PUSH1 0x1 PUSH1 0x1 PUSH1 0xA0 SHL SUB DUP4 AND SWAP3 PUSH1 0xFF PUSH1 0x1 PUSH1 0xA0 SHL DUP3 DIV DUP2 AND SWAP4 PUSH1 0x1 PUSH1 0xA8 SHL SWAP1 SWAP3 DIV AND SWAP2 DUP6 JUMP JUMPDEST PUSH1 0x40 DUP1 MLOAD PUSH1 0x1 PUSH1 0x1 PUSH1 0xA0 SHL SUB SWAP1 SWAP7 AND DUP7 MSTORE PUSH1 0xFF SWAP1 SWAP5 AND PUSH1 0x20 DUP7 ADD MSTORE SWAP2 ISZERO ISZERO SWAP3 DUP5 ADD SWAP3 SWAP1 SWAP3 MSTORE PUSH1 0x60 DUP4 ADD SWAP2 SWAP1 SWAP2 MSTORE PUSH1 0x80 DUP3 ADD MSTORE PUSH1 0xA0 ADD PUSH2 0x153 JUMP JUMPDEST PUSH2 0x16F PUSH2 0x2B0 CALLDATASIZE PUSH1 0x4 PUSH2 0x1105 JUMP JUMPDEST PUSH2 0x808 JUMP JUMPDEST PUSH2 0x191 PUSH8 0xDE0B6B3A7640000 DUP2 JUMP JUMPDEST PUSH2 0x191 PUSH2 0x2D2 CALLDATASIZE PUSH1 0x4 PUSH2 0x116F JUMP JUMPDEST PUSH2 0x98F JUMP JUMPDEST PUSH2 0x16F PUSH2 0x2E5 CALLDATASIZE PUSH1 0x4 PUSH2 0x1105 JUMP JUMPDEST PUSH2 0xAD9 JUMP JUMPDEST PUSH2 0x16F PUSH2 0x2F8 CALLDATASIZE PUSH1 0x4 PUSH2 0x11A2 JUMP JUMPDEST PUSH2 0xB52 JUMP JUMPDEST PUSH2 0x191 PUSH2 0x30B CALLDATASIZE PUSH1 0x4 PUSH2 0x1105 JUMP JUMPDEST PUSH2 0xD15 JUMP JUMPDEST PUSH2 0x318 PUSH2 0xE4F JUMP JUMPDEST PUSH1 0x1 PUSH1 0x1 PUSH1 0xA0 SHL SUB DUP2 AND PUSH1 0x0 SWAP1 DUP2 MSTORE PUSH1 0x1 PUSH1 0x20 MSTORE PUSH1 0x40 SWAP1 KECCAK256 SLOAD PUSH1 0x1 PUSH1 0xA8 SHL SWAP1 DIV PUSH1 0xFF AND PUSH2 0x38C JUMPI PUSH1 0x40 MLOAD PUSH3 0x461BCD PUSH1 0xE5 SHL DUP2 MSTORE PUSH1 0x20 PUSH1 0x4 DUP3 ADD MSTORE PUSH1 0x1B PUSH1 0x24 DUP3 ADD MSTORE PUSH32 0x5072696365206665656420616C726561647920696E6163746976650000000000 PUSH1 0x44 DUP3 ADD MSTORE PUSH1 0x64 ADD JUMPDEST PUSH1 0x40 MLOAD DUP1 SWAP2 SUB SWAP1 REVERT JUMPDEST PUSH1 0x1 PUSH1 0x1 PUSH1 0xA0 SHL SUB DUP2 AND PUSH1 0x0 DUP2 DUP2 MSTORE PUSH1 0x1 PUSH1 0x20 MSTORE PUSH1 0x40 DUP1 DUP3 KECCAK256 DUP1 SLOAD PUSH1 0xFF PUSH1 0xA8 SHL NOT AND SWAP1 SSTORE MLOAD PUSH32 0x8B46412991FECBE58F45DFD2D74CFC2E19D66105CE7920FB8C92E8F6EF31A4C2 SWAP2 SWAP1 LOG2 POP JUMP JUMPDEST PUSH1 0x40 DUP1 MLOAD PUSH1 0xA DUP1 DUP3 MSTORE PUSH2 0x160 DUP3 ADD SWAP1 SWAP3 MSTORE PUSH1 0x0 SWAP2 DUP3 SWAP2 SWAP1 PUSH1 0x20 DUP3 ADD PUSH2 0x140 DUP1 CALLDATASIZE DUP4 CALLDATACOPY ADD SWAP1 POP POP SWAP1 POP PUSH1 0x0 DUP1 JUMPDEST PUSH1 0xA DUP2 LT ISZERO PUSH2 0x4A5 JUMPI PUSH1 0x1 PUSH1 0x1 PUSH1 0xA0 SHL SUB DUP6 AND PUSH1 0x0 SWAP1 DUP2 MSTORE PUSH1 0x2 PUSH1 0x20 SWAP1 DUP2 MSTORE PUSH1 0x40 DUP1 DUP4 KECCAK256 DUP5 DUP5 MSTORE DUP3 MSTORE SWAP2 DUP3 SWAP1 KECCAK256 DUP3 MLOAD DUP1 DUP5 ADD SWAP1 SWAP4 MSTORE DUP1 SLOAD DUP1 DUP5 MSTORE PUSH1 0x1 SWAP1 SWAP2 ADD SLOAD SWAP2 DUP4 ADD SWAP2 SWAP1 SWAP2 MSTORE ISZERO DUP1 ISZERO SWAP1 PUSH2 0x45D JUMPI POP PUSH1 0x0 DUP2 PUSH1 0x20 ADD MLOAD GT JUMPDEST ISZERO PUSH2 0x492 JUMPI DUP1 PUSH1 0x0 ADD MLOAD DUP5 DUP5 DUP2 MLOAD DUP2 LT PUSH2 0x479 JUMPI PUSH2 0x479 PUSH2 0x1205 JUMP JUMPDEST PUSH1 0x20 SWAP1 DUP2 MUL SWAP2 SWAP1 SWAP2 ADD ADD MSTORE DUP3 PUSH2 0x48E DUP2 PUSH2 0x1231 JUMP JUMPDEST SWAP4 POP POP JUMPDEST POP DUP1 PUSH2 0x49D DUP2 PUSH2 0x1231 JUMP JUMPDEST SWAP2 POP POP PUSH2 0x404 JUMP JUMPDEST POP PUSH1 0x2 DUP2 LT ISZERO PUSH2 0x4B9 JUMPI POP PUSH1 0x0 SWAP4 SWAP3 POP POP POP JUMP JUMPDEST PUSH1 0x0 DUP2 PUSH8 0xFFFFFFFFFFFFFFFF DUP2 GT ISZERO PUSH2 0x4D4 JUMPI PUSH2 0x4D4 PUSH2 0x11EF JUMP JUMPDEST PUSH1 0x40 MLOAD SWAP1 DUP1 DUP3 MSTORE DUP1 PUSH1 0x20 MUL PUSH1 0x20 ADD DUP3 ADD PUSH1 0x40 MSTORE DUP1 ISZERO PUSH2 0x4FD JUMPI DUP2 PUSH1 0x20 ADD PUSH1 0x20 DUP3 MUL DUP1 CALLDATASIZE DUP4 CALLDATACOPY ADD SWAP1 POP JUMPDEST POP SWAP1 POP PUSH1 0x0 JUMPDEST DUP3 DUP2 LT ISZERO PUSH2 0x554 JUMPI DUP4 DUP2 DUP2 MLOAD DUP2 LT PUSH2 0x51D JUMPI PUSH2 0x51D PUSH2 0x1205 JUMP JUMPDEST PUSH1 0x20 MUL PUSH1 0x20 ADD ADD MLOAD DUP3 DUP3 DUP2 MLOAD DUP2 LT PUSH2 0x537 JUMPI PUSH2 0x537 PUSH2 0x1205 JUMP JUMPDEST PUSH1 0x20 SWAP1 DUP2 MUL SWAP2 SWAP1 SWAP2 ADD ADD MSTORE DUP1 PUSH2 0x54C DUP2 PUSH2 0x1231 JUMP JUMPDEST SWAP2 POP POP PUSH2 0x503 JUMP JUMPDEST POP PUSH2 0x55E DUP2 PUSH2 0xEA9 JUMP JUMPDEST SWAP6 SWAP5 POP POP POP POP POP JUMP JUMPDEST PUSH1 0x1 PUSH1 0x1 PUSH1 0xA0 SHL SUB DUP2 AND PUSH1 0x0 SWAP1 DUP2 MSTORE PUSH1 0x1 PUSH1 0x20 MSTORE PUSH1 0x40 DUP2 KECCAK256 SLOAD DUP3 SWAP1 PUSH1 0x1 PUSH1 0xA8 SHL SWAP1 DIV PUSH1 0xFF AND PUSH2 0x5A8 JUMPI PUSH1 0x40 MLOAD PUSH3 0x461BCD PUSH1 0xE5 SHL DUP2 MSTORE PUSH1 0x4 ADD PUSH2 0x383 SWAP1 PUSH2 0x124A JUMP JUMPDEST PUSH1 0x1 PUSH1 0x1 PUSH1 0xA0 SHL SUB DUP1 DUP5 AND PUSH1 0x0 SWAP1 DUP2 MSTORE PUSH1 0x1 PUSH1 0x20 MSTORE PUSH1 0x40 DUP1 DUP3 KECCAK256 SLOAD DUP2 MLOAD PUSH4 0x3FABE5A3 PUSH1 0xE2 SHL DUP2 MSTORE SWAP2 MLOAD SWAP4 AND SWAP3 DUP3 SWAP2 DUP5 SWAP2 PUSH4 0xFEAF968C SWAP2 PUSH1 0x4 DUP1 DUP3 ADD SWAP3 PUSH1 0xA0 SWAP3 SWAP1 SWAP2 SWAP1 DUP3 SWAP1 SUB ADD DUP2 DUP7 GAS STATICCALL ISZERO DUP1 ISZERO PUSH2 0x603 JUMPI RETURNDATASIZE PUSH1 0x0 DUP1 RETURNDATACOPY RETURNDATASIZE PUSH1 0x0 REVERT JUMPDEST POP POP POP POP PUSH1 0x40 MLOAD RETURNDATASIZE PUSH1 0x1F NOT PUSH1 0x1F DUP3 ADD AND DUP3 ADD DUP1 PUSH1 0x40 MSTORE POP DUP2 ADD SWAP1 PUSH2 0x627 SWAP2 SWAP1 PUSH2 0x1293 JUMP JUMPDEST POP SWAP4 POP POP SWAP3 POP POP PUSH1 0x0 DUP3 SGT PUSH2 0x66E JUMPI PUSH1 0x40 MLOAD PUSH3 0x461BCD PUSH1 0xE5 SHL DUP2 MSTORE PUSH1 0x20 PUSH1 0x4 DUP3 ADD MSTORE PUSH1 0xD PUSH1 0x24 DUP3 ADD MSTORE PUSH13 0x496E76616C6964207072696365 PUSH1 0x98 SHL PUSH1 0x44 DUP3 ADD MSTORE PUSH1 0x64 ADD PUSH2 0x383 JUMP JUMPDEST PUSH1 0x0 DUP2 GT PUSH2 0x6B2 JUMPI PUSH1 0x40 MLOAD PUSH3 0x461BCD PUSH1 0xE5 SHL DUP2 MSTORE PUSH1 0x20 PUSH1 0x4 DUP3 ADD MSTORE PUSH1 0x11 PUSH1 0x24 DUP3 ADD MSTORE PUSH17 0x496E76616C69642074696D657374616D7 PUSH1 0x7C SHL PUSH1 0x44 DUP3 ADD MSTORE PUSH1 0x64 ADD PUSH2 0x383 JUMP JUMPDEST PUSH2 0xE10 PUSH2 0x6BF DUP3 TIMESTAMP PUSH2 0x12E3 JUMP JUMPDEST LT PUSH2 0x6FE JUMPI PUSH1 0x40 MLOAD PUSH3 0x461BCD PUSH1 0xE5 SHL DUP2 MSTORE PUSH1 0x20 PUSH1 0x4 DUP3 ADD MSTORE PUSH1 0xF PUSH1 0x24 DUP3 ADD MSTORE PUSH15 0x507269636520746F6F207374616C65 PUSH1 0x88 SHL PUSH1 0x44 DUP3 ADD MSTORE PUSH1 0x64 ADD PUSH2 0x383 JUMP JUMPDEST PUSH1 0x1 PUSH1 0x1 PUSH1 0xA0 SHL SUB DUP7 AND PUSH1 0x0 SWAP1 DUP2 MSTORE PUSH1 0x1 PUSH1 0x20 MSTORE PUSH1 0x40 SWAP1 KECCAK256 SLOAD PUSH2 0x72C SWAP1 DUP4 SWAP1 PUSH1 0x1 PUSH1 0xA0 SHL SWAP1 DIV PUSH1 0xFF AND PUSH2 0xFD2 JUMP JUMPDEST SWAP7 SWAP6 POP POP POP POP POP POP JUMP JUMPDEST PUSH2 0x73E PUSH2 0xE4F JUMP JUMPDEST PUSH2 0x748 PUSH1 0x0 PUSH2 0x1007 JUMP JUMPDEST JUMP JUMPDEST PUSH1 0x40 DUP1 MLOAD PUSH1 0xA DUP1 DUP3 MSTORE PUSH2 0x160 DUP3 ADD SWAP1 SWAP3 MSTORE PUSH1 0x60 SWAP2 DUP2 PUSH1 0x20 ADD JUMPDEST PUSH1 0x40 DUP1 MLOAD DUP1 DUP3 ADD SWAP1 SWAP2 MSTORE PUSH1 0x0 DUP1 DUP3 MSTORE PUSH1 0x20 DUP3 ADD MSTORE DUP2 MSTORE PUSH1 0x20 ADD SWAP1 PUSH1 0x1 SWAP1 SUB SWAP1 DUP2 PUSH2 0x763 JUMPI SWAP1 POP POP SWAP1 POP PUSH1 0x0 JUMPDEST PUSH1 0xA DUP2 LT ISZERO PUSH2 0x802 JUMPI PUSH1 0x1 PUSH1 0x1 PUSH1 0xA0 SHL SUB DUP4 AND PUSH1 0x0 SWAP1 DUP2 MSTORE PUSH1 0x2 PUSH1 0x20 SWAP1 DUP2 MSTORE PUSH1 0x40 DUP1 DUP4 KECCAK256 DUP5 DUP5 MSTORE DUP3 MSTORE SWAP2 DUP3 SWAP1 KECCAK256 DUP3 MLOAD DUP1 DUP5 ADD SWAP1 SWAP4 MSTORE DUP1 SLOAD DUP4 MSTORE PUSH1 0x1 ADD SLOAD SWAP1 DUP3 ADD MSTORE DUP3 MLOAD DUP4 SWAP1 DUP4 SWAP1 DUP2 LT PUSH2 0x7E4 JUMPI PUSH2 0x7E4 PUSH2 0x1205 JUMP JUMPDEST PUSH1 0x20 MUL PUSH1 0x20 ADD ADD DUP2 SWAP1 MSTORE POP DUP1 DUP1 PUSH2 0x7FA SWAP1 PUSH2 0x1231 JUMP JUMPDEST SWAP2 POP POP PUSH2 0x78F JUMP JUMPDEST POP SWAP2 SWAP1 POP JUMP JUMPDEST PUSH1 0x1 PUSH1 0x1 PUSH1 0xA0 SHL SUB DUP2 AND PUSH1 0x0 SWAP1 DUP2 MSTORE PUSH1 0x1 PUSH1 0x20 MSTORE PUSH1 0x40 SWAP1 KECCAK256 SLOAD DUP2 SWAP1 PUSH1 0x1 PUSH1 0xA8 SHL SWAP1 DIV PUSH1 0xFF AND PUSH2 0x849 JUMPI PUSH1 0x40 MLOAD PUSH3 0x461BCD PUSH1 0xE5 SHL DUP2 MSTORE PUSH1 0x4 ADD PUSH2 0x383 SWAP1 PUSH2 0x124A JUMP JUMPDEST PUSH1 0x40 MLOAD PUSH4 0x41976E09 PUSH1 0xE0 SHL DUP2 MSTORE PUSH1 0x1 PUSH1 0x1 PUSH1 0xA0 SHL SUB DUP4 AND PUSH1 0x4 DUP3 ADD MSTORE PUSH1 0x0 SWAP1 ADDRESS SWAP1 PUSH4 0x41976E09 SWAP1 PUSH1 0x24 ADD PUSH1 0x20 PUSH1 0x40 MLOAD DUP1 DUP4 SUB DUP2 DUP7 GAS STATICCALL ISZERO DUP1 ISZERO PUSH2 0x890 JUMPI RETURNDATASIZE PUSH1 0x0 DUP1 RETURNDATACOPY RETURNDATASIZE PUSH1 0x0 REVERT JUMPDEST POP POP POP POP PUSH1 0x40 MLOAD RETURNDATASIZE PUSH1 0x1F NOT PUSH1 0x1F DUP3 ADD AND DUP3 ADD DUP1 PUSH1 0x40 MSTORE POP DUP2 ADD SWAP1 PUSH2 0x8B4 SWAP2 SWAP1 PUSH2 0x12FC JUMP JUMPDEST PUSH1 0x1 PUSH1 0x1 PUSH1 0xA0 SHL SUB DUP5 AND PUSH1 0x0 DUP2 DUP2 MSTORE PUSH1 0x3 PUSH1 0x20 SWAP1 DUP2 MSTORE PUSH1 0x40 DUP1 DUP4 KECCAK256 SLOAD DUP2 MLOAD DUP1 DUP4 ADD DUP4 MSTORE DUP7 DUP2 MSTORE TIMESTAMP DUP2 DUP6 ADD SWAP1 DUP2 MSTORE SWAP6 DUP6 MSTORE PUSH1 0x2 DUP5 MSTORE DUP3 DUP6 KECCAK256 DUP3 DUP7 MSTORE SWAP1 SWAP4 MSTORE SWAP3 KECCAK256 SWAP1 MLOAD DUP2 SSTORE SWAP2 MLOAD PUSH1 0x1 SWAP3 DUP4 ADD SSTORE SWAP2 SWAP3 POP PUSH1 0xA SWAP1 PUSH2 0x910 SWAP1 DUP4 SWAP1 PUSH2 0x1315 JUMP JUMPDEST PUSH2 0x91A SWAP2 SWAP1 PUSH2 0x133E JUMP JUMPDEST PUSH1 0x1 PUSH1 0x1 PUSH1 0xA0 SHL SUB DUP6 AND PUSH1 0x0 DUP2 DUP2 MSTORE PUSH1 0x3 PUSH1 0x20 SWAP1 DUP2 MSTORE PUSH1 0x40 DUP1 DUP4 KECCAK256 SWAP5 SWAP1 SWAP5 SSTORE PUSH1 0x1 SWAP1 DUP2 SWAP1 MSTORE SWAP1 DUP4 SWAP1 KECCAK256 SWAP1 DUP2 ADD DUP6 SWAP1 SSTORE TIMESTAMP PUSH1 0x2 SWAP1 SWAP2 ADD SSTORE SWAP1 MLOAD PUSH32 0xD86730737B142FC160892FA8A0F2DB687A92A0E294D1AD70624CF5ACEF03B84 SWAP1 PUSH2 0x981 SWAP1 DUP6 DUP2 MSTORE PUSH1 0x20 ADD SWAP1 JUMP JUMPDEST PUSH1 0x40 MLOAD DUP1 SWAP2 SUB SWAP1 LOG2 POP POP POP POP JUMP JUMPDEST PUSH1 0x40 MLOAD PUSH4 0x41976E09 PUSH1 0xE0 SHL DUP2 MSTORE PUSH1 0x1 PUSH1 0x1 PUSH1 0xA0 SHL SUB DUP4 AND PUSH1 0x4 DUP3 ADD MSTORE PUSH1 0x0 SWAP1 DUP2 SWAP1 ADDRESS SWAP1 PUSH4 0x41976E09 SWAP1 PUSH1 0x24 ADD PUSH1 0x20 PUSH1 0x40 MLOAD DUP1 DUP4 SUB DUP2 DUP7 GAS STATICCALL ISZERO DUP1 ISZERO PUSH2 0x9D8 JUMPI RETURNDATASIZE PUSH1 0x0 DUP1 RETURNDATACOPY RETURNDATASIZE PUSH1 0x0 REVERT JUMPDEST POP POP POP POP PUSH1 0x40 MLOAD RETURNDATASIZE PUSH1 0x1F NOT PUSH1 0x1F DUP3 ADD AND DUP3 ADD DUP1 PUSH1 0x40 MSTORE POP DUP2 ADD SWAP1 PUSH2 0x9FC SWAP2 SWAP1 PUSH2 0x12FC JUMP JUMPDEST PUSH1 0x40 MLOAD PUSH4 0x41976E09 PUSH1 0xE0 SHL DUP2 MSTORE PUSH1 0x1 PUSH1 0x1 PUSH1 0xA0 SHL SUB DUP6 AND PUSH1 0x4 DUP3 ADD MSTORE SWAP1 SWAP2 POP PUSH1 0x0 SWAP1 ADDRESS SWAP1 PUSH4 0x41976E09 SWAP1 PUSH1 0x24 ADD PUSH1 0x20 PUSH1 0x40 MLOAD DUP1 DUP4 SUB DUP2 DUP7 GAS STATICCALL ISZERO DUP1 ISZERO PUSH2 0xA46 JUMPI RETURNDATASIZE PUSH1 0x0 DUP1 RETURNDATACOPY RETURNDATASIZE PUSH1 0x0 REVERT JUMPDEST POP POP POP POP PUSH1 0x40 MLOAD RETURNDATASIZE PUSH1 0x1F NOT PUSH1 0x1F DUP3 ADD AND DUP3 ADD DUP1 PUSH1 0x40 MSTORE POP DUP2 ADD SWAP1 PUSH2 0xA6A SWAP2 SWAP1 PUSH2 0x12FC JUMP JUMPDEST SWAP1 POP PUSH1 0x0 DUP2 GT PUSH2 0xABC JUMPI PUSH1 0x40 MLOAD PUSH3 0x461BCD PUSH1 0xE5 SHL DUP2 MSTORE PUSH1 0x20 PUSH1 0x4 DUP3 ADD MSTORE PUSH1 0x1A PUSH1 0x24 DUP3 ADD MSTORE PUSH32 0x51756F74652070726963652063616E6E6F74206265207A65726F000000000000 PUSH1 0x44 DUP3 ADD MSTORE PUSH1 0x64 ADD PUSH2 0x383 JUMP JUMPDEST DUP1 PUSH2 0xACF PUSH8 0xDE0B6B3A7640000 DUP5 PUSH2 0x1352 JUMP JUMPDEST PUSH2 0x55E SWAP2 SWAP1 PUSH2 0x1369 JUMP JUMPDEST PUSH2 0xAE1 PUSH2 0xE4F JUMP JUMPDEST PUSH1 0x1 PUSH1 0x1 PUSH1 0xA0 SHL SUB DUP2 AND PUSH2 0xB46 JUMPI PUSH1 0x40 MLOAD PUSH3 0x461BCD PUSH1 0xE5 SHL DUP2 MSTORE PUSH1 0x20 PUSH1 0x4 DUP3 ADD MSTORE PUSH1 0x26 PUSH1 0x24 DUP3 ADD MSTORE PUSH32 0x4F776E61626C653A206E6577206F776E657220697320746865207A65726F2061 PUSH1 0x44 DUP3 ADD MSTORE PUSH6 0x646472657373 PUSH1 0xD0 SHL PUSH1 0x64 DUP3 ADD MSTORE PUSH1 0x84 ADD PUSH2 0x383 JUMP JUMPDEST PUSH2 0xB4F DUP2 PUSH2 0x1007 JUMP JUMPDEST POP JUMP JUMPDEST PUSH2 0xB5A PUSH2 0xE4F JUMP JUMPDEST DUP3 PUSH1 0x1 PUSH1 0x1 PUSH1 0xA0 SHL SUB DUP2 AND PUSH2 0xBA3 JUMPI PUSH1 0x40 MLOAD PUSH3 0x461BCD PUSH1 0xE5 SHL DUP2 MSTORE PUSH1 0x20 PUSH1 0x4 DUP3 ADD MSTORE PUSH1 0xF PUSH1 0x24 DUP3 ADD MSTORE PUSH15 0x496E76616C69642061646472657373 PUSH1 0x88 SHL PUSH1 0x44 DUP3 ADD MSTORE PUSH1 0x64 ADD PUSH2 0x383 JUMP JUMPDEST DUP3 PUSH1 0x1 PUSH1 0x1 PUSH1 0xA0 SHL SUB DUP2 AND PUSH2 0xBEC JUMPI PUSH1 0x40 MLOAD PUSH3 0x461BCD PUSH1 0xE5 SHL DUP2 MSTORE PUSH1 0x20 PUSH1 0x4 DUP3 ADD MSTORE PUSH1 0xF PUSH1 0x24 DUP3 ADD MSTORE PUSH15 0x496E76616C69642061646472657373 PUSH1 0x88 SHL PUSH1 0x44 DUP3 ADD MSTORE PUSH1 0x64 ADD PUSH2 0x383 JUMP JUMPDEST PUSH1 0x40 MLOAD DUP1 PUSH1 0xA0 ADD PUSH1 0x40 MSTORE DUP1 DUP6 PUSH1 0x1 PUSH1 0x1 PUSH1 0xA0 SHL SUB AND DUP2 MSTORE PUSH1 0x20 ADD DUP5 PUSH1 0xFF AND DUP2 MSTORE PUSH1 0x20 ADD PUSH1 0x1 ISZERO ISZERO DUP2 MSTORE PUSH1 0x20 ADD PUSH1 0x0 DUP2 MSTORE PUSH1 0x20 ADD PUSH1 0x0 DUP2 MSTORE POP PUSH1 0x1 PUSH1 0x0 DUP8 PUSH1 0x1 PUSH1 0x1 PUSH1 0xA0 SHL SUB AND PUSH1 0x1 PUSH1 0x1 PUSH1 0xA0 SHL SUB AND DUP2 MSTORE PUSH1 0x20 ADD SWAP1 DUP2 MSTORE PUSH1 0x20 ADD PUSH1 0x0 KECCAK256 PUSH1 0x0 DUP3 ADD MLOAD DUP2 PUSH1 0x0 ADD PUSH1 0x0 PUSH2 0x100 EXP DUP2 SLOAD DUP2 PUSH1 0x1 PUSH1 0x1 PUSH1 0xA0 SHL SUB MUL NOT AND SWAP1 DUP4 PUSH1 0x1 PUSH1 0x1 PUSH1 0xA0 SHL SUB AND MUL OR SWAP1 SSTORE POP PUSH1 0x20 DUP3 ADD MLOAD DUP2 PUSH1 0x0 ADD PUSH1 0x14 PUSH2 0x100 EXP DUP2 SLOAD DUP2 PUSH1 0xFF MUL NOT AND SWAP1 DUP4 PUSH1 0xFF AND MUL OR SWAP1 SSTORE POP PUSH1 0x40 DUP3 ADD MLOAD DUP2 PUSH1 0x0 ADD PUSH1 0x15 PUSH2 0x100 EXP DUP2 SLOAD DUP2 PUSH1 0xFF MUL NOT AND SWAP1 DUP4 ISZERO ISZERO MUL OR SWAP1 SSTORE POP PUSH1 0x60 DUP3 ADD MLOAD DUP2 PUSH1 0x1 ADD SSTORE PUSH1 0x80 DUP3 ADD MLOAD DUP2 PUSH1 0x2 ADD SSTORE SWAP1 POP POP DUP4 PUSH1 0x1 PUSH1 0x1 PUSH1 0xA0 SHL SUB AND DUP6 PUSH1 0x1 PUSH1 0x1 PUSH1 0xA0 SHL SUB AND PUSH32 0xA8ABE0398416476DB5B05737CD4DA3B3CBDE5012D978A6A6C3FD49D321753536 PUSH1 0x40 MLOAD PUSH1 0x40 MLOAD DUP1 SWAP2 SUB SWAP1 LOG3 POP POP POP POP POP JUMP JUMPDEST PUSH1 0x1 PUSH1 0x1 PUSH1 0xA0 SHL SUB DUP2 AND PUSH1 0x0 SWAP1 DUP2 MSTORE PUSH1 0x1 PUSH1 0x20 MSTORE PUSH1 0x40 DUP2 KECCAK256 SLOAD DUP3 SWAP1 PUSH1 0x1 PUSH1 0xA8 SHL SWAP1 DIV PUSH1 0xFF AND PUSH2 0xD56 JUMPI PUSH1 0x40 MLOAD PUSH3 0x461BCD PUSH1 0xE5 SHL DUP2 MSTORE PUSH1 0x4 ADD PUSH2 0x383 SWAP1 PUSH2 0x124A JUMP JUMPDEST PUSH1 0x40 MLOAD PUSH4 0x41976E09 PUSH1 0xE0 SHL DUP2 MSTORE PUSH1 0x1 PUSH1 0x1 PUSH1 0xA0 SHL SUB DUP5 AND PUSH1 0x4 DUP3 ADD MSTORE PUSH1 0x0 SWAP1 ADDRESS SWAP1 PUSH4 0x41976E09 SWAP1 PUSH1 0x24 ADD PUSH1 0x20 PUSH1 0x40 MLOAD DUP1 DUP4 SUB DUP2 DUP7 GAS STATICCALL ISZERO DUP1 ISZERO PUSH2 0xD9D JUMPI RETURNDATASIZE PUSH1 0x0 DUP1 RETURNDATACOPY RETURNDATASIZE PUSH1 0x0 REVERT JUMPDEST POP POP POP POP PUSH1 0x40 MLOAD RETURNDATASIZE PUSH1 0x1F NOT PUSH1 0x1F DUP3 ADD AND DUP3 ADD DUP1 PUSH1 0x40 MSTORE POP DUP2 ADD SWAP1 PUSH2 0xDC1 SWAP2 SWAP1 PUSH2 0x12FC JUMP JUMPDEST PUSH1 0x1 PUSH1 0x1 PUSH1 0xA0 SHL SUB DUP6 AND PUSH1 0x0 SWAP1 DUP2 MSTORE PUSH1 0x1 PUSH1 0x20 DUP2 SWAP1 MSTORE PUSH1 0x40 DUP3 KECCAK256 ADD SLOAD SWAP2 SWAP3 POP DUP2 SWAP1 SUB PUSH2 0xDF2 JUMPI PUSH1 0x0 SWAP4 POP POP POP PUSH2 0x802 JUMP JUMPDEST DUP1 DUP3 GT ISZERO PUSH2 0xE29 JUMPI DUP1 PUSH8 0xDE0B6B3A7640000 PUSH2 0xE0E DUP3 DUP6 PUSH2 0x12E3 JUMP JUMPDEST PUSH2 0xE18 SWAP2 SWAP1 PUSH2 0x1352 JUMP JUMPDEST PUSH2 0xE22 SWAP2 SWAP1 PUSH2 0x1369 JUMP JUMPDEST SWAP4 POP PUSH2 0xE47 JUMP JUMPDEST DUP1 PUSH8 0xDE0B6B3A7640000 PUSH2 0xE3D DUP5 DUP4 PUSH2 0x12E3 JUMP JUMPDEST PUSH2 0xACF SWAP2 SWAP1 PUSH2 0x1352 JUMP JUMPDEST POP POP POP SWAP2 SWAP1 POP JUMP JUMPDEST PUSH1 0x0 SLOAD PUSH1 0x1 PUSH1 0x1 PUSH1 0xA0 SHL SUB AND CALLER EQ PUSH2 0x748 JUMPI PUSH1 0x40 MLOAD PUSH3 0x461BCD PUSH1 0xE5 SHL DUP2 MSTORE PUSH1 0x20 PUSH1 0x4 DUP3 ADD DUP2 SWAP1 MSTORE PUSH1 0x24 DUP3 ADD MSTORE PUSH32 0x4F776E61626C653A2063616C6C6572206973206E6F7420746865206F776E6572 PUSH1 0x44 DUP3 ADD MSTORE PUSH1 0x64 ADD PUSH2 0x383 JUMP JUMPDEST DUP1 MLOAD PUSH1 0x0 SWAP1 PUSH1 0x2 DUP2 LT ISZERO PUSH2 0xEC0 JUMPI POP PUSH1 0x0 SWAP3 SWAP2 POP POP JUMP JUMPDEST PUSH1 0x0 DUP1 JUMPDEST DUP3 DUP2 LT ISZERO PUSH2 0xF05 JUMPI DUP5 DUP2 DUP2 MLOAD DUP2 LT PUSH2 0xEDE JUMPI PUSH2 0xEDE PUSH2 0x1205 JUMP JUMPDEST PUSH1 0x20 MUL PUSH1 0x20 ADD ADD MLOAD DUP3 PUSH2 0xEF1 SWAP2 SWAP1 PUSH2 0x1315 JUMP JUMPDEST SWAP2 POP DUP1 PUSH2 0xEFD DUP2 PUSH2 0x1231 JUMP JUMPDEST SWAP2 POP POP PUSH2 0xEC4 JUMP JUMPDEST POP PUSH1 0x0 PUSH2 0xF12 DUP4 DUP4 PUSH2 0x1369 JUMP JUMPDEST SWAP1 POP PUSH1 0x0 DUP1 JUMPDEST DUP5 DUP2 LT ISZERO PUSH2 0xFC8 JUMPI PUSH1 0x0 DUP4 DUP9 DUP4 DUP2 MLOAD DUP2 LT PUSH2 0xF35 JUMPI PUSH2 0xF35 PUSH2 0x1205 JUMP JUMPDEST PUSH1 0x20 MUL PUSH1 0x20 ADD ADD MLOAD GT PUSH2 0xF6C JUMPI DUP8 DUP3 DUP2 MLOAD DUP2 LT PUSH2 0xF54 JUMPI PUSH2 0xF54 PUSH2 0x1205 JUMP JUMPDEST PUSH1 0x20 MUL PUSH1 0x20 ADD ADD MLOAD DUP5 PUSH2 0xF67 SWAP2 SWAP1 PUSH2 0x12E3 JUMP JUMPDEST PUSH2 0xF91 JUMP JUMPDEST DUP4 DUP9 DUP4 DUP2 MLOAD DUP2 LT PUSH2 0xF7F JUMPI PUSH2 0xF7F PUSH2 0x1205 JUMP JUMPDEST PUSH1 0x20 MUL PUSH1 0x20 ADD ADD MLOAD PUSH2 0xF91 SWAP2 SWAP1 PUSH2 0x12E3 JUMP JUMPDEST SWAP1 POP DUP6 PUSH2 0xF9E DUP3 DUP1 PUSH2 0x1352 JUMP JUMPDEST PUSH2 0xFA8 SWAP2 SWAP1 PUSH2 0x1369 JUMP JUMPDEST PUSH2 0xFB2 SWAP1 DUP5 PUSH2 0x1315 JUMP JUMPDEST SWAP3 POP POP DUP1 DUP1 PUSH2 0xFC0 SWAP1 PUSH2 0x1231 JUMP JUMPDEST SWAP2 POP POP PUSH2 0xF18 JUMP JUMPDEST POP PUSH2 0x72C DUP2 PUSH2 0x1057 JUMP JUMPDEST PUSH1 0x0 DUP1 PUSH2 0xFE0 DUP4 PUSH1 0xA PUSH2 0x1461 JUMP JUMPDEST SWAP1 POP DUP1 PUSH2 0xFF5 PUSH8 0xDE0B6B3A7640000 DUP7 PUSH2 0x1352 JUMP JUMPDEST PUSH2 0xFFF SWAP2 SWAP1 PUSH2 0x1369 JUMP JUMPDEST SWAP5 SWAP4 POP POP POP POP JUMP JUMPDEST PUSH1 0x0 DUP1 SLOAD PUSH1 0x1 PUSH1 0x1 PUSH1 0xA0 SHL SUB DUP4 DUP2 AND PUSH1 0x1 PUSH1 0x1 PUSH1 0xA0 SHL SUB NOT DUP4 AND DUP2 OR DUP5 SSTORE PUSH1 0x40 MLOAD SWAP2 SWAP1 SWAP3 AND SWAP3 DUP4 SWAP2 PUSH32 0x8BE0079C531659141344CD1FD0A4F28419497F9722A3DAAFE3B4186F6B6457E0 SWAP2 SWAP1 LOG3 POP POP JUMP JUMPDEST PUSH1 0x0 DUP2 PUSH1 0x0 SUB PUSH2 0x1069 JUMPI POP PUSH1 0x0 SWAP2 SWAP1 POP JUMP JUMPDEST PUSH1 0x0 PUSH1 0x2 PUSH2 0x1078 DUP5 PUSH1 0x1 PUSH2 0x1315 JUMP JUMPDEST PUSH2 0x1082 SWAP2 SWAP1 PUSH2 0x1369 JUMP JUMPDEST SWAP1 POP DUP3 JUMPDEST DUP1 DUP3 LT ISZERO PUSH2 0x10B8 JUMPI POP DUP1 PUSH1 0x2 DUP2 PUSH2 0x109D DUP2 DUP8 PUSH2 0x1369 JUMP JUMPDEST PUSH2 0x10A7 SWAP2 SWAP1 PUSH2 0x1315 JUMP JUMPDEST PUSH2 0x10B1 SWAP2 SWAP1 PUSH2 0x1369 JUMP JUMPDEST SWAP2 POP PUSH2 0x1086 JUMP JUMPDEST SWAP4 SWAP3 POP POP POP JUMP JUMPDEST DUP1 CALLDATALOAD PUSH1 0x1 PUSH1 0x1 PUSH1 0xA0 SHL SUB DUP2 AND DUP2 EQ PUSH2 0x10D6 JUMPI PUSH1 0x0 DUP1 REVERT JUMPDEST SWAP2 SWAP1 POP JUMP JUMPDEST PUSH1 0x0 DUP1 PUSH1 0x40 DUP4 DUP6 SUB SLT ISZERO PUSH2 0x10EE JUMPI PUSH1 0x0 DUP1 REVERT JUMPDEST PUSH2 0x10F7 DUP4 PUSH2 0x10BF JUMP JUMPDEST SWAP5 PUSH1 0x20 SWAP4 SWAP1 SWAP4 ADD CALLDATALOAD SWAP4 POP POP POP JUMP JUMPDEST PUSH1 0x0 PUSH1 0x20 DUP3 DUP5 SUB SLT ISZERO PUSH2 0x1117 JUMPI PUSH1 0x0 DUP1 REVERT JUMPDEST PUSH2 0x10B8 DUP3 PUSH2 0x10BF JUMP JUMPDEST PUSH1 0x20 DUP1 DUP3 MSTORE DUP3 MLOAD DUP3 DUP3 ADD DUP2 SWAP1 MSTORE PUSH1 0x0 SWAP2 SWAP1 PUSH1 0x40 SWAP1 DUP2 DUP6 ADD SWAP1 DUP7 DUP5 ADD DUP6 JUMPDEST DUP3 DUP2 LT ISZERO PUSH2 0x1162 JUMPI DUP2 MLOAD DUP1 MLOAD DUP6 MSTORE DUP7 ADD MLOAD DUP7 DUP6 ADD MSTORE SWAP3 DUP5 ADD SWAP3 SWAP1 DUP6 ADD SWAP1 PUSH1 0x1 ADD PUSH2 0x113D JUMP JUMPDEST POP SWAP2 SWAP8 SWAP7 POP POP POP POP POP POP POP JUMP JUMPDEST PUSH1 0x0 DUP1 PUSH1 0x40 DUP4 DUP6 SUB SLT ISZERO PUSH2 0x1182 JUMPI PUSH1 0x0 DUP1 REVERT JUMPDEST PUSH2 0x118B DUP4 PUSH2 0x10BF JUMP JUMPDEST SWAP2 POP PUSH2 0x1199 PUSH1 0x20 DUP5 ADD PUSH2 0x10BF JUMP JUMPDEST SWAP1 POP SWAP3 POP SWAP3 SWAP1 POP JUMP JUMPDEST PUSH1 0x0 DUP1 PUSH1 0x0 PUSH1 0x60 DUP5 DUP7 SUB SLT ISZERO PUSH2 0x11B7 JUMPI PUSH1 0x0 DUP1 REVERT JUMPDEST PUSH2 0x11C0 DUP5 PUSH2 0x10BF JUMP JUMPDEST SWAP3 POP PUSH2 0x11CE PUSH1 0x20 DUP6 ADD PUSH2 0x10BF JUMP JUMPDEST SWAP2 POP PUSH1 0x40 DUP5 ADD CALLDATALOAD PUSH1 0xFF DUP2 AND DUP2 EQ PUSH2 0x11E4 JUMPI PUSH1 0x0 DUP1 REVERT JUMPDEST DUP1 SWAP2 POP POP SWAP3 POP SWAP3 POP SWAP3 JUMP JUMPDEST PUSH4 0x4E487B71 PUSH1 0xE0 SHL PUSH1 0x0 MSTORE PUSH1 0x41 PUSH1 0x4 MSTORE PUSH1 0x24 PUSH1 0x0 REVERT JUMPDEST PUSH4 0x4E487B71 PUSH1 0xE0 SHL PUSH1 0x0 MSTORE PUSH1 0x32 PUSH1 0x4 MSTORE PUSH1 0x24 PUSH1 0x0 REVERT JUMPDEST PUSH4 0x4E487B71 PUSH1 0xE0 SHL PUSH1 0x0 MSTORE PUSH1 0x11 PUSH1 0x4 MSTORE PUSH1 0x24 PUSH1 0x0 REVERT JUMPDEST PUSH1 0x0 PUSH1 0x1 DUP3 ADD PUSH2 0x1243 JUMPI PUSH2 0x1243 PUSH2 0x121B JUMP JUMPDEST POP PUSH1 0x1 ADD SWAP1 JUMP JUMPDEST PUSH1 0x20 DUP1 DUP3 MSTORE PUSH1 0x15 SWAP1 DUP3 ADD MSTORE PUSH21 0x50726963652066656564206E6F7420616374697665 PUSH1 0x58 SHL PUSH1 0x40 DUP3 ADD MSTORE PUSH1 0x60 ADD SWAP1 JUMP JUMPDEST DUP1 MLOAD PUSH10 0xFFFFFFFFFFFFFFFFFFFF DUP2 AND DUP2 EQ PUSH2 0x10D6 JUMPI PUSH1 0x0 DUP1 REVERT JUMPDEST PUSH1 0x0 DUP1 PUSH1 0x0 DUP1 PUSH1 0x0 PUSH1 0xA0 DUP7 DUP9 SUB SLT ISZERO PUSH2 0x12AB JUMPI PUSH1 0x0 DUP1 REVERT JUMPDEST PUSH2 0x12B4 DUP7 PUSH2 0x1279 JUMP JUMPDEST SWAP5 POP PUSH1 0x20 DUP7 ADD MLOAD SWAP4 POP PUSH1 0x40 DUP7 ADD MLOAD SWAP3 POP PUSH1 0x60 DUP7 ADD MLOAD SWAP2 POP PUSH2 0x12D7 PUSH1 0x80 DUP8 ADD PUSH2 0x1279 JUMP JUMPDEST SWAP1 POP SWAP3 SWAP6 POP SWAP3 SWAP6 SWAP1 SWAP4 POP JUMP JUMPDEST DUP2 DUP2 SUB DUP2 DUP2 GT ISZERO PUSH2 0x12F6 JUMPI PUSH2 0x12F6 PUSH2 0x121B JUMP JUMPDEST SWAP3 SWAP2 POP POP JUMP JUMPDEST PUSH1 0x0 PUSH1 0x20 DUP3 DUP5 SUB SLT ISZERO PUSH2 0x130E JUMPI PUSH1 0x0 DUP1 REVERT JUMPDEST POP MLOAD SWAP2 SWAP1 POP JUMP JUMPDEST DUP1 DUP3 ADD DUP1 DUP3 GT ISZERO PUSH2 0x12F6 JUMPI PUSH2 0x12F6 PUSH2 0x121B JUMP JUMPDEST PUSH4 0x4E487B71 PUSH1 0xE0 SHL PUSH1 0x0 MSTORE PUSH1 0x12 PUSH1 0x4 MSTORE PUSH1 0x24 PUSH1 0x0 REVERT JUMPDEST PUSH1 0x0 DUP3 PUSH2 0x134D JUMPI PUSH2 0x134D PUSH2 0x1328 JUMP JUMPDEST POP MOD SWAP1 JUMP JUMPDEST DUP1 DUP3 MUL DUP2 ISZERO DUP3 DUP3 DIV DUP5 EQ OR PUSH2 0x12F6 JUMPI PUSH2 0x12F6 PUSH2 0x121B JUMP JUMPDEST PUSH1 0x0 DUP3 PUSH2 0x1378 JUMPI PUSH2 0x1378 PUSH2 0x1328 JUMP JUMPDEST POP DIV SWAP1 JUMP JUMPDEST PUSH1 0x1 DUP2 DUP2 JUMPDEST DUP1 DUP6 GT ISZERO PUSH2 0x13B8 JUMPI DUP2 PUSH1 0x0 NOT DIV DUP3 GT ISZERO PUSH2 0x139E JUMPI PUSH2 0x139E PUSH2 0x121B JUMP JUMPDEST DUP1 DUP6 AND ISZERO PUSH2 0x13AB JUMPI SWAP2 DUP2 MUL SWAP2 JUMPDEST SWAP4 DUP5 SHR SWAP4 SWAP1 DUP1 MUL SWAP1 PUSH2 0x1382 JUMP JUMPDEST POP SWAP3 POP SWAP3 SWAP1 POP JUMP JUMPDEST PUSH1 0x0 DUP3 PUSH2 0x13CF JUMPI POP PUSH1 0x1 PUSH2 0x12F6 JUMP JUMPDEST DUP2 PUSH2 0x13DC JUMPI POP PUSH1 0x0 PUSH2 0x12F6 JUMP JUMPDEST DUP2 PUSH1 0x1 DUP2 EQ PUSH2 0x13F2 JUMPI PUSH1 0x2 DUP2 EQ PUSH2 0x13FC JUMPI PUSH2 0x1418 JUMP JUMPDEST PUSH1 0x1 SWAP2 POP POP PUSH2 0x12F6 JUMP JUMPDEST PUSH1 0xFF DUP5 GT ISZERO PUSH2 0x140D JUMPI PUSH2 0x140D PUSH2 0x121B JUMP JUMPDEST POP POP PUSH1 0x1 DUP3 SHL PUSH2 0x12F6 JUMP JUMPDEST POP PUSH1 0x20 DUP4 LT PUSH2 0x133 DUP4 LT AND PUSH1 0x4E DUP5 LT PUSH1 0xB DUP5 LT AND OR ISZERO PUSH2 0x143B JUMPI POP DUP2 DUP2 EXP PUSH2 0x12F6 JUMP JUMPDEST PUSH2 0x1445 DUP4 DUP4 PUSH2 0x137D JUMP JUMPDEST DUP1 PUSH1 0x0 NOT DIV DUP3 GT ISZERO PUSH2 0x1459 JUMPI PUSH2 0x1459 PUSH2 0x121B JUMP JUMPDEST MUL SWAP4 SWAP3 POP POP POP JUMP JUMPDEST PUSH1 0x0 PUSH2 0x10B8 PUSH1 0xFF DUP5 AND DUP4 PUSH2 0x13C0 JUMP INVALID LOG2 PUSH5 0x6970667358 0x22 SLT KECCAK256 BASEFEE JUMPI 0xE6 0xD1 0xC6 SLOAD PUSH20 0x49C66868363D336054EBB3B3BCE7D1D6C2BB96A6 SWAP2 0xEC SLOAD PUSH16 0x6964736F6C6343000813003300000000 "},"methodIdentifiers":{"HISTORY_SIZE()":"652c462e","MAX_PRICE_AGE()":"9d7f7e86","PRECISION()":"aaf5eb68","currentPriceIndex(address)":"2685e434","deactivatePriceFeed(address)":"1a68f75f","getExchangeRate(address,address)":"baaa61be","getHistoricalPrices(address)":"8998ecdc","getPrice(address)":"41976e09","getPriceDeviation(address)":"fe193e14","getVolatility(address)":"3029cafc","historicalPrices(address,uint256)":"15b42e5e","owner()":"8da5cb5b","priceFeeds(address)":"9dcb511a","renounceOwnership()":"715018a6","setPriceFeed(address,address,uint8)":"fd4690b6","transferOwnership(address)":"f2fde38b","updatePriceHistory(address)":"9e7a4dc5"}}}}}