{"contracts/lending/CollateralManager.sol":{"CollateralManager":{"abi":[{"inputs":[{"internalType":"address","name":"_oracle","type":"address"},{"internalType":"address","name":"_debtToken","type":"address"},{"internalType":"uint256","name":"_liquidationThreshold","type":"uint256"},{"internalType":"uint256","name":"_liquidationBonus","type":"uint256"}],"stateMutability":"nonpayable","type":"constructor"},{"anonymous":false,"inputs":[{"indexed":true,"internalType":"address","name":"user","type":"address"},{"indexed":true,"internalType":"address","name":"token","type":"address"},{"indexed":false,"internalType":"uint256","name":"amount","type":"uint256"}],"name":"CollateralAdded","type":"event"},{"anonymous":false,"inputs":[{"indexed":true,"internalType":"address","name":"user","type":"address"},{"indexed":true,"internalType":"address","name":"token","type":"address"},{"indexed":false,"internalType":"uint256","name":"amount","type":"uint256"}],"name":"CollateralRemoved","type":"event"},{"anonymous":false,"inputs":[{"indexed":true,"internalType":"address","name":"token","type":"address"},{"indexed":false,"internalType":"bool","name":"status","type":"bool"}],"name":"CollateralTokenStatusUpdated","type":"event"},{"anonymous":false,"inputs":[{"indexed":false,"internalType":"uint256","name":"newBonus","type":"uint256"}],"name":"LiquidationBonusUpdated","type":"event"},{"anonymous":false,"inputs":[{"indexed":true,"internalType":"address","name":"borrower","type":"address"},{"indexed":true,"internalType":"address","name":"liquidator","type":"address"},{"indexed":true,"internalType":"address","name":"repayToken","type":"address"},{"indexed":false,"internalType":"uint256","name":"repayAmount","type":"uint256"},{"indexed":false,"internalType":"address","name":"collateralToken","type":"address"},{"indexed":false,"internalType":"uint256","name":"collateralSeized","type":"uint256"}],"name":"LiquidationExecuted","type":"event"},{"anonymous":false,"inputs":[{"indexed":false,"internalType":"uint256","name":"newThreshold","type":"uint256"}],"name":"LiquidationThresholdUpdated","type":"event"},{"anonymous":false,"inputs":[{"indexed":true,"internalType":"address","name":"previousOwner","type":"address"},{"indexed":true,"internalType":"address","name":"newOwner","type":"address"}],"name":"OwnershipTransferred","type":"event"},{"inputs":[],"name":"BPS_DIVISOR","outputs":[{"internalType":"uint256","name":"","type":"uint256"}],"stateMutability":"view","type":"function"},{"inputs":[],"name":"PRECISION","outputs":[{"internalType":"uint256","name":"","type":"uint256"}],"stateMutability":"view","type":"function"},{"inputs":[{"internalType":"address","name":"token","type":"address"},{"internalType":"uint256","name":"amount","type":"uint256"}],"name":"addCollateral","outputs":[],"stateMutability":"payable","type":"function"},{"inputs":[{"internalType":"address","name":"","type":"address"}],"name":"approvedCollateralTokens","outputs":[{"internalType":"bool","name":"","type":"bool"}],"stateMutability":"view","type":"function"},{"inputs":[],"name":"debtToken","outputs":[{"internalType":"contract DebtToken","name":"","type":"address"}],"stateMutability":"view","type":"function"},{"inputs":[{"internalType":"address","name":"user","type":"address"},{"internalType":"address","name":"token","type":"address"},{"internalType":"address","name":"denomToken","type":"address"}],"name":"getCollateralValue","outputs":[{"internalType":"uint256","name":"","type":"uint256"}],"stateMutability":"view","type":"function"},{"inputs":[{"internalType":"address","name":"user","type":"address"},{"internalType":"address","name":"borrowToken","type":"address"}],"name":"getHealthFactor","outputs":[{"internalType":"uint256","name":"","type":"uint256"}],"stateMutability":"view","type":"function"},{"inputs":[{"internalType":"address","name":"user","type":"address"},{"internalType":"address","name":"borrowToken","type":"address"},{"internalType":"address[]","name":"collateralTokens","type":"address[]"}],"name":"getHealthFactorForTokens","outputs":[{"internalType":"uint256","name":"","type":"uint256"}],"stateMutability":"view","type":"function"},{"inputs":[{"internalType":"address","name":"user","type":"address"},{"internalType":"address","name":"denomToken","type":"address"}],"name":"getTotalCollateralValue","outputs":[{"internalType":"uint256","name":"","type":"uint256"}],"stateMutability":"view","type":"function"},{"inputs":[{"internalType":"address","name":"user","type":"address"},{"internalType":"address[]","name":"tokens","type":"address[]"},{"internalType":"address","name":"denomToken","type":"address"}],"name":"getTotalCollateralValueForTokens","outputs":[{"internalType":"uint256","name":"","type":"uint256"}],"stateMutability":"view","type":"function"},{"inputs":[{"internalType":"address","name":"user","type":"address"}],"name":"getUserCollateralTokens","outputs":[{"internalType":"address[]","name":"tokens","type":"address[]"},{"internalType":"uint256[]","name":"amounts","type":"uint256[]"}],"stateMutability":"view","type":"function"},{"inputs":[{"internalType":"address","name":"user","type":"address"},{"internalType":"address[]","name":"tokenList","type":"address[]"}],"name":"getUserCollateralTokensForList","outputs":[{"internalType":"address[]","name":"tokens","type":"address[]"},{"internalType":"uint256[]","name":"amounts","type":"uint256[]"}],"stateMutability":"view","type":"function"},{"inputs":[{"internalType":"address","name":"user","type":"address"},{"internalType":"address","name":"borrowToken","type":"address"}],"name":"isLiquidatable","outputs":[{"internalType":"bool","name":"","type":"bool"}],"stateMutability":"view","type":"function"},{"inputs":[{"internalType":"address","name":"user","type":"address"},{"internalType":"address","name":"borrowToken","type":"address"},{"internalType":"address[]","name":"collateralTokens","type":"address[]"}],"name":"isLiquidatableForTokens","outputs":[{"internalType":"bool","name":"","type":"bool"}],"stateMutability":"view","type":"function"},{"inputs":[{"internalType":"address","name":"borrower","type":"address"},{"internalType":"address","name":"repayToken","type":"address"},{"internalType":"address","name":"collateralToken","type":"address"},{"internalType":"uint256","name":"repayAmount","type":"uint256"}],"name":"liquidate","outputs":[],"stateMutability":"nonpayable","type":"function"},{"inputs":[{"internalType":"address","name":"borrower","type":"address"},{"internalType":"address","name":"repayToken","type":"address"},{"internalType":"address","name":"collateralToken","type":"address"},{"internalType":"uint256","name":"repayAmount","type":"uint256"},{"internalType":"address[]","name":"collateralTokens","type":"address[]"}],"name":"liquidateForTokens","outputs":[],"stateMutability":"nonpayable","type":"function"},{"inputs":[],"name":"liquidationBonus","outputs":[{"internalType":"uint256","name":"","type":"uint256"}],"stateMutability":"view","type":"function"},{"inputs":[],"name":"liquidationThreshold","outputs":[{"internalType":"uint256","name":"","type":"uint256"}],"stateMutability":"view","type":"function"},{"inputs":[{"internalType":"address","name":"borrower","type":"address"},{"internalType":"uint256","name":"amount","type":"uint256"}],"name":"mintDebtForTesting","outputs":[],"stateMutability":"nonpayable","type":"function"},{"inputs":[],"name":"oracle","outputs":[{"internalType":"contract OracleAdapter","name":"","type":"address"}],"stateMutability":"view","type":"function"},{"inputs":[],"name":"owner","outputs":[{"internalType":"address","name":"","type":"address"}],"stateMutability":"view","type":"function"},{"inputs":[{"internalType":"address","name":"token","type":"address"},{"internalType":"uint256","name":"amount","type":"uint256"}],"name":"removeCollateral","outputs":[],"stateMutability":"nonpayable","type":"function"},{"inputs":[],"name":"renounceOwnership","outputs":[],"stateMutability":"nonpayable","type":"function"},{"inputs":[{"internalType":"address","name":"token","type":"address"},{"internalType":"bool","name":"status","type":"bool"}],"name":"setApprovedCollateralToken","outputs":[],"stateMutability":"nonpayable","type":"function"},{"inputs":[{"internalType":"uint256","name":"newBonus","type":"uint256"}],"name":"setLiquidationBonus","outputs":[],"stateMutability":"nonpayable","type":"function"},{"inputs":[{"internalType":"uint256","name":"newThreshold","type":"uint256"}],"name":"setLiquidationThreshold","outputs":[],"stateMutability":"nonpayable","type":"function"},{"inputs":[{"internalType":"address","name":"newOwner","type":"address"}],"name":"transferOwnership","outputs":[],"stateMutability":"nonpayable","type":"function"},{"inputs":[{"internalType":"address","name":"","type":"address"},{"internalType":"address","name":"","type":"address"}],"name":"userCollateral","outputs":[{"internalType":"uint256","name":"","type":"uint256"}],"stateMutability":"view","type":"function"}],"evm":{"bytecode":{"linkReferences":{},"object":"60806040523480156200001157600080fd5b5060405162002d2f38038062002d2f833981016040819052620000349162000273565b6200003f3362000206565b60018055836001600160a01b0381166200009a5760405162461bcd60e51b8152602060048201526022602482015260008051602062002d0f833981519152604482015261737360f01b60648201526084015b60405180910390fd5b836001600160a01b038116620000ed5760405162461bcd60e51b8152602060048201526022602482015260008051602062002d0f833981519152604482015261737360f01b606482015260840162000091565b6127108411156200015b5760405162461bcd60e51b815260206004820152603160248201527f436f6c6c61746572616c4d616e616765723a206c69717569646174696f6e20746044820152700d0e4cae6d0ded8c840e8dede40d0d2ced607b1b606482015260840162000091565b612710831115620001c55760405162461bcd60e51b815260206004820152602d60248201527f436f6c6c61746572616c4d616e616765723a206c69717569646174696f6e206260448201526c0dedceae640e8dede40d0d2ced609b1b606482015260840162000091565b5050600480546001600160a01b039586166001600160a01b0319918216179091556005805494909516931692909217909255600691909155600755620002bb565b600080546001600160a01b038381166001600160a01b0319831681178455604051919092169283917f8be0079c531659141344cd1fd0a4f28419497f9722a3daafe3b4186f6b6457e09190a35050565b80516001600160a01b03811681146200026e57600080fd5b919050565b600080600080608085870312156200028a57600080fd5b620002958562000256565b9350620002a56020860162000256565b6040860151606090960151949790965092505050565b612a4480620002cb6000396000f3fe6080604052600436106101b75760003560e01c8063715018a6116100ec578063aab3f8681161008a578063d0b0c81611610064578063d0b0c816146104f3578063d4b7cfca14610513578063f2fde38b14610533578063f8d898981461055357600080fd5b8063aab3f86814610497578063aaf5eb68146104b7578063c4201a9f146104d357600080fd5b8063876467f8116100c6578063876467f8146104095780638d907502146104295780638da5cb5b14610449578063a8a5682f1461046757600080fd5b8063715018a6146103a65780637b7c1f4c146103bb5780637dc0d1d0146103d157600080fd5b806357c89a7d116101595780635e991af8116101335780635e991af8146103335780636d75b9ee146103535780636db30e971461036657806370a574611461038657600080fd5b806357c89a7d146102c55780635895d4cb146102e5578063599219dd1461030557600080fd5b80632b92a07d116101955780632b92a07d146102275780633966a28b1461025f5780634031234c1461028f57806350e9da24146102a557600080fd5b806318f198c1146101bc578063191fe1ed146101ef57806328842d4f14610205575b600080fd5b3480156101c857600080fd5b506101dc6101d7366004612326565b610573565b6040519081526020015b60405180910390f35b3480156101fb57600080fd5b506101dc61271081565b34801561021157600080fd5b50610225610220366004612369565b610673565b005b34801561023357600080fd5b506101dc610242366004612382565b600260209081526000928352604080842090915290825290205481565b34801561026b57600080fd5b5061027f61027a366004612382565b610724565b60405190151581526020016101e6565b34801561029b57600080fd5b506101dc60065481565b3480156102b157600080fd5b506102256102c03660046123c3565b6107e1565b3480156102d157600080fd5b506101dc6102e0366004612382565b610848565b3480156102f157600080fd5b506101dc610300366004612382565b6108fd565b34801561031157600080fd5b506103256103203660046123fa565b610a84565b6040516101e6929190612415565b34801561033f57600080fd5b506101dc61034e366004612546565b610de3565b61022561036136600461259b565b610e7f565b34801561037257600080fd5b5061022561038136600461259b565b610ff2565b34801561039257600080fd5b506103256103a13660046125c5565b611064565b3480156103b257600080fd5b506102256112db565b3480156103c757600080fd5b506101dc60075481565b3480156103dd57600080fd5b506004546103f1906001600160a01b031681565b6040516001600160a01b0390911681526020016101e6565b34801561041557600080fd5b5061022561042436600461259b565b6112ef565b34801561043557600080fd5b5061027f610444366004612613565b6115ee565b34801561045557600080fd5b506000546001600160a01b03166103f1565b34801561047357600080fd5b5061027f6104823660046123fa565b60036020526000908152604090205460ff1681565b3480156104a357600080fd5b506102256104b2366004612671565b6116ab565b3480156104c357600080fd5b506101dc670de0b6b3a764000081565b3480156104df57600080fd5b506102256104ee3660046126bc565b6119f3565b3480156104ff57600080fd5b5061022561050e366004612369565b611d3d565b34801561051f57600080fd5b506101dc61052e366004612613565b611de6565b34801561053f57600080fd5b5061022561054e3660046123fa565b611e89565b34801561055f57600080fd5b506005546103f1906001600160a01b031681565b6001600160a01b0380841660009081526002602090815260408083209386168352929052908120548082036105ac57600091505061066c565b826001600160a01b0316846001600160a01b0316036105cc57905061066c565b60048054604051635d5530df60e11b81526001600160a01b038781169382019390935285831660248201526000929091169063baaa61be90604401602060405180830381865afa158015610624573d6000803e3d6000fd5b505050506040513d601f19601f820116820180604052508101906106489190612735565b9050670de0b6b3a764000061065d8284612764565b610667919061277b565b925050505b9392505050565b61067b611f02565b6127108111156106e85760405162461bcd60e51b815260206004820152602d60248201527f436f6c6c61746572616c4d616e616765723a206c69717569646174696f6e206260448201526c0dedceae640e8dede40d0d2ced609b1b60648201526084015b60405180910390fd5b60078190556040518181527faebdbb2d62051c61387bf5a1cd77f093484880809eabd6b2ecefb2dc5869d23d906020015b60405180910390a150565b600554604051633959535960e21b81526001600160a01b038481166004830152600092839291169063e5654d6490602401602060405180830381865afa158015610772573d6000803e3d6000fd5b505050506040513d601f19601f820116820180604052508101906107969190612735565b9050806000036107aa5760009150506107db565b60006107b685856108fd565b90506000826107c761271084612764565b6107d1919061277b565b6006541193505050505b92915050565b6107e9611f02565b6001600160a01b038216600081815260036020908152604091829020805460ff191685151590811790915591519182527fd65827d8427abf392ed8c373698b4bedd3b9faeca8019887008f4f754da89cdf910160405180910390a25050565b600554604051633959535960e21b81526001600160a01b038481166004830152600092839291169063e5654d6490602401602060405180830381865afa158015610896573d6000803e3d6000fd5b505050506040513d601f19601f820116820180604052508101906108ba9190612735565b9050806000036108cf576000199150506107db565b60006108db85856108fd565b9050816108ea61271083612764565b6108f4919061277b565b95945050505050565b60408051600380825260808201909252600091829182916020820160608036833701905050905073874069fa1ee493706dbee6cf34ff9829832e6a008160008151811061094c5761094c61279d565b60200260200101906001600160a01b031690816001600160a01b0316815250507362b8b11039ff5064145d0d87d32c658da4cc2dc1816001815181106109945761099461279d565b60200260200101906001600160a01b031690816001600160a01b0316815250506000816002815181106109c9576109c961279d565b60200260200101906001600160a01b031690816001600160a01b03168152505060005b8151811015610a7a5760036000838381518110610a0b57610a0b61279d565b6020908102919091018101516001600160a01b031682528101919091526040016000205460ff1615610a6857610a5b86838381518110610a4d57610a4d61279d565b602002602001015187610573565b610a6590846127b3565b92505b80610a72816127c6565b9150506109ec565b5090949350505050565b60408051600380825260808201909252606091829160009160208201848036833701905050905073874069fa1ee493706dbee6cf34ff9829832e6a0081600081518110610ad357610ad361279d565b60200260200101906001600160a01b031690816001600160a01b0316815250507362b8b11039ff5064145d0d87d32c658da4cc2dc181600181518110610b1b57610b1b61279d565b60200260200101906001600160a01b031690816001600160a01b031681525050600081600281518110610b5057610b5061279d565b60200260200101906001600160a01b031690816001600160a01b0316815250506000805b8251811015610bfa576001600160a01b038616600090815260026020526040812084518290869085908110610bab57610bab61279d565b60200260200101516001600160a01b03166001600160a01b03168152602001908152602001600020541115610be85781610be4816127c6565b9250505b80610bf2816127c6565b915050610b74565b508067ffffffffffffffff811115610c1457610c14612499565b604051908082528060200260200182016040528015610c3d578160200160208202803683370190505b5093508067ffffffffffffffff811115610c5957610c59612499565b604051908082528060200260200182016040528015610c82578160200160208202803683370190505b5092506000805b8351811015610dda576001600160a01b038716600090815260026020526040812085518290879085908110610cc057610cc061279d565b60200260200101516001600160a01b03166001600160a01b03168152602001908152602001600020541115610dc857838181518110610d0157610d0161279d565b6020026020010151868381518110610d1b57610d1b61279d565b60200260200101906001600160a01b031690816001600160a01b03168152505060026000886001600160a01b03166001600160a01b031681526020019081526020016000206000858381518110610d7457610d7461279d565b60200260200101516001600160a01b03166001600160a01b0316815260200190815260200160002054858381518110610daf57610daf61279d565b602090810291909101015281610dc4816127c6565b9250505b80610dd2816127c6565b915050610c89565b50505050915091565b600080805b8451811015610e765760036000868381518110610e0757610e0761279d565b6020908102919091018101516001600160a01b031682528101919091526040016000205460ff1615610e6457610e5786868381518110610e4957610e4961279d565b602002602001015186610573565b610e6190836127b3565b91505b80610e6e816127c6565b915050610de8565b50949350505050565b610e87611f5c565b6001600160a01b038216600090815260036020526040902054829060ff16610ec15760405162461bcd60e51b81526004016106df906127df565b8160008111610ee25760405162461bcd60e51b81526004016106df90612832565b6001600160a01b038416610f5557823414610f505760405162461bcd60e51b815260206004820152602860248201527f436f6c6c61746572616c4d616e616765723a20696e636f72726563742043454c60448201526713c8185b5bdd5b9d60c21b60648201526084016106df565b610f6a565b610f6a6001600160a01b038516333086611fb5565b3360009081526002602090815260408083206001600160a01b038816845290915281208054859290610f9d9084906127b3565b90915550506040518381526001600160a01b0385169033907f8a844e786620b0b008b32c1151afb99261d854d9e0e911b2a5ee2f54bd5e3a0b906020015b60405180910390a35050610fee60018055565b5050565b610ffa611f02565b600554604051639d0bee0360e01b81526001600160a01b0384811660048301526024820184905290911690639d0bee0390604401600060405180830381600087803b15801561104857600080fd5b505af115801561105c573d6000803e3d6000fd5b505050505050565b6060806000805b84518110156110f1576001600160a01b0386166000908152600260205260408120865182908890859081106110a2576110a261279d565b60200260200101516001600160a01b03166001600160a01b031681526020019081526020016000205411156110df57816110db816127c6565b9250505b806110e9816127c6565b91505061106b565b508067ffffffffffffffff81111561110b5761110b612499565b604051908082528060200260200182016040528015611134578160200160208202803683370190505b5092508067ffffffffffffffff81111561115057611150612499565b604051908082528060200260200182016040528015611179578160200160208202803683370190505b5091506000805b85518110156112d1576001600160a01b0387166000908152600260205260408120875182908990859081106111b7576111b761279d565b60200260200101516001600160a01b03166001600160a01b031681526020019081526020016000205411156112bf578581815181106111f8576111f861279d565b60200260200101518583815181106112125761121261279d565b60200260200101906001600160a01b031690816001600160a01b03168152505060026000886001600160a01b03166001600160a01b03168152602001908152602001600020600087838151811061126b5761126b61279d565b60200260200101516001600160a01b03166001600160a01b03168152602001908152602001600020548483815181106112a6576112a661279d565b6020908102919091010152816112bb816127c6565b9250505b806112c9816127c6565b915050611180565b5050509250929050565b6112e3611f02565b6112ed6000612020565b565b6112f7611f5c565b80600081116113185760405162461bcd60e51b81526004016106df90612832565b3360009081526002602090815260408083206001600160a01b038716845290915290205482111561139e5760405162461bcd60e51b815260206004820152602a60248201527f436f6c6c61746572616c4d616e616765723a20696e73756666696369656e742060448201526918dbdb1b185d195c985b60b21b60648201526084016106df565b600554604051633959535960e21b81523360048201526000916001600160a01b03169063e5654d6490602401602060405180830381865afa1580156113e7573d6000803e3d6000fd5b505050506040513d601f19601f8201168201806040525081019061140b9190612735565b905080156114e957600061141f33866108fd565b9050600061142e338788610573565b9050600081831161144057600061144a565b61144a8284612885565b90506006548461145a9190612764565b61146661271083612764565b10156114e55760405162461bcd60e51b815260206004820152604260248201527f436f6c6c61746572616c4d616e616765723a2072656d6f76616c20776f756c6460448201527f206d616b6520706f736974696f6e20756e646572636f6c6c61746572616c697a606482015261195960f21b608482015260a4016106df565b5050505b3360009081526002602090815260408083206001600160a01b03881684529091528120805485929061151c908490612885565b90915550506001600160a01b03841661159d57604051600090339085908381818185875af1925050503d8060008114611571576040519150601f19603f3d011682016040523d82523d6000602084013e611576565b606091505b50509050806115975760405162461bcd60e51b81526004016106df90612898565b506115b1565b6115b16001600160a01b0385163385612070565b6040518381526001600160a01b0385169033907fce4d55ad6d5734bd8b947e19d64c51774bdc08ab4b2e59ee3a764476bea650de90602001610fdb565b600554604051633959535960e21b81526001600160a01b038581166004830152600092839291169063e5654d6490602401602060405180830381865afa15801561163c573d6000803e3d6000fd5b505050506040513d601f19601f820116820180604052508101906116609190612735565b90508060000361167457600091505061066c565b6000611681868587610de3565b905060008261169261271084612764565b61169c919061277b565b60065411979650505050505050565b6116b3611f5c565b80600081116116d45760405162461bcd60e51b81526004016106df90612832565b6001600160a01b038316600090815260036020526040902054839060ff1661170e5760405162461bcd60e51b81526004016106df906127df565b6117188686610724565b6117345760405162461bcd60e51b81526004016106df906128df565b60048054604051635d5530df60e11b81526001600160a01b038881169382019390935286831660248201526000929091169063baaa61be90604401602060405180830381865afa15801561178c573d6000803e3d6000fd5b505050506040513d601f19601f820116820180604052508101906117b09190612735565b90506000670de0b6b3a76400006117c78387612764565b6117d1919061277b565b905060006127106007546127106117e891906127b3565b6117f29084612764565b6117fc919061277b565b6001600160a01b03808b166000908152600260209081526040808320938c16835292905220549091508111156118445760405162461bcd60e51b81526004016106df9061292b565b6118596001600160a01b038916333089611fb5565b6005546040516324d91d3360e21b81526001600160a01b038b81166004830152602482018990529091169063936474cc90604401600060405180830381600087803b1580156118a757600080fd5b505af11580156118bb573d6000803e3d6000fd5b505050506001600160a01b038981166000908152600260209081526040808320938b16835292905290812080548392906118f6908490612885565b90915550506001600160a01b03871661197757604051600090339083908381818185875af1925050503d806000811461194b576040519150601f19603f3d011682016040523d82523d6000602084013e611950565b606091505b50509050806119715760405162461bcd60e51b81526004016106df90612898565b5061198b565b61198b6001600160a01b0388163383612070565b604080518781526001600160a01b038981166020830152918101839052818a16913391908c16907fb2ee9827c444f9055077a36568cf6f075a8bcac2510d4ae1d40e7a85ea94d8eb9060600160405180910390a450505050506119ed60018055565b50505050565b6119fb611f5c565b8160008111611a1c5760405162461bcd60e51b81526004016106df90612832565b6001600160a01b038416600090815260036020526040902054849060ff16611a565760405162461bcd60e51b81526004016106df906127df565b611a618787856115ee565b611a7d5760405162461bcd60e51b81526004016106df906128df565b60048054604051635d5530df60e11b81526001600160a01b038981169382019390935287831660248201526000929091169063baaa61be90604401602060405180830381865afa158015611ad5573d6000803e3d6000fd5b505050506040513d601f19601f82011682018060405250810190611af99190612735565b90506000670de0b6b3a7640000611b108388612764565b611b1a919061277b565b90506000612710600754612710611b3191906127b3565b611b3b9084612764565b611b45919061277b565b6001600160a01b03808c166000908152600260209081526040808320938d1683529290522054909150811115611b8d5760405162461bcd60e51b81526004016106df9061292b565b611ba26001600160a01b038a1633308a611fb5565b6005546040516324d91d3360e21b81526001600160a01b038c81166004830152602482018a90529091169063936474cc90604401600060405180830381600087803b158015611bf057600080fd5b505af1158015611c04573d6000803e3d6000fd5b505050506001600160a01b038a81166000908152600260209081526040808320938c1683529290529081208054839290611c3f908490612885565b90915550506001600160a01b038816611cc057604051600090339083908381818185875af1925050503d8060008114611c94576040519150601f19603f3d011682016040523d82523d6000602084013e611c99565b606091505b5050905080611cba5760405162461bcd60e51b81526004016106df90612898565b50611cd4565b611cd46001600160a01b0389163383612070565b604080518881526001600160a01b038a81166020830152918101839052818b16913391908d16907fb2ee9827c444f9055077a36568cf6f075a8bcac2510d4ae1d40e7a85ea94d8eb9060600160405180910390a45050505050611d3660018055565b5050505050565b611d45611f02565b612710811115611db15760405162461bcd60e51b815260206004820152603160248201527f436f6c6c61746572616c4d616e616765723a206c69717569646174696f6e20746044820152700d0e4cae6d0ded8c840e8dede40d0d2ced607b1b60648201526084016106df565b60068190556040518181527feba9f700db57a60a859189ecad4492254a5045e5cae74167bae53564fdea10ca90602001610719565b600554604051633959535960e21b81526001600160a01b038581166004830152600092839291169063e5654d6490602401602060405180830381865afa158015611e34573d6000803e3d6000fd5b505050506040513d601f19601f82011682018060405250810190611e589190612735565b905080600003611e6d5760001991505061066c565b6000611e7a868587610de3565b90508161065d61271083612764565b611e91611f02565b6001600160a01b038116611ef65760405162461bcd60e51b815260206004820152602660248201527f4f776e61626c653a206e6577206f776e657220697320746865207a65726f206160448201526564647265737360d01b60648201526084016106df565b611eff81612020565b50565b6000546001600160a01b031633146112ed5760405162461bcd60e51b815260206004820181905260248201527f4f776e61626c653a2063616c6c6572206973206e6f7420746865206f776e657260448201526064016106df565b600260015403611fae5760405162461bcd60e51b815260206004820152601f60248201527f5265656e7472616e637947756172643a207265656e7472616e742063616c6c0060448201526064016106df565b6002600155565b6040516001600160a01b03808516602483015283166044820152606481018290526119ed9085906323b872dd60e01b906084015b60408051601f198184030181529190526020810180516001600160e01b03166001600160e01b0319909316929092179091526120a5565b600080546001600160a01b038381166001600160a01b0319831681178455604051919092169283917f8be0079c531659141344cd1fd0a4f28419497f9722a3daafe3b4186f6b6457e09190a35050565b6040516001600160a01b0383166024820152604481018290526120a090849063a9059cbb60e01b90606401611fe9565b505050565b60006120fa826040518060400160405280602081526020017f5361666545524332303a206c6f772d6c6576656c2063616c6c206661696c6564815250856001600160a01b031661217a9092919063ffffffff16565b905080516000148061211b57508080602001905181019061211b919061297e565b6120a05760405162461bcd60e51b815260206004820152602a60248201527f5361666545524332303a204552433230206f7065726174696f6e20646964206e6044820152691bdd081cdd58d8d9595960b21b60648201526084016106df565b60606121898484600085612191565b949350505050565b6060824710156121f25760405162461bcd60e51b815260206004820152602660248201527f416464726573733a20696e73756666696369656e742062616c616e636520666f6044820152651c8818d85b1b60d21b60648201526084016106df565b600080866001600160a01b0316858760405161220e91906129bf565b60006040518083038185875af1925050503d806000811461224b576040519150601f19603f3d011682016040523d82523d6000602084013e612250565b606091505b50915091506122618783838761226c565b979650505050505050565b606083156122db5782516000036122d4576001600160a01b0385163b6122d45760405162461bcd60e51b815260206004820152601d60248201527f416464726573733a2063616c6c20746f206e6f6e2d636f6e747261637400000060448201526064016106df565b5081612189565b61218983838151156122f05781518083602001fd5b8060405162461bcd60e51b81526004016106df91906129db565b80356001600160a01b038116811461232157600080fd5b919050565b60008060006060848603121561233b57600080fd5b6123448461230a565b92506123526020850161230a565b91506123606040850161230a565b90509250925092565b60006020828403121561237b57600080fd5b5035919050565b6000806040838503121561239557600080fd5b61239e8361230a565b91506123ac6020840161230a565b90509250929050565b8015158114611eff57600080fd5b600080604083850312156123d657600080fd5b6123df8361230a565b915060208301356123ef816123b5565b809150509250929050565b60006020828403121561240c57600080fd5b61066c8261230a565b604080825283519082018190526000906020906060840190828701845b828110156124575781516001600160a01b031684529284019290840190600101612432565b5050508381038285015284518082528583019183019060005b8181101561248c57835183529284019291840191600101612470565b5090979650505050505050565b634e487b7160e01b600052604160045260246000fd5b600082601f8301126124c057600080fd5b8135602067ffffffffffffffff808311156124dd576124dd612499565b8260051b604051601f19603f8301168101818110848211171561250257612502612499565b60405293845285810183019383810192508785111561252057600080fd5b83870191505b84821015612261576125378261230a565b83529183019190830190612526565b60008060006060848603121561255b57600080fd5b6125648461230a565b9250602084013567ffffffffffffffff81111561258057600080fd5b61258c868287016124af565b9250506123606040850161230a565b600080604083850312156125ae57600080fd5b6125b78361230a565b946020939093013593505050565b600080604083850312156125d857600080fd5b6125e18361230a565b9150602083013567ffffffffffffffff8111156125fd57600080fd5b612609858286016124af565b9150509250929050565b60008060006060848603121561262857600080fd5b6126318461230a565b925061263f6020850161230a565b9150604084013567ffffffffffffffff81111561265b57600080fd5b612667868287016124af565b9150509250925092565b6000806000806080858703121561268757600080fd5b6126908561230a565b935061269e6020860161230a565b92506126ac6040860161230a565b9396929550929360600135925050565b600080600080600060a086880312156126d457600080fd5b6126dd8661230a565b94506126eb6020870161230a565b93506126f96040870161230a565b925060608601359150608086013567ffffffffffffffff81111561271c57600080fd5b612728888289016124af565b9150509295509295909350565b60006020828403121561274757600080fd5b5051919050565b634e487b7160e01b600052601160045260246000fd5b80820281158282048414176107db576107db61274e565b60008261279857634e487b7160e01b600052601260045260246000fd5b500490565b634e487b7160e01b600052603260045260246000fd5b808201808211156107db576107db61274e565b6000600182016127d8576127d861274e565b5060010190565b60208082526033908201527f436f6c6c61746572616c4d616e616765723a20746f6b656e206e6f74206170706040820152721c9bdd995908185cc818dbdb1b185d195c985b606a1b606082015260800190565b60208082526033908201527f436f6c6c61746572616c4d616e616765723a20616d6f756e74206d7573742062604082015272652067726561746572207468616e207a65726f60681b606082015260800190565b818103818111156107db576107db61274e565b60208082526027908201527f436f6c6c61746572616c4d616e616765723a2043454c4f207472616e736665726040820152660819985a5b195960ca1b606082015260800190565b6020808252602c908201527f436f6c6c61746572616c4d616e616765723a20706f736974696f6e206e6f742060408201526b6c6971756964617461626c6560a01b606082015260800190565b60208082526033908201527f436f6c6c61746572616c4d616e616765723a20696e73756666696369656e7420604082015272636f6c6c61746572616c20746f207365697a6560681b606082015260800190565b60006020828403121561299057600080fd5b815161066c816123b5565b60005b838110156129b657818101518382015260200161299e565b50506000910152565b600082516129d181846020870161299b565b9190910192915050565b60208152600082518060208401526129fa81604085016020870161299b565b601f01601f1916919091016040019291505056fea2646970667358221220dd3323d10610197cc4dfc36feb916a424d1cc998e8c650f6a84e6e0e93e306bb64736f6c63430008130033436f6c6c61746572616c4d616e616765723a20696e76616c6964206164647265","opcodes":"PUSH1 0x80 PUSH1 0x40 MSTORE CALLVALUE DUP1 ISZERO PUSH3 0x11 JUMPI PUSH1 0x0 DUP1 REVERT JUMPDEST POP PUSH1 0x40 MLOAD PUSH3 0x2D2F CODESIZE SUB DUP1 PUSH3 0x2D2F DUP4 CODECOPY DUP2 ADD PUSH1 0x40 DUP2 SWAP1 MSTORE PUSH3 0x34 SWAP2 PUSH3 0x273 JUMP JUMPDEST PUSH3 0x3F CALLER PUSH3 0x206 JUMP JUMPDEST PUSH1 0x1 DUP1 SSTORE DUP4 PUSH1 0x1 PUSH1 0x1 PUSH1 0xA0 SHL SUB DUP2 AND PUSH3 0x9A JUMPI PUSH1 0x40 MLOAD PUSH3 0x461BCD PUSH1 0xE5 SHL DUP2 MSTORE PUSH1 0x20 PUSH1 0x4 DUP3 ADD MSTORE PUSH1 0x22 PUSH1 0x24 DUP3 ADD MSTORE PUSH1 0x0 DUP1 MLOAD PUSH1 0x20 PUSH3 0x2D0F DUP4 CODECOPY DUP2 MLOAD SWAP2 MSTORE PUSH1 0x44 DUP3 ADD MSTORE PUSH2 0x7373 PUSH1 0xF0 SHL PUSH1 0x64 DUP3 ADD MSTORE PUSH1 0x84 ADD JUMPDEST PUSH1 0x40 MLOAD DUP1 SWAP2 SUB SWAP1 REVERT JUMPDEST DUP4 PUSH1 0x1 PUSH1 0x1 PUSH1 0xA0 SHL SUB DUP2 AND PUSH3 0xED JUMPI PUSH1 0x40 MLOAD PUSH3 0x461BCD PUSH1 0xE5 SHL DUP2 MSTORE PUSH1 0x20 PUSH1 0x4 DUP3 ADD MSTORE PUSH1 0x22 PUSH1 0x24 DUP3 ADD MSTORE PUSH1 0x0 DUP1 MLOAD PUSH1 0x20 PUSH3 0x2D0F DUP4 CODECOPY DUP2 MLOAD SWAP2 MSTORE PUSH1 0x44 DUP3 ADD MSTORE PUSH2 0x7373 PUSH1 0xF0 SHL PUSH1 0x64 DUP3 ADD MSTORE PUSH1 0x84 ADD PUSH3 0x91 JUMP JUMPDEST PUSH2 0x2710 DUP5 GT ISZERO PUSH3 0x15B JUMPI PUSH1 0x40 MLOAD PUSH3 0x461BCD PUSH1 0xE5 SHL DUP2 MSTORE PUSH1 0x20 PUSH1 0x4 DUP3 ADD MSTORE PUSH1 0x31 PUSH1 0x24 DUP3 ADD MSTORE PUSH32 0x436F6C6C61746572616C4D616E616765723A206C69717569646174696F6E2074 PUSH1 0x44 DUP3 ADD MSTORE PUSH17 0xD0E4CAE6D0DED8C840E8DEDE40D0D2CED PUSH1 0x7B SHL PUSH1 0x64 DUP3 ADD MSTORE PUSH1 0x84 ADD PUSH3 0x91 JUMP JUMPDEST PUSH2 0x2710 DUP4 GT ISZERO PUSH3 0x1C5 JUMPI PUSH1 0x40 MLOAD PUSH3 0x461BCD PUSH1 0xE5 SHL DUP2 MSTORE PUSH1 0x20 PUSH1 0x4 DUP3 ADD MSTORE PUSH1 0x2D PUSH1 0x24 DUP3 ADD MSTORE PUSH32 0x436F6C6C61746572616C4D616E616765723A206C69717569646174696F6E2062 PUSH1 0x44 DUP3 ADD MSTORE PUSH13 0xDEDCEAE640E8DEDE40D0D2CED PUSH1 0x9B SHL PUSH1 0x64 DUP3 ADD MSTORE PUSH1 0x84 ADD PUSH3 0x91 JUMP JUMPDEST POP POP PUSH1 0x4 DUP1 SLOAD PUSH1 0x1 PUSH1 0x1 PUSH1 0xA0 SHL SUB SWAP6 DUP7 AND PUSH1 0x1 PUSH1 0x1 PUSH1 0xA0 SHL SUB NOT SWAP2 DUP3 AND OR SWAP1 SWAP2 SSTORE PUSH1 0x5 DUP1 SLOAD SWAP5 SWAP1 SWAP6 AND SWAP4 AND SWAP3 SWAP1 SWAP3 OR SWAP1 SWAP3 SSTORE PUSH1 0x6 SWAP2 SWAP1 SWAP2 SSTORE PUSH1 0x7 SSTORE PUSH3 0x2BB JUMP JUMPDEST PUSH1 0x0 DUP1 SLOAD PUSH1 0x1 PUSH1 0x1 PUSH1 0xA0 SHL SUB DUP4 DUP2 AND PUSH1 0x1 PUSH1 0x1 PUSH1 0xA0 SHL SUB NOT DUP4 AND DUP2 OR DUP5 SSTORE PUSH1 0x40 MLOAD SWAP2 SWAP1 SWAP3 AND SWAP3 DUP4 SWAP2 PUSH32 0x8BE0079C531659141344CD1FD0A4F28419497F9722A3DAAFE3B4186F6B6457E0 SWAP2 SWAP1 LOG3 POP POP JUMP JUMPDEST DUP1 MLOAD PUSH1 0x1 PUSH1 0x1 PUSH1 0xA0 SHL SUB DUP2 AND DUP2 EQ PUSH3 0x26E JUMPI PUSH1 0x0 DUP1 REVERT JUMPDEST SWAP2 SWAP1 POP JUMP JUMPDEST PUSH1 0x0 DUP1 PUSH1 0x0 DUP1 PUSH1 0x80 DUP6 DUP8 SUB SLT ISZERO PUSH3 0x28A JUMPI PUSH1 0x0 DUP1 REVERT JUMPDEST PUSH3 0x295 DUP6 PUSH3 0x256 JUMP JUMPDEST SWAP4 POP PUSH3 0x2A5 PUSH1 0x20 DUP7 ADD PUSH3 0x256 JUMP JUMPDEST PUSH1 0x40 DUP7 ADD MLOAD PUSH1 0x60 SWAP1 SWAP7 ADD MLOAD SWAP5 SWAP8 SWAP1 SWAP7 POP SWAP3 POP POP POP JUMP JUMPDEST PUSH2 0x2A44 DUP1 PUSH3 0x2CB PUSH1 0x0 CODECOPY PUSH1 0x0 RETURN INVALID PUSH1 0x80 PUSH1 0x40 MSTORE PUSH1 0x4 CALLDATASIZE LT PUSH2 0x1B7 JUMPI PUSH1 0x0 CALLDATALOAD PUSH1 0xE0 SHR DUP1 PUSH4 0x715018A6 GT PUSH2 0xEC JUMPI DUP1 PUSH4 0xAAB3F868 GT PUSH2 0x8A JUMPI DUP1 PUSH4 0xD0B0C816 GT PUSH2 0x64 JUMPI DUP1 PUSH4 0xD0B0C816 EQ PUSH2 0x4F3 JUMPI DUP1 PUSH4 0xD4B7CFCA EQ PUSH2 0x513 JUMPI DUP1 PUSH4 0xF2FDE38B EQ PUSH2 0x533 JUMPI DUP1 PUSH4 0xF8D89898 EQ PUSH2 0x553 JUMPI PUSH1 0x0 DUP1 REVERT JUMPDEST DUP1 PUSH4 0xAAB3F868 EQ PUSH2 0x497 JUMPI DUP1 PUSH4 0xAAF5EB68 EQ PUSH2 0x4B7 JUMPI DUP1 PUSH4 0xC4201A9F EQ PUSH2 0x4D3 JUMPI PUSH1 0x0 DUP1 REVERT JUMPDEST DUP1 PUSH4 0x876467F8 GT PUSH2 0xC6 JUMPI DUP1 PUSH4 0x876467F8 EQ PUSH2 0x409 JUMPI DUP1 PUSH4 0x8D907502 EQ PUSH2 0x429 JUMPI DUP1 PUSH4 0x8DA5CB5B EQ PUSH2 0x449 JUMPI DUP1 PUSH4 0xA8A5682F EQ PUSH2 0x467 JUMPI PUSH1 0x0 DUP1 REVERT JUMPDEST DUP1 PUSH4 0x715018A6 EQ PUSH2 0x3A6 JUMPI DUP1 PUSH4 0x7B7C1F4C EQ PUSH2 0x3BB JUMPI DUP1 PUSH4 0x7DC0D1D0 EQ PUSH2 0x3D1 JUMPI PUSH1 0x0 DUP1 REVERT JUMPDEST DUP1 PUSH4 0x57C89A7D GT PUSH2 0x159 JUMPI DUP1 PUSH4 0x5E991AF8 GT PUSH2 0x133 JUMPI DUP1 PUSH4 0x5E991AF8 EQ PUSH2 0x333 JUMPI DUP1 PUSH4 0x6D75B9EE EQ PUSH2 0x353 JUMPI DUP1 PUSH4 0x6DB30E97 EQ PUSH2 0x366 JUMPI DUP1 PUSH4 0x70A57461 EQ PUSH2 0x386 JUMPI PUSH1 0x0 DUP1 REVERT JUMPDEST DUP1 PUSH4 0x57C89A7D EQ PUSH2 0x2C5 JUMPI DUP1 PUSH4 0x5895D4CB EQ PUSH2 0x2E5 JUMPI DUP1 PUSH4 0x599219DD EQ PUSH2 0x305 JUMPI PUSH1 0x0 DUP1 REVERT JUMPDEST DUP1 PUSH4 0x2B92A07D GT PUSH2 0x195 JUMPI DUP1 PUSH4 0x2B92A07D EQ PUSH2 0x227 JUMPI DUP1 PUSH4 0x3966A28B EQ PUSH2 0x25F JUMPI DUP1 PUSH4 0x4031234C EQ PUSH2 0x28F JUMPI DUP1 PUSH4 0x50E9DA24 EQ PUSH2 0x2A5 JUMPI PUSH1 0x0 DUP1 REVERT JUMPDEST DUP1 PUSH4 0x18F198C1 EQ PUSH2 0x1BC JUMPI DUP1 PUSH4 0x191FE1ED EQ PUSH2 0x1EF JUMPI DUP1 PUSH4 0x28842D4F EQ PUSH2 0x205 JUMPI JUMPDEST PUSH1 0x0 DUP1 REVERT JUMPDEST CALLVALUE DUP1 ISZERO PUSH2 0x1C8 JUMPI PUSH1 0x0 DUP1 REVERT JUMPDEST POP PUSH2 0x1DC PUSH2 0x1D7 CALLDATASIZE PUSH1 0x4 PUSH2 0x2326 JUMP JUMPDEST PUSH2 0x573 JUMP JUMPDEST PUSH1 0x40 MLOAD SWAP1 DUP2 MSTORE PUSH1 0x20 ADD JUMPDEST PUSH1 0x40 MLOAD DUP1 SWAP2 SUB SWAP1 RETURN JUMPDEST CALLVALUE DUP1 ISZERO PUSH2 0x1FB JUMPI PUSH1 0x0 DUP1 REVERT JUMPDEST POP PUSH2 0x1DC PUSH2 0x2710 DUP2 JUMP JUMPDEST CALLVALUE DUP1 ISZERO PUSH2 0x211 JUMPI PUSH1 0x0 DUP1 REVERT JUMPDEST POP PUSH2 0x225 PUSH2 0x220 CALLDATASIZE PUSH1 0x4 PUSH2 0x2369 JUMP JUMPDEST PUSH2 0x673 JUMP JUMPDEST STOP JUMPDEST CALLVALUE DUP1 ISZERO PUSH2 0x233 JUMPI PUSH1 0x0 DUP1 REVERT JUMPDEST POP PUSH2 0x1DC PUSH2 0x242 CALLDATASIZE PUSH1 0x4 PUSH2 0x2382 JUMP JUMPDEST PUSH1 0x2 PUSH1 0x20 SWAP1 DUP2 MSTORE PUSH1 0x0 SWAP3 DUP4 MSTORE PUSH1 0x40 DUP1 DUP5 KECCAK256 SWAP1 SWAP2 MSTORE SWAP1 DUP3 MSTORE SWAP1 KECCAK256 SLOAD DUP2 JUMP JUMPDEST CALLVALUE DUP1 ISZERO PUSH2 0x26B JUMPI PUSH1 0x0 DUP1 REVERT JUMPDEST POP PUSH2 0x27F PUSH2 0x27A CALLDATASIZE PUSH1 0x4 PUSH2 0x2382 JUMP JUMPDEST PUSH2 0x724 JUMP JUMPDEST PUSH1 0x40 MLOAD SWAP1 ISZERO ISZERO DUP2 MSTORE PUSH1 0x20 ADD PUSH2 0x1E6 JUMP JUMPDEST CALLVALUE DUP1 ISZERO PUSH2 0x29B JUMPI PUSH1 0x0 DUP1 REVERT JUMPDEST POP PUSH2 0x1DC PUSH1 0x6 SLOAD DUP2 JUMP JUMPDEST CALLVALUE DUP1 ISZERO PUSH2 0x2B1 JUMPI PUSH1 0x0 DUP1 REVERT JUMPDEST POP PUSH2 0x225 PUSH2 0x2C0 CALLDATASIZE PUSH1 0x4 PUSH2 0x23C3 JUMP JUMPDEST PUSH2 0x7E1 JUMP JUMPDEST CALLVALUE DUP1 ISZERO PUSH2 0x2D1 JUMPI PUSH1 0x0 DUP1 REVERT JUMPDEST POP PUSH2 0x1DC PUSH2 0x2E0 CALLDATASIZE PUSH1 0x4 PUSH2 0x2382 JUMP JUMPDEST PUSH2 0x848 JUMP JUMPDEST CALLVALUE DUP1 ISZERO PUSH2 0x2F1 JUMPI PUSH1 0x0 DUP1 REVERT JUMPDEST POP PUSH2 0x1DC PUSH2 0x300 CALLDATASIZE PUSH1 0x4 PUSH2 0x2382 JUMP JUMPDEST PUSH2 0x8FD JUMP JUMPDEST CALLVALUE DUP1 ISZERO PUSH2 0x311 JUMPI PUSH1 0x0 DUP1 REVERT JUMPDEST POP PUSH2 0x325 PUSH2 0x320 CALLDATASIZE PUSH1 0x4 PUSH2 0x23FA JUMP JUMPDEST PUSH2 0xA84 JUMP JUMPDEST PUSH1 0x40 MLOAD PUSH2 0x1E6 SWAP3 SWAP2 SWAP1 PUSH2 0x2415 JUMP JUMPDEST CALLVALUE DUP1 ISZERO PUSH2 0x33F JUMPI PUSH1 0x0 DUP1 REVERT JUMPDEST POP PUSH2 0x1DC PUSH2 0x34E CALLDATASIZE PUSH1 0x4 PUSH2 0x2546 JUMP JUMPDEST PUSH2 0xDE3 JUMP JUMPDEST PUSH2 0x225 PUSH2 0x361 CALLDATASIZE PUSH1 0x4 PUSH2 0x259B JUMP JUMPDEST PUSH2 0xE7F JUMP JUMPDEST CALLVALUE DUP1 ISZERO PUSH2 0x372 JUMPI PUSH1 0x0 DUP1 REVERT JUMPDEST POP PUSH2 0x225 PUSH2 0x381 CALLDATASIZE PUSH1 0x4 PUSH2 0x259B JUMP JUMPDEST PUSH2 0xFF2 JUMP JUMPDEST CALLVALUE DUP1 ISZERO PUSH2 0x392 JUMPI PUSH1 0x0 DUP1 REVERT JUMPDEST POP PUSH2 0x325 PUSH2 0x3A1 CALLDATASIZE PUSH1 0x4 PUSH2 0x25C5 JUMP JUMPDEST PUSH2 0x1064 JUMP JUMPDEST CALLVALUE DUP1 ISZERO PUSH2 0x3B2 JUMPI PUSH1 0x0 DUP1 REVERT JUMPDEST POP PUSH2 0x225 PUSH2 0x12DB JUMP JUMPDEST CALLVALUE DUP1 ISZERO PUSH2 0x3C7 JUMPI PUSH1 0x0 DUP1 REVERT JUMPDEST POP PUSH2 0x1DC PUSH1 0x7 SLOAD DUP2 JUMP JUMPDEST CALLVALUE DUP1 ISZERO PUSH2 0x3DD JUMPI PUSH1 0x0 DUP1 REVERT JUMPDEST POP PUSH1 0x4 SLOAD PUSH2 0x3F1 SWAP1 PUSH1 0x1 PUSH1 0x1 PUSH1 0xA0 SHL SUB AND DUP2 JUMP JUMPDEST PUSH1 0x40 MLOAD PUSH1 0x1 PUSH1 0x1 PUSH1 0xA0 SHL SUB SWAP1 SWAP2 AND DUP2 MSTORE PUSH1 0x20 ADD PUSH2 0x1E6 JUMP JUMPDEST CALLVALUE DUP1 ISZERO PUSH2 0x415 JUMPI PUSH1 0x0 DUP1 REVERT JUMPDEST POP PUSH2 0x225 PUSH2 0x424 CALLDATASIZE PUSH1 0x4 PUSH2 0x259B JUMP JUMPDEST PUSH2 0x12EF JUMP JUMPDEST CALLVALUE DUP1 ISZERO PUSH2 0x435 JUMPI PUSH1 0x0 DUP1 REVERT JUMPDEST POP PUSH2 0x27F PUSH2 0x444 CALLDATASIZE PUSH1 0x4 PUSH2 0x2613 JUMP JUMPDEST PUSH2 0x15EE JUMP JUMPDEST CALLVALUE DUP1 ISZERO PUSH2 0x455 JUMPI PUSH1 0x0 DUP1 REVERT JUMPDEST POP PUSH1 0x0 SLOAD PUSH1 0x1 PUSH1 0x1 PUSH1 0xA0 SHL SUB AND PUSH2 0x3F1 JUMP JUMPDEST CALLVALUE DUP1 ISZERO PUSH2 0x473 JUMPI PUSH1 0x0 DUP1 REVERT JUMPDEST POP PUSH2 0x27F PUSH2 0x482 CALLDATASIZE PUSH1 0x4 PUSH2 0x23FA JUMP JUMPDEST PUSH1 0x3 PUSH1 0x20 MSTORE PUSH1 0x0 SWAP1 DUP2 MSTORE PUSH1 0x40 SWAP1 KECCAK256 SLOAD PUSH1 0xFF AND DUP2 JUMP JUMPDEST CALLVALUE DUP1 ISZERO PUSH2 0x4A3 JUMPI PUSH1 0x0 DUP1 REVERT JUMPDEST POP PUSH2 0x225 PUSH2 0x4B2 CALLDATASIZE PUSH1 0x4 PUSH2 0x2671 JUMP JUMPDEST PUSH2 0x16AB JUMP JUMPDEST CALLVALUE DUP1 ISZERO PUSH2 0x4C3 JUMPI PUSH1 0x0 DUP1 REVERT JUMPDEST POP PUSH2 0x1DC PUSH8 0xDE0B6B3A7640000 DUP2 JUMP JUMPDEST CALLVALUE DUP1 ISZERO PUSH2 0x4DF JUMPI PUSH1 0x0 DUP1 REVERT JUMPDEST POP PUSH2 0x225 PUSH2 0x4EE CALLDATASIZE PUSH1 0x4 PUSH2 0x26BC JUMP JUMPDEST PUSH2 0x19F3 JUMP JUMPDEST CALLVALUE DUP1 ISZERO PUSH2 0x4FF JUMPI PUSH1 0x0 DUP1 REVERT JUMPDEST POP PUSH2 0x225 PUSH2 0x50E CALLDATASIZE PUSH1 0x4 PUSH2 0x2369 JUMP JUMPDEST PUSH2 0x1D3D JUMP JUMPDEST CALLVALUE DUP1 ISZERO PUSH2 0x51F JUMPI PUSH1 0x0 DUP1 REVERT JUMPDEST POP PUSH2 0x1DC PUSH2 0x52E CALLDATASIZE PUSH1 0x4 PUSH2 0x2613 JUMP JUMPDEST PUSH2 0x1DE6 JUMP JUMPDEST CALLVALUE DUP1 ISZERO PUSH2 0x53F JUMPI PUSH1 0x0 DUP1 REVERT JUMPDEST POP PUSH2 0x225 PUSH2 0x54E CALLDATASIZE PUSH1 0x4 PUSH2 0x23FA JUMP JUMPDEST PUSH2 0x1E89 JUMP JUMPDEST CALLVALUE DUP1 ISZERO PUSH2 0x55F JUMPI PUSH1 0x0 DUP1 REVERT JUMPDEST POP PUSH1 0x5 SLOAD PUSH2 0x3F1 SWAP1 PUSH1 0x1 PUSH1 0x1 PUSH1 0xA0 SHL SUB AND DUP2 JUMP JUMPDEST PUSH1 0x1 PUSH1 0x1 PUSH1 0xA0 SHL SUB DUP1 DUP5 AND PUSH1 0x0 SWAP1 DUP2 MSTORE PUSH1 0x2 PUSH1 0x20 SWAP1 DUP2 MSTORE PUSH1 0x40 DUP1 DUP4 KECCAK256 SWAP4 DUP7 AND DUP4 MSTORE SWAP3 SWAP1 MSTORE SWAP1 DUP2 KECCAK256 SLOAD DUP1 DUP3 SUB PUSH2 0x5AC JUMPI PUSH1 0x0 SWAP2 POP POP PUSH2 0x66C JUMP JUMPDEST DUP3 PUSH1 0x1 PUSH1 0x1 PUSH1 0xA0 SHL SUB AND DUP5 PUSH1 0x1 PUSH1 0x1 PUSH1 0xA0 SHL SUB AND SUB PUSH2 0x5CC JUMPI SWAP1 POP PUSH2 0x66C JUMP JUMPDEST PUSH1 0x4 DUP1 SLOAD PUSH1 0x40 MLOAD PUSH4 0x5D5530DF PUSH1 0xE1 SHL DUP2 MSTORE PUSH1 0x1 PUSH1 0x1 PUSH1 0xA0 SHL SUB DUP8 DUP2 AND SWAP4 DUP3 ADD SWAP4 SWAP1 SWAP4 MSTORE DUP6 DUP4 AND PUSH1 0x24 DUP3 ADD MSTORE PUSH1 0x0 SWAP3 SWAP1 SWAP2 AND SWAP1 PUSH4 0xBAAA61BE SWAP1 PUSH1 0x44 ADD PUSH1 0x20 PUSH1 0x40 MLOAD DUP1 DUP4 SUB DUP2 DUP7 GAS STATICCALL ISZERO DUP1 ISZERO PUSH2 0x624 JUMPI RETURNDATASIZE PUSH1 0x0 DUP1 RETURNDATACOPY RETURNDATASIZE PUSH1 0x0 REVERT JUMPDEST POP POP POP POP PUSH1 0x40 MLOAD RETURNDATASIZE PUSH1 0x1F NOT PUSH1 0x1F DUP3 ADD AND DUP3 ADD DUP1 PUSH1 0x40 MSTORE POP DUP2 ADD SWAP1 PUSH2 0x648 SWAP2 SWAP1 PUSH2 0x2735 JUMP JUMPDEST SWAP1 POP PUSH8 0xDE0B6B3A7640000 PUSH2 0x65D DUP3 DUP5 PUSH2 0x2764 JUMP JUMPDEST PUSH2 0x667 SWAP2 SWAP1 PUSH2 0x277B JUMP JUMPDEST SWAP3 POP POP POP JUMPDEST SWAP4 SWAP3 POP POP POP JUMP JUMPDEST PUSH2 0x67B PUSH2 0x1F02 JUMP JUMPDEST PUSH2 0x2710 DUP2 GT ISZERO PUSH2 0x6E8 JUMPI PUSH1 0x40 MLOAD PUSH3 0x461BCD PUSH1 0xE5 SHL DUP2 MSTORE PUSH1 0x20 PUSH1 0x4 DUP3 ADD MSTORE PUSH1 0x2D PUSH1 0x24 DUP3 ADD MSTORE PUSH32 0x436F6C6C61746572616C4D616E616765723A206C69717569646174696F6E2062 PUSH1 0x44 DUP3 ADD MSTORE PUSH13 0xDEDCEAE640E8DEDE40D0D2CED PUSH1 0x9B SHL PUSH1 0x64 DUP3 ADD MSTORE PUSH1 0x84 ADD JUMPDEST PUSH1 0x40 MLOAD DUP1 SWAP2 SUB SWAP1 REVERT JUMPDEST PUSH1 0x7 DUP2 SWAP1 SSTORE PUSH1 0x40 MLOAD DUP2 DUP2 MSTORE PUSH32 0xAEBDBB2D62051C61387BF5A1CD77F093484880809EABD6B2ECEFB2DC5869D23D SWAP1 PUSH1 0x20 ADD JUMPDEST PUSH1 0x40 MLOAD DUP1 SWAP2 SUB SWAP1 LOG1 POP JUMP JUMPDEST PUSH1 0x5 SLOAD PUSH1 0x40 MLOAD PUSH4 0x39595359 PUSH1 0xE2 SHL DUP2 MSTORE PUSH1 0x1 PUSH1 0x1 PUSH1 0xA0 SHL SUB DUP5 DUP2 AND PUSH1 0x4 DUP4 ADD MSTORE PUSH1 0x0 SWAP3 DUP4 SWAP3 SWAP2 AND SWAP1 PUSH4 0xE5654D64 SWAP1 PUSH1 0x24 ADD PUSH1 0x20 PUSH1 0x40 MLOAD DUP1 DUP4 SUB DUP2 DUP7 GAS STATICCALL ISZERO DUP1 ISZERO PUSH2 0x772 JUMPI RETURNDATASIZE PUSH1 0x0 DUP1 RETURNDATACOPY RETURNDATASIZE PUSH1 0x0 REVERT JUMPDEST POP POP POP POP PUSH1 0x40 MLOAD RETURNDATASIZE PUSH1 0x1F NOT PUSH1 0x1F DUP3 ADD AND DUP3 ADD DUP1 PUSH1 0x40 MSTORE POP DUP2 ADD SWAP1 PUSH2 0x796 SWAP2 SWAP1 PUSH2 0x2735 JUMP JUMPDEST SWAP1 POP DUP1 PUSH1 0x0 SUB PUSH2 0x7AA JUMPI PUSH1 0x0 SWAP2 POP POP PUSH2 0x7DB JUMP JUMPDEST PUSH1 0x0 PUSH2 0x7B6 DUP6 DUP6 PUSH2 0x8FD JUMP JUMPDEST SWAP1 POP PUSH1 0x0 DUP3 PUSH2 0x7C7 PUSH2 0x2710 DUP5 PUSH2 0x2764 JUMP JUMPDEST PUSH2 0x7D1 SWAP2 SWAP1 PUSH2 0x277B JUMP JUMPDEST PUSH1 0x6 SLOAD GT SWAP4 POP POP POP POP JUMPDEST SWAP3 SWAP2 POP POP JUMP JUMPDEST PUSH2 0x7E9 PUSH2 0x1F02 JUMP JUMPDEST PUSH1 0x1 PUSH1 0x1 PUSH1 0xA0 SHL SUB DUP3 AND PUSH1 0x0 DUP2 DUP2 MSTORE PUSH1 0x3 PUSH1 0x20 SWAP1 DUP2 MSTORE PUSH1 0x40 SWAP2 DUP3 SWAP1 KECCAK256 DUP1 SLOAD PUSH1 0xFF NOT AND DUP6 ISZERO ISZERO SWAP1 DUP2 OR SWAP1 SWAP2 SSTORE SWAP2 MLOAD SWAP2 DUP3 MSTORE PUSH32 0xD65827D8427ABF392ED8C373698B4BEDD3B9FAECA8019887008F4F754DA89CDF SWAP2 ADD PUSH1 0x40 MLOAD DUP1 SWAP2 SUB SWAP1 LOG2 POP POP JUMP JUMPDEST PUSH1 0x5 SLOAD PUSH1 0x40 MLOAD PUSH4 0x39595359 PUSH1 0xE2 SHL DUP2 MSTORE PUSH1 0x1 PUSH1 0x1 PUSH1 0xA0 SHL SUB DUP5 DUP2 AND PUSH1 0x4 DUP4 ADD MSTORE PUSH1 0x0 SWAP3 DUP4 SWAP3 SWAP2 AND SWAP1 PUSH4 0xE5654D64 SWAP1 PUSH1 0x24 ADD PUSH1 0x20 PUSH1 0x40 MLOAD DUP1 DUP4 SUB DUP2 DUP7 GAS STATICCALL ISZERO DUP1 ISZERO PUSH2 0x896 JUMPI RETURNDATASIZE PUSH1 0x0 DUP1 RETURNDATACOPY RETURNDATASIZE PUSH1 0x0 REVERT JUMPDEST POP POP POP POP PUSH1 0x40 MLOAD RETURNDATASIZE PUSH1 0x1F NOT PUSH1 0x1F DUP3 ADD AND DUP3 ADD DUP1 PUSH1 0x40 MSTORE POP DUP2 ADD SWAP1 PUSH2 0x8BA SWAP2 SWAP1 PUSH2 0x2735 JUMP JUMPDEST SWAP1 POP DUP1 PUSH1 0x0 SUB PUSH2 0x8CF JUMPI PUSH1 0x0 NOT SWAP2 POP POP PUSH2 0x7DB JUMP JUMPDEST PUSH1 0x0 PUSH2 0x8DB DUP6 DUP6 PUSH2 0x8FD JUMP JUMPDEST SWAP1 POP DUP2 PUSH2 0x8EA PUSH2 0x2710 DUP4 PUSH2 0x2764 JUMP JUMPDEST PUSH2 0x8F4 SWAP2 SWAP1 PUSH2 0x277B JUMP JUMPDEST SWAP6 SWAP5 POP POP POP POP POP JUMP JUMPDEST PUSH1 0x40 DUP1 MLOAD PUSH1 0x3 DUP1 DUP3 MSTORE PUSH1 0x80 DUP3 ADD SWAP1 SWAP3 MSTORE PUSH1 0x0 SWAP2 DUP3 SWAP2 DUP3 SWAP2 PUSH1 0x20 DUP3 ADD PUSH1 0x60 DUP1 CALLDATASIZE DUP4 CALLDATACOPY ADD SWAP1 POP POP SWAP1 POP PUSH20 0x874069FA1EE493706DBEE6CF34FF9829832E6A00 DUP2 PUSH1 0x0 DUP2 MLOAD DUP2 LT PUSH2 0x94C JUMPI PUSH2 0x94C PUSH2 0x279D JUMP JUMPDEST PUSH1 0x20 MUL PUSH1 0x20 ADD ADD SWAP1 PUSH1 0x1 PUSH1 0x1 PUSH1 0xA0 SHL SUB AND SWAP1 DUP2 PUSH1 0x1 PUSH1 0x1 PUSH1 0xA0 SHL SUB AND DUP2 MSTORE POP POP PUSH20 0x62B8B11039FF5064145D0D87D32C658DA4CC2DC1 DUP2 PUSH1 0x1 DUP2 MLOAD DUP2 LT PUSH2 0x994 JUMPI PUSH2 0x994 PUSH2 0x279D JUMP JUMPDEST PUSH1 0x20 MUL PUSH1 0x20 ADD ADD SWAP1 PUSH1 0x1 PUSH1 0x1 PUSH1 0xA0 SHL SUB AND SWAP1 DUP2 PUSH1 0x1 PUSH1 0x1 PUSH1 0xA0 SHL SUB AND DUP2 MSTORE POP POP PUSH1 0x0 DUP2 PUSH1 0x2 DUP2 MLOAD DUP2 LT PUSH2 0x9C9 JUMPI PUSH2 0x9C9 PUSH2 0x279D JUMP JUMPDEST PUSH1 0x20 MUL PUSH1 0x20 ADD ADD SWAP1 PUSH1 0x1 PUSH1 0x1 PUSH1 0xA0 SHL SUB AND SWAP1 DUP2 PUSH1 0x1 PUSH1 0x1 PUSH1 0xA0 SHL SUB AND DUP2 MSTORE POP POP PUSH1 0x0 JUMPDEST DUP2 MLOAD DUP2 LT ISZERO PUSH2 0xA7A JUMPI PUSH1 0x3 PUSH1 0x0 DUP4 DUP4 DUP2 MLOAD DUP2 LT PUSH2 0xA0B JUMPI PUSH2 0xA0B PUSH2 0x279D JUMP JUMPDEST PUSH1 0x20 SWAP1 DUP2 MUL SWAP2 SWAP1 SWAP2 ADD DUP2 ADD MLOAD PUSH1 0x1 PUSH1 0x1 PUSH1 0xA0 SHL SUB AND DUP3 MSTORE DUP2 ADD SWAP2 SWAP1 SWAP2 MSTORE PUSH1 0x40 ADD PUSH1 0x0 KECCAK256 SLOAD PUSH1 0xFF AND ISZERO PUSH2 0xA68 JUMPI PUSH2 0xA5B DUP7 DUP4 DUP4 DUP2 MLOAD DUP2 LT PUSH2 0xA4D JUMPI PUSH2 0xA4D PUSH2 0x279D JUMP JUMPDEST PUSH1 0x20 MUL PUSH1 0x20 ADD ADD MLOAD DUP8 PUSH2 0x573 JUMP JUMPDEST PUSH2 0xA65 SWAP1 DUP5 PUSH2 0x27B3 JUMP JUMPDEST SWAP3 POP JUMPDEST DUP1 PUSH2 0xA72 DUP2 PUSH2 0x27C6 JUMP JUMPDEST SWAP2 POP POP PUSH2 0x9EC JUMP JUMPDEST POP SWAP1 SWAP5 SWAP4 POP POP POP POP JUMP JUMPDEST PUSH1 0x40 DUP1 MLOAD PUSH1 0x3 DUP1 DUP3 MSTORE PUSH1 0x80 DUP3 ADD SWAP1 SWAP3 MSTORE PUSH1 0x60 SWAP2 DUP3 SWAP2 PUSH1 0x0 SWAP2 PUSH1 0x20 DUP3 ADD DUP5 DUP1 CALLDATASIZE DUP4 CALLDATACOPY ADD SWAP1 POP POP SWAP1 POP PUSH20 0x874069FA1EE493706DBEE6CF34FF9829832E6A00 DUP2 PUSH1 0x0 DUP2 MLOAD DUP2 LT PUSH2 0xAD3 JUMPI PUSH2 0xAD3 PUSH2 0x279D JUMP JUMPDEST PUSH1 0x20 MUL PUSH1 0x20 ADD ADD SWAP1 PUSH1 0x1 PUSH1 0x1 PUSH1 0xA0 SHL SUB AND SWAP1 DUP2 PUSH1 0x1 PUSH1 0x1 PUSH1 0xA0 SHL SUB AND DUP2 MSTORE POP POP PUSH20 0x62B8B11039FF5064145D0D87D32C658DA4CC2DC1 DUP2 PUSH1 0x1 DUP2 MLOAD DUP2 LT PUSH2 0xB1B JUMPI PUSH2 0xB1B PUSH2 0x279D JUMP JUMPDEST PUSH1 0x20 MUL PUSH1 0x20 ADD ADD SWAP1 PUSH1 0x1 PUSH1 0x1 PUSH1 0xA0 SHL SUB AND SWAP1 DUP2 PUSH1 0x1 PUSH1 0x1 PUSH1 0xA0 SHL SUB AND DUP2 MSTORE POP POP PUSH1 0x0 DUP2 PUSH1 0x2 DUP2 MLOAD DUP2 LT PUSH2 0xB50 JUMPI PUSH2 0xB50 PUSH2 0x279D JUMP JUMPDEST PUSH1 0x20 MUL PUSH1 0x20 ADD ADD SWAP1 PUSH1 0x1 PUSH1 0x1 PUSH1 0xA0 SHL SUB AND SWAP1 DUP2 PUSH1 0x1 PUSH1 0x1 PUSH1 0xA0 SHL SUB AND DUP2 MSTORE POP POP PUSH1 0x0 DUP1 JUMPDEST DUP3 MLOAD DUP2 LT ISZERO PUSH2 0xBFA JUMPI PUSH1 0x1 PUSH1 0x1 PUSH1 0xA0 SHL SUB DUP7 AND PUSH1 0x0 SWAP1 DUP2 MSTORE PUSH1 0x2 PUSH1 0x20 MSTORE PUSH1 0x40 DUP2 KECCAK256 DUP5 MLOAD DUP3 SWAP1 DUP7 SWAP1 DUP6 SWAP1 DUP2 LT PUSH2 0xBAB JUMPI PUSH2 0xBAB PUSH2 0x279D JUMP JUMPDEST PUSH1 0x20 MUL PUSH1 0x20 ADD ADD MLOAD PUSH1 0x1 PUSH1 0x1 PUSH1 0xA0 SHL SUB AND PUSH1 0x1 PUSH1 0x1 PUSH1 0xA0 SHL SUB AND DUP2 MSTORE PUSH1 0x20 ADD SWAP1 DUP2 MSTORE PUSH1 0x20 ADD PUSH1 0x0 KECCAK256 SLOAD GT ISZERO PUSH2 0xBE8 JUMPI DUP2 PUSH2 0xBE4 DUP2 PUSH2 0x27C6 JUMP JUMPDEST SWAP3 POP POP JUMPDEST DUP1 PUSH2 0xBF2 DUP2 PUSH2 0x27C6 JUMP JUMPDEST SWAP2 POP POP PUSH2 0xB74 JUMP JUMPDEST POP DUP1 PUSH8 0xFFFFFFFFFFFFFFFF DUP2 GT ISZERO PUSH2 0xC14 JUMPI PUSH2 0xC14 PUSH2 0x2499 JUMP JUMPDEST PUSH1 0x40 MLOAD SWAP1 DUP1 DUP3 MSTORE DUP1 PUSH1 0x20 MUL PUSH1 0x20 ADD DUP3 ADD PUSH1 0x40 MSTORE DUP1 ISZERO PUSH2 0xC3D JUMPI DUP2 PUSH1 0x20 ADD PUSH1 0x20 DUP3 MUL DUP1 CALLDATASIZE DUP4 CALLDATACOPY ADD SWAP1 POP JUMPDEST POP SWAP4 POP DUP1 PUSH8 0xFFFFFFFFFFFFFFFF DUP2 GT ISZERO PUSH2 0xC59 JUMPI PUSH2 0xC59 PUSH2 0x2499 JUMP JUMPDEST PUSH1 0x40 MLOAD SWAP1 DUP1 DUP3 MSTORE DUP1 PUSH1 0x20 MUL PUSH1 0x20 ADD DUP3 ADD PUSH1 0x40 MSTORE DUP1 ISZERO PUSH2 0xC82 JUMPI DUP2 PUSH1 0x20 ADD PUSH1 0x20 DUP3 MUL DUP1 CALLDATASIZE DUP4 CALLDATACOPY ADD SWAP1 POP JUMPDEST POP SWAP3 POP PUSH1 0x0 DUP1 JUMPDEST DUP4 MLOAD DUP2 LT ISZERO PUSH2 0xDDA JUMPI PUSH1 0x1 PUSH1 0x1 PUSH1 0xA0 SHL SUB DUP8 AND PUSH1 0x0 SWAP1 DUP2 MSTORE PUSH1 0x2 PUSH1 0x20 MSTORE PUSH1 0x40 DUP2 KECCAK256 DUP6 MLOAD DUP3 SWAP1 DUP8 SWAP1 DUP6 SWAP1 DUP2 LT PUSH2 0xCC0 JUMPI PUSH2 0xCC0 PUSH2 0x279D JUMP JUMPDEST PUSH1 0x20 MUL PUSH1 0x20 ADD ADD MLOAD PUSH1 0x1 PUSH1 0x1 PUSH1 0xA0 SHL SUB AND PUSH1 0x1 PUSH1 0x1 PUSH1 0xA0 SHL SUB AND DUP2 MSTORE PUSH1 0x20 ADD SWAP1 DUP2 MSTORE PUSH1 0x20 ADD PUSH1 0x0 KECCAK256 SLOAD GT ISZERO PUSH2 0xDC8 JUMPI DUP4 DUP2 DUP2 MLOAD DUP2 LT PUSH2 0xD01 JUMPI PUSH2 0xD01 PUSH2 0x279D JUMP JUMPDEST PUSH1 0x20 MUL PUSH1 0x20 ADD ADD MLOAD DUP7 DUP4 DUP2 MLOAD DUP2 LT PUSH2 0xD1B JUMPI PUSH2 0xD1B PUSH2 0x279D JUMP JUMPDEST PUSH1 0x20 MUL PUSH1 0x20 ADD ADD SWAP1 PUSH1 0x1 PUSH1 0x1 PUSH1 0xA0 SHL SUB AND SWAP1 DUP2 PUSH1 0x1 PUSH1 0x1 PUSH1 0xA0 SHL SUB AND DUP2 MSTORE POP POP PUSH1 0x2 PUSH1 0x0 DUP9 PUSH1 0x1 PUSH1 0x1 PUSH1 0xA0 SHL SUB AND PUSH1 0x1 PUSH1 0x1 PUSH1 0xA0 SHL SUB AND DUP2 MSTORE PUSH1 0x20 ADD SWAP1 DUP2 MSTORE PUSH1 0x20 ADD PUSH1 0x0 KECCAK256 PUSH1 0x0 DUP6 DUP4 DUP2 MLOAD DUP2 LT PUSH2 0xD74 JUMPI PUSH2 0xD74 PUSH2 0x279D JUMP JUMPDEST PUSH1 0x20 MUL PUSH1 0x20 ADD ADD MLOAD PUSH1 0x1 PUSH1 0x1 PUSH1 0xA0 SHL SUB AND PUSH1 0x1 PUSH1 0x1 PUSH1 0xA0 SHL SUB AND DUP2 MSTORE PUSH1 0x20 ADD SWAP1 DUP2 MSTORE PUSH1 0x20 ADD PUSH1 0x0 KECCAK256 SLOAD DUP6 DUP4 DUP2 MLOAD DUP2 LT PUSH2 0xDAF JUMPI PUSH2 0xDAF PUSH2 0x279D JUMP JUMPDEST PUSH1 0x20 SWAP1 DUP2 MUL SWAP2 SWAP1 SWAP2 ADD ADD MSTORE DUP2 PUSH2 0xDC4 DUP2 PUSH2 0x27C6 JUMP JUMPDEST SWAP3 POP POP JUMPDEST DUP1 PUSH2 0xDD2 DUP2 PUSH2 0x27C6 JUMP JUMPDEST SWAP2 POP POP PUSH2 0xC89 JUMP JUMPDEST POP POP POP POP SWAP2 POP SWAP2 JUMP JUMPDEST PUSH1 0x0 DUP1 DUP1 JUMPDEST DUP5 MLOAD DUP2 LT ISZERO PUSH2 0xE76 JUMPI PUSH1 0x3 PUSH1 0x0 DUP7 DUP4 DUP2 MLOAD DUP2 LT PUSH2 0xE07 JUMPI PUSH2 0xE07 PUSH2 0x279D JUMP JUMPDEST PUSH1 0x20 SWAP1 DUP2 MUL SWAP2 SWAP1 SWAP2 ADD DUP2 ADD MLOAD PUSH1 0x1 PUSH1 0x1 PUSH1 0xA0 SHL SUB AND DUP3 MSTORE DUP2 ADD SWAP2 SWAP1 SWAP2 MSTORE PUSH1 0x40 ADD PUSH1 0x0 KECCAK256 SLOAD PUSH1 0xFF AND ISZERO PUSH2 0xE64 JUMPI PUSH2 0xE57 DUP7 DUP7 DUP4 DUP2 MLOAD DUP2 LT PUSH2 0xE49 JUMPI PUSH2 0xE49 PUSH2 0x279D JUMP JUMPDEST PUSH1 0x20 MUL PUSH1 0x20 ADD ADD MLOAD DUP7 PUSH2 0x573 JUMP JUMPDEST PUSH2 0xE61 SWAP1 DUP4 PUSH2 0x27B3 JUMP JUMPDEST SWAP2 POP JUMPDEST DUP1 PUSH2 0xE6E DUP2 PUSH2 0x27C6 JUMP JUMPDEST SWAP2 POP POP PUSH2 0xDE8 JUMP JUMPDEST POP SWAP5 SWAP4 POP POP POP POP JUMP JUMPDEST PUSH2 0xE87 PUSH2 0x1F5C JUMP JUMPDEST PUSH1 0x1 PUSH1 0x1 PUSH1 0xA0 SHL SUB DUP3 AND PUSH1 0x0 SWAP1 DUP2 MSTORE PUSH1 0x3 PUSH1 0x20 MSTORE PUSH1 0x40 SWAP1 KECCAK256 SLOAD DUP3 SWAP1 PUSH1 0xFF AND PUSH2 0xEC1 JUMPI PUSH1 0x40 MLOAD PUSH3 0x461BCD PUSH1 0xE5 SHL DUP2 MSTORE PUSH1 0x4 ADD PUSH2 0x6DF SWAP1 PUSH2 0x27DF JUMP JUMPDEST DUP2 PUSH1 0x0 DUP2 GT PUSH2 0xEE2 JUMPI PUSH1 0x40 MLOAD PUSH3 0x461BCD PUSH1 0xE5 SHL DUP2 MSTORE PUSH1 0x4 ADD PUSH2 0x6DF SWAP1 PUSH2 0x2832 JUMP JUMPDEST PUSH1 0x1 PUSH1 0x1 PUSH1 0xA0 SHL SUB DUP5 AND PUSH2 0xF55 JUMPI DUP3 CALLVALUE EQ PUSH2 0xF50 JUMPI PUSH1 0x40 MLOAD PUSH3 0x461BCD PUSH1 0xE5 SHL DUP2 MSTORE PUSH1 0x20 PUSH1 0x4 DUP3 ADD MSTORE PUSH1 0x28 PUSH1 0x24 DUP3 ADD MSTORE PUSH32 0x436F6C6C61746572616C4D616E616765723A20696E636F72726563742043454C PUSH1 0x44 DUP3 ADD MSTORE PUSH8 0x13C8185B5BDD5B9D PUSH1 0xC2 SHL PUSH1 0x64 DUP3 ADD MSTORE PUSH1 0x84 ADD PUSH2 0x6DF JUMP JUMPDEST PUSH2 0xF6A JUMP JUMPDEST PUSH2 0xF6A PUSH1 0x1 PUSH1 0x1 PUSH1 0xA0 SHL SUB DUP6 AND CALLER ADDRESS DUP7 PUSH2 0x1FB5 JUMP JUMPDEST CALLER PUSH1 0x0 SWAP1 DUP2 MSTORE PUSH1 0x2 PUSH1 0x20 SWAP1 DUP2 MSTORE PUSH1 0x40 DUP1 DUP4 KECCAK256 PUSH1 0x1 PUSH1 0x1 PUSH1 0xA0 SHL SUB DUP9 AND DUP5 MSTORE SWAP1 SWAP2 MSTORE DUP2 KECCAK256 DUP1 SLOAD DUP6 SWAP3 SWAP1 PUSH2 0xF9D SWAP1 DUP5 SWAP1 PUSH2 0x27B3 JUMP JUMPDEST SWAP1 SWAP2 SSTORE POP POP PUSH1 0x40 MLOAD DUP4 DUP2 MSTORE PUSH1 0x1 PUSH1 0x1 PUSH1 0xA0 SHL SUB DUP6 AND SWAP1 CALLER SWAP1 PUSH32 0x8A844E786620B0B008B32C1151AFB99261D854D9E0E911B2A5EE2F54BD5E3A0B SWAP1 PUSH1 0x20 ADD JUMPDEST PUSH1 0x40 MLOAD DUP1 SWAP2 SUB SWAP1 LOG3 POP POP PUSH2 0xFEE PUSH1 0x1 DUP1 SSTORE JUMP JUMPDEST POP POP JUMP JUMPDEST PUSH2 0xFFA PUSH2 0x1F02 JUMP JUMPDEST PUSH1 0x5 SLOAD PUSH1 0x40 MLOAD PUSH4 0x9D0BEE03 PUSH1 0xE0 SHL DUP2 MSTORE PUSH1 0x1 PUSH1 0x1 PUSH1 0xA0 SHL SUB DUP5 DUP2 AND PUSH1 0x4 DUP4 ADD MSTORE PUSH1 0x24 DUP3 ADD DUP5 SWAP1 MSTORE SWAP1 SWAP2 AND SWAP1 PUSH4 0x9D0BEE03 SWAP1 PUSH1 0x44 ADD PUSH1 0x0 PUSH1 0x40 MLOAD DUP1 DUP4 SUB DUP2 PUSH1 0x0 DUP8 DUP1 EXTCODESIZE ISZERO DUP1 ISZERO PUSH2 0x1048 JUMPI PUSH1 0x0 DUP1 REVERT JUMPDEST POP GAS CALL ISZERO DUP1 ISZERO PUSH2 0x105C JUMPI RETURNDATASIZE PUSH1 0x0 DUP1 RETURNDATACOPY RETURNDATASIZE PUSH1 0x0 REVERT JUMPDEST POP POP POP POP POP POP JUMP JUMPDEST PUSH1 0x60 DUP1 PUSH1 0x0 DUP1 JUMPDEST DUP5 MLOAD DUP2 LT ISZERO PUSH2 0x10F1 JUMPI PUSH1 0x1 PUSH1 0x1 PUSH1 0xA0 SHL SUB DUP7 AND PUSH1 0x0 SWAP1 DUP2 MSTORE PUSH1 0x2 PUSH1 0x20 MSTORE PUSH1 0x40 DUP2 KECCAK256 DUP7 MLOAD DUP3 SWAP1 DUP9 SWAP1 DUP6 SWAP1 DUP2 LT PUSH2 0x10A2 JUMPI PUSH2 0x10A2 PUSH2 0x279D JUMP JUMPDEST PUSH1 0x20 MUL PUSH1 0x20 ADD ADD MLOAD PUSH1 0x1 PUSH1 0x1 PUSH1 0xA0 SHL SUB AND PUSH1 0x1 PUSH1 0x1 PUSH1 0xA0 SHL SUB AND DUP2 MSTORE PUSH1 0x20 ADD SWAP1 DUP2 MSTORE PUSH1 0x20 ADD PUSH1 0x0 KECCAK256 SLOAD GT ISZERO PUSH2 0x10DF JUMPI DUP2 PUSH2 0x10DB DUP2 PUSH2 0x27C6 JUMP JUMPDEST SWAP3 POP POP JUMPDEST DUP1 PUSH2 0x10E9 DUP2 PUSH2 0x27C6 JUMP JUMPDEST SWAP2 POP POP PUSH2 0x106B JUMP JUMPDEST POP DUP1 PUSH8 0xFFFFFFFFFFFFFFFF DUP2 GT ISZERO PUSH2 0x110B JUMPI PUSH2 0x110B PUSH2 0x2499 JUMP JUMPDEST PUSH1 0x40 MLOAD SWAP1 DUP1 DUP3 MSTORE DUP1 PUSH1 0x20 MUL PUSH1 0x20 ADD DUP3 ADD PUSH1 0x40 MSTORE DUP1 ISZERO PUSH2 0x1134 JUMPI DUP2 PUSH1 0x20 ADD PUSH1 0x20 DUP3 MUL DUP1 CALLDATASIZE DUP4 CALLDATACOPY ADD SWAP1 POP JUMPDEST POP SWAP3 POP DUP1 PUSH8 0xFFFFFFFFFFFFFFFF DUP2 GT ISZERO PUSH2 0x1150 JUMPI PUSH2 0x1150 PUSH2 0x2499 JUMP JUMPDEST PUSH1 0x40 MLOAD SWAP1 DUP1 DUP3 MSTORE DUP1 PUSH1 0x20 MUL PUSH1 0x20 ADD DUP3 ADD PUSH1 0x40 MSTORE DUP1 ISZERO PUSH2 0x1179 JUMPI DUP2 PUSH1 0x20 ADD PUSH1 0x20 DUP3 MUL DUP1 CALLDATASIZE DUP4 CALLDATACOPY ADD SWAP1 POP JUMPDEST POP SWAP2 POP PUSH1 0x0 DUP1 JUMPDEST DUP6 MLOAD DUP2 LT ISZERO PUSH2 0x12D1 JUMPI PUSH1 0x1 PUSH1 0x1 PUSH1 0xA0 SHL SUB DUP8 AND PUSH1 0x0 SWAP1 DUP2 MSTORE PUSH1 0x2 PUSH1 0x20 MSTORE PUSH1 0x40 DUP2 KECCAK256 DUP8 MLOAD DUP3 SWAP1 DUP10 SWAP1 DUP6 SWAP1 DUP2 LT PUSH2 0x11B7 JUMPI PUSH2 0x11B7 PUSH2 0x279D JUMP JUMPDEST PUSH1 0x20 MUL PUSH1 0x20 ADD ADD MLOAD PUSH1 0x1 PUSH1 0x1 PUSH1 0xA0 SHL SUB AND PUSH1 0x1 PUSH1 0x1 PUSH1 0xA0 SHL SUB AND DUP2 MSTORE PUSH1 0x20 ADD SWAP1 DUP2 MSTORE PUSH1 0x20 ADD PUSH1 0x0 KECCAK256 SLOAD GT ISZERO PUSH2 0x12BF JUMPI DUP6 DUP2 DUP2 MLOAD DUP2 LT PUSH2 0x11F8 JUMPI PUSH2 0x11F8 PUSH2 0x279D JUMP JUMPDEST PUSH1 0x20 MUL PUSH1 0x20 ADD ADD MLOAD DUP6 DUP4 DUP2 MLOAD DUP2 LT PUSH2 0x1212 JUMPI PUSH2 0x1212 PUSH2 0x279D JUMP JUMPDEST PUSH1 0x20 MUL PUSH1 0x20 ADD ADD SWAP1 PUSH1 0x1 PUSH1 0x1 PUSH1 0xA0 SHL SUB AND SWAP1 DUP2 PUSH1 0x1 PUSH1 0x1 PUSH1 0xA0 SHL SUB AND DUP2 MSTORE POP POP PUSH1 0x2 PUSH1 0x0 DUP9 PUSH1 0x1 PUSH1 0x1 PUSH1 0xA0 SHL SUB AND PUSH1 0x1 PUSH1 0x1 PUSH1 0xA0 SHL SUB AND DUP2 MSTORE PUSH1 0x20 ADD SWAP1 DUP2 MSTORE PUSH1 0x20 ADD PUSH1 0x0 KECCAK256 PUSH1 0x0 DUP8 DUP4 DUP2 MLOAD DUP2 LT PUSH2 0x126B JUMPI PUSH2 0x126B PUSH2 0x279D JUMP JUMPDEST PUSH1 0x20 MUL PUSH1 0x20 ADD ADD MLOAD PUSH1 0x1 PUSH1 0x1 PUSH1 0xA0 SHL SUB AND PUSH1 0x1 PUSH1 0x1 PUSH1 0xA0 SHL SUB AND DUP2 MSTORE PUSH1 0x20 ADD SWAP1 DUP2 MSTORE PUSH1 0x20 ADD PUSH1 0x0 KECCAK256 SLOAD DUP5 DUP4 DUP2 MLOAD DUP2 LT PUSH2 0x12A6 JUMPI PUSH2 0x12A6 PUSH2 0x279D JUMP JUMPDEST PUSH1 0x20 SWAP1 DUP2 MUL SWAP2 SWAP1 SWAP2 ADD ADD MSTORE DUP2 PUSH2 0x12BB DUP2 PUSH2 0x27C6 JUMP JUMPDEST SWAP3 POP POP JUMPDEST DUP1 PUSH2 0x12C9 DUP2 PUSH2 0x27C6 JUMP JUMPDEST SWAP2 POP POP PUSH2 0x1180 JUMP JUMPDEST POP POP POP SWAP3 POP SWAP3 SWAP1 POP JUMP JUMPDEST PUSH2 0x12E3 PUSH2 0x1F02 JUMP JUMPDEST PUSH2 0x12ED PUSH1 0x0 PUSH2 0x2020 JUMP JUMPDEST JUMP JUMPDEST PUSH2 0x12F7 PUSH2 0x1F5C JUMP JUMPDEST DUP1 PUSH1 0x0 DUP2 GT PUSH2 0x1318 JUMPI PUSH1 0x40 MLOAD PUSH3 0x461BCD PUSH1 0xE5 SHL DUP2 MSTORE PUSH1 0x4 ADD PUSH2 0x6DF SWAP1 PUSH2 0x2832 JUMP JUMPDEST CALLER PUSH1 0x0 SWAP1 DUP2 MSTORE PUSH1 0x2 PUSH1 0x20 SWAP1 DUP2 MSTORE PUSH1 0x40 DUP1 DUP4 KECCAK256 PUSH1 0x1 PUSH1 0x1 PUSH1 0xA0 SHL SUB DUP8 AND DUP5 MSTORE SWAP1 SWAP2 MSTORE SWAP1 KECCAK256 SLOAD DUP3 GT ISZERO PUSH2 0x139E JUMPI PUSH1 0x40 MLOAD PUSH3 0x461BCD PUSH1 0xE5 SHL DUP2 MSTORE PUSH1 0x20 PUSH1 0x4 DUP3 ADD MSTORE PUSH1 0x2A PUSH1 0x24 DUP3 ADD MSTORE PUSH32 0x436F6C6C61746572616C4D616E616765723A20696E73756666696369656E7420 PUSH1 0x44 DUP3 ADD MSTORE PUSH10 0x18DBDB1B185D195C985B PUSH1 0xB2 SHL PUSH1 0x64 DUP3 ADD MSTORE PUSH1 0x84 ADD PUSH2 0x6DF JUMP JUMPDEST PUSH1 0x5 SLOAD PUSH1 0x40 MLOAD PUSH4 0x39595359 PUSH1 0xE2 SHL DUP2 MSTORE CALLER PUSH1 0x4 DUP3 ADD MSTORE PUSH1 0x0 SWAP2 PUSH1 0x1 PUSH1 0x1 PUSH1 0xA0 SHL SUB AND SWAP1 PUSH4 0xE5654D64 SWAP1 PUSH1 0x24 ADD PUSH1 0x20 PUSH1 0x40 MLOAD DUP1 DUP4 SUB DUP2 DUP7 GAS STATICCALL ISZERO DUP1 ISZERO PUSH2 0x13E7 JUMPI RETURNDATASIZE PUSH1 0x0 DUP1 RETURNDATACOPY RETURNDATASIZE PUSH1 0x0 REVERT JUMPDEST POP POP POP POP PUSH1 0x40 MLOAD RETURNDATASIZE PUSH1 0x1F NOT PUSH1 0x1F DUP3 ADD AND DUP3 ADD DUP1 PUSH1 0x40 MSTORE POP DUP2 ADD SWAP1 PUSH2 0x140B SWAP2 SWAP1 PUSH2 0x2735 JUMP JUMPDEST SWAP1 POP DUP1 ISZERO PUSH2 0x14E9 JUMPI PUSH1 0x0 PUSH2 0x141F CALLER DUP7 PUSH2 0x8FD JUMP JUMPDEST SWAP1 POP PUSH1 0x0 PUSH2 0x142E CALLER DUP8 DUP9 PUSH2 0x573 JUMP JUMPDEST SWAP1 POP PUSH1 0x0 DUP2 DUP4 GT PUSH2 0x1440 JUMPI PUSH1 0x0 PUSH2 0x144A JUMP JUMPDEST PUSH2 0x144A DUP3 DUP5 PUSH2 0x2885 JUMP JUMPDEST SWAP1 POP PUSH1 0x6 SLOAD DUP5 PUSH2 0x145A SWAP2 SWAP1 PUSH2 0x2764 JUMP JUMPDEST PUSH2 0x1466 PUSH2 0x2710 DUP4 PUSH2 0x2764 JUMP JUMPDEST LT ISZERO PUSH2 0x14E5 JUMPI PUSH1 0x40 MLOAD PUSH3 0x461BCD PUSH1 0xE5 SHL DUP2 MSTORE PUSH1 0x20 PUSH1 0x4 DUP3 ADD MSTORE PUSH1 0x42 PUSH1 0x24 DUP3 ADD MSTORE PUSH32 0x436F6C6C61746572616C4D616E616765723A2072656D6F76616C20776F756C64 PUSH1 0x44 DUP3 ADD MSTORE PUSH32 0x206D616B6520706F736974696F6E20756E646572636F6C6C61746572616C697A PUSH1 0x64 DUP3 ADD MSTORE PUSH2 0x1959 PUSH1 0xF2 SHL PUSH1 0x84 DUP3 ADD MSTORE PUSH1 0xA4 ADD PUSH2 0x6DF JUMP JUMPDEST POP POP POP JUMPDEST CALLER PUSH1 0x0 SWAP1 DUP2 MSTORE PUSH1 0x2 PUSH1 0x20 SWAP1 DUP2 MSTORE PUSH1 0x40 DUP1 DUP4 KECCAK256 PUSH1 0x1 PUSH1 0x1 PUSH1 0xA0 SHL SUB DUP9 AND DUP5 MSTORE SWAP1 SWAP2 MSTORE DUP2 KECCAK256 DUP1 SLOAD DUP6 SWAP3 SWAP1 PUSH2 0x151C SWAP1 DUP5 SWAP1 PUSH2 0x2885 JUMP JUMPDEST SWAP1 SWAP2 SSTORE POP POP PUSH1 0x1 PUSH1 0x1 PUSH1 0xA0 SHL SUB DUP5 AND PUSH2 0x159D JUMPI PUSH1 0x40 MLOAD PUSH1 0x0 SWAP1 CALLER SWAP1 DUP6 SWAP1 DUP4 DUP2 DUP2 DUP2 DUP6 DUP8 GAS CALL SWAP3 POP POP POP RETURNDATASIZE DUP1 PUSH1 0x0 DUP2 EQ PUSH2 0x1571 JUMPI PUSH1 0x40 MLOAD SWAP2 POP PUSH1 0x1F NOT PUSH1 0x3F RETURNDATASIZE ADD AND DUP3 ADD PUSH1 0x40 MSTORE RETURNDATASIZE DUP3 MSTORE RETURNDATASIZE PUSH1 0x0 PUSH1 0x20 DUP5 ADD RETURNDATACOPY PUSH2 0x1576 JUMP JUMPDEST PUSH1 0x60 SWAP2 POP JUMPDEST POP POP SWAP1 POP DUP1 PUSH2 0x1597 JUMPI PUSH1 0x40 MLOAD PUSH3 0x461BCD PUSH1 0xE5 SHL DUP2 MSTORE PUSH1 0x4 ADD PUSH2 0x6DF SWAP1 PUSH2 0x2898 JUMP JUMPDEST POP PUSH2 0x15B1 JUMP JUMPDEST PUSH2 0x15B1 PUSH1 0x1 PUSH1 0x1 PUSH1 0xA0 SHL SUB DUP6 AND CALLER DUP6 PUSH2 0x2070 JUMP JUMPDEST PUSH1 0x40 MLOAD DUP4 DUP2 MSTORE PUSH1 0x1 PUSH1 0x1 PUSH1 0xA0 SHL SUB DUP6 AND SWAP1 CALLER SWAP1 PUSH32 0xCE4D55AD6D5734BD8B947E19D64C51774BDC08AB4B2E59EE3A764476BEA650DE SWAP1 PUSH1 0x20 ADD PUSH2 0xFDB JUMP JUMPDEST PUSH1 0x5 SLOAD PUSH1 0x40 MLOAD PUSH4 0x39595359 PUSH1 0xE2 SHL DUP2 MSTORE PUSH1 0x1 PUSH1 0x1 PUSH1 0xA0 SHL SUB DUP6 DUP2 AND PUSH1 0x4 DUP4 ADD MSTORE PUSH1 0x0 SWAP3 DUP4 SWAP3 SWAP2 AND SWAP1 PUSH4 0xE5654D64 SWAP1 PUSH1 0x24 ADD PUSH1 0x20 PUSH1 0x40 MLOAD DUP1 DUP4 SUB DUP2 DUP7 GAS STATICCALL ISZERO DUP1 ISZERO PUSH2 0x163C JUMPI RETURNDATASIZE PUSH1 0x0 DUP1 RETURNDATACOPY RETURNDATASIZE PUSH1 0x0 REVERT JUMPDEST POP POP POP POP PUSH1 0x40 MLOAD RETURNDATASIZE PUSH1 0x1F NOT PUSH1 0x1F DUP3 ADD AND DUP3 ADD DUP1 PUSH1 0x40 MSTORE POP DUP2 ADD SWAP1 PUSH2 0x1660 SWAP2 SWAP1 PUSH2 0x2735 JUMP JUMPDEST SWAP1 POP DUP1 PUSH1 0x0 SUB PUSH2 0x1674 JUMPI PUSH1 0x0 SWAP2 POP POP PUSH2 0x66C JUMP JUMPDEST PUSH1 0x0 PUSH2 0x1681 DUP7 DUP6 DUP8 PUSH2 0xDE3 JUMP JUMPDEST SWAP1 POP PUSH1 0x0 DUP3 PUSH2 0x1692 PUSH2 0x2710 DUP5 PUSH2 0x2764 JUMP JUMPDEST PUSH2 0x169C SWAP2 SWAP1 PUSH2 0x277B JUMP JUMPDEST PUSH1 0x6 SLOAD GT SWAP8 SWAP7 POP POP POP POP POP POP POP JUMP JUMPDEST PUSH2 0x16B3 PUSH2 0x1F5C JUMP JUMPDEST DUP1 PUSH1 0x0 DUP2 GT PUSH2 0x16D4 JUMPI PUSH1 0x40 MLOAD PUSH3 0x461BCD PUSH1 0xE5 SHL DUP2 MSTORE PUSH1 0x4 ADD PUSH2 0x6DF SWAP1 PUSH2 0x2832 JUMP JUMPDEST PUSH1 0x1 PUSH1 0x1 PUSH1 0xA0 SHL SUB DUP4 AND PUSH1 0x0 SWAP1 DUP2 MSTORE PUSH1 0x3 PUSH1 0x20 MSTORE PUSH1 0x40 SWAP1 KECCAK256 SLOAD DUP4 SWAP1 PUSH1 0xFF AND PUSH2 0x170E JUMPI PUSH1 0x40 MLOAD PUSH3 0x461BCD PUSH1 0xE5 SHL DUP2 MSTORE PUSH1 0x4 ADD PUSH2 0x6DF SWAP1 PUSH2 0x27DF JUMP JUMPDEST PUSH2 0x1718 DUP7 DUP7 PUSH2 0x724 JUMP JUMPDEST PUSH2 0x1734 JUMPI PUSH1 0x40 MLOAD PUSH3 0x461BCD PUSH1 0xE5 SHL DUP2 MSTORE PUSH1 0x4 ADD PUSH2 0x6DF SWAP1 PUSH2 0x28DF JUMP JUMPDEST PUSH1 0x4 DUP1 SLOAD PUSH1 0x40 MLOAD PUSH4 0x5D5530DF PUSH1 0xE1 SHL DUP2 MSTORE PUSH1 0x1 PUSH1 0x1 PUSH1 0xA0 SHL SUB DUP9 DUP2 AND SWAP4 DUP3 ADD SWAP4 SWAP1 SWAP4 MSTORE DUP7 DUP4 AND PUSH1 0x24 DUP3 ADD MSTORE PUSH1 0x0 SWAP3 SWAP1 SWAP2 AND SWAP1 PUSH4 0xBAAA61BE SWAP1 PUSH1 0x44 ADD PUSH1 0x20 PUSH1 0x40 MLOAD DUP1 DUP4 SUB DUP2 DUP7 GAS STATICCALL ISZERO DUP1 ISZERO PUSH2 0x178C JUMPI RETURNDATASIZE PUSH1 0x0 DUP1 RETURNDATACOPY RETURNDATASIZE PUSH1 0x0 REVERT JUMPDEST POP POP POP POP PUSH1 0x40 MLOAD RETURNDATASIZE PUSH1 0x1F NOT PUSH1 0x1F DUP3 ADD AND DUP3 ADD DUP1 PUSH1 0x40 MSTORE POP DUP2 ADD SWAP1 PUSH2 0x17B0 SWAP2 SWAP1 PUSH2 0x2735 JUMP JUMPDEST SWAP1 POP PUSH1 0x0 PUSH8 0xDE0B6B3A7640000 PUSH2 0x17C7 DUP4 DUP8 PUSH2 0x2764 JUMP JUMPDEST PUSH2 0x17D1 SWAP2 SWAP1 PUSH2 0x277B JUMP JUMPDEST SWAP1 POP PUSH1 0x0 PUSH2 0x2710 PUSH1 0x7 SLOAD PUSH2 0x2710 PUSH2 0x17E8 SWAP2 SWAP1 PUSH2 0x27B3 JUMP JUMPDEST PUSH2 0x17F2 SWAP1 DUP5 PUSH2 0x2764 JUMP JUMPDEST PUSH2 0x17FC SWAP2 SWAP1 PUSH2 0x277B JUMP JUMPDEST PUSH1 0x1 PUSH1 0x1 PUSH1 0xA0 SHL SUB DUP1 DUP12 AND PUSH1 0x0 SWAP1 DUP2 MSTORE PUSH1 0x2 PUSH1 0x20 SWAP1 DUP2 MSTORE PUSH1 0x40 DUP1 DUP4 KECCAK256 SWAP4 DUP13 AND DUP4 MSTORE SWAP3 SWAP1 MSTORE KECCAK256 SLOAD SWAP1 SWAP2 POP DUP2 GT ISZERO PUSH2 0x1844 JUMPI PUSH1 0x40 MLOAD PUSH3 0x461BCD PUSH1 0xE5 SHL DUP2 MSTORE PUSH1 0x4 ADD PUSH2 0x6DF SWAP1 PUSH2 0x292B JUMP JUMPDEST PUSH2 0x1859 PUSH1 0x1 PUSH1 0x1 PUSH1 0xA0 SHL SUB DUP10 AND CALLER ADDRESS DUP10 PUSH2 0x1FB5 JUMP JUMPDEST PUSH1 0x5 SLOAD PUSH1 0x40 MLOAD PUSH4 0x24D91D33 PUSH1 0xE2 SHL DUP2 MSTORE PUSH1 0x1 PUSH1 0x1 PUSH1 0xA0 SHL SUB DUP12 DUP2 AND PUSH1 0x4 DUP4 ADD MSTORE PUSH1 0x24 DUP3 ADD DUP10 SWAP1 MSTORE SWAP1 SWAP2 AND SWAP1 PUSH4 0x936474CC SWAP1 PUSH1 0x44 ADD PUSH1 0x0 PUSH1 0x40 MLOAD DUP1 DUP4 SUB DUP2 PUSH1 0x0 DUP8 DUP1 EXTCODESIZE ISZERO DUP1 ISZERO PUSH2 0x18A7 JUMPI PUSH1 0x0 DUP1 REVERT JUMPDEST POP GAS CALL ISZERO DUP1 ISZERO PUSH2 0x18BB JUMPI RETURNDATASIZE PUSH1 0x0 DUP1 RETURNDATACOPY RETURNDATASIZE PUSH1 0x0 REVERT JUMPDEST POP POP POP POP PUSH1 0x1 PUSH1 0x1 PUSH1 0xA0 SHL SUB DUP10 DUP2 AND PUSH1 0x0 SWAP1 DUP2 MSTORE PUSH1 0x2 PUSH1 0x20 SWAP1 DUP2 MSTORE PUSH1 0x40 DUP1 DUP4 KECCAK256 SWAP4 DUP12 AND DUP4 MSTORE SWAP3 SWAP1 MSTORE SWAP1 DUP2 KECCAK256 DUP1 SLOAD DUP4 SWAP3 SWAP1 PUSH2 0x18F6 SWAP1 DUP5 SWAP1 PUSH2 0x2885 JUMP JUMPDEST SWAP1 SWAP2 SSTORE POP POP PUSH1 0x1 PUSH1 0x1 PUSH1 0xA0 SHL SUB DUP8 AND PUSH2 0x1977 JUMPI PUSH1 0x40 MLOAD PUSH1 0x0 SWAP1 CALLER SWAP1 DUP4 SWAP1 DUP4 DUP2 DUP2 DUP2 DUP6 DUP8 GAS CALL SWAP3 POP POP POP RETURNDATASIZE DUP1 PUSH1 0x0 DUP2 EQ PUSH2 0x194B JUMPI PUSH1 0x40 MLOAD SWAP2 POP PUSH1 0x1F NOT PUSH1 0x3F RETURNDATASIZE ADD AND DUP3 ADD PUSH1 0x40 MSTORE RETURNDATASIZE DUP3 MSTORE RETURNDATASIZE PUSH1 0x0 PUSH1 0x20 DUP5 ADD RETURNDATACOPY PUSH2 0x1950 JUMP JUMPDEST PUSH1 0x60 SWAP2 POP JUMPDEST POP POP SWAP1 POP DUP1 PUSH2 0x1971 JUMPI PUSH1 0x40 MLOAD PUSH3 0x461BCD PUSH1 0xE5 SHL DUP2 MSTORE PUSH1 0x4 ADD PUSH2 0x6DF SWAP1 PUSH2 0x2898 JUMP JUMPDEST POP PUSH2 0x198B JUMP JUMPDEST PUSH2 0x198B PUSH1 0x1 PUSH1 0x1 PUSH1 0xA0 SHL SUB DUP9 AND CALLER DUP4 PUSH2 0x2070 JUMP JUMPDEST PUSH1 0x40 DUP1 MLOAD DUP8 DUP2 MSTORE PUSH1 0x1 PUSH1 0x1 PUSH1 0xA0 SHL SUB DUP10 DUP2 AND PUSH1 0x20 DUP4 ADD MSTORE SWAP2 DUP2 ADD DUP4 SWAP1 MSTORE DUP2 DUP11 AND SWAP2 CALLER SWAP2 SWAP1 DUP13 AND SWAP1 PUSH32 0xB2EE9827C444F9055077A36568CF6F075A8BCAC2510D4AE1D40E7A85EA94D8EB SWAP1 PUSH1 0x60 ADD PUSH1 0x40 MLOAD DUP1 SWAP2 SUB SWAP1 LOG4 POP POP POP POP POP PUSH2 0x19ED PUSH1 0x1 DUP1 SSTORE JUMP JUMPDEST POP POP POP POP JUMP JUMPDEST PUSH2 0x19FB PUSH2 0x1F5C JUMP JUMPDEST DUP2 PUSH1 0x0 DUP2 GT PUSH2 0x1A1C JUMPI PUSH1 0x40 MLOAD PUSH3 0x461BCD PUSH1 0xE5 SHL DUP2 MSTORE PUSH1 0x4 ADD PUSH2 0x6DF SWAP1 PUSH2 0x2832 JUMP JUMPDEST PUSH1 0x1 PUSH1 0x1 PUSH1 0xA0 SHL SUB DUP5 AND PUSH1 0x0 SWAP1 DUP2 MSTORE PUSH1 0x3 PUSH1 0x20 MSTORE PUSH1 0x40 SWAP1 KECCAK256 SLOAD DUP5 SWAP1 PUSH1 0xFF AND PUSH2 0x1A56 JUMPI PUSH1 0x40 MLOAD PUSH3 0x461BCD PUSH1 0xE5 SHL DUP2 MSTORE PUSH1 0x4 ADD PUSH2 0x6DF SWAP1 PUSH2 0x27DF JUMP JUMPDEST PUSH2 0x1A61 DUP8 DUP8 DUP6 PUSH2 0x15EE JUMP JUMPDEST PUSH2 0x1A7D JUMPI PUSH1 0x40 MLOAD PUSH3 0x461BCD PUSH1 0xE5 SHL DUP2 MSTORE PUSH1 0x4 ADD PUSH2 0x6DF SWAP1 PUSH2 0x28DF JUMP JUMPDEST PUSH1 0x4 DUP1 SLOAD PUSH1 0x40 MLOAD PUSH4 0x5D5530DF PUSH1 0xE1 SHL DUP2 MSTORE PUSH1 0x1 PUSH1 0x1 PUSH1 0xA0 SHL SUB DUP10 DUP2 AND SWAP4 DUP3 ADD SWAP4 SWAP1 SWAP4 MSTORE DUP8 DUP4 AND PUSH1 0x24 DUP3 ADD MSTORE PUSH1 0x0 SWAP3 SWAP1 SWAP2 AND SWAP1 PUSH4 0xBAAA61BE SWAP1 PUSH1 0x44 ADD PUSH1 0x20 PUSH1 0x40 MLOAD DUP1 DUP4 SUB DUP2 DUP7 GAS STATICCALL ISZERO DUP1 ISZERO PUSH2 0x1AD5 JUMPI RETURNDATASIZE PUSH1 0x0 DUP1 RETURNDATACOPY RETURNDATASIZE PUSH1 0x0 REVERT JUMPDEST POP POP POP POP PUSH1 0x40 MLOAD RETURNDATASIZE PUSH1 0x1F NOT PUSH1 0x1F DUP3 ADD AND DUP3 ADD DUP1 PUSH1 0x40 MSTORE POP DUP2 ADD SWAP1 PUSH2 0x1AF9 SWAP2 SWAP1 PUSH2 0x2735 JUMP JUMPDEST SWAP1 POP PUSH1 0x0 PUSH8 0xDE0B6B3A7640000 PUSH2 0x1B10 DUP4 DUP9 PUSH2 0x2764 JUMP JUMPDEST PUSH2 0x1B1A SWAP2 SWAP1 PUSH2 0x277B JUMP JUMPDEST SWAP1 POP PUSH1 0x0 PUSH2 0x2710 PUSH1 0x7 SLOAD PUSH2 0x2710 PUSH2 0x1B31 SWAP2 SWAP1 PUSH2 0x27B3 JUMP JUMPDEST PUSH2 0x1B3B SWAP1 DUP5 PUSH2 0x2764 JUMP JUMPDEST PUSH2 0x1B45 SWAP2 SWAP1 PUSH2 0x277B JUMP JUMPDEST PUSH1 0x1 PUSH1 0x1 PUSH1 0xA0 SHL SUB DUP1 DUP13 AND PUSH1 0x0 SWAP1 DUP2 MSTORE PUSH1 0x2 PUSH1 0x20 SWAP1 DUP2 MSTORE PUSH1 0x40 DUP1 DUP4 KECCAK256 SWAP4 DUP14 AND DUP4 MSTORE SWAP3 SWAP1 MSTORE KECCAK256 SLOAD SWAP1 SWAP2 POP DUP2 GT ISZERO PUSH2 0x1B8D JUMPI PUSH1 0x40 MLOAD PUSH3 0x461BCD PUSH1 0xE5 SHL DUP2 MSTORE PUSH1 0x4 ADD PUSH2 0x6DF SWAP1 PUSH2 0x292B JUMP JUMPDEST PUSH2 0x1BA2 PUSH1 0x1 PUSH1 0x1 PUSH1 0xA0 SHL SUB DUP11 AND CALLER ADDRESS DUP11 PUSH2 0x1FB5 JUMP JUMPDEST PUSH1 0x5 SLOAD PUSH1 0x40 MLOAD PUSH4 0x24D91D33 PUSH1 0xE2 SHL DUP2 MSTORE PUSH1 0x1 PUSH1 0x1 PUSH1 0xA0 SHL SUB DUP13 DUP2 AND PUSH1 0x4 DUP4 ADD MSTORE PUSH1 0x24 DUP3 ADD DUP11 SWAP1 MSTORE SWAP1 SWAP2 AND SWAP1 PUSH4 0x936474CC SWAP1 PUSH1 0x44 ADD PUSH1 0x0 PUSH1 0x40 MLOAD DUP1 DUP4 SUB DUP2 PUSH1 0x0 DUP8 DUP1 EXTCODESIZE ISZERO DUP1 ISZERO PUSH2 0x1BF0 JUMPI PUSH1 0x0 DUP1 REVERT JUMPDEST POP GAS CALL ISZERO DUP1 ISZERO PUSH2 0x1C04 JUMPI RETURNDATASIZE PUSH1 0x0 DUP1 RETURNDATACOPY RETURNDATASIZE PUSH1 0x0 REVERT JUMPDEST POP POP POP POP PUSH1 0x1 PUSH1 0x1 PUSH1 0xA0 SHL SUB DUP11 DUP2 AND PUSH1 0x0 SWAP1 DUP2 MSTORE PUSH1 0x2 PUSH1 0x20 SWAP1 DUP2 MSTORE PUSH1 0x40 DUP1 DUP4 KECCAK256 SWAP4 DUP13 AND DUP4 MSTORE SWAP3 SWAP1 MSTORE SWAP1 DUP2 KECCAK256 DUP1 SLOAD DUP4 SWAP3 SWAP1 PUSH2 0x1C3F SWAP1 DUP5 SWAP1 PUSH2 0x2885 JUMP JUMPDEST SWAP1 SWAP2 SSTORE POP POP PUSH1 0x1 PUSH1 0x1 PUSH1 0xA0 SHL SUB DUP9 AND PUSH2 0x1CC0 JUMPI PUSH1 0x40 MLOAD PUSH1 0x0 SWAP1 CALLER SWAP1 DUP4 SWAP1 DUP4 DUP2 DUP2 DUP2 DUP6 DUP8 GAS CALL SWAP3 POP POP POP RETURNDATASIZE DUP1 PUSH1 0x0 DUP2 EQ PUSH2 0x1C94 JUMPI PUSH1 0x40 MLOAD SWAP2 POP PUSH1 0x1F NOT PUSH1 0x3F RETURNDATASIZE ADD AND DUP3 ADD PUSH1 0x40 MSTORE RETURNDATASIZE DUP3 MSTORE RETURNDATASIZE PUSH1 0x0 PUSH1 0x20 DUP5 ADD RETURNDATACOPY PUSH2 0x1C99 JUMP JUMPDEST PUSH1 0x60 SWAP2 POP JUMPDEST POP POP SWAP1 POP DUP1 PUSH2 0x1CBA JUMPI PUSH1 0x40 MLOAD PUSH3 0x461BCD PUSH1 0xE5 SHL DUP2 MSTORE PUSH1 0x4 ADD PUSH2 0x6DF SWAP1 PUSH2 0x2898 JUMP JUMPDEST POP PUSH2 0x1CD4 JUMP JUMPDEST PUSH2 0x1CD4 PUSH1 0x1 PUSH1 0x1 PUSH1 0xA0 SHL SUB DUP10 AND CALLER DUP4 PUSH2 0x2070 JUMP JUMPDEST PUSH1 0x40 DUP1 MLOAD DUP9 DUP2 MSTORE PUSH1 0x1 PUSH1 0x1 PUSH1 0xA0 SHL SUB DUP11 DUP2 AND PUSH1 0x20 DUP4 ADD MSTORE SWAP2 DUP2 ADD DUP4 SWAP1 MSTORE DUP2 DUP12 AND SWAP2 CALLER SWAP2 SWAP1 DUP14 AND SWAP1 PUSH32 0xB2EE9827C444F9055077A36568CF6F075A8BCAC2510D4AE1D40E7A85EA94D8EB SWAP1 PUSH1 0x60 ADD PUSH1 0x40 MLOAD DUP1 SWAP2 SUB SWAP1 LOG4 POP POP POP POP POP PUSH2 0x1D36 PUSH1 0x1 DUP1 SSTORE JUMP JUMPDEST POP POP POP POP POP JUMP JUMPDEST PUSH2 0x1D45 PUSH2 0x1F02 JUMP JUMPDEST PUSH2 0x2710 DUP2 GT ISZERO PUSH2 0x1DB1 JUMPI PUSH1 0x40 MLOAD PUSH3 0x461BCD PUSH1 0xE5 SHL DUP2 MSTORE PUSH1 0x20 PUSH1 0x4 DUP3 ADD MSTORE PUSH1 0x31 PUSH1 0x24 DUP3 ADD MSTORE PUSH32 0x436F6C6C61746572616C4D616E616765723A206C69717569646174696F6E2074 PUSH1 0x44 DUP3 ADD MSTORE PUSH17 0xD0E4CAE6D0DED8C840E8DEDE40D0D2CED PUSH1 0x7B SHL PUSH1 0x64 DUP3 ADD MSTORE PUSH1 0x84 ADD PUSH2 0x6DF JUMP JUMPDEST PUSH1 0x6 DUP2 SWAP1 SSTORE PUSH1 0x40 MLOAD DUP2 DUP2 MSTORE PUSH32 0xEBA9F700DB57A60A859189ECAD4492254A5045E5CAE74167BAE53564FDEA10CA SWAP1 PUSH1 0x20 ADD PUSH2 0x719 JUMP JUMPDEST PUSH1 0x5 SLOAD PUSH1 0x40 MLOAD PUSH4 0x39595359 PUSH1 0xE2 SHL DUP2 MSTORE PUSH1 0x1 PUSH1 0x1 PUSH1 0xA0 SHL SUB DUP6 DUP2 AND PUSH1 0x4 DUP4 ADD MSTORE PUSH1 0x0 SWAP3 DUP4 SWAP3 SWAP2 AND SWAP1 PUSH4 0xE5654D64 SWAP1 PUSH1 0x24 ADD PUSH1 0x20 PUSH1 0x40 MLOAD DUP1 DUP4 SUB DUP2 DUP7 GAS STATICCALL ISZERO DUP1 ISZERO PUSH2 0x1E34 JUMPI RETURNDATASIZE PUSH1 0x0 DUP1 RETURNDATACOPY RETURNDATASIZE PUSH1 0x0 REVERT JUMPDEST POP POP POP POP PUSH1 0x40 MLOAD RETURNDATASIZE PUSH1 0x1F NOT PUSH1 0x1F DUP3 ADD AND DUP3 ADD DUP1 PUSH1 0x40 MSTORE POP DUP2 ADD SWAP1 PUSH2 0x1E58 SWAP2 SWAP1 PUSH2 0x2735 JUMP JUMPDEST SWAP1 POP DUP1 PUSH1 0x0 SUB PUSH2 0x1E6D JUMPI PUSH1 0x0 NOT SWAP2 POP POP PUSH2 0x66C JUMP JUMPDEST PUSH1 0x0 PUSH2 0x1E7A DUP7 DUP6 DUP8 PUSH2 0xDE3 JUMP JUMPDEST SWAP1 POP DUP2 PUSH2 0x65D PUSH2 0x2710 DUP4 PUSH2 0x2764 JUMP JUMPDEST PUSH2 0x1E91 PUSH2 0x1F02 JUMP JUMPDEST PUSH1 0x1 PUSH1 0x1 PUSH1 0xA0 SHL SUB DUP2 AND PUSH2 0x1EF6 JUMPI PUSH1 0x40 MLOAD PUSH3 0x461BCD PUSH1 0xE5 SHL DUP2 MSTORE PUSH1 0x20 PUSH1 0x4 DUP3 ADD MSTORE PUSH1 0x26 PUSH1 0x24 DUP3 ADD MSTORE PUSH32 0x4F776E61626C653A206E6577206F776E657220697320746865207A65726F2061 PUSH1 0x44 DUP3 ADD MSTORE PUSH6 0x646472657373 PUSH1 0xD0 SHL PUSH1 0x64 DUP3 ADD MSTORE PUSH1 0x84 ADD PUSH2 0x6DF JUMP JUMPDEST PUSH2 0x1EFF DUP2 PUSH2 0x2020 JUMP JUMPDEST POP JUMP JUMPDEST PUSH1 0x0 SLOAD PUSH1 0x1 PUSH1 0x1 PUSH1 0xA0 SHL SUB AND CALLER EQ PUSH2 0x12ED JUMPI PUSH1 0x40 MLOAD PUSH3 0x461BCD PUSH1 0xE5 SHL DUP2 MSTORE PUSH1 0x20 PUSH1 0x4 DUP3 ADD DUP2 SWAP1 MSTORE PUSH1 0x24 DUP3 ADD MSTORE PUSH32 0x4F776E61626C653A2063616C6C6572206973206E6F7420746865206F776E6572 PUSH1 0x44 DUP3 ADD MSTORE PUSH1 0x64 ADD PUSH2 0x6DF JUMP JUMPDEST PUSH1 0x2 PUSH1 0x1 SLOAD SUB PUSH2 0x1FAE JUMPI PUSH1 0x40 MLOAD PUSH3 0x461BCD PUSH1 0xE5 SHL DUP2 MSTORE PUSH1 0x20 PUSH1 0x4 DUP3 ADD MSTORE PUSH1 0x1F PUSH1 0x24 DUP3 ADD MSTORE PUSH32 0x5265656E7472616E637947756172643A207265656E7472616E742063616C6C00 PUSH1 0x44 DUP3 ADD MSTORE PUSH1 0x64 ADD PUSH2 0x6DF JUMP JUMPDEST PUSH1 0x2 PUSH1 0x1 SSTORE JUMP JUMPDEST PUSH1 0x40 MLOAD PUSH1 0x1 PUSH1 0x1 PUSH1 0xA0 SHL SUB DUP1 DUP6 AND PUSH1 0x24 DUP4 ADD MSTORE DUP4 AND PUSH1 0x44 DUP3 ADD MSTORE PUSH1 0x64 DUP2 ADD DUP3 SWAP1 MSTORE PUSH2 0x19ED SWAP1 DUP6 SWAP1 PUSH4 0x23B872DD PUSH1 0xE0 SHL SWAP1 PUSH1 0x84 ADD JUMPDEST PUSH1 0x40 DUP1 MLOAD PUSH1 0x1F NOT DUP2 DUP5 SUB ADD DUP2 MSTORE SWAP2 SWAP1 MSTORE PUSH1 0x20 DUP2 ADD DUP1 MLOAD PUSH1 0x1 PUSH1 0x1 PUSH1 0xE0 SHL SUB AND PUSH1 0x1 PUSH1 0x1 PUSH1 0xE0 SHL SUB NOT SWAP1 SWAP4 AND SWAP3 SWAP1 SWAP3 OR SWAP1 SWAP2 MSTORE PUSH2 0x20A5 JUMP JUMPDEST PUSH1 0x0 DUP1 SLOAD PUSH1 0x1 PUSH1 0x1 PUSH1 0xA0 SHL SUB DUP4 DUP2 AND PUSH1 0x1 PUSH1 0x1 PUSH1 0xA0 SHL SUB NOT DUP4 AND DUP2 OR DUP5 SSTORE PUSH1 0x40 MLOAD SWAP2 SWAP1 SWAP3 AND SWAP3 DUP4 SWAP2 PUSH32 0x8BE0079C531659141344CD1FD0A4F28419497F9722A3DAAFE3B4186F6B6457E0 SWAP2 SWAP1 LOG3 POP POP JUMP JUMPDEST PUSH1 0x40 MLOAD PUSH1 0x1 PUSH1 0x1 PUSH1 0xA0 SHL SUB DUP4 AND PUSH1 0x24 DUP3 ADD MSTORE PUSH1 0x44 DUP2 ADD DUP3 SWAP1 MSTORE PUSH2 0x20A0 SWAP1 DUP5 SWAP1 PUSH4 0xA9059CBB PUSH1 0xE0 SHL SWAP1 PUSH1 0x64 ADD PUSH2 0x1FE9 JUMP JUMPDEST POP POP POP JUMP JUMPDEST PUSH1 0x0 PUSH2 0x20FA DUP3 PUSH1 0x40 MLOAD DUP1 PUSH1 0x40 ADD PUSH1 0x40 MSTORE DUP1 PUSH1 0x20 DUP2 MSTORE PUSH1 0x20 ADD PUSH32 0x5361666545524332303A206C6F772D6C6576656C2063616C6C206661696C6564 DUP2 MSTORE POP DUP6 PUSH1 0x1 PUSH1 0x1 PUSH1 0xA0 SHL SUB AND PUSH2 0x217A SWAP1 SWAP3 SWAP2 SWAP1 PUSH4 0xFFFFFFFF AND JUMP JUMPDEST SWAP1 POP DUP1 MLOAD PUSH1 0x0 EQ DUP1 PUSH2 0x211B JUMPI POP DUP1 DUP1 PUSH1 0x20 ADD SWAP1 MLOAD DUP2 ADD SWAP1 PUSH2 0x211B SWAP2 SWAP1 PUSH2 0x297E JUMP JUMPDEST PUSH2 0x20A0 JUMPI PUSH1 0x40 MLOAD PUSH3 0x461BCD PUSH1 0xE5 SHL DUP2 MSTORE PUSH1 0x20 PUSH1 0x4 DUP3 ADD MSTORE PUSH1 0x2A PUSH1 0x24 DUP3 ADD MSTORE PUSH32 0x5361666545524332303A204552433230206F7065726174696F6E20646964206E PUSH1 0x44 DUP3 ADD MSTORE PUSH10 0x1BDD081CDD58D8D95959 PUSH1 0xB2 SHL PUSH1 0x64 DUP3 ADD MSTORE PUSH1 0x84 ADD PUSH2 0x6DF JUMP JUMPDEST PUSH1 0x60 PUSH2 0x2189 DUP5 DUP5 PUSH1 0x0 DUP6 PUSH2 0x2191 JUMP JUMPDEST SWAP5 SWAP4 POP POP POP POP JUMP JUMPDEST PUSH1 0x60 DUP3 SELFBALANCE LT ISZERO PUSH2 0x21F2 JUMPI PUSH1 0x40 MLOAD PUSH3 0x461BCD PUSH1 0xE5 SHL DUP2 MSTORE PUSH1 0x20 PUSH1 0x4 DUP3 ADD MSTORE PUSH1 0x26 PUSH1 0x24 DUP3 ADD MSTORE PUSH32 0x416464726573733A20696E73756666696369656E742062616C616E636520666F PUSH1 0x44 DUP3 ADD MSTORE PUSH6 0x1C8818D85B1B PUSH1 0xD2 SHL PUSH1 0x64 DUP3 ADD MSTORE PUSH1 0x84 ADD PUSH2 0x6DF JUMP JUMPDEST PUSH1 0x0 DUP1 DUP7 PUSH1 0x1 PUSH1 0x1 PUSH1 0xA0 SHL SUB AND DUP6 DUP8 PUSH1 0x40 MLOAD PUSH2 0x220E SWAP2 SWAP1 PUSH2 0x29BF JUMP JUMPDEST PUSH1 0x0 PUSH1 0x40 MLOAD DUP1 DUP4 SUB DUP2 DUP6 DUP8 GAS CALL SWAP3 POP POP POP RETURNDATASIZE DUP1 PUSH1 0x0 DUP2 EQ PUSH2 0x224B JUMPI PUSH1 0x40 MLOAD SWAP2 POP PUSH1 0x1F NOT PUSH1 0x3F RETURNDATASIZE ADD AND DUP3 ADD PUSH1 0x40 MSTORE RETURNDATASIZE DUP3 MSTORE RETURNDATASIZE PUSH1 0x0 PUSH1 0x20 DUP5 ADD RETURNDATACOPY PUSH2 0x2250 JUMP JUMPDEST PUSH1 0x60 SWAP2 POP JUMPDEST POP SWAP2 POP SWAP2 POP PUSH2 0x2261 DUP8 DUP4 DUP4 DUP8 PUSH2 0x226C JUMP JUMPDEST SWAP8 SWAP7 POP POP POP POP POP POP POP JUMP JUMPDEST PUSH1 0x60 DUP4 ISZERO PUSH2 0x22DB JUMPI DUP3 MLOAD PUSH1 0x0 SUB PUSH2 0x22D4 JUMPI PUSH1 0x1 PUSH1 0x1 PUSH1 0xA0 SHL SUB DUP6 AND EXTCODESIZE PUSH2 0x22D4 JUMPI PUSH1 0x40 MLOAD PUSH3 0x461BCD PUSH1 0xE5 SHL DUP2 MSTORE PUSH1 0x20 PUSH1 0x4 DUP3 ADD MSTORE PUSH1 0x1D PUSH1 0x24 DUP3 ADD MSTORE PUSH32 0x416464726573733A2063616C6C20746F206E6F6E2D636F6E7472616374000000 PUSH1 0x44 DUP3 ADD MSTORE PUSH1 0x64 ADD PUSH2 0x6DF JUMP JUMPDEST POP DUP2 PUSH2 0x2189 JUMP JUMPDEST PUSH2 0x2189 DUP4 DUP4 DUP2 MLOAD ISZERO PUSH2 0x22F0 JUMPI DUP2 MLOAD DUP1 DUP4 PUSH1 0x20 ADD REVERT JUMPDEST DUP1 PUSH1 0x40 MLOAD PUSH3 0x461BCD PUSH1 0xE5 SHL DUP2 MSTORE PUSH1 0x4 ADD PUSH2 0x6DF SWAP2 SWAP1 PUSH2 0x29DB JUMP JUMPDEST DUP1 CALLDATALOAD PUSH1 0x1 PUSH1 0x1 PUSH1 0xA0 SHL SUB DUP2 AND DUP2 EQ PUSH2 0x2321 JUMPI PUSH1 0x0 DUP1 REVERT JUMPDEST SWAP2 SWAP1 POP JUMP JUMPDEST PUSH1 0x0 DUP1 PUSH1 0x0 PUSH1 0x60 DUP5 DUP7 SUB SLT ISZERO PUSH2 0x233B JUMPI PUSH1 0x0 DUP1 REVERT JUMPDEST PUSH2 0x2344 DUP5 PUSH2 0x230A JUMP JUMPDEST SWAP3 POP PUSH2 0x2352 PUSH1 0x20 DUP6 ADD PUSH2 0x230A JUMP JUMPDEST SWAP2 POP PUSH2 0x2360 PUSH1 0x40 DUP6 ADD PUSH2 0x230A JUMP JUMPDEST SWAP1 POP SWAP3 POP SWAP3 POP SWAP3 JUMP JUMPDEST PUSH1 0x0 PUSH1 0x20 DUP3 DUP5 SUB SLT ISZERO PUSH2 0x237B JUMPI PUSH1 0x0 DUP1 REVERT JUMPDEST POP CALLDATALOAD SWAP2 SWAP1 POP JUMP JUMPDEST PUSH1 0x0 DUP1 PUSH1 0x40 DUP4 DUP6 SUB SLT ISZERO PUSH2 0x2395 JUMPI PUSH1 0x0 DUP1 REVERT JUMPDEST PUSH2 0x239E DUP4 PUSH2 0x230A JUMP JUMPDEST SWAP2 POP PUSH2 0x23AC PUSH1 0x20 DUP5 ADD PUSH2 0x230A JUMP JUMPDEST SWAP1 POP SWAP3 POP SWAP3 SWAP1 POP JUMP JUMPDEST DUP1 ISZERO ISZERO DUP2 EQ PUSH2 0x1EFF JUMPI PUSH1 0x0 DUP1 REVERT JUMPDEST PUSH1 0x0 DUP1 PUSH1 0x40 DUP4 DUP6 SUB SLT ISZERO PUSH2 0x23D6 JUMPI PUSH1 0x0 DUP1 REVERT JUMPDEST PUSH2 0x23DF DUP4 PUSH2 0x230A JUMP JUMPDEST SWAP2 POP PUSH1 0x20 DUP4 ADD CALLDATALOAD PUSH2 0x23EF DUP2 PUSH2 0x23B5 JUMP JUMPDEST DUP1 SWAP2 POP POP SWAP3 POP SWAP3 SWAP1 POP JUMP JUMPDEST PUSH1 0x0 PUSH1 0x20 DUP3 DUP5 SUB SLT ISZERO PUSH2 0x240C JUMPI PUSH1 0x0 DUP1 REVERT JUMPDEST PUSH2 0x66C DUP3 PUSH2 0x230A JUMP JUMPDEST PUSH1 0x40 DUP1 DUP3 MSTORE DUP4 MLOAD SWAP1 DUP3 ADD DUP2 SWAP1 MSTORE PUSH1 0x0 SWAP1 PUSH1 0x20 SWAP1 PUSH1 0x60 DUP5 ADD SWAP1 DUP3 DUP8 ADD DUP5 JUMPDEST DUP3 DUP2 LT ISZERO PUSH2 0x2457 JUMPI DUP2 MLOAD PUSH1 0x1 PUSH1 0x1 PUSH1 0xA0 SHL SUB AND DUP5 MSTORE SWAP3 DUP5 ADD SWAP3 SWAP1 DUP5 ADD SWAP1 PUSH1 0x1 ADD PUSH2 0x2432 JUMP JUMPDEST POP POP POP DUP4 DUP2 SUB DUP3 DUP6 ADD MSTORE DUP5 MLOAD DUP1 DUP3 MSTORE DUP6 DUP4 ADD SWAP2 DUP4 ADD SWAP1 PUSH1 0x0 JUMPDEST DUP2 DUP2 LT ISZERO PUSH2 0x248C JUMPI DUP4 MLOAD DUP4 MSTORE SWAP3 DUP5 ADD SWAP3 SWAP2 DUP5 ADD SWAP2 PUSH1 0x1 ADD PUSH2 0x2470 JUMP JUMPDEST POP SWAP1 SWAP8 SWAP7 POP POP POP POP POP POP POP JUMP JUMPDEST PUSH4 0x4E487B71 PUSH1 0xE0 SHL PUSH1 0x0 MSTORE PUSH1 0x41 PUSH1 0x4 MSTORE PUSH1 0x24 PUSH1 0x0 REVERT JUMPDEST PUSH1 0x0 DUP3 PUSH1 0x1F DUP4 ADD SLT PUSH2 0x24C0 JUMPI PUSH1 0x0 DUP1 REVERT JUMPDEST DUP2 CALLDATALOAD PUSH1 0x20 PUSH8 0xFFFFFFFFFFFFFFFF DUP1 DUP4 GT ISZERO PUSH2 0x24DD JUMPI PUSH2 0x24DD PUSH2 0x2499 JUMP JUMPDEST DUP3 PUSH1 0x5 SHL PUSH1 0x40 MLOAD PUSH1 0x1F NOT PUSH1 0x3F DUP4 ADD AND DUP2 ADD DUP2 DUP2 LT DUP5 DUP3 GT OR ISZERO PUSH2 0x2502 JUMPI PUSH2 0x2502 PUSH2 0x2499 JUMP JUMPDEST PUSH1 0x40 MSTORE SWAP4 DUP5 MSTORE DUP6 DUP2 ADD DUP4 ADD SWAP4 DUP4 DUP2 ADD SWAP3 POP DUP8 DUP6 GT ISZERO PUSH2 0x2520 JUMPI PUSH1 0x0 DUP1 REVERT JUMPDEST DUP4 DUP8 ADD SWAP2 POP JUMPDEST DUP5 DUP3 LT ISZERO PUSH2 0x2261 JUMPI PUSH2 0x2537 DUP3 PUSH2 0x230A JUMP JUMPDEST DUP4 MSTORE SWAP2 DUP4 ADD SWAP2 SWAP1 DUP4 ADD SWAP1 PUSH2 0x2526 JUMP JUMPDEST PUSH1 0x0 DUP1 PUSH1 0x0 PUSH1 0x60 DUP5 DUP7 SUB SLT ISZERO PUSH2 0x255B JUMPI PUSH1 0x0 DUP1 REVERT JUMPDEST PUSH2 0x2564 DUP5 PUSH2 0x230A JUMP JUMPDEST SWAP3 POP PUSH1 0x20 DUP5 ADD CALLDATALOAD PUSH8 0xFFFFFFFFFFFFFFFF DUP2 GT ISZERO PUSH2 0x2580 JUMPI PUSH1 0x0 DUP1 REVERT JUMPDEST PUSH2 0x258C DUP7 DUP3 DUP8 ADD PUSH2 0x24AF JUMP JUMPDEST SWAP3 POP POP PUSH2 0x2360 PUSH1 0x40 DUP6 ADD PUSH2 0x230A JUMP JUMPDEST PUSH1 0x0 DUP1 PUSH1 0x40 DUP4 DUP6 SUB SLT ISZERO PUSH2 0x25AE JUMPI PUSH1 0x0 DUP1 REVERT JUMPDEST PUSH2 0x25B7 DUP4 PUSH2 0x230A JUMP JUMPDEST SWAP5 PUSH1 0x20 SWAP4 SWAP1 SWAP4 ADD CALLDATALOAD SWAP4 POP POP POP JUMP JUMPDEST PUSH1 0x0 DUP1 PUSH1 0x40 DUP4 DUP6 SUB SLT ISZERO PUSH2 0x25D8 JUMPI PUSH1 0x0 DUP1 REVERT JUMPDEST PUSH2 0x25E1 DUP4 PUSH2 0x230A JUMP JUMPDEST SWAP2 POP PUSH1 0x20 DUP4 ADD CALLDATALOAD PUSH8 0xFFFFFFFFFFFFFFFF DUP2 GT ISZERO PUSH2 0x25FD JUMPI PUSH1 0x0 DUP1 REVERT JUMPDEST PUSH2 0x2609 DUP6 DUP3 DUP7 ADD PUSH2 0x24AF JUMP JUMPDEST SWAP2 POP POP SWAP3 POP SWAP3 SWAP1 POP JUMP JUMPDEST PUSH1 0x0 DUP1 PUSH1 0x0 PUSH1 0x60 DUP5 DUP7 SUB SLT ISZERO PUSH2 0x2628 JUMPI PUSH1 0x0 DUP1 REVERT JUMPDEST PUSH2 0x2631 DUP5 PUSH2 0x230A JUMP JUMPDEST SWAP3 POP PUSH2 0x263F PUSH1 0x20 DUP6 ADD PUSH2 0x230A JUMP JUMPDEST SWAP2 POP PUSH1 0x40 DUP5 ADD CALLDATALOAD PUSH8 0xFFFFFFFFFFFFFFFF DUP2 GT ISZERO PUSH2 0x265B JUMPI PUSH1 0x0 DUP1 REVERT JUMPDEST PUSH2 0x2667 DUP7 DUP3 DUP8 ADD PUSH2 0x24AF JUMP JUMPDEST SWAP2 POP POP SWAP3 POP SWAP3 POP SWAP3 JUMP JUMPDEST PUSH1 0x0 DUP1 PUSH1 0x0 DUP1 PUSH1 0x80 DUP6 DUP8 SUB SLT ISZERO PUSH2 0x2687 JUMPI PUSH1 0x0 DUP1 REVERT JUMPDEST PUSH2 0x2690 DUP6 PUSH2 0x230A JUMP JUMPDEST SWAP4 POP PUSH2 0x269E PUSH1 0x20 DUP7 ADD PUSH2 0x230A JUMP JUMPDEST SWAP3 POP PUSH2 0x26AC PUSH1 0x40 DUP7 ADD PUSH2 0x230A JUMP JUMPDEST SWAP4 SWAP7 SWAP3 SWAP6 POP SWAP3 SWAP4 PUSH1 0x60 ADD CALLDATALOAD SWAP3 POP POP JUMP JUMPDEST PUSH1 0x0 DUP1 PUSH1 0x0 DUP1 PUSH1 0x0 PUSH1 0xA0 DUP7 DUP9 SUB SLT ISZERO PUSH2 0x26D4 JUMPI PUSH1 0x0 DUP1 REVERT JUMPDEST PUSH2 0x26DD DUP7 PUSH2 0x230A JUMP JUMPDEST SWAP5 POP PUSH2 0x26EB PUSH1 0x20 DUP8 ADD PUSH2 0x230A JUMP JUMPDEST SWAP4 POP PUSH2 0x26F9 PUSH1 0x40 DUP8 ADD PUSH2 0x230A JUMP JUMPDEST SWAP3 POP PUSH1 0x60 DUP7 ADD CALLDATALOAD SWAP2 POP PUSH1 0x80 DUP7 ADD CALLDATALOAD PUSH8 0xFFFFFFFFFFFFFFFF DUP2 GT ISZERO PUSH2 0x271C JUMPI PUSH1 0x0 DUP1 REVERT JUMPDEST PUSH2 0x2728 DUP9 DUP3 DUP10 ADD PUSH2 0x24AF JUMP JUMPDEST SWAP2 POP POP SWAP3 SWAP6 POP SWAP3 SWAP6 SWAP1 SWAP4 POP JUMP JUMPDEST PUSH1 0x0 PUSH1 0x20 DUP3 DUP5 SUB SLT ISZERO PUSH2 0x2747 JUMPI PUSH1 0x0 DUP1 REVERT JUMPDEST POP MLOAD SWAP2 SWAP1 POP JUMP JUMPDEST PUSH4 0x4E487B71 PUSH1 0xE0 SHL PUSH1 0x0 MSTORE PUSH1 0x11 PUSH1 0x4 MSTORE PUSH1 0x24 PUSH1 0x0 REVERT JUMPDEST DUP1 DUP3 MUL DUP2 ISZERO DUP3 DUP3 DIV DUP5 EQ OR PUSH2 0x7DB JUMPI PUSH2 0x7DB PUSH2 0x274E JUMP JUMPDEST PUSH1 0x0 DUP3 PUSH2 0x2798 JUMPI PUSH4 0x4E487B71 PUSH1 0xE0 SHL PUSH1 0x0 MSTORE PUSH1 0x12 PUSH1 0x4 MSTORE PUSH1 0x24 PUSH1 0x0 REVERT JUMPDEST POP DIV SWAP1 JUMP JUMPDEST PUSH4 0x4E487B71 PUSH1 0xE0 SHL PUSH1 0x0 MSTORE PUSH1 0x32 PUSH1 0x4 MSTORE PUSH1 0x24 PUSH1 0x0 REVERT JUMPDEST DUP1 DUP3 ADD DUP1 DUP3 GT ISZERO PUSH2 0x7DB JUMPI PUSH2 0x7DB PUSH2 0x274E JUMP JUMPDEST PUSH1 0x0 PUSH1 0x1 DUP3 ADD PUSH2 0x27D8 JUMPI PUSH2 0x27D8 PUSH2 0x274E JUMP JUMPDEST POP PUSH1 0x1 ADD SWAP1 JUMP JUMPDEST PUSH1 0x20 DUP1 DUP3 MSTORE PUSH1 0x33 SWAP1 DUP3 ADD MSTORE PUSH32 0x436F6C6C61746572616C4D616E616765723A20746F6B656E206E6F7420617070 PUSH1 0x40 DUP3 ADD MSTORE PUSH19 0x1C9BDD995908185CC818DBDB1B185D195C985B PUSH1 0x6A SHL PUSH1 0x60 DUP3 ADD MSTORE PUSH1 0x80 ADD SWAP1 JUMP JUMPDEST PUSH1 0x20 DUP1 DUP3 MSTORE PUSH1 0x33 SWAP1 DUP3 ADD MSTORE PUSH32 0x436F6C6C61746572616C4D616E616765723A20616D6F756E74206D7573742062 PUSH1 0x40 DUP3 ADD MSTORE PUSH19 0x652067726561746572207468616E207A65726F PUSH1 0x68 SHL PUSH1 0x60 DUP3 ADD MSTORE PUSH1 0x80 ADD SWAP1 JUMP JUMPDEST DUP2 DUP2 SUB DUP2 DUP2 GT ISZERO PUSH2 0x7DB JUMPI PUSH2 0x7DB PUSH2 0x274E JUMP JUMPDEST PUSH1 0x20 DUP1 DUP3 MSTORE PUSH1 0x27 SWAP1 DUP3 ADD MSTORE PUSH32 0x436F6C6C61746572616C4D616E616765723A2043454C4F207472616E73666572 PUSH1 0x40 DUP3 ADD MSTORE PUSH7 0x819985A5B1959 PUSH1 0xCA SHL PUSH1 0x60 DUP3 ADD MSTORE PUSH1 0x80 ADD SWAP1 JUMP JUMPDEST PUSH1 0x20 DUP1 DUP3 MSTORE PUSH1 0x2C SWAP1 DUP3 ADD MSTORE PUSH32 0x436F6C6C61746572616C4D616E616765723A20706F736974696F6E206E6F7420 PUSH1 0x40 DUP3 ADD MSTORE PUSH12 0x6C6971756964617461626C65 PUSH1 0xA0 SHL PUSH1 0x60 DUP3 ADD MSTORE PUSH1 0x80 ADD SWAP1 JUMP JUMPDEST PUSH1 0x20 DUP1 DUP3 MSTORE PUSH1 0x33 SWAP1 DUP3 ADD MSTORE PUSH32 0x436F6C6C61746572616C4D616E616765723A20696E73756666696369656E7420 PUSH1 0x40 DUP3 ADD MSTORE PUSH19 0x636F6C6C61746572616C20746F207365697A65 PUSH1 0x68 SHL PUSH1 0x60 DUP3 ADD MSTORE PUSH1 0x80 ADD SWAP1 JUMP JUMPDEST PUSH1 0x0 PUSH1 0x20 DUP3 DUP5 SUB SLT ISZERO PUSH2 0x2990 JUMPI PUSH1 0x0 DUP1 REVERT JUMPDEST DUP2 MLOAD PUSH2 0x66C DUP2 PUSH2 0x23B5 JUMP JUMPDEST PUSH1 0x0 JUMPDEST DUP4 DUP2 LT ISZERO PUSH2 0x29B6 JUMPI DUP2 DUP2 ADD MLOAD DUP4 DUP3 ADD MSTORE PUSH1 0x20 ADD PUSH2 0x299E JUMP JUMPDEST POP POP PUSH1 0x0 SWAP2 ADD MSTORE JUMP JUMPDEST PUSH1 0x0 DUP3 MLOAD PUSH2 0x29D1 DUP2 DUP5 PUSH1 0x20 DUP8 ADD PUSH2 0x299B JUMP JUMPDEST SWAP2 SWAP1 SWAP2 ADD SWAP3 SWAP2 POP POP JUMP JUMPDEST PUSH1 0x20 DUP2 MSTORE PUSH1 0x0 DUP3 MLOAD DUP1 PUSH1 0x20 DUP5 ADD MSTORE PUSH2 0x29FA DUP2 PUSH1 0x40 DUP6 ADD PUSH1 0x20 DUP8 ADD PUSH2 0x299B JUMP JUMPDEST PUSH1 0x1F ADD PUSH1 0x1F NOT AND SWAP2 SWAP1 SWAP2 ADD PUSH1 0x40 ADD SWAP3 SWAP2 POP POP JUMP INVALID LOG2 PUSH5 0x6970667358 0x22 SLT KECCAK256 0xDD CALLER 0x23 0xD1 MOD LT NOT PUSH29 0xC4DFC36FEB916A424D1CC998E8C650F6A84E6E0E93E306BB64736F6C63 NUMBER STOP ADDMOD SGT STOP CALLER NUMBER PUSH16 0x6C6C61746572616C4D616E616765723A KECCAK256 PUSH10 0x6E76616C696420616464 PUSH19 0x65000000000000000000000000000000000000 "},"methodIdentifiers":{"BPS_DIVISOR()":"191fe1ed","PRECISION()":"aaf5eb68","addCollateral(address,uint256)":"6d75b9ee","approvedCollateralTokens(address)":"a8a5682f","debtToken()":"f8d89898","getCollateralValue(address,address,address)":"18f198c1","getHealthFactor(address,address)":"57c89a7d","getHealthFactorForTokens(address,address,address[])":"d4b7cfca","getTotalCollateralValue(address,address)":"5895d4cb","getTotalCollateralValueForTokens(address,address[],address)":"5e991af8","getUserCollateralTokens(address)":"599219dd","getUserCollateralTokensForList(address,address[])":"70a57461","isLiquidatable(address,address)":"3966a28b","isLiquidatableForTokens(address,address,address[])":"8d907502","liquidate(address,address,address,uint256)":"aab3f868","liquidateForTokens(address,address,address,uint256,address[])":"c4201a9f","liquidationBonus()":"7b7c1f4c","liquidationThreshold()":"4031234c","mintDebtForTesting(address,uint256)":"6db30e97","oracle()":"7dc0d1d0","owner()":"8da5cb5b","removeCollateral(address,uint256)":"876467f8","renounceOwnership()":"715018a6","setApprovedCollateralToken(address,bool)":"50e9da24","setLiquidationBonus(uint256)":"28842d4f","setLiquidationThreshold(uint256)":"d0b0c816","transferOwnership(address)":"f2fde38b","userCollateral(address,address)":"2b92a07d"}}}}}