{"contracts/libraries/TokenConfig.sol":{"TokenConfig":{"abi":[{"inputs":[],"name":"CELO_ADDRESS","outputs":[{"internalType":"address","name":"","type":"address"}],"stateMutability":"view","type":"function"},{"inputs":[],"name":"CUSD_ADDRESS","outputs":[{"internalType":"address","name":"","type":"address"}],"stateMutability":"view","type":"function"},{"inputs":[],"name":"USDC_ADDRESS","outputs":[{"internalType":"address","name":"","type":"address"}],"stateMutability":"view","type":"function"}],"evm":{"bytecode":{"linkReferences":{},"object":"60d9610039600b82828239805160001a60731461002c57634e487b7160e01b600052600060045260246000fd5b30600052607381538281f3fe730000000000000000000000000000000000000000301460806040526004361060475760003560e01c80632a4b914214604c578063465c66e914606f578063bb09d9b7146089575b600080fd5b6053600081565b6040516001600160a01b03909116815260200160405180910390f35b605373874069fa1eb16d44d622f2e0ca25eea172369bc181565b6053732f25deb3848c207fc8e0c34035b3ba7fc157602b8156fea264697066735822122045bf8d7a22e9aaaa1b47726e2f9ffa247bf4448551008591463c894df080763364736f6c63430008130033","opcodes":"PUSH1 0xD9 PUSH2 0x39 PUSH1 0xB DUP3 DUP3 DUP3 CODECOPY DUP1 MLOAD PUSH1 0x0 BYTE PUSH1 0x73 EQ PUSH2 0x2C JUMPI PUSH4 0x4E487B71 PUSH1 0xE0 SHL PUSH1 0x0 MSTORE PUSH1 0x0 PUSH1 0x4 MSTORE PUSH1 0x24 PUSH1 0x0 REVERT JUMPDEST ADDRESS PUSH1 0x0 MSTORE PUSH1 0x73 DUP2 MSTORE8 DUP3 DUP2 RETURN INVALID PUSH20 0x0 ADDRESS EQ PUSH1 0x80 PUSH1 0x40 MSTORE PUSH1 0x4 CALLDATASIZE LT PUSH1 0x47 JUMPI PUSH1 0x0 CALLDATALOAD PUSH1 0xE0 SHR DUP1 PUSH4 0x2A4B9142 EQ PUSH1 0x4C JUMPI DUP1 PUSH4 0x465C66E9 EQ PUSH1 0x6F JUMPI DUP1 PUSH4 0xBB09D9B7 EQ PUSH1 0x89 JUMPI JUMPDEST PUSH1 0x0 DUP1 REVERT JUMPDEST PUSH1 0x53 PUSH1 0x0 DUP2 JUMP JUMPDEST PUSH1 0x40 MLOAD PUSH1 0x1 PUSH1 0x1 PUSH1 0xA0 SHL SUB SWAP1 SWAP2 AND DUP2 MSTORE PUSH1 0x20 ADD PUSH1 0x40 MLOAD DUP1 SWAP2 SUB SWAP1 RETURN JUMPDEST PUSH1 0x53 PUSH20 0x874069FA1EB16D44D622F2E0CA25EEA172369BC1 DUP2 JUMP JUMPDEST PUSH1 0x53 PUSH20 0x2F25DEB3848C207FC8E0C34035B3BA7FC157602B DUP2 JUMP INVALID LOG2 PUSH5 0x6970667358 0x22 SLT KECCAK256 GASLIMIT 0xBF DUP14 PUSH27 0x22E9AAAA1B47726E2F9FFA247BF4448551008591463C894DF08076 CALLER PUSH5 0x736F6C6343 STOP ADDMOD SGT STOP CALLER "},"methodIdentifiers":{"CELO_ADDRESS()":"2a4b9142","CUSD_ADDRESS()":"465c66e9","USDC_ADDRESS()":"bb09d9b7"}}}}}