{"contracts/strategies/MentoYieldStrategy.sol":{"MentoYieldStrategy":{"abi":[{"inputs":[],"stateMutability":"nonpayable","type":"constructor"},{"anonymous":false,"inputs":[{"indexed":true,"internalType":"address","name":"token","type":"address"},{"indexed":false,"internalType":"uint256","name":"amount","type":"uint256"}],"name":"Deposited","type":"event"},{"anonymous":false,"inputs":[{"indexed":true,"internalType":"address","name":"previousOwner","type":"address"},{"indexed":true,"internalType":"address","name":"newOwner","type":"address"}],"name":"OwnershipTransferred","type":"event"},{"anonymous":false,"inputs":[{"indexed":true,"internalType":"address","name":"fromToken","type":"address"},{"indexed":true,"internalType":"address","name":"toToken","type":"address"},{"indexed":false,"internalType":"uint256","name":"amount","type":"uint256"}],"name":"Rebalanced","type":"event"},{"anonymous":false,"inputs":[{"indexed":true,"internalType":"address","name":"token","type":"address"},{"indexed":false,"internalType":"uint256","name":"amount","type":"uint256"}],"name":"Withdrawn","type":"event"},{"anonymous":false,"inputs":[{"indexed":true,"internalType":"address","name":"token","type":"address"},{"indexed":false,"internalType":"uint256","name":"yieldAmount","type":"uint256"}],"name":"YieldGenerated","type":"event"},{"inputs":[],"name":"APY_BASIS_POINTS","outputs":[{"internalType":"uint256","name":"","type":"uint256"}],"stateMutability":"view","type":"function"},{"inputs":[],"name":"MENTO_RESERVE","outputs":[{"internalType":"address","name":"","type":"address"}],"stateMutability":"view","type":"function"},{"inputs":[],"name":"SECONDS_PER_YEAR","outputs":[{"internalType":"uint256","name":"","type":"uint256"}],"stateMutability":"view","type":"function"},{"inputs":[{"internalType":"address","name":"token","type":"address"},{"internalType":"uint256","name":"principal","type":"uint256"},{"internalType":"uint256","name":"timeElapsed","type":"uint256"}],"name":"calculateYield","outputs":[{"internalType":"uint256","name":"","type":"uint256"}],"stateMutability":"pure","type":"function"},{"inputs":[{"internalType":"address","name":"token","type":"address"},{"internalType":"uint256","name":"amount","type":"uint256"}],"name":"deposit","outputs":[],"stateMutability":"nonpayable","type":"function"},{"inputs":[{"internalType":"address","name":"token","type":"address"}],"name":"emergencyWithdraw","outputs":[],"stateMutability":"nonpayable","type":"function"},{"inputs":[],"name":"generateYield","outputs":[],"stateMutability":"nonpayable","type":"function"},{"inputs":[{"internalType":"address","name":"token","type":"address"}],"name":"getAPY","outputs":[{"internalType":"uint256","name":"","type":"uint256"}],"stateMutability":"pure","type":"function"},{"inputs":[{"internalType":"address","name":"token","type":"address"}],"name":"getAvailableBalance","outputs":[{"internalType":"uint256","name":"","type":"uint256"}],"stateMutability":"view","type":"function"},{"inputs":[{"internalType":"address","name":"token","type":"address"}],"name":"getCurrentYield","outputs":[{"internalType":"uint256","name":"","type":"uint256"}],"stateMutability":"view","type":"function"},{"inputs":[{"internalType":"address","name":"token","type":"address"}],"name":"getStrategyStats","outputs":[{"internalType":"uint256","name":"deposits","type":"uint256"},{"internalType":"uint256","name":"withdrawals","type":"uint256"},{"internalType":"uint256","name":"yield","type":"uint256"},{"internalType":"uint256","name":"tvl","type":"uint256"}],"stateMutability":"view","type":"function"},{"inputs":[{"internalType":"address","name":"token","type":"address"}],"name":"getTVL","outputs":[{"internalType":"uint256","name":"","type":"uint256"}],"stateMutability":"view","type":"function"},{"inputs":[],"name":"lastYieldCalculation","outputs":[{"internalType":"uint256","name":"","type":"uint256"}],"stateMutability":"view","type":"function"},{"inputs":[],"name":"owner","outputs":[{"internalType":"address","name":"","type":"address"}],"stateMutability":"view","type":"function"},{"inputs":[{"internalType":"address","name":"fromToken","type":"address"},{"internalType":"address","name":"toToken","type":"address"},{"internalType":"uint256","name":"amount","type":"uint256"}],"name":"rebalance","outputs":[],"stateMutability":"nonpayable","type":"function"},{"inputs":[],"name":"renounceOwnership","outputs":[],"stateMutability":"nonpayable","type":"function"},{"inputs":[{"internalType":"address","name":"_vault","type":"address"}],"name":"setVault","outputs":[],"stateMutability":"nonpayable","type":"function"},{"inputs":[{"internalType":"address","name":"","type":"address"}],"name":"tokenDeposits","outputs":[{"internalType":"uint256","name":"","type":"uint256"}],"stateMutability":"view","type":"function"},{"inputs":[{"internalType":"address","name":"","type":"address"}],"name":"tokenWithdrawals","outputs":[{"internalType":"uint256","name":"","type":"uint256"}],"stateMutability":"view","type":"function"},{"inputs":[{"internalType":"address","name":"","type":"address"}],"name":"tokenYield","outputs":[{"internalType":"uint256","name":"","type":"uint256"}],"stateMutability":"view","type":"function"},{"inputs":[{"internalType":"address","name":"newOwner","type":"address"}],"name":"transferOwnership","outputs":[],"stateMutability":"nonpayable","type":"function"},{"inputs":[],"name":"vault","outputs":[{"internalType":"address","name":"","type":"address"}],"stateMutability":"view","type":"function"},{"inputs":[{"internalType":"address","name":"token","type":"address"},{"internalType":"uint256","name":"amount","type":"uint256"}],"name":"withdraw","outputs":[],"stateMutability":"nonpayable","type":"function"}],"evm":{"bytecode":{"linkReferences":{},"object":"608060405234801561001057600080fd5b50600160005561001f33610028565b4260055561007a565b600180546001600160a01b038381166001600160a01b0319831681179093556040519116919082907f8be0079c531659141344cd1fd0a4f28419497f9722a3daafe3b4186f6b6457e090600090a35050565b6110d8806100896000396000f3fe608060405234801561001057600080fd5b506004361061014d5760003560e01c806396795298116100c3578063e6074da71161007c578063e6074da7146102e5578063e6a69ab814610305578063f2fde38b14610310578063f3fef3a314610323578063f7c65cd214610336578063fbfa77cf1461033e57600080fd5b80639679529814610261578063b35f051714610281578063b3f865f71461028a578063b89433771461029d578063c4f9870b146102bd578063d1edbc53146102d257600080fd5b80636817031b116101155780636817031b146101dc5780636c24a76f146101ef5780636ff1c9bc14610202578063715018a6146102155780638da5cb5b1461021d5780638f45f1791461022e57600080fd5b80630f40517a14610152578063158fb06e146101785780631d70ca5e1461018b57806336e9bdd51461019457806347e7ef24146101c7575b600080fd5b610165610160366004610ea5565b610351565b6040519081526020015b60405180910390f35b610165610186366004610ec0565b610362565b61016560055481565b6101af73123456789012345678901234567890123456789081565b6040516001600160a01b03909116815260200161016f565b6101da6101d5366004610ef3565b6103b6565b005b6101da6101ea366004610ea5565b6104c0565b6101656101fd366004610ea5565b610585565b6101da610210366004610ea5565b6105d6565b6101da6106b0565b6001546001600160a01b03166101af565b61024161023c366004610ea5565b6106c4565b60408051948552602085019390935291830152606082015260800161016f565b61016561026f366004610ea5565b60036020526000908152604090205481565b61016561032081565b6101da610298366004610f1d565b610708565b6101656102ab366004610ea5565b60046020526000908152604090205481565b6101656102cb366004610ea5565b5061032090565b6101656102e0366004610ea5565b61081f565b6101656102f3366004610ea5565b60026020526000908152604090205481565b6101656301e1338081565b6101da61031e366004610ea5565b6108cc565b6101da610331366004610ef3565b610945565b6101da610a7e565b6006546101af906001600160a01b031681565b600061035c82610585565b92915050565b60008061038b6301e1338061038561271081610320670de0b6b3a7640000610c08565b90610c1b565b90506103ad670de0b6b3a7640000610385856103a78886610c08565b90610c08565b95945050505050565b6006546001600160a01b031633146103e95760405162461bcd60e51b81526004016103e090610f59565b60405180910390fd5b816103f381610c27565b61040f5760405162461bcd60e51b81526004016103e090610f9a565b610417610c84565b600082116104375760405162461bcd60e51b81526004016103e090610fc7565b6001600160a01b03831660009081526002602052604090205461045a9083610cdd565b6001600160a01b038416600081815260026020526040908190209290925590517f2da466a7b24304f47e87fa2e1e5a81b9831ce54fec19055ce277ca2f39ba42c4906104a99085815260200190565b60405180910390a26104bb6001600055565b505050565b6104c8610ce9565b6006546001600160a01b0316156105155760405162461bcd60e51b815260206004820152601160248201527015985d5b1d08185b1c9958591e481cd95d607a1b60448201526064016103e0565b6001600160a01b0381166105635760405162461bcd60e51b8152602060048201526015602482015274496e76616c6964207661756c74206164647265737360581b60448201526064016103e0565b600680546001600160a01b0319166001600160a01b0392909216919091179055565b6001600160a01b038116600090815260036020908152604080832054600290925282205482916105b59190610d43565b905060006105c28461081f565b90506105ce8282610cdd565b949350505050565b6105de610ce9565b60006105e982610585565b9050600081116106325760405162461bcd60e51b81526020600482015260146024820152734e6f2066756e647320746f20776974686472617760601b60448201526064016103e0565b6001600160a01b0382166000908152600360205260409020546106559082610cdd565b6001600160a01b038316600081815260036020526040908190209290925590517f7084f5476618d8e60b11ef0d7d3f06914655adb8793e28ff7f018d4c76d505d5906106a49084815260200190565b60405180910390a25050565b6106b8610ce9565b6106c26000610d4f565b565b6001600160a01b03811660009081526002602090815260408083205460039092528220549091806106f48561081f565b91506106ff85610585565b90509193509193565b610710610ce9565b8261071a81610c27565b6107365760405162461bcd60e51b81526004016103e090610f9a565b8261074081610c27565b61075c5760405162461bcd60e51b81526004016103e090610f9a565b6000831161077c5760405162461bcd60e51b81526004016103e090610fc7565b61078585610585565b8311156107cb5760405162461bcd60e51b8152602060048201526014602482015273496e73756666696369656e742062616c616e636560601b60448201526064016103e0565b836001600160a01b0316856001600160a01b03167f4ce94e8bd94f62017197ba464f629a366572732970f6fe47c76f97bb53f763038560405161081091815260200190565b60405180910390a35050505050565b60008061083760055442610d4390919063ffffffff16565b6001600160a01b0384166000908152600360209081526040808320546002909252822054929350909161086991610d43565b9050801580610876575081155b15610899575050506001600160a01b031660009081526004602052604090205490565b60006108a6858385610362565b6001600160a01b0386166000908152600460205260409020549091506103ad9082610cdd565b6108d4610ce9565b6001600160a01b0381166109395760405162461bcd60e51b815260206004820152602660248201527f4f776e61626c653a206e6577206f776e657220697320746865207a65726f206160448201526564647265737360d01b60648201526084016103e0565b61094281610d4f565b50565b6006546001600160a01b0316331461096f5760405162461bcd60e51b81526004016103e090610f59565b8161097981610c27565b6109955760405162461bcd60e51b81526004016103e090610f9a565b61099d610c84565b600082116109bd5760405162461bcd60e51b81526004016103e090610fc7565b6109c683610585565b821115610a0c5760405162461bcd60e51b8152602060048201526014602482015273496e73756666696369656e742062616c616e636560601b60448201526064016103e0565b6001600160a01b038316600090815260036020526040902054610a2f9083610cdd565b6001600160a01b038416600081815260036020526040908190209290925590517f7084f5476618d8e60b11ef0d7d3f06914655adb8793e28ff7f018d4c76d505d5906104a99085815260200190565b6000610a9560055442610d4390919063ffffffff16565b9050610e10811015610ae95760405162461bcd60e51b815260206004820152601e60248201527f5969656c642063616c63756c6174696f6e20746f6f206672657175656e74000060448201526064016103e0565b6000610af3610da1565b905060005b8151811015610bff576000828281518110610b1557610b15610ffe565b6020908102919091018101516001600160a01b038116600090815260038352604080822054600290945281205491935091610b509190610d43565b90508015610bea576000610b65838388610362565b90508015610be8576001600160a01b038316600090815260046020526040902054610b909082610cdd565b6001600160a01b038416600081815260046020526040908190209290925590517f07616302615f148fb89acb6dadd27ccbeeaa18d4d6dbb193d2c046c94bb5a30390610bdf9084815260200190565b60405180910390a25b505b50508080610bf79061102a565b915050610af8565b50504260055550565b6000610c148284611043565b9392505050565b6000610c14828461105a565b60006001600160a01b0382167340a42baf86fc821f972ad2ac878729063ceef4031480610c7057506001600160a01b0382167396f3ce39ad2bfdcf92c0f6e2c2cabf83874660fc145b8061035c5750506001600160a01b03161590565b600260005403610cd65760405162461bcd60e51b815260206004820152601f60248201527f5265656e7472616e637947756172643a207265656e7472616e742063616c6c0060448201526064016103e0565b6002600055565b6000610c14828461107c565b6001546001600160a01b031633146106c25760405162461bcd60e51b815260206004820181905260248201527f4f776e61626c653a2063616c6c6572206973206e6f7420746865206f776e657260448201526064016103e0565b6000610c14828461108f565b600180546001600160a01b038381166001600160a01b0319831681179093556040519116919082907f8be0079c531659141344cd1fd0a4f28419497f9722a3daafe3b4186f6b6457e090600090a35050565b60408051600380825260808201909252606091600091906020820184803683370190505090507340a42baf86fc821f972ad2ac878729063ceef40381600081518110610def57610def610ffe565b60200260200101906001600160a01b031690816001600160a01b0316815250507396f3ce39ad2bfdcf92c0f6e2c2cabf83874660fc81600181518110610e3757610e37610ffe565b60200260200101906001600160a01b031690816001600160a01b031681525050600081600281518110610e6c57610e6c610ffe565b6001600160a01b0390921660209283029190910190910152919050565b80356001600160a01b0381168114610ea057600080fd5b919050565b600060208284031215610eb757600080fd5b610c1482610e89565b600080600060608486031215610ed557600080fd5b610ede84610e89565b95602085013595506040909401359392505050565b60008060408385031215610f0657600080fd5b610f0f83610e89565b946020939093013593505050565b600080600060608486031215610f3257600080fd5b610f3b84610e89565b9250610f4960208501610e89565b9150604084013590509250925092565b60208082526021908201527f4f6e6c79207661756c742063616e2063616c6c20746869732066756e6374696f6040820152603760f91b606082015260800190565b602080825260139082015272151bdad95b881b9bdd081cdd5c1c1bdc9d1959606a1b604082015260600190565b6020808252601d908201527f416d6f756e74206d7573742062652067726561746572207468616e2030000000604082015260600190565b634e487b7160e01b600052603260045260246000fd5b634e487b7160e01b600052601160045260246000fd5b60006001820161103c5761103c611014565b5060010190565b808202811582820484141761035c5761035c611014565b60008261107757634e487b7160e01b600052601260045260246000fd5b500490565b8082018082111561035c5761035c611014565b8181038181111561035c5761035c61101456fea26469706673582212209980eb12b6d14b7f2b99d2fb58c2f10b52f348eeadf153423255ee15b6cdd13764736f6c63430008130033","opcodes":"PUSH1 0x80 PUSH1 0x40 MSTORE CALLVALUE DUP1 ISZERO PUSH2 0x10 JUMPI PUSH1 0x0 DUP1 REVERT JUMPDEST POP PUSH1 0x1 PUSH1 0x0 SSTORE PUSH2 0x1F CALLER PUSH2 0x28 JUMP JUMPDEST TIMESTAMP PUSH1 0x5 SSTORE PUSH2 0x7A JUMP JUMPDEST PUSH1 0x1 DUP1 SLOAD PUSH1 0x1 PUSH1 0x1 PUSH1 0xA0 SHL SUB DUP4 DUP2 AND PUSH1 0x1 PUSH1 0x1 PUSH1 0xA0 SHL SUB NOT DUP4 AND DUP2 OR SWAP1 SWAP4 SSTORE PUSH1 0x40 MLOAD SWAP2 AND SWAP2 SWAP1 DUP3 SWAP1 PUSH32 0x8BE0079C531659141344CD1FD0A4F28419497F9722A3DAAFE3B4186F6B6457E0 SWAP1 PUSH1 0x0 SWAP1 LOG3 POP POP JUMP JUMPDEST PUSH2 0x10D8 DUP1 PUSH2 0x89 PUSH1 0x0 CODECOPY PUSH1 0x0 RETURN INVALID PUSH1 0x80 PUSH1 0x40 MSTORE CALLVALUE DUP1 ISZERO PUSH2 0x10 JUMPI PUSH1 0x0 DUP1 REVERT JUMPDEST POP PUSH1 0x4 CALLDATASIZE LT PUSH2 0x14D JUMPI PUSH1 0x0 CALLDATALOAD PUSH1 0xE0 SHR DUP1 PUSH4 0x96795298 GT PUSH2 0xC3 JUMPI DUP1 PUSH4 0xE6074DA7 GT PUSH2 0x7C JUMPI DUP1 PUSH4 0xE6074DA7 EQ PUSH2 0x2E5 JUMPI DUP1 PUSH4 0xE6A69AB8 EQ PUSH2 0x305 JUMPI DUP1 PUSH4 0xF2FDE38B EQ PUSH2 0x310 JUMPI DUP1 PUSH4 0xF3FEF3A3 EQ PUSH2 0x323 JUMPI DUP1 PUSH4 0xF7C65CD2 EQ PUSH2 0x336 JUMPI DUP1 PUSH4 0xFBFA77CF EQ PUSH2 0x33E JUMPI PUSH1 0x0 DUP1 REVERT JUMPDEST DUP1 PUSH4 0x96795298 EQ PUSH2 0x261 JUMPI DUP1 PUSH4 0xB35F0517 EQ PUSH2 0x281 JUMPI DUP1 PUSH4 0xB3F865F7 EQ PUSH2 0x28A JUMPI DUP1 PUSH4 0xB8943377 EQ PUSH2 0x29D JUMPI DUP1 PUSH4 0xC4F9870B EQ PUSH2 0x2BD JUMPI DUP1 PUSH4 0xD1EDBC53 EQ PUSH2 0x2D2 JUMPI PUSH1 0x0 DUP1 REVERT JUMPDEST DUP1 PUSH4 0x6817031B GT PUSH2 0x115 JUMPI DUP1 PUSH4 0x6817031B EQ PUSH2 0x1DC JUMPI DUP1 PUSH4 0x6C24A76F EQ PUSH2 0x1EF JUMPI DUP1 PUSH4 0x6FF1C9BC EQ PUSH2 0x202 JUMPI DUP1 PUSH4 0x715018A6 EQ PUSH2 0x215 JUMPI DUP1 PUSH4 0x8DA5CB5B EQ PUSH2 0x21D JUMPI DUP1 PUSH4 0x8F45F179 EQ PUSH2 0x22E JUMPI PUSH1 0x0 DUP1 REVERT JUMPDEST DUP1 PUSH4 0xF40517A EQ PUSH2 0x152 JUMPI DUP1 PUSH4 0x158FB06E EQ PUSH2 0x178 JUMPI DUP1 PUSH4 0x1D70CA5E EQ PUSH2 0x18B JUMPI DUP1 PUSH4 0x36E9BDD5 EQ PUSH2 0x194 JUMPI DUP1 PUSH4 0x47E7EF24 EQ PUSH2 0x1C7 JUMPI JUMPDEST PUSH1 0x0 DUP1 REVERT JUMPDEST PUSH2 0x165 PUSH2 0x160 CALLDATASIZE PUSH1 0x4 PUSH2 0xEA5 JUMP JUMPDEST PUSH2 0x351 JUMP JUMPDEST PUSH1 0x40 MLOAD SWAP1 DUP2 MSTORE PUSH1 0x20 ADD JUMPDEST PUSH1 0x40 MLOAD DUP1 SWAP2 SUB SWAP1 RETURN JUMPDEST PUSH2 0x165 PUSH2 0x186 CALLDATASIZE PUSH1 0x4 PUSH2 0xEC0 JUMP JUMPDEST PUSH2 0x362 JUMP JUMPDEST PUSH2 0x165 PUSH1 0x5 SLOAD DUP2 JUMP JUMPDEST PUSH2 0x1AF PUSH20 0x1234567890123456789012345678901234567890 DUP2 JUMP JUMPDEST PUSH1 0x40 MLOAD PUSH1 0x1 PUSH1 0x1 PUSH1 0xA0 SHL SUB SWAP1 SWAP2 AND DUP2 MSTORE PUSH1 0x20 ADD PUSH2 0x16F JUMP JUMPDEST PUSH2 0x1DA PUSH2 0x1D5 CALLDATASIZE PUSH1 0x4 PUSH2 0xEF3 JUMP JUMPDEST PUSH2 0x3B6 JUMP JUMPDEST STOP JUMPDEST PUSH2 0x1DA PUSH2 0x1EA CALLDATASIZE PUSH1 0x4 PUSH2 0xEA5 JUMP JUMPDEST PUSH2 0x4C0 JUMP JUMPDEST PUSH2 0x165 PUSH2 0x1FD CALLDATASIZE PUSH1 0x4 PUSH2 0xEA5 JUMP JUMPDEST PUSH2 0x585 JUMP JUMPDEST PUSH2 0x1DA PUSH2 0x210 CALLDATASIZE PUSH1 0x4 PUSH2 0xEA5 JUMP JUMPDEST PUSH2 0x5D6 JUMP JUMPDEST PUSH2 0x1DA PUSH2 0x6B0 JUMP JUMPDEST PUSH1 0x1 SLOAD PUSH1 0x1 PUSH1 0x1 PUSH1 0xA0 SHL SUB AND PUSH2 0x1AF JUMP JUMPDEST PUSH2 0x241 PUSH2 0x23C CALLDATASIZE PUSH1 0x4 PUSH2 0xEA5 JUMP JUMPDEST PUSH2 0x6C4 JUMP JUMPDEST PUSH1 0x40 DUP1 MLOAD SWAP5 DUP6 MSTORE PUSH1 0x20 DUP6 ADD SWAP4 SWAP1 SWAP4 MSTORE SWAP2 DUP4 ADD MSTORE PUSH1 0x60 DUP3 ADD MSTORE PUSH1 0x80 ADD PUSH2 0x16F JUMP JUMPDEST PUSH2 0x165 PUSH2 0x26F CALLDATASIZE PUSH1 0x4 PUSH2 0xEA5 JUMP JUMPDEST PUSH1 0x3 PUSH1 0x20 MSTORE PUSH1 0x0 SWAP1 DUP2 MSTORE PUSH1 0x40 SWAP1 KECCAK256 SLOAD DUP2 JUMP JUMPDEST PUSH2 0x165 PUSH2 0x320 DUP2 JUMP JUMPDEST PUSH2 0x1DA PUSH2 0x298 CALLDATASIZE PUSH1 0x4 PUSH2 0xF1D JUMP JUMPDEST PUSH2 0x708 JUMP JUMPDEST PUSH2 0x165 PUSH2 0x2AB CALLDATASIZE PUSH1 0x4 PUSH2 0xEA5 JUMP JUMPDEST PUSH1 0x4 PUSH1 0x20 MSTORE PUSH1 0x0 SWAP1 DUP2 MSTORE PUSH1 0x40 SWAP1 KECCAK256 SLOAD DUP2 JUMP JUMPDEST PUSH2 0x165 PUSH2 0x2CB CALLDATASIZE PUSH1 0x4 PUSH2 0xEA5 JUMP JUMPDEST POP PUSH2 0x320 SWAP1 JUMP JUMPDEST PUSH2 0x165 PUSH2 0x2E0 CALLDATASIZE PUSH1 0x4 PUSH2 0xEA5 JUMP JUMPDEST PUSH2 0x81F JUMP JUMPDEST PUSH2 0x165 PUSH2 0x2F3 CALLDATASIZE PUSH1 0x4 PUSH2 0xEA5 JUMP JUMPDEST PUSH1 0x2 PUSH1 0x20 MSTORE PUSH1 0x0 SWAP1 DUP2 MSTORE PUSH1 0x40 SWAP1 KECCAK256 SLOAD DUP2 JUMP JUMPDEST PUSH2 0x165 PUSH4 0x1E13380 DUP2 JUMP JUMPDEST PUSH2 0x1DA PUSH2 0x31E CALLDATASIZE PUSH1 0x4 PUSH2 0xEA5 JUMP JUMPDEST PUSH2 0x8CC JUMP JUMPDEST PUSH2 0x1DA PUSH2 0x331 CALLDATASIZE PUSH1 0x4 PUSH2 0xEF3 JUMP JUMPDEST PUSH2 0x945 JUMP JUMPDEST PUSH2 0x1DA PUSH2 0xA7E JUMP JUMPDEST PUSH1 0x6 SLOAD PUSH2 0x1AF SWAP1 PUSH1 0x1 PUSH1 0x1 PUSH1 0xA0 SHL SUB AND DUP2 JUMP JUMPDEST PUSH1 0x0 PUSH2 0x35C DUP3 PUSH2 0x585 JUMP JUMPDEST SWAP3 SWAP2 POP POP JUMP JUMPDEST PUSH1 0x0 DUP1 PUSH2 0x38B PUSH4 0x1E13380 PUSH2 0x385 PUSH2 0x2710 DUP2 PUSH2 0x320 PUSH8 0xDE0B6B3A7640000 PUSH2 0xC08 JUMP JUMPDEST SWAP1 PUSH2 0xC1B JUMP JUMPDEST SWAP1 POP PUSH2 0x3AD PUSH8 0xDE0B6B3A7640000 PUSH2 0x385 DUP6 PUSH2 0x3A7 DUP9 DUP7 PUSH2 0xC08 JUMP JUMPDEST SWAP1 PUSH2 0xC08 JUMP JUMPDEST SWAP6 SWAP5 POP POP POP POP POP JUMP JUMPDEST PUSH1 0x6 SLOAD PUSH1 0x1 PUSH1 0x1 PUSH1 0xA0 SHL SUB AND CALLER EQ PUSH2 0x3E9 JUMPI PUSH1 0x40 MLOAD PUSH3 0x461BCD PUSH1 0xE5 SHL DUP2 MSTORE PUSH1 0x4 ADD PUSH2 0x3E0 SWAP1 PUSH2 0xF59 JUMP JUMPDEST PUSH1 0x40 MLOAD DUP1 SWAP2 SUB SWAP1 REVERT JUMPDEST DUP2 PUSH2 0x3F3 DUP2 PUSH2 0xC27 JUMP JUMPDEST PUSH2 0x40F JUMPI PUSH1 0x40 MLOAD PUSH3 0x461BCD PUSH1 0xE5 SHL DUP2 MSTORE PUSH1 0x4 ADD PUSH2 0x3E0 SWAP1 PUSH2 0xF9A JUMP JUMPDEST PUSH2 0x417 PUSH2 0xC84 JUMP JUMPDEST PUSH1 0x0 DUP3 GT PUSH2 0x437 JUMPI PUSH1 0x40 MLOAD PUSH3 0x461BCD PUSH1 0xE5 SHL DUP2 MSTORE PUSH1 0x4 ADD PUSH2 0x3E0 SWAP1 PUSH2 0xFC7 JUMP JUMPDEST PUSH1 0x1 PUSH1 0x1 PUSH1 0xA0 SHL SUB DUP4 AND PUSH1 0x0 SWAP1 DUP2 MSTORE PUSH1 0x2 PUSH1 0x20 MSTORE PUSH1 0x40 SWAP1 KECCAK256 SLOAD PUSH2 0x45A SWAP1 DUP4 PUSH2 0xCDD JUMP JUMPDEST PUSH1 0x1 PUSH1 0x1 PUSH1 0xA0 SHL SUB DUP5 AND PUSH1 0x0 DUP2 DUP2 MSTORE PUSH1 0x2 PUSH1 0x20 MSTORE PUSH1 0x40 SWAP1 DUP2 SWAP1 KECCAK256 SWAP3 SWAP1 SWAP3 SSTORE SWAP1 MLOAD PUSH32 0x2DA466A7B24304F47E87FA2E1E5A81B9831CE54FEC19055CE277CA2F39BA42C4 SWAP1 PUSH2 0x4A9 SWAP1 DUP6 DUP2 MSTORE PUSH1 0x20 ADD SWAP1 JUMP JUMPDEST PUSH1 0x40 MLOAD DUP1 SWAP2 SUB SWAP1 LOG2 PUSH2 0x4BB PUSH1 0x1 PUSH1 0x0 SSTORE JUMP JUMPDEST POP POP POP JUMP JUMPDEST PUSH2 0x4C8 PUSH2 0xCE9 JUMP JUMPDEST PUSH1 0x6 SLOAD PUSH1 0x1 PUSH1 0x1 PUSH1 0xA0 SHL SUB AND ISZERO PUSH2 0x515 JUMPI PUSH1 0x40 MLOAD PUSH3 0x461BCD PUSH1 0xE5 SHL DUP2 MSTORE PUSH1 0x20 PUSH1 0x4 DUP3 ADD MSTORE PUSH1 0x11 PUSH1 0x24 DUP3 ADD MSTORE PUSH17 0x15985D5B1D08185B1C9958591E481CD95D PUSH1 0x7A SHL PUSH1 0x44 DUP3 ADD MSTORE PUSH1 0x64 ADD PUSH2 0x3E0 JUMP JUMPDEST PUSH1 0x1 PUSH1 0x1 PUSH1 0xA0 SHL SUB DUP2 AND PUSH2 0x563 JUMPI PUSH1 0x40 MLOAD PUSH3 0x461BCD PUSH1 0xE5 SHL DUP2 MSTORE PUSH1 0x20 PUSH1 0x4 DUP3 ADD MSTORE PUSH1 0x15 PUSH1 0x24 DUP3 ADD MSTORE PUSH21 0x496E76616C6964207661756C742061646472657373 PUSH1 0x58 SHL PUSH1 0x44 DUP3 ADD MSTORE PUSH1 0x64 ADD PUSH2 0x3E0 JUMP JUMPDEST PUSH1 0x6 DUP1 SLOAD PUSH1 0x1 PUSH1 0x1 PUSH1 0xA0 SHL SUB NOT AND PUSH1 0x1 PUSH1 0x1 PUSH1 0xA0 SHL SUB SWAP3 SWAP1 SWAP3 AND SWAP2 SWAP1 SWAP2 OR SWAP1 SSTORE JUMP JUMPDEST PUSH1 0x1 PUSH1 0x1 PUSH1 0xA0 SHL SUB DUP2 AND PUSH1 0x0 SWAP1 DUP2 MSTORE PUSH1 0x3 PUSH1 0x20 SWAP1 DUP2 MSTORE PUSH1 0x40 DUP1 DUP4 KECCAK256 SLOAD PUSH1 0x2 SWAP1 SWAP3 MSTORE DUP3 KECCAK256 SLOAD DUP3 SWAP2 PUSH2 0x5B5 SWAP2 SWAP1 PUSH2 0xD43 JUMP JUMPDEST SWAP1 POP PUSH1 0x0 PUSH2 0x5C2 DUP5 PUSH2 0x81F JUMP JUMPDEST SWAP1 POP PUSH2 0x5CE DUP3 DUP3 PUSH2 0xCDD JUMP JUMPDEST SWAP5 SWAP4 POP POP POP POP JUMP JUMPDEST PUSH2 0x5DE PUSH2 0xCE9 JUMP JUMPDEST PUSH1 0x0 PUSH2 0x5E9 DUP3 PUSH2 0x585 JUMP JUMPDEST SWAP1 POP PUSH1 0x0 DUP2 GT PUSH2 0x632 JUMPI PUSH1 0x40 MLOAD PUSH3 0x461BCD PUSH1 0xE5 SHL DUP2 MSTORE PUSH1 0x20 PUSH1 0x4 DUP3 ADD MSTORE PUSH1 0x14 PUSH1 0x24 DUP3 ADD MSTORE PUSH20 0x4E6F2066756E647320746F207769746864726177 PUSH1 0x60 SHL PUSH1 0x44 DUP3 ADD MSTORE PUSH1 0x64 ADD PUSH2 0x3E0 JUMP JUMPDEST PUSH1 0x1 PUSH1 0x1 PUSH1 0xA0 SHL SUB DUP3 AND PUSH1 0x0 SWAP1 DUP2 MSTORE PUSH1 0x3 PUSH1 0x20 MSTORE PUSH1 0x40 SWAP1 KECCAK256 SLOAD PUSH2 0x655 SWAP1 DUP3 PUSH2 0xCDD JUMP JUMPDEST PUSH1 0x1 PUSH1 0x1 PUSH1 0xA0 SHL SUB DUP4 AND PUSH1 0x0 DUP2 DUP2 MSTORE PUSH1 0x3 PUSH1 0x20 MSTORE PUSH1 0x40 SWAP1 DUP2 SWAP1 KECCAK256 SWAP3 SWAP1 SWAP3 SSTORE SWAP1 MLOAD PUSH32 0x7084F5476618D8E60B11EF0D7D3F06914655ADB8793E28FF7F018D4C76D505D5 SWAP1 PUSH2 0x6A4 SWAP1 DUP5 DUP2 MSTORE PUSH1 0x20 ADD SWAP1 JUMP JUMPDEST PUSH1 0x40 MLOAD DUP1 SWAP2 SUB SWAP1 LOG2 POP POP JUMP JUMPDEST PUSH2 0x6B8 PUSH2 0xCE9 JUMP JUMPDEST PUSH2 0x6C2 PUSH1 0x0 PUSH2 0xD4F JUMP JUMPDEST JUMP JUMPDEST PUSH1 0x1 PUSH1 0x1 PUSH1 0xA0 SHL SUB DUP2 AND PUSH1 0x0 SWAP1 DUP2 MSTORE PUSH1 0x2 PUSH1 0x20 SWAP1 DUP2 MSTORE PUSH1 0x40 DUP1 DUP4 KECCAK256 SLOAD PUSH1 0x3 SWAP1 SWAP3 MSTORE DUP3 KECCAK256 SLOAD SWAP1 SWAP2 DUP1 PUSH2 0x6F4 DUP6 PUSH2 0x81F JUMP JUMPDEST SWAP2 POP PUSH2 0x6FF DUP6 PUSH2 0x585 JUMP JUMPDEST SWAP1 POP SWAP2 SWAP4 POP SWAP2 SWAP4 JUMP JUMPDEST PUSH2 0x710 PUSH2 0xCE9 JUMP JUMPDEST DUP3 PUSH2 0x71A DUP2 PUSH2 0xC27 JUMP JUMPDEST PUSH2 0x736 JUMPI PUSH1 0x40 MLOAD PUSH3 0x461BCD PUSH1 0xE5 SHL DUP2 MSTORE PUSH1 0x4 ADD PUSH2 0x3E0 SWAP1 PUSH2 0xF9A JUMP JUMPDEST DUP3 PUSH2 0x740 DUP2 PUSH2 0xC27 JUMP JUMPDEST PUSH2 0x75C JUMPI PUSH1 0x40 MLOAD PUSH3 0x461BCD PUSH1 0xE5 SHL DUP2 MSTORE PUSH1 0x4 ADD PUSH2 0x3E0 SWAP1 PUSH2 0xF9A JUMP JUMPDEST PUSH1 0x0 DUP4 GT PUSH2 0x77C JUMPI PUSH1 0x40 MLOAD PUSH3 0x461BCD PUSH1 0xE5 SHL DUP2 MSTORE PUSH1 0x4 ADD PUSH2 0x3E0 SWAP1 PUSH2 0xFC7 JUMP JUMPDEST PUSH2 0x785 DUP6 PUSH2 0x585 JUMP JUMPDEST DUP4 GT ISZERO PUSH2 0x7CB JUMPI PUSH1 0x40 MLOAD PUSH3 0x461BCD PUSH1 0xE5 SHL DUP2 MSTORE PUSH1 0x20 PUSH1 0x4 DUP3 ADD MSTORE PUSH1 0x14 PUSH1 0x24 DUP3 ADD MSTORE PUSH20 0x496E73756666696369656E742062616C616E6365 PUSH1 0x60 SHL PUSH1 0x44 DUP3 ADD MSTORE PUSH1 0x64 ADD PUSH2 0x3E0 JUMP JUMPDEST DUP4 PUSH1 0x1 PUSH1 0x1 PUSH1 0xA0 SHL SUB AND DUP6 PUSH1 0x1 PUSH1 0x1 PUSH1 0xA0 SHL SUB AND PUSH32 0x4CE94E8BD94F62017197BA464F629A366572732970F6FE47C76F97BB53F76303 DUP6 PUSH1 0x40 MLOAD PUSH2 0x810 SWAP2 DUP2 MSTORE PUSH1 0x20 ADD SWAP1 JUMP JUMPDEST PUSH1 0x40 MLOAD DUP1 SWAP2 SUB SWAP1 LOG3 POP POP POP POP POP JUMP JUMPDEST PUSH1 0x0 DUP1 PUSH2 0x837 PUSH1 0x5 SLOAD TIMESTAMP PUSH2 0xD43 SWAP1 SWAP2 SWAP1 PUSH4 0xFFFFFFFF AND JUMP JUMPDEST PUSH1 0x1 PUSH1 0x1 PUSH1 0xA0 SHL SUB DUP5 AND PUSH1 0x0 SWAP1 DUP2 MSTORE PUSH1 0x3 PUSH1 0x20 SWAP1 DUP2 MSTORE PUSH1 0x40 DUP1 DUP4 KECCAK256 SLOAD PUSH1 0x2 SWAP1 SWAP3 MSTORE DUP3 KECCAK256 SLOAD SWAP3 SWAP4 POP SWAP1 SWAP2 PUSH2 0x869 SWAP2 PUSH2 0xD43 JUMP JUMPDEST SWAP1 POP DUP1 ISZERO DUP1 PUSH2 0x876 JUMPI POP DUP2 ISZERO JUMPDEST ISZERO PUSH2 0x899 JUMPI POP POP POP PUSH1 0x1 PUSH1 0x1 PUSH1 0xA0 SHL SUB AND PUSH1 0x0 SWAP1 DUP2 MSTORE PUSH1 0x4 PUSH1 0x20 MSTORE PUSH1 0x40 SWAP1 KECCAK256 SLOAD SWAP1 JUMP JUMPDEST PUSH1 0x0 PUSH2 0x8A6 DUP6 DUP4 DUP6 PUSH2 0x362 JUMP JUMPDEST PUSH1 0x1 PUSH1 0x1 PUSH1 0xA0 SHL SUB DUP7 AND PUSH1 0x0 SWAP1 DUP2 MSTORE PUSH1 0x4 PUSH1 0x20 MSTORE PUSH1 0x40 SWAP1 KECCAK256 SLOAD SWAP1 SWAP2 POP PUSH2 0x3AD SWAP1 DUP3 PUSH2 0xCDD JUMP JUMPDEST PUSH2 0x8D4 PUSH2 0xCE9 JUMP JUMPDEST PUSH1 0x1 PUSH1 0x1 PUSH1 0xA0 SHL SUB DUP2 AND PUSH2 0x939 JUMPI PUSH1 0x40 MLOAD PUSH3 0x461BCD PUSH1 0xE5 SHL DUP2 MSTORE PUSH1 0x20 PUSH1 0x4 DUP3 ADD MSTORE PUSH1 0x26 PUSH1 0x24 DUP3 ADD MSTORE PUSH32 0x4F776E61626C653A206E6577206F776E657220697320746865207A65726F2061 PUSH1 0x44 DUP3 ADD MSTORE PUSH6 0x646472657373 PUSH1 0xD0 SHL PUSH1 0x64 DUP3 ADD MSTORE PUSH1 0x84 ADD PUSH2 0x3E0 JUMP JUMPDEST PUSH2 0x942 DUP2 PUSH2 0xD4F JUMP JUMPDEST POP JUMP JUMPDEST PUSH1 0x6 SLOAD PUSH1 0x1 PUSH1 0x1 PUSH1 0xA0 SHL SUB AND CALLER EQ PUSH2 0x96F JUMPI PUSH1 0x40 MLOAD PUSH3 0x461BCD PUSH1 0xE5 SHL DUP2 MSTORE PUSH1 0x4 ADD PUSH2 0x3E0 SWAP1 PUSH2 0xF59 JUMP JUMPDEST DUP2 PUSH2 0x979 DUP2 PUSH2 0xC27 JUMP JUMPDEST PUSH2 0x995 JUMPI PUSH1 0x40 MLOAD PUSH3 0x461BCD PUSH1 0xE5 SHL DUP2 MSTORE PUSH1 0x4 ADD PUSH2 0x3E0 SWAP1 PUSH2 0xF9A JUMP JUMPDEST PUSH2 0x99D PUSH2 0xC84 JUMP JUMPDEST PUSH1 0x0 DUP3 GT PUSH2 0x9BD JUMPI PUSH1 0x40 MLOAD PUSH3 0x461BCD PUSH1 0xE5 SHL DUP2 MSTORE PUSH1 0x4 ADD PUSH2 0x3E0 SWAP1 PUSH2 0xFC7 JUMP JUMPDEST PUSH2 0x9C6 DUP4 PUSH2 0x585 JUMP JUMPDEST DUP3 GT ISZERO PUSH2 0xA0C JUMPI PUSH1 0x40 MLOAD PUSH3 0x461BCD PUSH1 0xE5 SHL DUP2 MSTORE PUSH1 0x20 PUSH1 0x4 DUP3 ADD MSTORE PUSH1 0x14 PUSH1 0x24 DUP3 ADD MSTORE PUSH20 0x496E73756666696369656E742062616C616E6365 PUSH1 0x60 SHL PUSH1 0x44 DUP3 ADD MSTORE PUSH1 0x64 ADD PUSH2 0x3E0 JUMP JUMPDEST PUSH1 0x1 PUSH1 0x1 PUSH1 0xA0 SHL SUB DUP4 AND PUSH1 0x0 SWAP1 DUP2 MSTORE PUSH1 0x3 PUSH1 0x20 MSTORE PUSH1 0x40 SWAP1 KECCAK256 SLOAD PUSH2 0xA2F SWAP1 DUP4 PUSH2 0xCDD JUMP JUMPDEST PUSH1 0x1 PUSH1 0x1 PUSH1 0xA0 SHL SUB DUP5 AND PUSH1 0x0 DUP2 DUP2 MSTORE PUSH1 0x3 PUSH1 0x20 MSTORE PUSH1 0x40 SWAP1 DUP2 SWAP1 KECCAK256 SWAP3 SWAP1 SWAP3 SSTORE SWAP1 MLOAD PUSH32 0x7084F5476618D8E60B11EF0D7D3F06914655ADB8793E28FF7F018D4C76D505D5 SWAP1 PUSH2 0x4A9 SWAP1 DUP6 DUP2 MSTORE PUSH1 0x20 ADD SWAP1 JUMP JUMPDEST PUSH1 0x0 PUSH2 0xA95 PUSH1 0x5 SLOAD TIMESTAMP PUSH2 0xD43 SWAP1 SWAP2 SWAP1 PUSH4 0xFFFFFFFF AND JUMP JUMPDEST SWAP1 POP PUSH2 0xE10 DUP2 LT ISZERO PUSH2 0xAE9 JUMPI PUSH1 0x40 MLOAD PUSH3 0x461BCD PUSH1 0xE5 SHL DUP2 MSTORE PUSH1 0x20 PUSH1 0x4 DUP3 ADD MSTORE PUSH1 0x1E PUSH1 0x24 DUP3 ADD MSTORE PUSH32 0x5969656C642063616C63756C6174696F6E20746F6F206672657175656E740000 PUSH1 0x44 DUP3 ADD MSTORE PUSH1 0x64 ADD PUSH2 0x3E0 JUMP JUMPDEST PUSH1 0x0 PUSH2 0xAF3 PUSH2 0xDA1 JUMP JUMPDEST SWAP1 POP PUSH1 0x0 JUMPDEST DUP2 MLOAD DUP2 LT ISZERO PUSH2 0xBFF JUMPI PUSH1 0x0 DUP3 DUP3 DUP2 MLOAD DUP2 LT PUSH2 0xB15 JUMPI PUSH2 0xB15 PUSH2 0xFFE JUMP JUMPDEST PUSH1 0x20 SWAP1 DUP2 MUL SWAP2 SWAP1 SWAP2 ADD DUP2 ADD MLOAD PUSH1 0x1 PUSH1 0x1 PUSH1 0xA0 SHL SUB DUP2 AND PUSH1 0x0 SWAP1 DUP2 MSTORE PUSH1 0x3 DUP4 MSTORE PUSH1 0x40 DUP1 DUP3 KECCAK256 SLOAD PUSH1 0x2 SWAP1 SWAP5 MSTORE DUP2 KECCAK256 SLOAD SWAP2 SWAP4 POP SWAP2 PUSH2 0xB50 SWAP2 SWAP1 PUSH2 0xD43 JUMP JUMPDEST SWAP1 POP DUP1 ISZERO PUSH2 0xBEA JUMPI PUSH1 0x0 PUSH2 0xB65 DUP4 DUP4 DUP9 PUSH2 0x362 JUMP JUMPDEST SWAP1 POP DUP1 ISZERO PUSH2 0xBE8 JUMPI PUSH1 0x1 PUSH1 0x1 PUSH1 0xA0 SHL SUB DUP4 AND PUSH1 0x0 SWAP1 DUP2 MSTORE PUSH1 0x4 PUSH1 0x20 MSTORE PUSH1 0x40 SWAP1 KECCAK256 SLOAD PUSH2 0xB90 SWAP1 DUP3 PUSH2 0xCDD JUMP JUMPDEST PUSH1 0x1 PUSH1 0x1 PUSH1 0xA0 SHL SUB DUP5 AND PUSH1 0x0 DUP2 DUP2 MSTORE PUSH1 0x4 PUSH1 0x20 MSTORE PUSH1 0x40 SWAP1 DUP2 SWAP1 KECCAK256 SWAP3 SWAP1 SWAP3 SSTORE SWAP1 MLOAD PUSH32 0x7616302615F148FB89ACB6DADD27CCBEEAA18D4D6DBB193D2C046C94BB5A303 SWAP1 PUSH2 0xBDF SWAP1 DUP5 DUP2 MSTORE PUSH1 0x20 ADD SWAP1 JUMP JUMPDEST PUSH1 0x40 MLOAD DUP1 SWAP2 SUB SWAP1 LOG2 JUMPDEST POP JUMPDEST POP POP DUP1 DUP1 PUSH2 0xBF7 SWAP1 PUSH2 0x102A JUMP JUMPDEST SWAP2 POP POP PUSH2 0xAF8 JUMP JUMPDEST POP POP TIMESTAMP PUSH1 0x5 SSTORE POP JUMP JUMPDEST PUSH1 0x0 PUSH2 0xC14 DUP3 DUP5 PUSH2 0x1043 JUMP JUMPDEST SWAP4 SWAP3 POP POP POP JUMP JUMPDEST PUSH1 0x0 PUSH2 0xC14 DUP3 DUP5 PUSH2 0x105A JUMP JUMPDEST PUSH1 0x0 PUSH1 0x1 PUSH1 0x1 PUSH1 0xA0 SHL SUB DUP3 AND PUSH20 0x40A42BAF86FC821F972AD2AC878729063CEEF403 EQ DUP1 PUSH2 0xC70 JUMPI POP PUSH1 0x1 PUSH1 0x1 PUSH1 0xA0 SHL SUB DUP3 AND PUSH20 0x96F3CE39AD2BFDCF92C0F6E2C2CABF83874660FC EQ JUMPDEST DUP1 PUSH2 0x35C JUMPI POP POP PUSH1 0x1 PUSH1 0x1 PUSH1 0xA0 SHL SUB AND ISZERO SWAP1 JUMP JUMPDEST PUSH1 0x2 PUSH1 0x0 SLOAD SUB PUSH2 0xCD6 JUMPI PUSH1 0x40 MLOAD PUSH3 0x461BCD PUSH1 0xE5 SHL DUP2 MSTORE PUSH1 0x20 PUSH1 0x4 DUP3 ADD MSTORE PUSH1 0x1F PUSH1 0x24 DUP3 ADD MSTORE PUSH32 0x5265656E7472616E637947756172643A207265656E7472616E742063616C6C00 PUSH1 0x44 DUP3 ADD MSTORE PUSH1 0x64 ADD PUSH2 0x3E0 JUMP JUMPDEST PUSH1 0x2 PUSH1 0x0 SSTORE JUMP JUMPDEST PUSH1 0x0 PUSH2 0xC14 DUP3 DUP5 PUSH2 0x107C JUMP JUMPDEST PUSH1 0x1 SLOAD PUSH1 0x1 PUSH1 0x1 PUSH1 0xA0 SHL SUB AND CALLER EQ PUSH2 0x6C2 JUMPI PUSH1 0x40 MLOAD PUSH3 0x461BCD PUSH1 0xE5 SHL DUP2 MSTORE PUSH1 0x20 PUSH1 0x4 DUP3 ADD DUP2 SWAP1 MSTORE PUSH1 0x24 DUP3 ADD MSTORE PUSH32 0x4F776E61626C653A2063616C6C6572206973206E6F7420746865206F776E6572 PUSH1 0x44 DUP3 ADD MSTORE PUSH1 0x64 ADD PUSH2 0x3E0 JUMP JUMPDEST PUSH1 0x0 PUSH2 0xC14 DUP3 DUP5 PUSH2 0x108F JUMP JUMPDEST PUSH1 0x1 DUP1 SLOAD PUSH1 0x1 PUSH1 0x1 PUSH1 0xA0 SHL SUB DUP4 DUP2 AND PUSH1 0x1 PUSH1 0x1 PUSH1 0xA0 SHL SUB NOT DUP4 AND DUP2 OR SWAP1 SWAP4 SSTORE PUSH1 0x40 MLOAD SWAP2 AND SWAP2 SWAP1 DUP3 SWAP1 PUSH32 0x8BE0079C531659141344CD1FD0A4F28419497F9722A3DAAFE3B4186F6B6457E0 SWAP1 PUSH1 0x0 SWAP1 LOG3 POP POP JUMP JUMPDEST PUSH1 0x40 DUP1 MLOAD PUSH1 0x3 DUP1 DUP3 MSTORE PUSH1 0x80 DUP3 ADD SWAP1 SWAP3 MSTORE PUSH1 0x60 SWAP2 PUSH1 0x0 SWAP2 SWAP1 PUSH1 0x20 DUP3 ADD DUP5 DUP1 CALLDATASIZE DUP4 CALLDATACOPY ADD SWAP1 POP POP SWAP1 POP PUSH20 0x40A42BAF86FC821F972AD2AC878729063CEEF403 DUP2 PUSH1 0x0 DUP2 MLOAD DUP2 LT PUSH2 0xDEF JUMPI PUSH2 0xDEF PUSH2 0xFFE JUMP JUMPDEST PUSH1 0x20 MUL PUSH1 0x20 ADD ADD SWAP1 PUSH1 0x1 PUSH1 0x1 PUSH1 0xA0 SHL SUB AND SWAP1 DUP2 PUSH1 0x1 PUSH1 0x1 PUSH1 0xA0 SHL SUB AND DUP2 MSTORE POP POP PUSH20 0x96F3CE39AD2BFDCF92C0F6E2C2CABF83874660FC DUP2 PUSH1 0x1 DUP2 MLOAD DUP2 LT PUSH2 0xE37 JUMPI PUSH2 0xE37 PUSH2 0xFFE JUMP JUMPDEST PUSH1 0x20 MUL PUSH1 0x20 ADD ADD SWAP1 PUSH1 0x1 PUSH1 0x1 PUSH1 0xA0 SHL SUB AND SWAP1 DUP2 PUSH1 0x1 PUSH1 0x1 PUSH1 0xA0 SHL SUB AND DUP2 MSTORE POP POP PUSH1 0x0 DUP2 PUSH1 0x2 DUP2 MLOAD DUP2 LT PUSH2 0xE6C JUMPI PUSH2 0xE6C PUSH2 0xFFE JUMP JUMPDEST PUSH1 0x1 PUSH1 0x1 PUSH1 0xA0 SHL SUB SWAP1 SWAP3 AND PUSH1 0x20 SWAP3 DUP4 MUL SWAP2 SWAP1 SWAP2 ADD SWAP1 SWAP2 ADD MSTORE SWAP2 SWAP1 POP JUMP JUMPDEST DUP1 CALLDATALOAD PUSH1 0x1 PUSH1 0x1 PUSH1 0xA0 SHL SUB DUP2 AND DUP2 EQ PUSH2 0xEA0 JUMPI PUSH1 0x0 DUP1 REVERT JUMPDEST SWAP2 SWAP1 POP JUMP JUMPDEST PUSH1 0x0 PUSH1 0x20 DUP3 DUP5 SUB SLT ISZERO PUSH2 0xEB7 JUMPI PUSH1 0x0 DUP1 REVERT JUMPDEST PUSH2 0xC14 DUP3 PUSH2 0xE89 JUMP JUMPDEST PUSH1 0x0 DUP1 PUSH1 0x0 PUSH1 0x60 DUP5 DUP7 SUB SLT ISZERO PUSH2 0xED5 JUMPI PUSH1 0x0 DUP1 REVERT JUMPDEST PUSH2 0xEDE DUP5 PUSH2 0xE89 JUMP JUMPDEST SWAP6 PUSH1 0x20 DUP6 ADD CALLDATALOAD SWAP6 POP PUSH1 0x40 SWAP1 SWAP5 ADD CALLDATALOAD SWAP4 SWAP3 POP POP POP JUMP JUMPDEST PUSH1 0x0 DUP1 PUSH1 0x40 DUP4 DUP6 SUB SLT ISZERO PUSH2 0xF06 JUMPI PUSH1 0x0 DUP1 REVERT JUMPDEST PUSH2 0xF0F DUP4 PUSH2 0xE89 JUMP JUMPDEST SWAP5 PUSH1 0x20 SWAP4 SWAP1 SWAP4 ADD CALLDATALOAD SWAP4 POP POP POP JUMP JUMPDEST PUSH1 0x0 DUP1 PUSH1 0x0 PUSH1 0x60 DUP5 DUP7 SUB SLT ISZERO PUSH2 0xF32 JUMPI PUSH1 0x0 DUP1 REVERT JUMPDEST PUSH2 0xF3B DUP5 PUSH2 0xE89 JUMP JUMPDEST SWAP3 POP PUSH2 0xF49 PUSH1 0x20 DUP6 ADD PUSH2 0xE89 JUMP JUMPDEST SWAP2 POP PUSH1 0x40 DUP5 ADD CALLDATALOAD SWAP1 POP SWAP3 POP SWAP3 POP SWAP3 JUMP JUMPDEST PUSH1 0x20 DUP1 DUP3 MSTORE PUSH1 0x21 SWAP1 DUP3 ADD MSTORE PUSH32 0x4F6E6C79207661756C742063616E2063616C6C20746869732066756E6374696F PUSH1 0x40 DUP3 ADD MSTORE PUSH1 0x37 PUSH1 0xF9 SHL PUSH1 0x60 DUP3 ADD MSTORE PUSH1 0x80 ADD SWAP1 JUMP JUMPDEST PUSH1 0x20 DUP1 DUP3 MSTORE PUSH1 0x13 SWAP1 DUP3 ADD MSTORE PUSH19 0x151BDAD95B881B9BDD081CDD5C1C1BDC9D1959 PUSH1 0x6A SHL PUSH1 0x40 DUP3 ADD MSTORE PUSH1 0x60 ADD SWAP1 JUMP JUMPDEST PUSH1 0x20 DUP1 DUP3 MSTORE PUSH1 0x1D SWAP1 DUP3 ADD MSTORE PUSH32 0x416D6F756E74206D7573742062652067726561746572207468616E2030000000 PUSH1 0x40 DUP3 ADD MSTORE PUSH1 0x60 ADD SWAP1 JUMP JUMPDEST PUSH4 0x4E487B71 PUSH1 0xE0 SHL PUSH1 0x0 MSTORE PUSH1 0x32 PUSH1 0x4 MSTORE PUSH1 0x24 PUSH1 0x0 REVERT JUMPDEST PUSH4 0x4E487B71 PUSH1 0xE0 SHL PUSH1 0x0 MSTORE PUSH1 0x11 PUSH1 0x4 MSTORE PUSH1 0x24 PUSH1 0x0 REVERT JUMPDEST PUSH1 0x0 PUSH1 0x1 DUP3 ADD PUSH2 0x103C JUMPI PUSH2 0x103C PUSH2 0x1014 JUMP JUMPDEST POP PUSH1 0x1 ADD SWAP1 JUMP JUMPDEST DUP1 DUP3 MUL DUP2 ISZERO DUP3 DUP3 DIV DUP5 EQ OR PUSH2 0x35C JUMPI PUSH2 0x35C PUSH2 0x1014 JUMP JUMPDEST PUSH1 0x0 DUP3 PUSH2 0x1077 JUMPI PUSH4 0x4E487B71 PUSH1 0xE0 SHL PUSH1 0x0 MSTORE PUSH1 0x12 PUSH1 0x4 MSTORE PUSH1 0x24 PUSH1 0x0 REVERT JUMPDEST POP DIV SWAP1 JUMP JUMPDEST DUP1 DUP3 ADD DUP1 DUP3 GT ISZERO PUSH2 0x35C JUMPI PUSH2 0x35C PUSH2 0x1014 JUMP JUMPDEST DUP2 DUP2 SUB DUP2 DUP2 GT ISZERO PUSH2 0x35C JUMPI PUSH2 0x35C PUSH2 0x1014 JUMP INVALID LOG2 PUSH5 0x6970667358 0x22 SLT KECCAK256 SWAP10 DUP1 0xEB SLT 0xB6 0xD1 0x4B PUSH32 0x2B99D2FB58C2F10B52F348EEADF153423255EE15B6CDD13764736F6C63430008 SGT STOP CALLER "},"methodIdentifiers":{"APY_BASIS_POINTS()":"b35f0517","MENTO_RESERVE()":"36e9bdd5","SECONDS_PER_YEAR()":"e6a69ab8","calculateYield(address,uint256,uint256)":"158fb06e","deposit(address,uint256)":"47e7ef24","emergencyWithdraw(address)":"6ff1c9bc","generateYield()":"f7c65cd2","getAPY(address)":"c4f9870b","getAvailableBalance(address)":"6c24a76f","getCurrentYield(address)":"d1edbc53","getStrategyStats(address)":"8f45f179","getTVL(address)":"0f40517a","lastYieldCalculation()":"1d70ca5e","owner()":"8da5cb5b","rebalance(address,address,uint256)":"b3f865f7","renounceOwnership()":"715018a6","setVault(address)":"6817031b","tokenDeposits(address)":"e6074da7","tokenWithdrawals(address)":"96795298","tokenYield(address)":"b8943377","transferOwnership(address)":"f2fde38b","vault()":"fbfa77cf","withdraw(address,uint256)":"f3fef3a3"}}}}}