{"contracts/libraries/TokenConfig.sol":{"TokenConfig":{"abi":[{"inputs":[],"name":"CELO_ADDRESS","outputs":[{"internalType":"address","name":"","type":"address"}],"stateMutability":"view","type":"function"},{"inputs":[],"name":"CUSD_ADDRESS","outputs":[{"internalType":"address","name":"","type":"address"}],"stateMutability":"view","type":"function"},{"inputs":[],"name":"USDC_ADDRESS","outputs":[{"internalType":"address","name":"","type":"address"}],"stateMutability":"view","type":"function"}],"evm":{"bytecode":{"linkReferences":{},"object":"60d9610039600b82828239805160001a60731461002c57634e487b7160e01b600052600060045260246000fd5b30600052607381538281f3fe730000000000000000000000000000000000000000301460806040526004361060475760003560e01c80632a4b914214604c578063465c66e914606f578063bb09d9b7146089575b600080fd5b6053600081565b6040516001600160a01b03909116815260200160405180910390f35b60537340a42baf86fc821f972ad2ac878729063ceef40381565b60537396f3ce39ad2bfdcf92c0f6e2c2cabf83874660fc8156fea2646970667358221220dc0cffe86a3492fd45eead850691b296ff9aebc88007bb66d22291a265fec14a64736f6c63430008130033","opcodes":"PUSH1 0xD9 PUSH2 0x39 PUSH1 0xB DUP3 DUP3 DUP3 CODECOPY DUP1 MLOAD PUSH1 0x0 BYTE PUSH1 0x73 EQ PUSH2 0x2C JUMPI PUSH4 0x4E487B71 PUSH1 0xE0 SHL PUSH1 0x0 MSTORE PUSH1 0x0 PUSH1 0x4 MSTORE PUSH1 0x24 PUSH1 0x0 REVERT JUMPDEST ADDRESS PUSH1 0x0 MSTORE PUSH1 0x73 DUP2 MSTORE8 DUP3 DUP2 RETURN INVALID PUSH20 0x0 ADDRESS EQ PUSH1 0x80 PUSH1 0x40 MSTORE PUSH1 0x4 CALLDATASIZE LT PUSH1 0x47 JUMPI PUSH1 0x0 CALLDATALOAD PUSH1 0xE0 SHR DUP1 PUSH4 0x2A4B9142 EQ PUSH1 0x4C JUMPI DUP1 PUSH4 0x465C66E9 EQ PUSH1 0x6F JUMPI DUP1 PUSH4 0xBB09D9B7 EQ PUSH1 0x89 JUMPI JUMPDEST PUSH1 0x0 DUP1 REVERT JUMPDEST PUSH1 0x53 PUSH1 0x0 DUP2 JUMP JUMPDEST PUSH1 0x40 MLOAD PUSH1 0x1 PUSH1 0x1 PUSH1 0xA0 SHL SUB SWAP1 SWAP2 AND DUP2 MSTORE PUSH1 0x20 ADD PUSH1 0x40 MLOAD DUP1 SWAP2 SUB SWAP1 RETURN JUMPDEST PUSH1 0x53 PUSH20 0x40A42BAF86FC821F972AD2AC878729063CEEF403 DUP2 JUMP JUMPDEST PUSH1 0x53 PUSH20 0x96F3CE39AD2BFDCF92C0F6E2C2CABF83874660FC DUP2 JUMP INVALID LOG2 PUSH5 0x6970667358 0x22 SLT KECCAK256 0xDC 0xC SELFDESTRUCT 0xE8 PUSH11 0x3492FD45EEAD850691B296 SELFDESTRUCT SWAP11 0xEB 0xC8 DUP1 SMOD 0xBB PUSH7 0xD22291A265FEC1 0x4A PUSH5 0x736F6C6343 STOP ADDMOD SGT STOP CALLER "},"methodIdentifiers":{"CELO_ADDRESS()":"2a4b9142","CUSD_ADDRESS()":"465c66e9","USDC_ADDRESS()":"bb09d9b7"}}}}}