{"contracts/InterestModel.sol":{"InterestModel":{"abi":[{"anonymous":false,"inputs":[{"indexed":true,"internalType":"address","name":"previousOwner","type":"address"},{"indexed":true,"internalType":"address","name":"newOwner","type":"address"}],"name":"OwnershipTransferred","type":"event"},{"anonymous":false,"inputs":[{"indexed":true,"internalType":"address","name":"token","type":"address"},{"indexed":false,"internalType":"uint256","name":"oldPremium","type":"uint256"},{"indexed":false,"internalType":"uint256","name":"newPremium","type":"uint256"}],"name":"RiskPremiumUpdated","type":"event"},{"inputs":[],"name":"BASE_RATE","outputs":[{"internalType":"uint256","name":"","type":"uint256"}],"stateMutability":"view","type":"function"},{"inputs":[],"name":"BLOCKS_PER_YEAR","outputs":[{"internalType":"uint256","name":"","type":"uint256"}],"stateMutability":"view","type":"function"},{"inputs":[],"name":"MAX_RISK_PREMIUM","outputs":[{"internalType":"uint256","name":"","type":"uint256"}],"stateMutability":"view","type":"function"},{"inputs":[],"name":"PRECISION","outputs":[{"internalType":"uint256","name":"","type":"uint256"}],"stateMutability":"view","type":"function"},{"inputs":[{"internalType":"uint256","name":"annualRate","type":"uint256"}],"name":"convertToPerBlockRate","outputs":[{"internalType":"uint256","name":"perBlockRate","type":"uint256"}],"stateMutability":"pure","type":"function"},{"inputs":[{"internalType":"address","name":"token","type":"address"},{"internalType":"uint256","name":"totalDeposits","type":"uint256"},{"internalType":"uint256","name":"totalBorrows","type":"uint256"},{"internalType":"uint256","name":"marketVolatility","type":"uint256"},{"internalType":"uint256","name":"poolLiquidity","type":"uint256"},{"internalType":"uint256","name":"priceDeviation","type":"uint256"}],"name":"getBorrowRate","outputs":[{"internalType":"uint256","name":"borrowRate","type":"uint256"}],"stateMutability":"view","type":"function"},{"inputs":[{"internalType":"address","name":"token","type":"address"}],"name":"getMaxBorrowRate","outputs":[{"internalType":"uint256","name":"maxRate","type":"uint256"}],"stateMutability":"view","type":"function"},{"inputs":[{"internalType":"address","name":"token","type":"address"}],"name":"getMinBorrowRate","outputs":[{"internalType":"uint256","name":"minRate","type":"uint256"}],"stateMutability":"view","type":"function"},{"inputs":[{"internalType":"address","name":"token","type":"address"}],"name":"getRiskPremium","outputs":[{"internalType":"uint256","name":"premium","type":"uint256"}],"stateMutability":"view","type":"function"},{"inputs":[{"internalType":"address","name":"token","type":"address"},{"internalType":"uint256","name":"totalDeposits","type":"uint256"},{"internalType":"uint256","name":"totalBorrows","type":"uint256"},{"internalType":"uint256","name":"reserveFactor","type":"uint256"}],"name":"getSupplyRate","outputs":[{"internalType":"uint256","name":"supplyRate","type":"uint256"}],"stateMutability":"view","type":"function"},{"inputs":[{"internalType":"uint256","name":"totalDeposits","type":"uint256"},{"internalType":"uint256","name":"totalBorrows","type":"uint256"}],"name":"getUtilizationRate","outputs":[{"internalType":"uint256","name":"utilizationRate","type":"uint256"}],"stateMutability":"pure","type":"function"},{"inputs":[],"name":"owner","outputs":[{"internalType":"address","name":"","type":"address"}],"stateMutability":"view","type":"function"},{"inputs":[],"name":"renounceOwnership","outputs":[],"stateMutability":"nonpayable","type":"function"},{"inputs":[{"internalType":"address","name":"","type":"address"}],"name":"riskPremium","outputs":[{"internalType":"uint256","name":"","type":"uint256"}],"stateMutability":"view","type":"function"},{"inputs":[{"internalType":"address","name":"token","type":"address"},{"internalType":"uint256","name":"value","type":"uint256"}],"name":"setRiskPremium","outputs":[],"stateMutability":"nonpayable","type":"function"},{"inputs":[{"internalType":"address","name":"newOwner","type":"address"}],"name":"transferOwnership","outputs":[],"stateMutability":"nonpayable","type":"function"}],"evm":{"bytecode":{"linkReferences":{},"object":"608060405234801561001057600080fd5b5061001a3361001f565b61006f565b600080546001600160a01b038381166001600160a01b0319831681178455604051919092169283917f8be0079c531659141344cd1fd0a4f28419497f9722a3daafe3b4186f6b6457e09190a35050565b6109258061007e6000396000f3fe608060405234801561001057600080fd5b50600436106101005760003560e01c8063aaf5eb6811610097578063e8c1b35711610066578063e8c1b357146101f6578063f2fde38b1461021f578063f6abde3f14610232578063fd72a5a81461024157600080fd5b8063aaf5eb68146101b7578063bbf0a81b146101c6578063be56bb14146101d9578063d37db1d2146101ec57600080fd5b8063715018a6116100d3578063715018a61461016c5780638da5cb5b14610176578063a6d17f0514610191578063a9fd8d40146101a457600080fd5b80632cee99b61461010557806341910f901461013857806345ade051146101465780635ea365aa14610159575b600080fd5b610125610113366004610777565b60016020526000908152604090205481565b6040519081526020015b60405180910390f35b61012566470de4df82000081565b610125610154366004610792565b610254565b6101256101673660046107b4565b61028c565b61017461029b565b005b6000546040516001600160a01b03909116815260200161012f565b61012561019f366004610777565b6102af565b6101746101b23660046107cd565b6102d9565b610125670de0b6b3a764000081565b6101256101d43660046107f7565b610397565b6101256101e7366004610830565b61047a565b61012562603d8081565b610125610204366004610777565b6001600160a01b031660009081526001602052604090205490565b61017461022d366004610777565b610497565b6101256706f05b59d3b2000081565b61012561024f366004610777565b610510565b60008260000361026657506000610286565b82610279670de0b6b3a764000084610890565b61028391906108a7565b90505b92915050565b600061028662603d80836108a7565b6102a361057f565b6102ad60006105d9565b565b6001600160a01b0381166000908152600160205260408120546102869066470de4df8200006108c9565b6102e161057f565b806706f05b59d3b200008111156103375760405162461bcd60e51b81526020600482015260156024820152740a4d2e6d640e0e4cadad2eada40e8dede40d0d2ced605b1b60448201526064015b60405180910390fd5b6001600160a01b038316600081815260016020908152604091829020805490869055825181815291820186905292917f4c9435692f0d547b30f5d3fb1d253c03237b4a20237b87e37dba8a6903580f02910160405180910390a250505050565b6000836000036103a957506000610472565b670de0b6b3a76400008211156104015760405162461bcd60e51b815260206004820152601760248201527f5265736572766520666163746f7220746f6f2068696768000000000000000000604482015260640161032e565b600061041b8686866000670de0b6b3a76400006000610629565b905060006104298686610254565b905061043d670de0b6b3a764000080610890565b61044f85670de0b6b3a76400006108dc565b6104598385610890565b6104639190610890565b61046d91906108a7565b925050505b949350505050565b600061048a878787878787610629565b90505b9695505050505050565b61049f61057f565b6001600160a01b0381166105045760405162461bcd60e51b815260206004820152602660248201527f4f776e61626c653a206e6577206f776e657220697320746865207a65726f206160448201526564647265737360d01b606482015260840161032e565b61050d816105d9565b50565b6001600160a01b03811660009081526001602052604081205461054266470de4df82000067011c37937e0800006108c9565b6105539066071afd498d00006108c9565b6105649066038d7ea4c680006108c9565b61057590660aa87bee5380006108c9565b61028691906108c9565b6000546001600160a01b031633146102ad5760405162461bcd60e51b815260206004820181905260248201527f4f776e61626c653a2063616c6c6572206973206e6f7420746865206f776e6572604482015260640161032e565b600080546001600160a01b038381166001600160a01b0319831681178455604051919092169283917f8be0079c531659141344cd1fd0a4f28419497f9722a3daafe3b4186f6b6457e09190a35050565b600085600003610664576001600160a01b03871660009081526001602052604090205461065d9066470de4df8200006108c9565b905061048d565b60006106708787610254565b66470de4df82000092509050670de0b6b3a76400006106978267011c37937e080000610890565b6106a191906108a7565b6106ab90836108c9565b9150670de0b6b3a76400006106c78666071afd498d0000610890565b6106d191906108a7565b6106db90836108c9565b9150670de0b6b3a76400006106f78466038d7ea4c68000610890565b61070191906108a7565b61070b90836108c9565b9150620f424084101561072c57610729660aa87bee538000836108c9565b91505b6001600160a01b03881660009081526001602052604090205461074f90836108c9565b98975050505050505050565b80356001600160a01b038116811461077257600080fd5b919050565b60006020828403121561078957600080fd5b6102838261075b565b600080604083850312156107a557600080fd5b50508035926020909101359150565b6000602082840312156107c657600080fd5b5035919050565b600080604083850312156107e057600080fd5b6107e98361075b565b946020939093013593505050565b6000806000806080858703121561080d57600080fd5b6108168561075b565b966020860135965060408601359560600135945092505050565b60008060008060008060c0878903121561084957600080fd5b6108528761075b565b9860208801359850604088013597606081013597506080810135965060a00135945092505050565b634e487b7160e01b600052601160045260246000fd5b80820281158282048414176102865761028661087a565b6000826108c457634e487b7160e01b600052601260045260246000fd5b500490565b808201808211156102865761028661087a565b818103818111156102865761028661087a56fea2646970667358221220d994492f859eb54efa734ce45bc83d78ffb351936079534b9c82dddff375812c64736f6c63430008130033","opcodes":"PUSH1 0x80 PUSH1 0x40 MSTORE CALLVALUE DUP1 ISZERO PUSH2 0x10 JUMPI PUSH1 0x0 DUP1 REVERT JUMPDEST POP PUSH2 0x1A CALLER PUSH2 0x1F JUMP JUMPDEST PUSH2 0x6F JUMP JUMPDEST PUSH1 0x0 DUP1 SLOAD PUSH1 0x1 PUSH1 0x1 PUSH1 0xA0 SHL SUB DUP4 DUP2 AND PUSH1 0x1 PUSH1 0x1 PUSH1 0xA0 SHL SUB NOT DUP4 AND DUP2 OR DUP5 SSTORE PUSH1 0x40 MLOAD SWAP2 SWAP1 SWAP3 AND SWAP3 DUP4 SWAP2 PUSH32 0x8BE0079C531659141344CD1FD0A4F28419497F9722A3DAAFE3B4186F6B6457E0 SWAP2 SWAP1 LOG3 POP POP JUMP JUMPDEST PUSH2 0x925 DUP1 PUSH2 0x7E PUSH1 0x0 CODECOPY PUSH1 0x0 RETURN INVALID PUSH1 0x80 PUSH1 0x40 MSTORE CALLVALUE DUP1 ISZERO PUSH2 0x10 JUMPI PUSH1 0x0 DUP1 REVERT JUMPDEST POP PUSH1 0x4 CALLDATASIZE LT PUSH2 0x100 JUMPI PUSH1 0x0 CALLDATALOAD PUSH1 0xE0 SHR DUP1 PUSH4 0xAAF5EB68 GT PUSH2 0x97 JUMPI DUP1 PUSH4 0xE8C1B357 GT PUSH2 0x66 JUMPI DUP1 PUSH4 0xE8C1B357 EQ PUSH2 0x1F6 JUMPI DUP1 PUSH4 0xF2FDE38B EQ PUSH2 0x21F JUMPI DUP1 PUSH4 0xF6ABDE3F EQ PUSH2 0x232 JUMPI DUP1 PUSH4 0xFD72A5A8 EQ PUSH2 0x241 JUMPI PUSH1 0x0 DUP1 REVERT JUMPDEST DUP1 PUSH4 0xAAF5EB68 EQ PUSH2 0x1B7 JUMPI DUP1 PUSH4 0xBBF0A81B EQ PUSH2 0x1C6 JUMPI DUP1 PUSH4 0xBE56BB14 EQ PUSH2 0x1D9 JUMPI DUP1 PUSH4 0xD37DB1D2 EQ PUSH2 0x1EC JUMPI PUSH1 0x0 DUP1 REVERT JUMPDEST DUP1 PUSH4 0x715018A6 GT PUSH2 0xD3 JUMPI DUP1 PUSH4 0x715018A6 EQ PUSH2 0x16C JUMPI DUP1 PUSH4 0x8DA5CB5B EQ PUSH2 0x176 JUMPI DUP1 PUSH4 0xA6D17F05 EQ PUSH2 0x191 JUMPI DUP1 PUSH4 0xA9FD8D40 EQ PUSH2 0x1A4 JUMPI PUSH1 0x0 DUP1 REVERT JUMPDEST DUP1 PUSH4 0x2CEE99B6 EQ PUSH2 0x105 JUMPI DUP1 PUSH4 0x41910F90 EQ PUSH2 0x138 JUMPI DUP1 PUSH4 0x45ADE051 EQ PUSH2 0x146 JUMPI DUP1 PUSH4 0x5EA365AA EQ PUSH2 0x159 JUMPI JUMPDEST PUSH1 0x0 DUP1 REVERT JUMPDEST PUSH2 0x125 PUSH2 0x113 CALLDATASIZE PUSH1 0x4 PUSH2 0x777 JUMP JUMPDEST PUSH1 0x1 PUSH1 0x20 MSTORE PUSH1 0x0 SWAP1 DUP2 MSTORE PUSH1 0x40 SWAP1 KECCAK256 SLOAD DUP2 JUMP JUMPDEST PUSH1 0x40 MLOAD SWAP1 DUP2 MSTORE PUSH1 0x20 ADD JUMPDEST PUSH1 0x40 MLOAD DUP1 SWAP2 SUB SWAP1 RETURN JUMPDEST PUSH2 0x125 PUSH7 0x470DE4DF820000 DUP2 JUMP JUMPDEST PUSH2 0x125 PUSH2 0x154 CALLDATASIZE PUSH1 0x4 PUSH2 0x792 JUMP JUMPDEST PUSH2 0x254 JUMP JUMPDEST PUSH2 0x125 PUSH2 0x167 CALLDATASIZE PUSH1 0x4 PUSH2 0x7B4 JUMP JUMPDEST PUSH2 0x28C JUMP JUMPDEST PUSH2 0x174 PUSH2 0x29B JUMP JUMPDEST STOP JUMPDEST PUSH1 0x0 SLOAD PUSH1 0x40 MLOAD PUSH1 0x1 PUSH1 0x1 PUSH1 0xA0 SHL SUB SWAP1 SWAP2 AND DUP2 MSTORE PUSH1 0x20 ADD PUSH2 0x12F JUMP JUMPDEST PUSH2 0x125 PUSH2 0x19F CALLDATASIZE PUSH1 0x4 PUSH2 0x777 JUMP JUMPDEST PUSH2 0x2AF JUMP JUMPDEST PUSH2 0x174 PUSH2 0x1B2 CALLDATASIZE PUSH1 0x4 PUSH2 0x7CD JUMP JUMPDEST PUSH2 0x2D9 JUMP JUMPDEST PUSH2 0x125 PUSH8 0xDE0B6B3A7640000 DUP2 JUMP JUMPDEST PUSH2 0x125 PUSH2 0x1D4 CALLDATASIZE PUSH1 0x4 PUSH2 0x7F7 JUMP JUMPDEST PUSH2 0x397 JUMP JUMPDEST PUSH2 0x125 PUSH2 0x1E7 CALLDATASIZE PUSH1 0x4 PUSH2 0x830 JUMP JUMPDEST PUSH2 0x47A JUMP JUMPDEST PUSH2 0x125 PUSH3 0x603D80 DUP2 JUMP JUMPDEST PUSH2 0x125 PUSH2 0x204 CALLDATASIZE PUSH1 0x4 PUSH2 0x777 JUMP JUMPDEST PUSH1 0x1 PUSH1 0x1 PUSH1 0xA0 SHL SUB AND PUSH1 0x0 SWAP1 DUP2 MSTORE PUSH1 0x1 PUSH1 0x20 MSTORE PUSH1 0x40 SWAP1 KECCAK256 SLOAD SWAP1 JUMP JUMPDEST PUSH2 0x174 PUSH2 0x22D CALLDATASIZE PUSH1 0x4 PUSH2 0x777 JUMP JUMPDEST PUSH2 0x497 JUMP JUMPDEST PUSH2 0x125 PUSH8 0x6F05B59D3B20000 DUP2 JUMP JUMPDEST PUSH2 0x125 PUSH2 0x24F CALLDATASIZE PUSH1 0x4 PUSH2 0x777 JUMP JUMPDEST PUSH2 0x510 JUMP JUMPDEST PUSH1 0x0 DUP3 PUSH1 0x0 SUB PUSH2 0x266 JUMPI POP PUSH1 0x0 PUSH2 0x286 JUMP JUMPDEST DUP3 PUSH2 0x279 PUSH8 0xDE0B6B3A7640000 DUP5 PUSH2 0x890 JUMP JUMPDEST PUSH2 0x283 SWAP2 SWAP1 PUSH2 0x8A7 JUMP JUMPDEST SWAP1 POP JUMPDEST SWAP3 SWAP2 POP POP JUMP JUMPDEST PUSH1 0x0 PUSH2 0x286 PUSH3 0x603D80 DUP4 PUSH2 0x8A7 JUMP JUMPDEST PUSH2 0x2A3 PUSH2 0x57F JUMP JUMPDEST PUSH2 0x2AD PUSH1 0x0 PUSH2 0x5D9 JUMP JUMPDEST JUMP JUMPDEST PUSH1 0x1 PUSH1 0x1 PUSH1 0xA0 SHL SUB DUP2 AND PUSH1 0x0 SWAP1 DUP2 MSTORE PUSH1 0x1 PUSH1 0x20 MSTORE PUSH1 0x40 DUP2 KECCAK256 SLOAD PUSH2 0x286 SWAP1 PUSH7 0x470DE4DF820000 PUSH2 0x8C9 JUMP JUMPDEST PUSH2 0x2E1 PUSH2 0x57F JUMP JUMPDEST DUP1 PUSH8 0x6F05B59D3B20000 DUP2 GT ISZERO PUSH2 0x337 JUMPI PUSH1 0x40 MLOAD PUSH3 0x461BCD PUSH1 0xE5 SHL DUP2 MSTORE PUSH1 0x20 PUSH1 0x4 DUP3 ADD MSTORE PUSH1 0x15 PUSH1 0x24 DUP3 ADD MSTORE PUSH21 0xA4D2E6D640E0E4CADAD2EADA40E8DEDE40D0D2CED PUSH1 0x5B SHL PUSH1 0x44 DUP3 ADD MSTORE PUSH1 0x64 ADD JUMPDEST PUSH1 0x40 MLOAD DUP1 SWAP2 SUB SWAP1 REVERT JUMPDEST PUSH1 0x1 PUSH1 0x1 PUSH1 0xA0 SHL SUB DUP4 AND PUSH1 0x0 DUP2 DUP2 MSTORE PUSH1 0x1 PUSH1 0x20 SWAP1 DUP2 MSTORE PUSH1 0x40 SWAP2 DUP3 SWAP1 KECCAK256 DUP1 SLOAD SWAP1 DUP7 SWAP1 SSTORE DUP3 MLOAD DUP2 DUP2 MSTORE SWAP2 DUP3 ADD DUP7 SWAP1 MSTORE SWAP3 SWAP2 PUSH32 0x4C9435692F0D547B30F5D3FB1D253C03237B4A20237B87E37DBA8A6903580F02 SWAP2 ADD PUSH1 0x40 MLOAD DUP1 SWAP2 SUB SWAP1 LOG2 POP POP POP POP JUMP JUMPDEST PUSH1 0x0 DUP4 PUSH1 0x0 SUB PUSH2 0x3A9 JUMPI POP PUSH1 0x0 PUSH2 0x472 JUMP JUMPDEST PUSH8 0xDE0B6B3A7640000 DUP3 GT ISZERO PUSH2 0x401 JUMPI PUSH1 0x40 MLOAD PUSH3 0x461BCD PUSH1 0xE5 SHL DUP2 MSTORE PUSH1 0x20 PUSH1 0x4 DUP3 ADD MSTORE PUSH1 0x17 PUSH1 0x24 DUP3 ADD MSTORE PUSH32 0x5265736572766520666163746F7220746F6F2068696768000000000000000000 PUSH1 0x44 DUP3 ADD MSTORE PUSH1 0x64 ADD PUSH2 0x32E JUMP JUMPDEST PUSH1 0x0 PUSH2 0x41B DUP7 DUP7 DUP7 PUSH1 0x0 PUSH8 0xDE0B6B3A7640000 PUSH1 0x0 PUSH2 0x629 JUMP JUMPDEST SWAP1 POP PUSH1 0x0 PUSH2 0x429 DUP7 DUP7 PUSH2 0x254 JUMP JUMPDEST SWAP1 POP PUSH2 0x43D PUSH8 0xDE0B6B3A7640000 DUP1 PUSH2 0x890 JUMP JUMPDEST PUSH2 0x44F DUP6 PUSH8 0xDE0B6B3A7640000 PUSH2 0x8DC JUMP JUMPDEST PUSH2 0x459 DUP4 DUP6 PUSH2 0x890 JUMP JUMPDEST PUSH2 0x463 SWAP2 SWAP1 PUSH2 0x890 JUMP JUMPDEST PUSH2 0x46D SWAP2 SWAP1 PUSH2 0x8A7 JUMP JUMPDEST SWAP3 POP POP POP JUMPDEST SWAP5 SWAP4 POP POP POP POP JUMP JUMPDEST PUSH1 0x0 PUSH2 0x48A DUP8 DUP8 DUP8 DUP8 DUP8 DUP8 PUSH2 0x629 JUMP JUMPDEST SWAP1 POP JUMPDEST SWAP7 SWAP6 POP POP POP POP POP POP JUMP JUMPDEST PUSH2 0x49F PUSH2 0x57F JUMP JUMPDEST PUSH1 0x1 PUSH1 0x1 PUSH1 0xA0 SHL SUB DUP2 AND PUSH2 0x504 JUMPI PUSH1 0x40 MLOAD PUSH3 0x461BCD PUSH1 0xE5 SHL DUP2 MSTORE PUSH1 0x20 PUSH1 0x4 DUP3 ADD MSTORE PUSH1 0x26 PUSH1 0x24 DUP3 ADD MSTORE PUSH32 0x4F776E61626C653A206E6577206F776E657220697320746865207A65726F2061 PUSH1 0x44 DUP3 ADD MSTORE PUSH6 0x646472657373 PUSH1 0xD0 SHL PUSH1 0x64 DUP3 ADD MSTORE PUSH1 0x84 ADD PUSH2 0x32E JUMP JUMPDEST PUSH2 0x50D DUP2 PUSH2 0x5D9 JUMP JUMPDEST POP JUMP JUMPDEST PUSH1 0x1 PUSH1 0x1 PUSH1 0xA0 SHL SUB DUP2 AND PUSH1 0x0 SWAP1 DUP2 MSTORE PUSH1 0x1 PUSH1 0x20 MSTORE PUSH1 0x40 DUP2 KECCAK256 SLOAD PUSH2 0x542 PUSH7 0x470DE4DF820000 PUSH8 0x11C37937E080000 PUSH2 0x8C9 JUMP JUMPDEST PUSH2 0x553 SWAP1 PUSH7 0x71AFD498D0000 PUSH2 0x8C9 JUMP JUMPDEST PUSH2 0x564 SWAP1 PUSH7 0x38D7EA4C68000 PUSH2 0x8C9 JUMP JUMPDEST PUSH2 0x575 SWAP1 PUSH7 0xAA87BEE538000 PUSH2 0x8C9 JUMP JUMPDEST PUSH2 0x286 SWAP2 SWAP1 PUSH2 0x8C9 JUMP JUMPDEST PUSH1 0x0 SLOAD PUSH1 0x1 PUSH1 0x1 PUSH1 0xA0 SHL SUB AND CALLER EQ PUSH2 0x2AD JUMPI PUSH1 0x40 MLOAD PUSH3 0x461BCD PUSH1 0xE5 SHL DUP2 MSTORE PUSH1 0x20 PUSH1 0x4 DUP3 ADD DUP2 SWAP1 MSTORE PUSH1 0x24 DUP3 ADD MSTORE PUSH32 0x4F776E61626C653A2063616C6C6572206973206E6F7420746865206F776E6572 PUSH1 0x44 DUP3 ADD MSTORE PUSH1 0x64 ADD PUSH2 0x32E JUMP JUMPDEST PUSH1 0x0 DUP1 SLOAD PUSH1 0x1 PUSH1 0x1 PUSH1 0xA0 SHL SUB DUP4 DUP2 AND PUSH1 0x1 PUSH1 0x1 PUSH1 0xA0 SHL SUB NOT DUP4 AND DUP2 OR DUP5 SSTORE PUSH1 0x40 MLOAD SWAP2 SWAP1 SWAP3 AND SWAP3 DUP4 SWAP2 PUSH32 0x8BE0079C531659141344CD1FD0A4F28419497F9722A3DAAFE3B4186F6B6457E0 SWAP2 SWAP1 LOG3 POP POP JUMP JUMPDEST PUSH1 0x0 DUP6 PUSH1 0x0 SUB PUSH2 0x664 JUMPI PUSH1 0x1 PUSH1 0x1 PUSH1 0xA0 SHL SUB DUP8 AND PUSH1 0x0 SWAP1 DUP2 MSTORE PUSH1 0x1 PUSH1 0x20 MSTORE PUSH1 0x40 SWAP1 KECCAK256 SLOAD PUSH2 0x65D SWAP1 PUSH7 0x470DE4DF820000 PUSH2 0x8C9 JUMP JUMPDEST SWAP1 POP PUSH2 0x48D JUMP JUMPDEST PUSH1 0x0 PUSH2 0x670 DUP8 DUP8 PUSH2 0x254 JUMP JUMPDEST PUSH7 0x470DE4DF820000 SWAP3 POP SWAP1 POP PUSH8 0xDE0B6B3A7640000 PUSH2 0x697 DUP3 PUSH8 0x11C37937E080000 PUSH2 0x890 JUMP JUMPDEST PUSH2 0x6A1 SWAP2 SWAP1 PUSH2 0x8A7 JUMP JUMPDEST PUSH2 0x6AB SWAP1 DUP4 PUSH2 0x8C9 JUMP JUMPDEST SWAP2 POP PUSH8 0xDE0B6B3A7640000 PUSH2 0x6C7 DUP7 PUSH7 0x71AFD498D0000 PUSH2 0x890 JUMP JUMPDEST PUSH2 0x6D1 SWAP2 SWAP1 PUSH2 0x8A7 JUMP JUMPDEST PUSH2 0x6DB SWAP1 DUP4 PUSH2 0x8C9 JUMP JUMPDEST SWAP2 POP PUSH8 0xDE0B6B3A7640000 PUSH2 0x6F7 DUP5 PUSH7 0x38D7EA4C68000 PUSH2 0x890 JUMP JUMPDEST PUSH2 0x701 SWAP2 SWAP1 PUSH2 0x8A7 JUMP JUMPDEST PUSH2 0x70B SWAP1 DUP4 PUSH2 0x8C9 JUMP JUMPDEST SWAP2 POP PUSH3 0xF4240 DUP5 LT ISZERO PUSH2 0x72C JUMPI PUSH2 0x729 PUSH7 0xAA87BEE538000 DUP4 PUSH2 0x8C9 JUMP JUMPDEST SWAP2 POP JUMPDEST PUSH1 0x1 PUSH1 0x1 PUSH1 0xA0 SHL SUB DUP9 AND PUSH1 0x0 SWAP1 DUP2 MSTORE PUSH1 0x1 PUSH1 0x20 MSTORE PUSH1 0x40 SWAP1 KECCAK256 SLOAD PUSH2 0x74F SWAP1 DUP4 PUSH2 0x8C9 JUMP JUMPDEST SWAP9 SWAP8 POP POP POP POP POP POP POP POP JUMP JUMPDEST DUP1 CALLDATALOAD PUSH1 0x1 PUSH1 0x1 PUSH1 0xA0 SHL SUB DUP2 AND DUP2 EQ PUSH2 0x772 JUMPI PUSH1 0x0 DUP1 REVERT JUMPDEST SWAP2 SWAP1 POP JUMP JUMPDEST PUSH1 0x0 PUSH1 0x20 DUP3 DUP5 SUB SLT ISZERO PUSH2 0x789 JUMPI PUSH1 0x0 DUP1 REVERT JUMPDEST PUSH2 0x283 DUP3 PUSH2 0x75B JUMP JUMPDEST PUSH1 0x0 DUP1 PUSH1 0x40 DUP4 DUP6 SUB SLT ISZERO PUSH2 0x7A5 JUMPI PUSH1 0x0 DUP1 REVERT JUMPDEST POP POP DUP1 CALLDATALOAD SWAP3 PUSH1 0x20 SWAP1 SWAP2 ADD CALLDATALOAD SWAP2 POP JUMP JUMPDEST PUSH1 0x0 PUSH1 0x20 DUP3 DUP5 SUB SLT ISZERO PUSH2 0x7C6 JUMPI PUSH1 0x0 DUP1 REVERT JUMPDEST POP CALLDATALOAD SWAP2 SWAP1 POP JUMP JUMPDEST PUSH1 0x0 DUP1 PUSH1 0x40 DUP4 DUP6 SUB SLT ISZERO PUSH2 0x7E0 JUMPI PUSH1 0x0 DUP1 REVERT JUMPDEST PUSH2 0x7E9 DUP4 PUSH2 0x75B JUMP JUMPDEST SWAP5 PUSH1 0x20 SWAP4 SWAP1 SWAP4 ADD CALLDATALOAD SWAP4 POP POP POP JUMP JUMPDEST PUSH1 0x0 DUP1 PUSH1 0x0 DUP1 PUSH1 0x80 DUP6 DUP8 SUB SLT ISZERO PUSH2 0x80D JUMPI PUSH1 0x0 DUP1 REVERT JUMPDEST PUSH2 0x816 DUP6 PUSH2 0x75B JUMP JUMPDEST SWAP7 PUSH1 0x20 DUP7 ADD CALLDATALOAD SWAP7 POP PUSH1 0x40 DUP7 ADD CALLDATALOAD SWAP6 PUSH1 0x60 ADD CALLDATALOAD SWAP5 POP SWAP3 POP POP POP JUMP JUMPDEST PUSH1 0x0 DUP1 PUSH1 0x0 DUP1 PUSH1 0x0 DUP1 PUSH1 0xC0 DUP8 DUP10 SUB SLT ISZERO PUSH2 0x849 JUMPI PUSH1 0x0 DUP1 REVERT JUMPDEST PUSH2 0x852 DUP8 PUSH2 0x75B JUMP JUMPDEST SWAP9 PUSH1 0x20 DUP9 ADD CALLDATALOAD SWAP9 POP PUSH1 0x40 DUP9 ADD CALLDATALOAD SWAP8 PUSH1 0x60 DUP2 ADD CALLDATALOAD SWAP8 POP PUSH1 0x80 DUP2 ADD CALLDATALOAD SWAP7 POP PUSH1 0xA0 ADD CALLDATALOAD SWAP5 POP SWAP3 POP POP POP JUMP JUMPDEST PUSH4 0x4E487B71 PUSH1 0xE0 SHL PUSH1 0x0 MSTORE PUSH1 0x11 PUSH1 0x4 MSTORE PUSH1 0x24 PUSH1 0x0 REVERT JUMPDEST DUP1 DUP3 MUL DUP2 ISZERO DUP3 DUP3 DIV DUP5 EQ OR PUSH2 0x286 JUMPI PUSH2 0x286 PUSH2 0x87A JUMP JUMPDEST PUSH1 0x0 DUP3 PUSH2 0x8C4 JUMPI PUSH4 0x4E487B71 PUSH1 0xE0 SHL PUSH1 0x0 MSTORE PUSH1 0x12 PUSH1 0x4 MSTORE PUSH1 0x24 PUSH1 0x0 REVERT JUMPDEST POP DIV SWAP1 JUMP JUMPDEST DUP1 DUP3 ADD DUP1 DUP3 GT ISZERO PUSH2 0x286 JUMPI PUSH2 0x286 PUSH2 0x87A JUMP JUMPDEST DUP2 DUP2 SUB DUP2 DUP2 GT ISZERO PUSH2 0x286 JUMPI PUSH2 0x286 PUSH2 0x87A JUMP INVALID LOG2 PUSH5 0x6970667358 0x22 SLT KECCAK256 0xD9 SWAP5 0x49 0x2F DUP6 SWAP15 0xB5 0x4E STATICCALL PUSH20 0x4CE45BC83D78FFB351936079534B9C82DDDFF375 DUP2 0x2C PUSH5 0x736F6C6343 STOP ADDMOD SGT STOP CALLER "},"methodIdentifiers":{"BASE_RATE()":"41910f90","BLOCKS_PER_YEAR()":"d37db1d2","MAX_RISK_PREMIUM()":"f6abde3f","PRECISION()":"aaf5eb68","convertToPerBlockRate(uint256)":"5ea365aa","getBorrowRate(address,uint256,uint256,uint256,uint256,uint256)":"be56bb14","getMaxBorrowRate(address)":"fd72a5a8","getMinBorrowRate(address)":"a6d17f05","getRiskPremium(address)":"e8c1b357","getSupplyRate(address,uint256,uint256,uint256)":"bbf0a81b","getUtilizationRate(uint256,uint256)":"45ade051","owner()":"8da5cb5b","renounceOwnership()":"715018a6","riskPremium(address)":"2cee99b6","setRiskPremium(address,uint256)":"a9fd8d40","transferOwnership(address)":"f2fde38b"}}}}}