{
  "_format": "hh-sol-artifact-1",
  "contractName": "DebtToken",
  "sourceName": "contracts/lending/DebtToken.sol",
  "abi": [
    {
      "inputs": [
        {
          "internalType": "string",
          "name": "name_",
          "type": "string"
        },
        {
          "internalType": "string",
          "name": "symbol_",
          "type": "string"
        },
        {
          "internalType": "uint256",
          "name": "_annualInterestRate",
          "type": "uint256"
        }
      ],
      "stateMutability": "nonpayable",
      "type": "constructor"
    },
    {
      "anonymous": false,
      "inputs": [
        {
          "indexed": true,
          "internalType": "address",
          "name": "owner",
          "type": "address"
        },
        {
          "indexed": true,
          "internalType": "address",
          "name": "spender",
          "type": "address"
        },
        {
          "indexed": false,
          "internalType": "uint256",
          "name": "value",
          "type": "uint256"
        }
      ],
      "name": "Approval",
      "type": "event"
    },
    {
      "anonymous": false,
      "inputs": [
        {
          "indexed": true,
          "internalType": "address",
          "name": "borrower",
          "type": "address"
        },
        {
          "indexed": false,
          "internalType": "uint256",
          "name": "amount",
          "type": "uint256"
        }
      ],
      "name": "DebtBurned",
      "type": "event"
    },
    {
      "anonymous": false,
      "inputs": [
        {
          "indexed": true,
          "internalType": "address",
          "name": "borrower",
          "type": "address"
        },
        {
          "indexed": false,
          "internalType": "uint256",
          "name": "amount",
          "type": "uint256"
        }
      ],
      "name": "DebtMinted",
      "type": "event"
    },
    {
      "anonymous": false,
      "inputs": [
        {
          "indexed": true,
          "internalType": "address",
          "name": "borrower",
          "type": "address"
        },
        {
          "indexed": false,
          "internalType": "uint256",
          "name": "interest",
          "type": "uint256"
        }
      ],
      "name": "InterestAccrued",
      "type": "event"
    },
    {
      "anonymous": false,
      "inputs": [
        {
          "indexed": false,
          "internalType": "uint256",
          "name": "newRate",
          "type": "uint256"
        }
      ],
      "name": "InterestRateUpdated",
      "type": "event"
    },
    {
      "anonymous": false,
      "inputs": [
        {
          "indexed": true,
          "internalType": "address",
          "name": "newPool",
          "type": "address"
        }
      ],
      "name": "LendingPoolUpdated",
      "type": "event"
    },
    {
      "anonymous": false,
      "inputs": [
        {
          "indexed": true,
          "internalType": "address",
          "name": "previousOwner",
          "type": "address"
        },
        {
          "indexed": true,
          "internalType": "address",
          "name": "newOwner",
          "type": "address"
        }
      ],
      "name": "OwnershipTransferred",
      "type": "event"
    },
    {
      "anonymous": false,
      "inputs": [
        {
          "indexed": true,
          "internalType": "address",
          "name": "from",
          "type": "address"
        },
        {
          "indexed": true,
          "internalType": "address",
          "name": "to",
          "type": "address"
        },
        {
          "indexed": false,
          "internalType": "uint256",
          "name": "value",
          "type": "uint256"
        }
      ],
      "name": "Transfer",
      "type": "event"
    },
    {
      "inputs": [],
      "name": "BPS_DIVISOR",
      "outputs": [
        {
          "internalType": "uint256",
          "name": "",
          "type": "uint256"
        }
      ],
      "stateMutability": "view",
      "type": "function"
    },
    {
      "inputs": [
        {
          "internalType": "address",
          "name": "borrower",
          "type": "address"
        }
      ],
      "name": "accrueInterest",
      "outputs": [],
      "stateMutability": "nonpayable",
      "type": "function"
    },
    {
      "inputs": [
        {
          "internalType": "address",
          "name": "",
          "type": "address"
        },
        {
          "internalType": "address",
          "name": "",
          "type": "address"
        }
      ],
      "name": "allowance",
      "outputs": [
        {
          "internalType": "uint256",
          "name": "",
          "type": "uint256"
        }
      ],
      "stateMutability": "pure",
      "type": "function"
    },
    {
      "inputs": [],
      "name": "annualInterestRate",
      "outputs": [
        {
          "internalType": "uint256",
          "name": "",
          "type": "uint256"
        }
      ],
      "stateMutability": "view",
      "type": "function"
    },
    {
      "inputs": [
        {
          "internalType": "address",
          "name": "",
          "type": "address"
        },
        {
          "internalType": "uint256",
          "name": "",
          "type": "uint256"
        }
      ],
      "name": "approve",
      "outputs": [
        {
          "internalType": "bool",
          "name": "",
          "type": "bool"
        }
      ],
      "stateMutability": "pure",
      "type": "function"
    },
    {
      "inputs": [
        {
          "internalType": "address",
          "name": "account",
          "type": "address"
        }
      ],
      "name": "balanceOf",
      "outputs": [
        {
          "internalType": "uint256",
          "name": "",
          "type": "uint256"
        }
      ],
      "stateMutability": "view",
      "type": "function"
    },
    {
      "inputs": [
        {
          "internalType": "address",
          "name": "borrower",
          "type": "address"
        },
        {
          "internalType": "uint256",
          "name": "amount",
          "type": "uint256"
        }
      ],
      "name": "burnDebt",
      "outputs": [],
      "stateMutability": "nonpayable",
      "type": "function"
    },
    {
      "inputs": [],
      "name": "decimals",
      "outputs": [
        {
          "internalType": "uint8",
          "name": "",
          "type": "uint8"
        }
      ],
      "stateMutability": "view",
      "type": "function"
    },
    {
      "inputs": [
        {
          "internalType": "address",
          "name": "",
          "type": "address"
        },
        {
          "internalType": "uint256",
          "name": "",
          "type": "uint256"
        }
      ],
      "name": "decreaseAllowance",
      "outputs": [
        {
          "internalType": "bool",
          "name": "",
          "type": "bool"
        }
      ],
      "stateMutability": "pure",
      "type": "function"
    },
    {
      "inputs": [
        {
          "internalType": "address",
          "name": "borrower",
          "type": "address"
        }
      ],
      "name": "getAccruedDebt",
      "outputs": [
        {
          "internalType": "uint256",
          "name": "",
          "type": "uint256"
        }
      ],
      "stateMutability": "view",
      "type": "function"
    },
    {
      "inputs": [
        {
          "internalType": "address",
          "name": "",
          "type": "address"
        },
        {
          "internalType": "uint256",
          "name": "",
          "type": "uint256"
        }
      ],
      "name": "increaseAllowance",
      "outputs": [
        {
          "internalType": "bool",
          "name": "",
          "type": "bool"
        }
      ],
      "stateMutability": "pure",
      "type": "function"
    },
    {
      "inputs": [
        {
          "internalType": "address",
          "name": "",
          "type": "address"
        }
      ],
      "name": "lastAccrualTimestamp",
      "outputs": [
        {
          "internalType": "uint256",
          "name": "",
          "type": "uint256"
        }
      ],
      "stateMutability": "view",
      "type": "function"
    },
    {
      "inputs": [],
      "name": "lendingPool",
      "outputs": [
        {
          "internalType": "address",
          "name": "",
          "type": "address"
        }
      ],
      "stateMutability": "view",
      "type": "function"
    },
    {
      "inputs": [
        {
          "internalType": "address",
          "name": "borrower",
          "type": "address"
        },
        {
          "internalType": "uint256",
          "name": "amount",
          "type": "uint256"
        }
      ],
      "name": "mintDebt",
      "outputs": [],
      "stateMutability": "nonpayable",
      "type": "function"
    },
    {
      "inputs": [],
      "name": "name",
      "outputs": [
        {
          "internalType": "string",
          "name": "",
          "type": "string"
        }
      ],
      "stateMutability": "view",
      "type": "function"
    },
    {
      "inputs": [],
      "name": "owner",
      "outputs": [
        {
          "internalType": "address",
          "name": "",
          "type": "address"
        }
      ],
      "stateMutability": "view",
      "type": "function"
    },
    {
      "inputs": [],
      "name": "renounceOwnership",
      "outputs": [],
      "stateMutability": "nonpayable",
      "type": "function"
    },
    {
      "inputs": [
        {
          "internalType": "uint256",
          "name": "newRate",
          "type": "uint256"
        }
      ],
      "name": "setAnnualInterestRate",
      "outputs": [],
      "stateMutability": "nonpayable",
      "type": "function"
    },
    {
      "inputs": [
        {
          "internalType": "address",
          "name": "newPool",
          "type": "address"
        }
      ],
      "name": "setLendingPool",
      "outputs": [],
      "stateMutability": "nonpayable",
      "type": "function"
    },
    {
      "inputs": [],
      "name": "symbol",
      "outputs": [
        {
          "internalType": "string",
          "name": "",
          "type": "string"
        }
      ],
      "stateMutability": "view",
      "type": "function"
    },
    {
      "inputs": [],
      "name": "totalSupply",
      "outputs": [
        {
          "internalType": "uint256",
          "name": "",
          "type": "uint256"
        }
      ],
      "stateMutability": "view",
      "type": "function"
    },
    {
      "inputs": [
        {
          "internalType": "address",
          "name": "",
          "type": "address"
        },
        {
          "internalType": "uint256",
          "name": "",
          "type": "uint256"
        }
      ],
      "name": "transfer",
      "outputs": [
        {
          "internalType": "bool",
          "name": "",
          "type": "bool"
        }
      ],
      "stateMutability": "pure",
      "type": "function"
    },
    {
      "inputs": [
        {
          "internalType": "address",
          "name": "",
          "type": "address"
        },
        {
          "internalType": "address",
          "name": "",
          "type": "address"
        },
        {
          "internalType": "uint256",
          "name": "",
          "type": "uint256"
        }
      ],
      "name": "transferFrom",
      "outputs": [
        {
          "internalType": "bool",
          "name": "",
          "type": "bool"
        }
      ],
      "stateMutability": "pure",
      "type": "function"
    },
    {
      "inputs": [
        {
          "internalType": "address",
          "name": "newOwner",
          "type": "address"
        }
      ],
      "name": "transferOwnership",
      "outputs": [],
      "stateMutability": "nonpayable",
      "type": "function"
    }
  ],
  "bytecode": "0x60806040523480156200001157600080fd5b50604051620013a0380380620013a083398101604081905262000034916200020a565b828260036200004483826200030c565b5060046200005382826200030c565b505050620000706200006a620000ef60201b60201c565b620000f3565b612710811115620000d15760405162461bcd60e51b815260206004820152602160248201527f44656274546f6b656e3a20696e746572657374207261746520746f6f206869676044820152600d60fb1b606482015260840160405180910390fd5b600680546001600160a01b0319163317905560085550620003d89050565b3390565b600580546001600160a01b038381166001600160a01b0319831681179093556040519116919082907f8be0079c531659141344cd1fd0a4f28419497f9722a3daafe3b4186f6b6457e090600090a35050565b634e487b7160e01b600052604160045260246000fd5b600082601f8301126200016d57600080fd5b81516001600160401b03808211156200018a576200018a62000145565b604051601f8301601f19908116603f01168101908282118183101715620001b557620001b562000145565b81604052838152602092508683858801011115620001d257600080fd5b600091505b83821015620001f65785820183015181830184015290820190620001d7565b600093810190920192909252949350505050565b6000806000606084860312156200022057600080fd5b83516001600160401b03808211156200023857600080fd5b62000246878388016200015b565b945060208601519150808211156200025d57600080fd5b506200026c868287016200015b565b925050604084015190509250925092565b600181811c908216806200029257607f821691505b602082108103620002b357634e487b7160e01b600052602260045260246000fd5b50919050565b601f8211156200030757600081815260208120601f850160051c81016020861015620002e25750805b601f850160051c820191505b818110156200030357828155600101620002ee565b5050505b505050565b81516001600160401b0381111562000328576200032862000145565b62000340816200033984546200027d565b84620002b9565b602080601f8311600181146200037857600084156200035f5750858301515b600019600386901b1c1916600185901b17855562000303565b600085815260208120601f198616915b82811015620003a95788860151825594840194600190910190840162000388565b5085821015620003c85787850151600019600388901b60f8161c191681555b5050505050600190811b01905550565b610fb880620003e86000396000f3fe608060405234801561001057600080fd5b50600436106101585760003560e01c8063715018a6116100c3578063a457c2d71161007c578063a457c2d71461017b578063a59a9973146102c2578063a9059cbb1461017b578063dd62ed3e146102d5578063e5654d64146102e8578063f2fde38b146102fb57600080fd5b8063715018a6146102545780638da5cb5b1461025c5780639198e51514610281578063936474cc1461029457806395d89b41146102a75780639d0bee03146102af57600080fd5b80631a9703da116101155780631a9703da146101f257806323b872dd146101fb578063313ce567146102095780633582c4c814610218578063395093511461017b57806370a082311461022b57600080fd5b806306fdde031461015d578063095ea7b31461017b578063113aa8b11461019e57806316851b36146101b357806318160ddd146101e1578063191fe1ed146101e9575b600080fd5b61016561030e565b6040516101729190610cd4565b60405180910390f35b61018e610189366004610d3e565b6103a0565b6040519015158152602001610172565b6101b16101ac366004610d68565b6103f0565b005b6101d36101c1366004610d68565b60076020526000908152604090205481565b604051908152602001610172565b6002546101d3565b6101d361271081565b6101d360085481565b61018e610189366004610d8a565b60405160128152602001610172565b6101b1610226366004610dc6565b61046a565b6101d3610239366004610d68565b6001600160a01b031660009081526020819052604090205490565b6101b1610509565b6005546001600160a01b03165b6040516001600160a01b039091168152602001610172565b6101b161028f366004610d68565b61051d565b6101b16102a2366004610d3e565b61068e565b6101656107e8565b6101b16102bd366004610d3e565b6107f7565b600654610269906001600160a01b031681565b6101d36102e3366004610ddf565b6108c9565b6101d36102f6366004610d68565b6108d2565b6101b1610309366004610d68565b6109be565b60606003805461031d90610e12565b80601f016020809104026020016040519081016040528092919081815260200182805461034990610e12565b80156103965780601f1061036b57610100808354040283529160200191610396565b820191906000526020600020905b81548152906001019060200180831161037957829003601f168201915b5050505050905090565b60405162461bcd60e51b815260206004820152601b60248201527f44656274546f6b656e3a206e6f6e2d7472616e7366657261626c65000000000060448201526000906064015b60405180910390fd5b6103f8610a37565b806001600160a01b03811661041f5760405162461bcd60e51b81526004016103e790610e46565b600680546001600160a01b0319166001600160a01b0384169081179091556040517fc4e6c6cdf28d0edbd8bcf071d724d33cc2e7a30be7d06443925656e9cb492aa490600090a25050565b610472610a37565b6127108111156104ce5760405162461bcd60e51b815260206004820152602160248201527f44656274546f6b656e3a20696e746572657374207261746520746f6f206869676044820152600d60fb1b60648201526084016103e7565b60088190556040518181527fa90e14be5aa57b910aa6dc16c31ff1b5cda380ae25a793b0d3f74df6131a7d749060200160405180910390a150565b610511610a37565b61051b6000610a91565b565b806001600160a01b0381166105445760405162461bcd60e51b81526004016103e790610e46565b6001600160a01b038216600090815260208190526040812054908190036105835750506001600160a01b03166000908152600760205260409020429055565b6001600160a01b038316600090815260076020526040812054908190036105c3575050506001600160a01b03166000908152600760205260409020429055565b60006105cf8242610e93565b9050806000036105e0575050505050565b60006105f26127106301e13380610ea6565b82600854866106019190610ea6565b61060b9190610ea6565b6106159190610ebd565b9050801561066b576106278682610ae3565b856001600160a01b03167f5e804d42ae3b860f881d11cb44a4bb1f2f0d5b3d081f5539a32d6f97b629d9788260405161066291815260200190565b60405180910390a25b5050506001600160a01b0383166000908152600760205260409020429055505050565b6006546001600160a01b031633146106b85760405162461bcd60e51b81526004016103e790610edf565b816001600160a01b0381166106df5760405162461bcd60e51b81526004016103e790610e46565b81600081116107005760405162461bcd60e51b81526004016103e790610f24565b6107098461051d565b82610729856001600160a01b031660009081526020819052604090205490565b10156107835760405162461bcd60e51b8152602060048201526024808201527f44656274546f6b656e3a20696e73756666696369656e7420646562742062616c604482015263616e636560e01b60648201526084016103e7565b61078d8484610ba2565b6001600160a01b03841660008181526007602052604090819020429055517f97a507cdb275af68c600db8c00bdcae6ed23981cc9f27fa4f2b86a5bdc076eb8906107da9086815260200190565b60405180910390a250505050565b60606004805461031d90610e12565b6006546001600160a01b031633146108215760405162461bcd60e51b81526004016103e790610edf565b816001600160a01b0381166108485760405162461bcd60e51b81526004016103e790610e46565b81600081116108695760405162461bcd60e51b81526004016103e790610f24565b6108728461051d565b61087c8484610ae3565b6001600160a01b03841660008181526007602052604090819020429055517f9b147abdd144aea38aa2d6db5c7851352d6de64a7e633d19f87b03a79febf1c3906107da9086815260200190565b60005b92915050565b6000816001600160a01b0381166108fb5760405162461bcd60e51b81526004016103e790610e46565b6001600160a01b038316600090815260208190526040812054908190036109265760009250506109b8565b6001600160a01b0384166000908152600760205260408120549081900361094f575091506109b8565b600061095b8242610e93565b905080600003610970578294505050506109b8565b60006109826127106301e13380610ea6565b82600854866109919190610ea6565b61099b9190610ea6565b6109a59190610ebd565b90506109b18185610f6f565b9550505050505b50919050565b6109c6610a37565b6001600160a01b038116610a2b5760405162461bcd60e51b815260206004820152602660248201527f4f776e61626c653a206e6577206f776e657220697320746865207a65726f206160448201526564647265737360d01b60648201526084016103e7565b610a3481610a91565b50565b6005546001600160a01b0316331461051b5760405162461bcd60e51b815260206004820181905260248201527f4f776e61626c653a2063616c6c6572206973206e6f7420746865206f776e657260448201526064016103e7565b600580546001600160a01b038381166001600160a01b0319831681179093556040519116919082907f8be0079c531659141344cd1fd0a4f28419497f9722a3daafe3b4186f6b6457e090600090a35050565b6001600160a01b038216610b395760405162461bcd60e51b815260206004820152601f60248201527f45524332303a206d696e7420746f20746865207a65726f20616464726573730060448201526064016103e7565b8060026000828254610b4b9190610f6f565b90915550506001600160a01b038216600081815260208181526040808320805486019055518481527fddf252ad1be2c89b69c2b068fc378daa952ba7f163c4a11628f55a4df523b3ef910160405180910390a35050565b6001600160a01b038216610c025760405162461bcd60e51b815260206004820152602160248201527f45524332303a206275726e2066726f6d20746865207a65726f206164647265736044820152607360f81b60648201526084016103e7565b6001600160a01b03821660009081526020819052604090205481811015610c765760405162461bcd60e51b815260206004820152602260248201527f45524332303a206275726e20616d6f756e7420657863656564732062616c616e604482015261636560f01b60648201526084016103e7565b6001600160a01b0383166000818152602081815260408083208686039055600280548790039055518581529192917fddf252ad1be2c89b69c2b068fc378daa952ba7f163c4a11628f55a4df523b3ef910160405180910390a3505050565b600060208083528351808285015260005b81811015610d0157858101830151858201604001528201610ce5565b506000604082860101526040601f19601f8301168501019250505092915050565b80356001600160a01b0381168114610d3957600080fd5b919050565b60008060408385031215610d5157600080fd5b610d5a83610d22565b946020939093013593505050565b600060208284031215610d7a57600080fd5b610d8382610d22565b9392505050565b600080600060608486031215610d9f57600080fd5b610da884610d22565b9250610db660208501610d22565b9150604084013590509250925092565b600060208284031215610dd857600080fd5b5035919050565b60008060408385031215610df257600080fd5b610dfb83610d22565b9150610e0960208401610d22565b90509250929050565b600181811c90821680610e2657607f821691505b6020821081036109b857634e487b7160e01b600052602260045260246000fd5b6020808252601a908201527f44656274546f6b656e3a20696e76616c69642061646472657373000000000000604082015260600190565b634e487b7160e01b600052601160045260246000fd5b818103818111156108cc576108cc610e7d565b80820281158282048414176108cc576108cc610e7d565b600082610eda57634e487b7160e01b600052601260045260246000fd5b500490565b60208082526025908201527f44656274546f6b656e3a2063616c6c6572206973206e6f74206c656e64696e67604082015264081c1bdbdb60da1b606082015260800190565b6020808252602b908201527f44656274546f6b656e3a20616d6f756e74206d7573742062652067726561746560408201526a72207468616e207a65726f60a81b606082015260800190565b808201808211156108cc576108cc610e7d56fea2646970667358221220854fe4fbff7c3e5c82cdb1f190968ed5eeecb1060ded574784db413bd9a8824a64736f6c63430008130033",
  "linkReferences": {},
  "deployedLinkReferences": {}
}