{
  "_format": "hh-sol-artifact-1",
  "contractName": "LendingPool",
  "sourceName": "contracts/lending/LendingPool.sol",
  "abi": [
    {
      "inputs": [
        {
          "internalType": "address",
          "name": "_interestModel",
          "type": "address"
        },
        {
          "internalType": "address",
          "name": "_oracle",
          "type": "address"
        },
        {
          "internalType": "address",
          "name": "_collateralManager",
          "type": "address"
        },
        {
          "internalType": "address",
          "name": "_reserve",
          "type": "address"
        },
        {
          "internalType": "uint256",
          "name": "_reserveFactor",
          "type": "uint256"
        }
      ],
      "stateMutability": "nonpayable",
      "type": "constructor"
    },
    {
      "anonymous": false,
      "inputs": [
        {
          "indexed": true,
          "internalType": "address",
          "name": "user",
          "type": "address"
        },
        {
          "indexed": true,
          "internalType": "address",
          "name": "token",
          "type": "address"
        },
        {
          "indexed": false,
          "internalType": "uint256",
          "name": "interest",
          "type": "uint256"
        }
      ],
      "name": "Accrue",
      "type": "event"
    },
    {
      "anonymous": false,
      "inputs": [
        {
          "indexed": true,
          "internalType": "address",
          "name": "user",
          "type": "address"
        },
        {
          "indexed": true,
          "internalType": "address",
          "name": "collateralToken",
          "type": "address"
        },
        {
          "indexed": true,
          "internalType": "address",
          "name": "borrowToken",
          "type": "address"
        },
        {
          "indexed": false,
          "internalType": "uint256",
          "name": "collateralAmount",
          "type": "uint256"
        },
        {
          "indexed": false,
          "internalType": "uint256",
          "name": "borrowAmount",
          "type": "uint256"
        }
      ],
      "name": "Borrow",
      "type": "event"
    },
    {
      "anonymous": false,
      "inputs": [
        {
          "indexed": true,
          "internalType": "address",
          "name": "token",
          "type": "address"
        },
        {
          "indexed": true,
          "internalType": "address",
          "name": "debtToken",
          "type": "address"
        }
      ],
      "name": "DebtTokenSet",
      "type": "event"
    },
    {
      "anonymous": false,
      "inputs": [
        {
          "indexed": true,
          "internalType": "address",
          "name": "user",
          "type": "address"
        },
        {
          "indexed": true,
          "internalType": "address",
          "name": "token",
          "type": "address"
        },
        {
          "indexed": false,
          "internalType": "uint256",
          "name": "amount",
          "type": "uint256"
        }
      ],
      "name": "Deposit",
      "type": "event"
    },
    {
      "anonymous": false,
      "inputs": [
        {
          "indexed": true,
          "internalType": "address",
          "name": "borrower",
          "type": "address"
        },
        {
          "indexed": true,
          "internalType": "address",
          "name": "liquidator",
          "type": "address"
        },
        {
          "indexed": true,
          "internalType": "address",
          "name": "token",
          "type": "address"
        },
        {
          "indexed": false,
          "internalType": "uint256",
          "name": "amount",
          "type": "uint256"
        }
      ],
      "name": "LiquidationExecuted",
      "type": "event"
    },
    {
      "anonymous": false,
      "inputs": [
        {
          "indexed": true,
          "internalType": "address",
          "name": "previousOwner",
          "type": "address"
        },
        {
          "indexed": true,
          "internalType": "address",
          "name": "newOwner",
          "type": "address"
        }
      ],
      "name": "OwnershipTransferred",
      "type": "event"
    },
    {
      "anonymous": false,
      "inputs": [
        {
          "indexed": true,
          "internalType": "address",
          "name": "token",
          "type": "address"
        },
        {
          "indexed": false,
          "internalType": "uint256",
          "name": "borrowRate",
          "type": "uint256"
        },
        {
          "indexed": false,
          "internalType": "uint256",
          "name": "supplyRate",
          "type": "uint256"
        }
      ],
      "name": "RateUpdated",
      "type": "event"
    },
    {
      "anonymous": false,
      "inputs": [
        {
          "indexed": true,
          "internalType": "address",
          "name": "user",
          "type": "address"
        },
        {
          "indexed": true,
          "internalType": "address",
          "name": "token",
          "type": "address"
        },
        {
          "indexed": false,
          "internalType": "uint256",
          "name": "amount",
          "type": "uint256"
        }
      ],
      "name": "Repay",
      "type": "event"
    },
    {
      "anonymous": false,
      "inputs": [
        {
          "indexed": false,
          "internalType": "uint256",
          "name": "newFactor",
          "type": "uint256"
        }
      ],
      "name": "ReserveFactorUpdated",
      "type": "event"
    },
    {
      "anonymous": false,
      "inputs": [
        {
          "indexed": true,
          "internalType": "address",
          "name": "newReserve",
          "type": "address"
        }
      ],
      "name": "ReserveUpdated",
      "type": "event"
    },
    {
      "anonymous": false,
      "inputs": [
        {
          "indexed": true,
          "internalType": "address",
          "name": "user",
          "type": "address"
        },
        {
          "indexed": true,
          "internalType": "address",
          "name": "token",
          "type": "address"
        },
        {
          "indexed": false,
          "internalType": "uint256",
          "name": "amount",
          "type": "uint256"
        }
      ],
      "name": "Withdraw",
      "type": "event"
    },
    {
      "inputs": [],
      "name": "MAX_RESERVE_FACTOR",
      "outputs": [
        {
          "internalType": "uint256",
          "name": "",
          "type": "uint256"
        }
      ],
      "stateMutability": "view",
      "type": "function"
    },
    {
      "inputs": [],
      "name": "PRECISION",
      "outputs": [
        {
          "internalType": "uint256",
          "name": "",
          "type": "uint256"
        }
      ],
      "stateMutability": "view",
      "type": "function"
    },
    {
      "inputs": [
        {
          "internalType": "address",
          "name": "user",
          "type": "address"
        },
        {
          "internalType": "address",
          "name": "token",
          "type": "address"
        }
      ],
      "name": "accrueFor",
      "outputs": [],
      "stateMutability": "nonpayable",
      "type": "function"
    },
    {
      "inputs": [
        {
          "internalType": "address",
          "name": "collateralToken",
          "type": "address"
        },
        {
          "internalType": "address",
          "name": "borrowToken",
          "type": "address"
        },
        {
          "internalType": "uint256",
          "name": "collateralAmount",
          "type": "uint256"
        },
        {
          "internalType": "uint256",
          "name": "borrowAmount",
          "type": "uint256"
        }
      ],
      "name": "borrow",
      "outputs": [],
      "stateMutability": "nonpayable",
      "type": "function"
    },
    {
      "inputs": [
        {
          "internalType": "address",
          "name": "",
          "type": "address"
        },
        {
          "internalType": "address",
          "name": "",
          "type": "address"
        }
      ],
      "name": "borrows",
      "outputs": [
        {
          "internalType": "uint256",
          "name": "",
          "type": "uint256"
        }
      ],
      "stateMutability": "view",
      "type": "function"
    },
    {
      "inputs": [],
      "name": "collateralManager",
      "outputs": [
        {
          "internalType": "contract ICollateralManager",
          "name": "",
          "type": "address"
        }
      ],
      "stateMutability": "view",
      "type": "function"
    },
    {
      "inputs": [
        {
          "internalType": "address",
          "name": "",
          "type": "address"
        }
      ],
      "name": "debtTokens",
      "outputs": [
        {
          "internalType": "address",
          "name": "",
          "type": "address"
        }
      ],
      "stateMutability": "view",
      "type": "function"
    },
    {
      "inputs": [
        {
          "internalType": "address",
          "name": "token",
          "type": "address"
        },
        {
          "internalType": "uint256",
          "name": "amount",
          "type": "uint256"
        }
      ],
      "name": "deposit",
      "outputs": [],
      "stateMutability": "nonpayable",
      "type": "function"
    },
    {
      "inputs": [
        {
          "internalType": "address",
          "name": "",
          "type": "address"
        },
        {
          "internalType": "address",
          "name": "",
          "type": "address"
        }
      ],
      "name": "deposits",
      "outputs": [
        {
          "internalType": "uint256",
          "name": "",
          "type": "uint256"
        }
      ],
      "stateMutability": "view",
      "type": "function"
    },
    {
      "inputs": [
        {
          "internalType": "address",
          "name": "token",
          "type": "address"
        }
      ],
      "name": "getAvailableLiquidity",
      "outputs": [
        {
          "internalType": "uint256",
          "name": "",
          "type": "uint256"
        }
      ],
      "stateMutability": "view",
      "type": "function"
    },
    {
      "inputs": [
        {
          "internalType": "address",
          "name": "user",
          "type": "address"
        },
        {
          "internalType": "address",
          "name": "token",
          "type": "address"
        }
      ],
      "name": "getUserPosition",
      "outputs": [
        {
          "internalType": "uint256",
          "name": "deposited",
          "type": "uint256"
        },
        {
          "internalType": "uint256",
          "name": "borrowed",
          "type": "uint256"
        }
      ],
      "stateMutability": "view",
      "type": "function"
    },
    {
      "inputs": [
        {
          "internalType": "address",
          "name": "user",
          "type": "address"
        },
        {
          "internalType": "address",
          "name": "token",
          "type": "address"
        }
      ],
      "name": "getUserTotalDebt",
      "outputs": [
        {
          "internalType": "uint256",
          "name": "",
          "type": "uint256"
        }
      ],
      "stateMutability": "view",
      "type": "function"
    },
    {
      "inputs": [
        {
          "internalType": "address",
          "name": "token",
          "type": "address"
        }
      ],
      "name": "getUtilizationRate",
      "outputs": [
        {
          "internalType": "uint256",
          "name": "",
          "type": "uint256"
        }
      ],
      "stateMutability": "view",
      "type": "function"
    },
    {
      "inputs": [],
      "name": "interestModel",
      "outputs": [
        {
          "internalType": "contract IInterestModel",
          "name": "",
          "type": "address"
        }
      ],
      "stateMutability": "view",
      "type": "function"
    },
    {
      "inputs": [
        {
          "internalType": "address",
          "name": "user",
          "type": "address"
        },
        {
          "internalType": "address",
          "name": "borrowToken",
          "type": "address"
        },
        {
          "internalType": "address[]",
          "name": "collateralTokens",
          "type": "address[]"
        }
      ],
      "name": "isUserLiquidatable",
      "outputs": [
        {
          "internalType": "bool",
          "name": "",
          "type": "bool"
        }
      ],
      "stateMutability": "view",
      "type": "function"
    },
    {
      "inputs": [
        {
          "internalType": "address",
          "name": "",
          "type": "address"
        }
      ],
      "name": "lastBorrowRate",
      "outputs": [
        {
          "internalType": "uint256",
          "name": "",
          "type": "uint256"
        }
      ],
      "stateMutability": "view",
      "type": "function"
    },
    {
      "inputs": [
        {
          "internalType": "address",
          "name": "",
          "type": "address"
        }
      ],
      "name": "lastRateUpdate",
      "outputs": [
        {
          "internalType": "uint256",
          "name": "",
          "type": "uint256"
        }
      ],
      "stateMutability": "view",
      "type": "function"
    },
    {
      "inputs": [
        {
          "internalType": "address",
          "name": "",
          "type": "address"
        }
      ],
      "name": "lastSupplyRate",
      "outputs": [
        {
          "internalType": "uint256",
          "name": "",
          "type": "uint256"
        }
      ],
      "stateMutability": "view",
      "type": "function"
    },
    {
      "inputs": [
        {
          "internalType": "address",
          "name": "borrower",
          "type": "address"
        },
        {
          "internalType": "address",
          "name": "repayToken",
          "type": "address"
        },
        {
          "internalType": "address",
          "name": "collateralToken",
          "type": "address"
        },
        {
          "internalType": "uint256",
          "name": "repayAmount",
          "type": "uint256"
        },
        {
          "internalType": "address[]",
          "name": "collateralTokens",
          "type": "address[]"
        }
      ],
      "name": "liquidatePosition",
      "outputs": [],
      "stateMutability": "nonpayable",
      "type": "function"
    },
    {
      "inputs": [],
      "name": "oracle",
      "outputs": [
        {
          "internalType": "contract IOracleAdapter",
          "name": "",
          "type": "address"
        }
      ],
      "stateMutability": "view",
      "type": "function"
    },
    {
      "inputs": [],
      "name": "owner",
      "outputs": [
        {
          "internalType": "address",
          "name": "",
          "type": "address"
        }
      ],
      "stateMutability": "view",
      "type": "function"
    },
    {
      "inputs": [],
      "name": "renounceOwnership",
      "outputs": [],
      "stateMutability": "nonpayable",
      "type": "function"
    },
    {
      "inputs": [
        {
          "internalType": "address",
          "name": "token",
          "type": "address"
        },
        {
          "internalType": "uint256",
          "name": "amount",
          "type": "uint256"
        }
      ],
      "name": "repay",
      "outputs": [],
      "stateMutability": "nonpayable",
      "type": "function"
    },
    {
      "inputs": [],
      "name": "reserve",
      "outputs": [
        {
          "internalType": "address",
          "name": "",
          "type": "address"
        }
      ],
      "stateMutability": "view",
      "type": "function"
    },
    {
      "inputs": [],
      "name": "reserveFactor",
      "outputs": [
        {
          "internalType": "uint256",
          "name": "",
          "type": "uint256"
        }
      ],
      "stateMutability": "view",
      "type": "function"
    },
    {
      "inputs": [
        {
          "internalType": "address",
          "name": "_manager",
          "type": "address"
        }
      ],
      "name": "setCollateralManager",
      "outputs": [],
      "stateMutability": "nonpayable",
      "type": "function"
    },
    {
      "inputs": [
        {
          "internalType": "address",
          "name": "token",
          "type": "address"
        },
        {
          "internalType": "address",
          "name": "debtToken",
          "type": "address"
        }
      ],
      "name": "setDebtTokenFor",
      "outputs": [],
      "stateMutability": "nonpayable",
      "type": "function"
    },
    {
      "inputs": [
        {
          "internalType": "address",
          "name": "_model",
          "type": "address"
        }
      ],
      "name": "setInterestModel",
      "outputs": [],
      "stateMutability": "nonpayable",
      "type": "function"
    },
    {
      "inputs": [
        {
          "internalType": "address",
          "name": "_oracle",
          "type": "address"
        }
      ],
      "name": "setOracle",
      "outputs": [],
      "stateMutability": "nonpayable",
      "type": "function"
    },
    {
      "inputs": [
        {
          "internalType": "address",
          "name": "_reserve",
          "type": "address"
        }
      ],
      "name": "setReserve",
      "outputs": [],
      "stateMutability": "nonpayable",
      "type": "function"
    },
    {
      "inputs": [
        {
          "internalType": "uint256",
          "name": "newFactor",
          "type": "uint256"
        }
      ],
      "name": "setReserveFactor",
      "outputs": [],
      "stateMutability": "nonpayable",
      "type": "function"
    },
    {
      "inputs": [
        {
          "internalType": "address",
          "name": "",
          "type": "address"
        }
      ],
      "name": "totalBorrows",
      "outputs": [
        {
          "internalType": "uint256",
          "name": "",
          "type": "uint256"
        }
      ],
      "stateMutability": "view",
      "type": "function"
    },
    {
      "inputs": [
        {
          "internalType": "address",
          "name": "",
          "type": "address"
        }
      ],
      "name": "totalDeposits",
      "outputs": [
        {
          "internalType": "uint256",
          "name": "",
          "type": "uint256"
        }
      ],
      "stateMutability": "view",
      "type": "function"
    },
    {
      "inputs": [
        {
          "internalType": "address",
          "name": "newOwner",
          "type": "address"
        }
      ],
      "name": "transferOwnership",
      "outputs": [],
      "stateMutability": "nonpayable",
      "type": "function"
    },
    {
      "inputs": [
        {
          "internalType": "address",
          "name": "token",
          "type": "address"
        }
      ],
      "name": "updateRates",
      "outputs": [],
      "stateMutability": "nonpayable",
      "type": "function"
    },
    {
      "inputs": [
        {
          "internalType": "address",
          "name": "token",
          "type": "address"
        },
        {
          "internalType": "uint256",
          "name": "amount",
          "type": "uint256"
        }
      ],
      "name": "withdraw",
      "outputs": [],
      "stateMutability": "nonpayable",
      "type": "function"
    }
  ],
  "bytecode": "0x60806040523480156200001157600080fd5b5060405162002657380380620026578339810160408190526200003491620002a8565b6200003f336200023b565b600180556001600160a01b0385166200009f5760405162461bcd60e51b815260206004820152601660248201527f496e76616c696420696e746572657374206d6f64656c0000000000000000000060448201526064015b60405180910390fd5b6001600160a01b038416620000e85760405162461bcd60e51b815260206004820152600e60248201526d496e76616c6964206f7261636c6560901b604482015260640162000096565b6001600160a01b038316620001405760405162461bcd60e51b815260206004820152601a60248201527f496e76616c696420636f6c6c61746572616c206d616e61676572000000000000604482015260640162000096565b6001600160a01b0382166200018a5760405162461bcd60e51b815260206004820152600f60248201526e496e76616c6964207265736572766560881b604482015260640162000096565b6706f05b59d3b20000811115620001e45760405162461bcd60e51b815260206004820152601760248201527f5265736572766520666163746f7220746f6f2068696768000000000000000000604482015260640162000096565b600980546001600160a01b03199081166001600160a01b0397881617909155600a8054821695871695909517909455600b80548516938616939093179092556007805490931693169290921790556008556200030f565b600080546001600160a01b038381166001600160a01b0319831681178455604051919092169283917f8be0079c531659141344cd1fd0a4f28419497f9722a3daafe3b4186f6b6457e09190a35050565b80516001600160a01b0381168114620002a357600080fd5b919050565b600080600080600060a08688031215620002c157600080fd5b620002cc866200028b565b9450620002dc602087016200028b565b9350620002ec604087016200028b565b9250620002fc606087016200028b565b9150608086015190509295509295909350565b612338806200031f6000396000f3fe608060405234801561001057600080fd5b506004361061021c5760003560e01c80638da5cb5b11610125578063d1ac097f116100ad578063e54b81431161007c578063e54b81431461054b578063e94032561461056b578063f2fde38b1461058b578063f3fef3a31461059e578063fbf37739146105b157600080fd5b8063d1ac097f146104e6578063d23a65cf14610509578063e0f5b9a114610518578063e389b6291461053857600080fd5b8063965d598f116100f4578063965d598f146104755780639cecc80a1461049e578063aaf5eb68146104b1578063ac165d7a146104c0578063cd3293de146104d357600080fd5b80638da5cb5b146103c15780638f601f66146103d2578063913d296c146103fd57806392a576e61461041057600080fd5b80636c29219c116101a85780637adbf973116101775780637adbf973146103555780637b6aa8bd146103685780637dc0d1d01461037b578063842a05d41461038e5780638d730124146103a157600080fd5b80636c29219c146102fc5780636e3f5d5214610327578063715018a61461033a57806379ccb5381461034257600080fd5b8063266e2bd8116101ef578063266e2bd81461028c5780632cc16af5146102ad5780634322b714146102cd57806347e7ef24146102d65780634fd9711d146102e957600080fd5b80631c446983146102215780631c7e2cc91461023657806322867d781461024957806323be345c1461025c575b600080fd5b61023461022f366004611e63565b6105c4565b005b610234610244366004611e98565b610656565b610234610257366004611ecb565b61076d565b600b5461026f906001600160a01b031681565b6040516001600160a01b0390911681526020015b60405180910390f35b61029f61029a366004611ef5565b610aa5565b604051908152602001610283565b61029f6102bb366004611ef5565b600d6020526000908152604090205481565b61029f60085481565b6102346102e4366004611ecb565b610ad9565b6102346102f7366004611e98565b610bc6565b61029f61030a366004611e98565b600560209081526000928352604080842090915290825290205481565b610234610335366004611ef5565b610c70565b610234610cc2565b610234610350366004611ef5565b610cd6565b610234610363366004611ef5565b610fb9565b61029f610376366004611ef5565b61100b565b600a5461026f906001600160a01b031681565b61023461039c366004611ef5565b611074565b61029f6103af366004611ef5565b60046020526000908152604090205481565b6000546001600160a01b031661026f565b61029f6103e0366004611e98565b600360209081526000928352604080842090915290825290205481565b61023461040b366004611fbd565b6110c6565b61046061041e366004611e98565b6001600160a01b039081166000818152600360209081526040808320959094168083529481528382205492825260058152838220948252939093529120549091565b60408051928352602083019190915201610283565b61026f610483366004611ef5565b6006602052600090815260409020546001600160a01b031681565b6102346104ac366004611ef5565b61131c565b61029f670de0b6b3a764000081565b60095461026f906001600160a01b031681565b60075461026f906001600160a01b031681565b6104f96104f4366004612036565b611396565b6040519015158152602001610283565b61029f6706f05b59d3b2000081565b61029f610526366004611ef5565b600e6020526000908152604090205481565b61029f610546366004611e98565b611414565b61029f610559366004611ef5565b600c6020526000908152604090205481565b61029f610579366004611ef5565b60026020526000908152604090205481565b610234610599366004611ef5565b6114c1565b6102346105ac366004611ecb565b61153a565b6102346105bf366004612094565b61170b565b6105cc611ac8565b6706f05b59d3b2000081111561061b5760405162461bcd60e51b815260206004820152600f60248201526e08cc2c6e8dee440e8dede40d0d2ced608b1b60448201526064015b60405180910390fd5b60088190556040518181527f1804cd3c6ff50c5878703b3136dbf22bce42299e390b6627af008fde9bc763ae9060200160405180910390a150565b6001600160a01b03818116600090815260066020526040902054166106ad5760405162461bcd60e51b815260206004820152600d60248201526c2737903232b13a103a37b5b2b760991b6044820152606401610612565b6001600160a01b0381811660009081526006602052604090819020549051639198e51560e01b81528483166004820152911690639198e51590602401600060405180830381600087803b15801561070357600080fd5b505af1158015610717573d6000803e3d6000fd5b50505050806001600160a01b0316826001600160a01b03167f93a9996149fd4d205b98ae124d25fe8ab816bd370208ae911736c03a01e27079600060405161076191815260200190565b60405180910390a35050565b610775611b22565b80600081116107965760405162461bcd60e51b8152600401610612906120d6565b6001600160a01b03838116600090815260066020526040902054166107ed5760405162461bcd60e51b815260206004820152600d60248201526c2737903232b13a103a37b5b2b760991b6044820152606401610612565b6001600160a01b0383811660009081526006602052604090819020549051639198e51560e01b81523360048201529116908190639198e51590602401600060405180830381600087803b15801561084357600080fd5b505af1158015610857573d6000803e3d6000fd5b5050604051633959535960e21b8152336004820152600092506001600160a01b038416915063e5654d6490602401602060405180830381865afa1580156108a2573d6000803e3d6000fd5b505050506040513d601f19601f820116820180604052508101906108c69190612102565b905060008185116108d757846108d9565b815b90506108f06001600160a01b038716333084611b7b565b6001600160a01b03861660009081526005602090815260408083203384529091528120549081831161092357600061092d565b61092d8284612131565b90506000670de0b6b3a7640000600854836109489190612144565b610952919061215b565b6040516324d91d3360e21b8152336004820152602481018690529091506001600160a01b0387169063936474cc90604401600060405180830381600087803b15801561099d57600080fd5b505af11580156109b1573d6000803e3d6000fd5b5050505060008385116109c457846109c6565b835b6001600160a01b038b1660009081526005602090815260408083203384529091528120805492935083929091906109fe908490612131565b90915550506001600160a01b038a1660009081526004602052604081208054839290610a2b908490612131565b90915550508115610a5057600754610a50906001600160a01b038c8116911684611be6565b6040518581526001600160a01b038b169033907f05f2eeda0e08e4b437f487c8d7d29b14537d15e3488170dc3de5dbdf8dac46849060200160405180910390a35050505050505050610aa160018055565b5050565b6001600160a01b0381166000908152600460209081526040808320546002909252822054610ad39190612131565b92915050565b610ae1611b22565b8060008111610b025760405162461bcd60e51b8152600401610612906120d6565b610b176001600160a01b038416333085611b7b565b6001600160a01b038316600090815260036020908152604080832033845290915281208054849290610b4a90849061217d565b90915550506001600160a01b03831660009081526002602052604081208054849290610b7790849061217d565b90915550506040518281526001600160a01b0384169033907f5548c837ab068cf56a2c2479df0882a4922fd203edb7517321831d95078c5f629060200160405180910390a350610aa160018055565b610bce611ac8565b6001600160a01b038116610c195760405162461bcd60e51b815260206004820152601260248201527124b73b30b634b2103232b13a103a37b5b2b760711b6044820152606401610612565b6001600160a01b0382811660008181526006602052604080822080546001600160a01b0319169486169485179055517f66b1e3550aca8bbae3dd0fc223b9fe2675b387ebc059caef17a7400ecdc2e1d99190a35050565b610c78611ac8565b806001600160a01b038116610c9f5760405162461bcd60e51b815260040161061290612190565b50600980546001600160a01b0319166001600160a01b0392909216919091179055565b610cca611ac8565b610cd46000611c1b565b565b600a54604051630c0a72bf60e21b81526001600160a01b0383811660048301526000921690633029cafc90602401602060405180830381865afa158015610d21573d6000803e3d6000fd5b505050506040513d601f19601f82011682018060405250810190610d459190612102565b600a54604051633f864f8560e21b81526001600160a01b0385811660048301529293506000929091169063fe193e1490602401602060405180830381865afa158015610d95573d6000803e3d6000fd5b505050506040513d601f19601f82011682018060405250810190610db99190612102565b6001600160a01b03841660009081526004602090815260408083205460029092528220549293509091610dec9190612131565b6009546001600160a01b03868116600081815260026020908152604080832054600492839052818420549151632f95aec560e21b81529283019490945260248201939093526044810192909252606482018890526084820185905260a4820187905293945091169063be56bb149060c401602060405180830381865afa158015610e7a573d6000803e3d6000fd5b505050506040513d601f19601f82011682018060405250810190610e9e9190612102565b6009546001600160a01b0387811660008181526002602090815260408083205460049283905281842054600854925163bbf0a81b60e01b81529384019590955260248301526044820193909352606481019290925293945091169063bbf0a81b90608401602060405180830381865afa158015610f1f573d6000803e3d6000fd5b505050506040513d601f19601f82011682018060405250810190610f439190612102565b6001600160a01b0387166000818152600c60209081526040808320879055600d8252808320859055600e825291829020429055815186815290810184905292935090917f6778305c6589874c7b48651fd6414793c4ac2fdf49403e5270649e087046a83b910160405180910390a2505050505050565b610fc1611ac8565b806001600160a01b038116610fe85760405162461bcd60e51b815260040161061290612190565b50600a80546001600160a01b0319166001600160a01b0392909216919091179055565b6001600160a01b038116600090815260026020526040812054810361103257506000919050565b6001600160a01b03821660009081526002602090815260408083205460049092529091205461106a90670de0b6b3a764000090612144565b610ad3919061215b565b61107c611ac8565b806001600160a01b0381166110a35760405162461bcd60e51b815260040161061290612190565b50600b80546001600160a01b0319166001600160a01b0392909216919091179055565b6110ce611b22565b81600081116110ef5760405162461bcd60e51b8152600401610612906120d6565b600b546040516346c83a8160e11b81526000916001600160a01b031690638d90750290611124908a908a9088906004016121fd565b602060405180830381865afa158015611141573d6000803e3d6000fd5b505050506040513d601f19601f820116820180604052508101906111659190612232565b9050806111b45760405162461bcd60e51b815260206004820152601960248201527f506f736974696f6e206e6f74206c6971756964617461626c65000000000000006044820152606401610612565b600b5460405163c4201a9f60e01b81526001600160a01b039091169063c4201a9f906111ec908a908a908a908a908a90600401612254565b600060405180830381600087803b15801561120657600080fd5b505af115801561121a573d6000803e3d6000fd5b5050506001600160a01b038088166000908152600560209081526040808320938c1683529290529081205491508186116112545785611256565b815b6001600160a01b03808a166000908152600560209081526040808320938e16835292905290812080549293508392909190611292908490612131565b90915550506001600160a01b038816600090815260046020526040812080548392906112bf908490612131565b90915550506040518681526001600160a01b03808a169133918c16907fd169e4bc6bde8738cab2ae132ccc2ac82d66f5d7c531912427a3308168717ea59060200160405180910390a45050505061131560018055565b5050505050565b611324611ac8565b806001600160a01b03811661134b5760405162461bcd60e51b815260040161061290612190565b600780546001600160a01b0319166001600160a01b0384169081179091556040517f0b248ab246a87e452fbedee8dc12dfc53e3f3bfdc6920999062c56dea4ab522a90600090a25050565b600b546040516346c83a8160e11b81526000916001600160a01b031690638d907502906113cb908790879087906004016121fd565b602060405180830381865afa1580156113e8573d6000803e3d6000fd5b505050506040513d601f19601f8201168201806040525081019061140c9190612232565b949350505050565b6001600160a01b0381811660009081526006602052604081205490911661143d57506000610ad3565b6001600160a01b0382811660009081526006602052604090819020549051633959535960e21b8152858316600482015291169063e5654d6490602401602060405180830381865afa158015611496573d6000803e3d6000fd5b505050506040513d601f19601f820116820180604052508101906114ba9190612102565b9392505050565b6114c9611ac8565b6001600160a01b03811661152e5760405162461bcd60e51b815260206004820152602660248201527f4f776e61626c653a206e6577206f776e657220697320746865207a65726f206160448201526564647265737360d01b6064820152608401610612565b61153781611c1b565b50565b611542611b22565b80600081116115635760405162461bcd60e51b8152600401610612906120d6565b6001600160a01b03831660009081526003602090815260408083203384529091529020548211156115cd5760405162461bcd60e51b8152602060048201526014602482015273496e73756666696369656e742062616c616e636560601b6044820152606401610612565b6001600160a01b03831660009081526004602090815260408083205460029092528220546115fb9190612131565b9050828110156116465760405162461bcd60e51b8152602060048201526016602482015275496e73756666696369656e74206c697175696469747960501b6044820152606401610612565b6001600160a01b038416600090815260036020908152604080832033845290915281208054859290611679908490612131565b90915550506001600160a01b038416600090815260026020526040812080548592906116a6908490612131565b909155506116c090506001600160a01b0385163385611be6565b6040518381526001600160a01b0385169033907f9b1bfa7fa9ee420a16e124f794c35ac9f90472acc99140eb2f6447c714cad8eb9060200160405180910390a35050610aa160018055565b611713611b22565b80600081116117345760405162461bcd60e51b8152600401610612906120d6565b82600081116117555760405162461bcd60e51b8152600401610612906120d6565b6001600160a01b03858116600090815260066020526040902054166117bc5760405162461bcd60e51b815260206004820152601e60248201527f4e6f206465627420746f6b656e20666f7220626f72726f7720746f6b656e00006044820152606401610612565b6001600160a01b03851660009081526004602090815260408083205460029092528220546117ea9190612131565b9050838110156118355760405162461bcd60e51b8152602060048201526016602482015275496e73756666696369656e74206c697175696469747960501b6044820152606401610612565b600b546040516318f198c160e01b81523360048201526001600160a01b038981166024830152888116604483015260009216906318f198c190606401602060405180830381865afa15801561188e573d6000803e3d6000fd5b505050506040513d601f19601f820116820180604052508101906118b29190612102565b90508581101561190f5760405162461bcd60e51b815260206004820152602260248201527f496e73756666696369656e7420636f6c6c61746572616c20696e206d616e616760448201526132b960f11b6064820152608401610612565b846000606461191f836096612144565b611929919061215b565b90508083101561197b5760405162461bcd60e51b815260206004820152601d60248201527f496e73756666696369656e7420636f6c6c61746572616c20726174696f0000006044820152606401610612565b6001600160a01b0389811660009081526006602052604090819020549051639d0bee0360e01b8152336004820152602481018a9052911690639d0bee0390604401600060405180830381600087803b1580156119d657600080fd5b505af11580156119ea573d6000803e3d6000fd5b505050506001600160a01b038916600090815260056020908152604080832033845290915281208054899290611a2190849061217d565b90915550506001600160a01b03891660009081526004602052604081208054899290611a4e90849061217d565b90915550611a6890506001600160a01b038a163389611be6565b60408051898152602081018990526001600160a01b03808c1692908d169133917f96558a334f4759f0e7c423d68c84721860bd8fbf94ddc4e55158ecb125ad04b5910160405180910390a4505050505050611ac260018055565b50505050565b6000546001600160a01b03163314610cd45760405162461bcd60e51b815260206004820181905260248201527f4f776e61626c653a2063616c6c6572206973206e6f7420746865206f776e65726044820152606401610612565b600260015403611b745760405162461bcd60e51b815260206004820152601f60248201527f5265656e7472616e637947756172643a207265656e7472616e742063616c6c006044820152606401610612565b6002600155565b6040516001600160a01b0380851660248301528316604482015260648101829052611ac29085906323b872dd60e01b906084015b60408051601f198184030181529190526020810180516001600160e01b03166001600160e01b031990931692909217909152611c6b565b6040516001600160a01b038316602482015260448101829052611c1690849063a9059cbb60e01b90606401611baf565b505050565b600080546001600160a01b038381166001600160a01b0319831681178455604051919092169283917f8be0079c531659141344cd1fd0a4f28419497f9722a3daafe3b4186f6b6457e09190a35050565b6000611cc0826040518060400160405280602081526020017f5361666545524332303a206c6f772d6c6576656c2063616c6c206661696c6564815250856001600160a01b0316611d409092919063ffffffff16565b9050805160001480611ce1575080806020019051810190611ce19190612232565b611c165760405162461bcd60e51b815260206004820152602a60248201527f5361666545524332303a204552433230206f7065726174696f6e20646964206e6044820152691bdd081cdd58d8d9595960b21b6064820152608401610612565b606061140c848460008585600080866001600160a01b03168587604051611d6791906122b3565b60006040518083038185875af1925050503d8060008114611da4576040519150601f19603f3d011682016040523d82523d6000602084013e611da9565b606091505b5091509150611dba87838387611dc5565b979650505050505050565b60608315611e34578251600003611e2d576001600160a01b0385163b611e2d5760405162461bcd60e51b815260206004820152601d60248201527f416464726573733a2063616c6c20746f206e6f6e2d636f6e74726163740000006044820152606401610612565b508161140c565b61140c8383815115611e495781518083602001fd5b8060405162461bcd60e51b815260040161061291906122cf565b600060208284031215611e7557600080fd5b5035919050565b80356001600160a01b0381168114611e9357600080fd5b919050565b60008060408385031215611eab57600080fd5b611eb483611e7c565b9150611ec260208401611e7c565b90509250929050565b60008060408385031215611ede57600080fd5b611ee783611e7c565b946020939093013593505050565b600060208284031215611f0757600080fd5b6114ba82611e7c565b634e487b7160e01b600052604160045260246000fd5b600082601f830112611f3757600080fd5b8135602067ffffffffffffffff80831115611f5457611f54611f10565b8260051b604051601f19603f83011681018181108482111715611f7957611f79611f10565b604052938452858101830193838101925087851115611f9757600080fd5b83870191505b84821015611dba57611fae82611e7c565b83529183019190830190611f9d565b600080600080600060a08688031215611fd557600080fd5b611fde86611e7c565b9450611fec60208701611e7c565b9350611ffa60408701611e7c565b925060608601359150608086013567ffffffffffffffff81111561201d57600080fd5b61202988828901611f26565b9150509295509295909350565b60008060006060848603121561204b57600080fd5b61205484611e7c565b925061206260208501611e7c565b9150604084013567ffffffffffffffff81111561207e57600080fd5b61208a86828701611f26565b9150509250925092565b600080600080608085870312156120aa57600080fd5b6120b385611e7c565b93506120c160208601611e7c565b93969395505050506040820135916060013590565b6020808252601290820152710416d6f756e74206d757374206265203e20360741b604082015260600190565b60006020828403121561211457600080fd5b5051919050565b634e487b7160e01b600052601160045260246000fd5b81810381811115610ad357610ad361211b565b8082028115828204841417610ad357610ad361211b565b60008261217857634e487b7160e01b600052601260045260246000fd5b500490565b80820180821115610ad357610ad361211b565b6020808252600f908201526e496e76616c6964206164647265737360881b604082015260600190565b600081518084526020808501945080840160005b838110156121f25781516001600160a01b0316875295820195908201906001016121cd565b509495945050505050565b6001600160a01b03848116825283166020820152606060408201819052600090612229908301846121b9565b95945050505050565b60006020828403121561224457600080fd5b815180151581146114ba57600080fd5b6001600160a01b0386811682528581166020830152841660408201526060810183905260a060808201819052600090611dba908301846121b9565b60005b838110156122aa578181015183820152602001612292565b50506000910152565b600082516122c581846020870161228f565b9190910192915050565b60208152600082518060208401526122ee81604085016020870161228f565b601f01601f1916919091016040019291505056fea264697066735822122085f8d96d4f38d498ce46a9106941e8f6435e17fa0182d85470accc9d2ce6aae064736f6c63430008130033",
  "linkReferences": {},
  "deployedLinkReferences": {}
}