{
  "_format": "hh-sol-artifact-1",
  "contractName": "OracleAdapter",
  "sourceName": "contracts/oracles/OracleAdapter.sol",
  "abi": [
    {
      "anonymous": false,
      "inputs": [
        {
          "indexed": true,
          "internalType": "address",
          "name": "previousOwner",
          "type": "address"
        },
        {
          "indexed": true,
          "internalType": "address",
          "name": "newOwner",
          "type": "address"
        }
      ],
      "name": "OwnershipTransferred",
      "type": "event"
    },
    {
      "anonymous": false,
      "inputs": [
        {
          "indexed": true,
          "internalType": "address",
          "name": "token",
          "type": "address"
        }
      ],
      "name": "PriceFeedDeactivated",
      "type": "event"
    },
    {
      "anonymous": false,
      "inputs": [
        {
          "indexed": true,
          "internalType": "address",
          "name": "token",
          "type": "address"
        },
        {
          "indexed": true,
          "internalType": "address",
          "name": "oracle",
          "type": "address"
        }
      ],
      "name": "PriceFeedUpdated",
      "type": "event"
    },
    {
      "anonymous": false,
      "inputs": [
        {
          "indexed": true,
          "internalType": "address",
          "name": "token",
          "type": "address"
        },
        {
          "indexed": false,
          "internalType": "uint256",
          "name": "price",
          "type": "uint256"
        }
      ],
      "name": "PriceUpdated",
      "type": "event"
    },
    {
      "inputs": [],
      "name": "HISTORY_SIZE",
      "outputs": [
        {
          "internalType": "uint256",
          "name": "",
          "type": "uint256"
        }
      ],
      "stateMutability": "view",
      "type": "function"
    },
    {
      "inputs": [],
      "name": "MAX_PRICE_AGE",
      "outputs": [
        {
          "internalType": "uint256",
          "name": "",
          "type": "uint256"
        }
      ],
      "stateMutability": "view",
      "type": "function"
    },
    {
      "inputs": [],
      "name": "PRECISION",
      "outputs": [
        {
          "internalType": "uint256",
          "name": "",
          "type": "uint256"
        }
      ],
      "stateMutability": "view",
      "type": "function"
    },
    {
      "inputs": [
        {
          "internalType": "address",
          "name": "",
          "type": "address"
        }
      ],
      "name": "currentPriceIndex",
      "outputs": [
        {
          "internalType": "uint256",
          "name": "",
          "type": "uint256"
        }
      ],
      "stateMutability": "view",
      "type": "function"
    },
    {
      "inputs": [
        {
          "internalType": "address",
          "name": "token",
          "type": "address"
        }
      ],
      "name": "deactivatePriceFeed",
      "outputs": [],
      "stateMutability": "nonpayable",
      "type": "function"
    },
    {
      "inputs": [
        {
          "internalType": "address",
          "name": "baseToken",
          "type": "address"
        },
        {
          "internalType": "address",
          "name": "quoteToken",
          "type": "address"
        }
      ],
      "name": "getExchangeRate",
      "outputs": [
        {
          "internalType": "uint256",
          "name": "rate",
          "type": "uint256"
        }
      ],
      "stateMutability": "view",
      "type": "function"
    },
    {
      "inputs": [
        {
          "internalType": "address",
          "name": "token",
          "type": "address"
        }
      ],
      "name": "getHistoricalPrices",
      "outputs": [
        {
          "components": [
            {
              "internalType": "uint256",
              "name": "price",
              "type": "uint256"
            },
            {
              "internalType": "uint256",
              "name": "timestamp",
              "type": "uint256"
            }
          ],
          "internalType": "struct OracleAdapter.HistoricalPrice[]",
          "name": "prices",
          "type": "tuple[]"
        }
      ],
      "stateMutability": "view",
      "type": "function"
    },
    {
      "inputs": [
        {
          "internalType": "address",
          "name": "token",
          "type": "address"
        }
      ],
      "name": "getPrice",
      "outputs": [
        {
          "internalType": "uint256",
          "name": "price",
          "type": "uint256"
        }
      ],
      "stateMutability": "view",
      "type": "function"
    },
    {
      "inputs": [
        {
          "internalType": "address",
          "name": "token",
          "type": "address"
        }
      ],
      "name": "getPriceDeviation",
      "outputs": [
        {
          "internalType": "uint256",
          "name": "deviation",
          "type": "uint256"
        }
      ],
      "stateMutability": "view",
      "type": "function"
    },
    {
      "inputs": [
        {
          "internalType": "address",
          "name": "token",
          "type": "address"
        }
      ],
      "name": "getVolatility",
      "outputs": [
        {
          "internalType": "uint256",
          "name": "volatility",
          "type": "uint256"
        }
      ],
      "stateMutability": "view",
      "type": "function"
    },
    {
      "inputs": [
        {
          "internalType": "address",
          "name": "",
          "type": "address"
        },
        {
          "internalType": "uint256",
          "name": "",
          "type": "uint256"
        }
      ],
      "name": "historicalPrices",
      "outputs": [
        {
          "internalType": "uint256",
          "name": "price",
          "type": "uint256"
        },
        {
          "internalType": "uint256",
          "name": "timestamp",
          "type": "uint256"
        }
      ],
      "stateMutability": "view",
      "type": "function"
    },
    {
      "inputs": [],
      "name": "owner",
      "outputs": [
        {
          "internalType": "address",
          "name": "",
          "type": "address"
        }
      ],
      "stateMutability": "view",
      "type": "function"
    },
    {
      "inputs": [
        {
          "internalType": "address",
          "name": "",
          "type": "address"
        }
      ],
      "name": "priceFeeds",
      "outputs": [
        {
          "internalType": "address",
          "name": "oracleAddress",
          "type": "address"
        },
        {
          "internalType": "uint8",
          "name": "decimals",
          "type": "uint8"
        },
        {
          "internalType": "bool",
          "name": "isActive",
          "type": "bool"
        },
        {
          "internalType": "uint256",
          "name": "lastPrice",
          "type": "uint256"
        },
        {
          "internalType": "uint256",
          "name": "lastUpdateTime",
          "type": "uint256"
        }
      ],
      "stateMutability": "view",
      "type": "function"
    },
    {
      "inputs": [],
      "name": "renounceOwnership",
      "outputs": [],
      "stateMutability": "nonpayable",
      "type": "function"
    },
    {
      "inputs": [
        {
          "internalType": "address",
          "name": "token",
          "type": "address"
        },
        {
          "internalType": "address",
          "name": "oracle",
          "type": "address"
        },
        {
          "internalType": "uint8",
          "name": "decimals",
          "type": "uint8"
        }
      ],
      "name": "setPriceFeed",
      "outputs": [],
      "stateMutability": "nonpayable",
      "type": "function"
    },
    {
      "inputs": [
        {
          "internalType": "address",
          "name": "newOwner",
          "type": "address"
        }
      ],
      "name": "transferOwnership",
      "outputs": [],
      "stateMutability": "nonpayable",
      "type": "function"
    },
    {
      "inputs": [
        {
          "internalType": "address",
          "name": "token",
          "type": "address"
        }
      ],
      "name": "updatePriceHistory",
      "outputs": [],
      "stateMutability": "nonpayable",
      "type": "function"
    }
  ],
  "bytecode": "0x608060405234801561001057600080fd5b5061001a3361001f565b61006f565b600080546001600160a01b038381166001600160a01b0319831681178455604051919092169283917f8be0079c531659141344cd1fd0a4f28419497f9722a3daafe3b4186f6b6457e09190a35050565b6114a68061007e6000396000f3fe608060405234801561001057600080fd5b506004361061010b5760003560e01c80638da5cb5b116100a2578063aaf5eb6811610071578063aaf5eb68146102b5578063baaa61be146102c4578063f2fde38b146102d7578063fd4690b6146102ea578063fe193e14146102fd57600080fd5b80638da5cb5b146101f55780639d7f7e86146102105780639dcb511a146102195780639e7a4dc5146102a257600080fd5b806341976e09116100de57806341976e09146101b2578063652c462e146101c5578063715018a6146101cd5780638998ecdc146101d557600080fd5b806315b42e5e146101105780631a68f75f1461015c5780632685e434146101715780633029cafc1461019f575b600080fd5b61014261011e3660046110db565b60026020908152600092835260408084209091529082529020805460019091015482565b604080519283526020830191909152015b60405180910390f35b61016f61016a366004611105565b610310565b005b61019161017f366004611105565b60036020526000908152604090205481565b604051908152602001610153565b6101916101ad366004611105565b6103d8565b6101916101c0366004611105565b610567565b610191600a81565b61016f610736565b6101e86101e3366004611105565b61074a565b6040516101539190611120565b6000546040516001600160a01b039091168152602001610153565b610191610e1081565b610268610227366004611105565b60016020819052600091825260409091208054918101546002909101546001600160a01b0383169260ff600160a01b8204811693600160a81b909204169185565b604080516001600160a01b03909616865260ff9094166020860152911515928401929092526060830191909152608082015260a001610153565b61016f6102b0366004611105565b610808565b610191670de0b6b3a764000081565b6101916102d236600461116f565b61098f565b61016f6102e5366004611105565b610ad9565b61016f6102f83660046111a2565b610b52565b61019161030b366004611105565b610d15565b610318610e4f565b6001600160a01b038116600090815260016020526040902054600160a81b900460ff1661038c5760405162461bcd60e51b815260206004820152601b60248201527f5072696365206665656420616c726561647920696e616374697665000000000060448201526064015b60405180910390fd5b6001600160a01b038116600081815260016020526040808220805460ff60a81b19169055517f8b46412991fecbe58f45dfd2d74cfc2e19d66105ce7920fb8c92e8f6ef31a4c29190a250565b60408051600a808252610160820190925260009182919060208201610140803683370190505090506000805b600a8110156104a5576001600160a01b038516600090815260026020908152604080832084845282529182902082518084019093528054808452600190910154918301919091521580159061045d575060008160200151115b1561049257806000015184848151811061047957610479611205565b60209081029190910101528261048e81611231565b9350505b508061049d81611231565b915050610404565b5060028110156104b9575060009392505050565b60008167ffffffffffffffff8111156104d4576104d46111ef565b6040519080825280602002602001820160405280156104fd578160200160208202803683370190505b50905060005b828110156105545783818151811061051d5761051d611205565b602002602001015182828151811061053757610537611205565b60209081029190910101528061054c81611231565b915050610503565b5061055e81610ea9565b95945050505050565b6001600160a01b0381166000908152600160205260408120548290600160a81b900460ff166105a85760405162461bcd60e51b81526004016103839061124a565b6001600160a01b03808416600090815260016020526040808220548151633fabe5a360e21b815291519316928291849163feaf968c9160048082019260a0929091908290030181865afa158015610603573d6000803e3d6000fd5b505050506040513d601f19601f820116820180604052508101906106279190611293565b509350509250506000821361066e5760405162461bcd60e51b815260206004820152600d60248201526c496e76616c696420707269636560981b6044820152606401610383565b600081116106b25760405162461bcd60e51b81526020600482015260116024820152700496e76616c69642074696d657374616d7607c1b6044820152606401610383565b610e106106bf82426112e3565b106106fe5760405162461bcd60e51b815260206004820152600f60248201526e507269636520746f6f207374616c6560881b6044820152606401610383565b6001600160a01b03861660009081526001602052604090205461072c908390600160a01b900460ff16610fd2565b9695505050505050565b61073e610e4f565b6107486000611007565b565b60408051600a8082526101608201909252606091816020015b604080518082019091526000808252602082015281526020019060019003908161076357905050905060005b600a811015610802576001600160a01b0383166000908152600260209081526040808320848452825291829020825180840190935280548352600101549082015282518390839081106107e4576107e4611205565b602002602001018190525080806107fa90611231565b91505061078f565b50919050565b6001600160a01b0381166000908152600160205260409020548190600160a81b900460ff166108495760405162461bcd60e51b81526004016103839061124a565b6040516341976e0960e01b81526001600160a01b038316600482015260009030906341976e0990602401602060405180830381865afa158015610890573d6000803e3d6000fd5b505050506040513d601f19601f820116820180604052508101906108b491906112fc565b6001600160a01b0384166000818152600360209081526040808320548151808301835286815242818501908152958552600284528285208286529093529220905181559151600192830155919250600a90610910908390611315565b61091a919061133e565b6001600160a01b038516600081815260036020908152604080832094909455600190819052908390209081018590554260029091015590517f0d86730737b142fc160892fa8a0f2db687a92a0e294d1ad70624cf5acef03b84906109819085815260200190565b60405180910390a250505050565b6040516341976e0960e01b81526001600160a01b0383166004820152600090819030906341976e0990602401602060405180830381865afa1580156109d8573d6000803e3d6000fd5b505050506040513d601f19601f820116820180604052508101906109fc91906112fc565b6040516341976e0960e01b81526001600160a01b038516600482015290915060009030906341976e0990602401602060405180830381865afa158015610a46573d6000803e3d6000fd5b505050506040513d601f19601f82011682018060405250810190610a6a91906112fc565b905060008111610abc5760405162461bcd60e51b815260206004820152601a60248201527f51756f74652070726963652063616e6e6f74206265207a65726f0000000000006044820152606401610383565b80610acf670de0b6b3a764000084611352565b61055e9190611369565b610ae1610e4f565b6001600160a01b038116610b465760405162461bcd60e51b815260206004820152602660248201527f4f776e61626c653a206e6577206f776e657220697320746865207a65726f206160448201526564647265737360d01b6064820152608401610383565b610b4f81611007565b50565b610b5a610e4f565b826001600160a01b038116610ba35760405162461bcd60e51b815260206004820152600f60248201526e496e76616c6964206164647265737360881b6044820152606401610383565b826001600160a01b038116610bec5760405162461bcd60e51b815260206004820152600f60248201526e496e76616c6964206164647265737360881b6044820152606401610383565b6040518060a00160405280856001600160a01b031681526020018460ff16815260200160011515815260200160008152602001600081525060016000876001600160a01b03166001600160a01b0316815260200190815260200160002060008201518160000160006101000a8154816001600160a01b0302191690836001600160a01b0316021790555060208201518160000160146101000a81548160ff021916908360ff16021790555060408201518160000160156101000a81548160ff0219169083151502179055506060820151816001015560808201518160020155905050836001600160a01b0316856001600160a01b03167fa8abe0398416476db5b05737cd4da3b3cbde5012d978a6a6c3fd49d32175353660405160405180910390a35050505050565b6001600160a01b0381166000908152600160205260408120548290600160a81b900460ff16610d565760405162461bcd60e51b81526004016103839061124a565b6040516341976e0960e01b81526001600160a01b038416600482015260009030906341976e0990602401602060405180830381865afa158015610d9d573d6000803e3d6000fd5b505050506040513d601f19601f82011682018060405250810190610dc191906112fc565b6001600160a01b038516600090815260016020819052604082200154919250819003610df257600093505050610802565b80821115610e295780670de0b6b3a7640000610e0e82856112e3565b610e189190611352565b610e229190611369565b9350610e47565b80670de0b6b3a7640000610e3d84836112e3565b610acf9190611352565b505050919050565b6000546001600160a01b031633146107485760405162461bcd60e51b815260206004820181905260248201527f4f776e61626c653a2063616c6c6572206973206e6f7420746865206f776e65726044820152606401610383565b80516000906002811015610ec05750600092915050565b6000805b82811015610f0557848181518110610ede57610ede611205565b602002602001015182610ef19190611315565b915080610efd81611231565b915050610ec4565b506000610f128383611369565b90506000805b84811015610fc857600083888381518110610f3557610f35611205565b602002602001015111610f6c57878281518110610f5457610f54611205565b602002602001015184610f6791906112e3565b610f91565b83888381518110610f7f57610f7f611205565b6020026020010151610f9191906112e3565b905085610f9e8280611352565b610fa89190611369565b610fb29084611315565b9250508080610fc090611231565b915050610f18565b5061072c81611057565b600080610fe083600a611461565b905080610ff5670de0b6b3a764000086611352565b610fff9190611369565b949350505050565b600080546001600160a01b038381166001600160a01b0319831681178455604051919092169283917f8be0079c531659141344cd1fd0a4f28419497f9722a3daafe3b4186f6b6457e09190a35050565b60008160000361106957506000919050565b60006002611078846001611315565b6110829190611369565b9050825b808210156110b857508060028161109d8187611369565b6110a79190611315565b6110b19190611369565b9150611086565b9392505050565b80356001600160a01b03811681146110d657600080fd5b919050565b600080604083850312156110ee57600080fd5b6110f7836110bf565b946020939093013593505050565b60006020828403121561111757600080fd5b6110b8826110bf565b602080825282518282018190526000919060409081850190868401855b828110156111625781518051855286015186850152928401929085019060010161113d565b5091979650505050505050565b6000806040838503121561118257600080fd5b61118b836110bf565b9150611199602084016110bf565b90509250929050565b6000806000606084860312156111b757600080fd5b6111c0846110bf565b92506111ce602085016110bf565b9150604084013560ff811681146111e457600080fd5b809150509250925092565b634e487b7160e01b600052604160045260246000fd5b634e487b7160e01b600052603260045260246000fd5b634e487b7160e01b600052601160045260246000fd5b6000600182016112435761124361121b565b5060010190565b60208082526015908201527450726963652066656564206e6f742061637469766560581b604082015260600190565b805169ffffffffffffffffffff811681146110d657600080fd5b600080600080600060a086880312156112ab57600080fd5b6112b486611279565b94506020860151935060408601519250606086015191506112d760808701611279565b90509295509295909350565b818103818111156112f6576112f661121b565b92915050565b60006020828403121561130e57600080fd5b5051919050565b808201808211156112f6576112f661121b565b634e487b7160e01b600052601260045260246000fd5b60008261134d5761134d611328565b500690565b80820281158282048414176112f6576112f661121b565b60008261137857611378611328565b500490565b600181815b808511156113b857816000190482111561139e5761139e61121b565b808516156113ab57918102915b93841c9390800290611382565b509250929050565b6000826113cf575060016112f6565b816113dc575060006112f6565b81600181146113f257600281146113fc57611418565b60019150506112f6565b60ff84111561140d5761140d61121b565b50506001821b6112f6565b5060208310610133831016604e8410600b841016171561143b575081810a6112f6565b611445838361137d565b80600019048211156114595761145961121b565b029392505050565b60006110b860ff8416836113c056fea26469706673582212204857e6d1c6547349c66868363d336054ebb3b3bce7d1d6c2bb96a691ec546f6964736f6c63430008130033",
  "linkReferences": {},
  "deployedLinkReferences": {}
}