{
  "_format": "hh-sol-artifact-1",
  "contractName": "MentoYieldStrategy",
  "sourceName": "contracts/strategies/MentoYieldStrategy.sol",
  "abi": [
    {
      "inputs": [],
      "stateMutability": "nonpayable",
      "type": "constructor"
    },
    {
      "anonymous": false,
      "inputs": [
        {
          "indexed": true,
          "internalType": "address",
          "name": "token",
          "type": "address"
        },
        {
          "indexed": false,
          "internalType": "uint256",
          "name": "amount",
          "type": "uint256"
        }
      ],
      "name": "Deposited",
      "type": "event"
    },
    {
      "anonymous": false,
      "inputs": [
        {
          "indexed": true,
          "internalType": "address",
          "name": "previousOwner",
          "type": "address"
        },
        {
          "indexed": true,
          "internalType": "address",
          "name": "newOwner",
          "type": "address"
        }
      ],
      "name": "OwnershipTransferred",
      "type": "event"
    },
    {
      "anonymous": false,
      "inputs": [
        {
          "indexed": true,
          "internalType": "address",
          "name": "fromToken",
          "type": "address"
        },
        {
          "indexed": true,
          "internalType": "address",
          "name": "toToken",
          "type": "address"
        },
        {
          "indexed": false,
          "internalType": "uint256",
          "name": "amount",
          "type": "uint256"
        }
      ],
      "name": "Rebalanced",
      "type": "event"
    },
    {
      "anonymous": false,
      "inputs": [
        {
          "indexed": true,
          "internalType": "address",
          "name": "token",
          "type": "address"
        },
        {
          "indexed": false,
          "internalType": "uint256",
          "name": "amount",
          "type": "uint256"
        }
      ],
      "name": "Withdrawn",
      "type": "event"
    },
    {
      "anonymous": false,
      "inputs": [
        {
          "indexed": true,
          "internalType": "address",
          "name": "token",
          "type": "address"
        },
        {
          "indexed": false,
          "internalType": "uint256",
          "name": "yieldAmount",
          "type": "uint256"
        }
      ],
      "name": "YieldGenerated",
      "type": "event"
    },
    {
      "inputs": [],
      "name": "APY_BASIS_POINTS",
      "outputs": [
        {
          "internalType": "uint256",
          "name": "",
          "type": "uint256"
        }
      ],
      "stateMutability": "view",
      "type": "function"
    },
    {
      "inputs": [],
      "name": "MENTO_RESERVE",
      "outputs": [
        {
          "internalType": "address",
          "name": "",
          "type": "address"
        }
      ],
      "stateMutability": "view",
      "type": "function"
    },
    {
      "inputs": [],
      "name": "SECONDS_PER_YEAR",
      "outputs": [
        {
          "internalType": "uint256",
          "name": "",
          "type": "uint256"
        }
      ],
      "stateMutability": "view",
      "type": "function"
    },
    {
      "inputs": [
        {
          "internalType": "address",
          "name": "token",
          "type": "address"
        },
        {
          "internalType": "uint256",
          "name": "principal",
          "type": "uint256"
        },
        {
          "internalType": "uint256",
          "name": "timeElapsed",
          "type": "uint256"
        }
      ],
      "name": "calculateYield",
      "outputs": [
        {
          "internalType": "uint256",
          "name": "",
          "type": "uint256"
        }
      ],
      "stateMutability": "pure",
      "type": "function"
    },
    {
      "inputs": [
        {
          "internalType": "address",
          "name": "token",
          "type": "address"
        },
        {
          "internalType": "uint256",
          "name": "amount",
          "type": "uint256"
        }
      ],
      "name": "deposit",
      "outputs": [],
      "stateMutability": "nonpayable",
      "type": "function"
    },
    {
      "inputs": [
        {
          "internalType": "address",
          "name": "token",
          "type": "address"
        }
      ],
      "name": "emergencyWithdraw",
      "outputs": [],
      "stateMutability": "nonpayable",
      "type": "function"
    },
    {
      "inputs": [],
      "name": "generateYield",
      "outputs": [],
      "stateMutability": "nonpayable",
      "type": "function"
    },
    {
      "inputs": [
        {
          "internalType": "address",
          "name": "token",
          "type": "address"
        }
      ],
      "name": "getAPY",
      "outputs": [
        {
          "internalType": "uint256",
          "name": "",
          "type": "uint256"
        }
      ],
      "stateMutability": "pure",
      "type": "function"
    },
    {
      "inputs": [
        {
          "internalType": "address",
          "name": "token",
          "type": "address"
        }
      ],
      "name": "getAvailableBalance",
      "outputs": [
        {
          "internalType": "uint256",
          "name": "",
          "type": "uint256"
        }
      ],
      "stateMutability": "view",
      "type": "function"
    },
    {
      "inputs": [
        {
          "internalType": "address",
          "name": "token",
          "type": "address"
        }
      ],
      "name": "getCurrentYield",
      "outputs": [
        {
          "internalType": "uint256",
          "name": "",
          "type": "uint256"
        }
      ],
      "stateMutability": "view",
      "type": "function"
    },
    {
      "inputs": [
        {
          "internalType": "address",
          "name": "token",
          "type": "address"
        }
      ],
      "name": "getStrategyStats",
      "outputs": [
        {
          "internalType": "uint256",
          "name": "deposits",
          "type": "uint256"
        },
        {
          "internalType": "uint256",
          "name": "withdrawals",
          "type": "uint256"
        },
        {
          "internalType": "uint256",
          "name": "yield",
          "type": "uint256"
        },
        {
          "internalType": "uint256",
          "name": "tvl",
          "type": "uint256"
        }
      ],
      "stateMutability": "view",
      "type": "function"
    },
    {
      "inputs": [
        {
          "internalType": "address",
          "name": "token",
          "type": "address"
        }
      ],
      "name": "getTVL",
      "outputs": [
        {
          "internalType": "uint256",
          "name": "",
          "type": "uint256"
        }
      ],
      "stateMutability": "view",
      "type": "function"
    },
    {
      "inputs": [],
      "name": "lastYieldCalculation",
      "outputs": [
        {
          "internalType": "uint256",
          "name": "",
          "type": "uint256"
        }
      ],
      "stateMutability": "view",
      "type": "function"
    },
    {
      "inputs": [],
      "name": "owner",
      "outputs": [
        {
          "internalType": "address",
          "name": "",
          "type": "address"
        }
      ],
      "stateMutability": "view",
      "type": "function"
    },
    {
      "inputs": [
        {
          "internalType": "address",
          "name": "fromToken",
          "type": "address"
        },
        {
          "internalType": "address",
          "name": "toToken",
          "type": "address"
        },
        {
          "internalType": "uint256",
          "name": "amount",
          "type": "uint256"
        }
      ],
      "name": "rebalance",
      "outputs": [],
      "stateMutability": "nonpayable",
      "type": "function"
    },
    {
      "inputs": [],
      "name": "renounceOwnership",
      "outputs": [],
      "stateMutability": "nonpayable",
      "type": "function"
    },
    {
      "inputs": [
        {
          "internalType": "address",
          "name": "_vault",
          "type": "address"
        }
      ],
      "name": "setVault",
      "outputs": [],
      "stateMutability": "nonpayable",
      "type": "function"
    },
    {
      "inputs": [
        {
          "internalType": "address",
          "name": "",
          "type": "address"
        }
      ],
      "name": "tokenDeposits",
      "outputs": [
        {
          "internalType": "uint256",
          "name": "",
          "type": "uint256"
        }
      ],
      "stateMutability": "view",
      "type": "function"
    },
    {
      "inputs": [
        {
          "internalType": "address",
          "name": "",
          "type": "address"
        }
      ],
      "name": "tokenWithdrawals",
      "outputs": [
        {
          "internalType": "uint256",
          "name": "",
          "type": "uint256"
        }
      ],
      "stateMutability": "view",
      "type": "function"
    },
    {
      "inputs": [
        {
          "internalType": "address",
          "name": "",
          "type": "address"
        }
      ],
      "name": "tokenYield",
      "outputs": [
        {
          "internalType": "uint256",
          "name": "",
          "type": "uint256"
        }
      ],
      "stateMutability": "view",
      "type": "function"
    },
    {
      "inputs": [
        {
          "internalType": "address",
          "name": "newOwner",
          "type": "address"
        }
      ],
      "name": "transferOwnership",
      "outputs": [],
      "stateMutability": "nonpayable",
      "type": "function"
    },
    {
      "inputs": [],
      "name": "vault",
      "outputs": [
        {
          "internalType": "address",
          "name": "",
          "type": "address"
        }
      ],
      "stateMutability": "view",
      "type": "function"
    },
    {
      "inputs": [
        {
          "internalType": "address",
          "name": "token",
          "type": "address"
        },
        {
          "internalType": "uint256",
          "name": "amount",
          "type": "uint256"
        }
      ],
      "name": "withdraw",
      "outputs": [],
      "stateMutability": "nonpayable",
      "type": "function"
    }
  ],
  "bytecode": "0x608060405234801561001057600080fd5b50600160005561001f33610028565b4260055561007a565b600180546001600160a01b038381166001600160a01b0319831681179093556040519116919082907f8be0079c531659141344cd1fd0a4f28419497f9722a3daafe3b4186f6b6457e090600090a35050565b6110d8806100896000396000f3fe608060405234801561001057600080fd5b506004361061014d5760003560e01c806396795298116100c3578063e6074da71161007c578063e6074da7146102e5578063e6a69ab814610305578063f2fde38b14610310578063f3fef3a314610323578063f7c65cd214610336578063fbfa77cf1461033e57600080fd5b80639679529814610261578063b35f051714610281578063b3f865f71461028a578063b89433771461029d578063c4f9870b146102bd578063d1edbc53146102d257600080fd5b80636817031b116101155780636817031b146101dc5780636c24a76f146101ef5780636ff1c9bc14610202578063715018a6146102155780638da5cb5b1461021d5780638f45f1791461022e57600080fd5b80630f40517a14610152578063158fb06e146101785780631d70ca5e1461018b57806336e9bdd51461019457806347e7ef24146101c7575b600080fd5b610165610160366004610ea5565b610351565b6040519081526020015b60405180910390f35b610165610186366004610ec0565b610362565b61016560055481565b6101af73123456789012345678901234567890123456789081565b6040516001600160a01b03909116815260200161016f565b6101da6101d5366004610ef3565b6103b6565b005b6101da6101ea366004610ea5565b6104c0565b6101656101fd366004610ea5565b610585565b6101da610210366004610ea5565b6105d6565b6101da6106b0565b6001546001600160a01b03166101af565b61024161023c366004610ea5565b6106c4565b60408051948552602085019390935291830152606082015260800161016f565b61016561026f366004610ea5565b60036020526000908152604090205481565b61016561032081565b6101da610298366004610f1d565b610708565b6101656102ab366004610ea5565b60046020526000908152604090205481565b6101656102cb366004610ea5565b5061032090565b6101656102e0366004610ea5565b61081f565b6101656102f3366004610ea5565b60026020526000908152604090205481565b6101656301e1338081565b6101da61031e366004610ea5565b6108cc565b6101da610331366004610ef3565b610945565b6101da610a7e565b6006546101af906001600160a01b031681565b600061035c82610585565b92915050565b60008061038b6301e1338061038561271081610320670de0b6b3a7640000610c08565b90610c1b565b90506103ad670de0b6b3a7640000610385856103a78886610c08565b90610c08565b95945050505050565b6006546001600160a01b031633146103e95760405162461bcd60e51b81526004016103e090610f59565b60405180910390fd5b816103f381610c27565b61040f5760405162461bcd60e51b81526004016103e090610f9a565b610417610c84565b600082116104375760405162461bcd60e51b81526004016103e090610fc7565b6001600160a01b03831660009081526002602052604090205461045a9083610cdd565b6001600160a01b038416600081815260026020526040908190209290925590517f2da466a7b24304f47e87fa2e1e5a81b9831ce54fec19055ce277ca2f39ba42c4906104a99085815260200190565b60405180910390a26104bb6001600055565b505050565b6104c8610ce9565b6006546001600160a01b0316156105155760405162461bcd60e51b815260206004820152601160248201527015985d5b1d08185b1c9958591e481cd95d607a1b60448201526064016103e0565b6001600160a01b0381166105635760405162461bcd60e51b8152602060048201526015602482015274496e76616c6964207661756c74206164647265737360581b60448201526064016103e0565b600680546001600160a01b0319166001600160a01b0392909216919091179055565b6001600160a01b038116600090815260036020908152604080832054600290925282205482916105b59190610d43565b905060006105c28461081f565b90506105ce8282610cdd565b949350505050565b6105de610ce9565b60006105e982610585565b9050600081116106325760405162461bcd60e51b81526020600482015260146024820152734e6f2066756e647320746f20776974686472617760601b60448201526064016103e0565b6001600160a01b0382166000908152600360205260409020546106559082610cdd565b6001600160a01b038316600081815260036020526040908190209290925590517f7084f5476618d8e60b11ef0d7d3f06914655adb8793e28ff7f018d4c76d505d5906106a49084815260200190565b60405180910390a25050565b6106b8610ce9565b6106c26000610d4f565b565b6001600160a01b03811660009081526002602090815260408083205460039092528220549091806106f48561081f565b91506106ff85610585565b90509193509193565b610710610ce9565b8261071a81610c27565b6107365760405162461bcd60e51b81526004016103e090610f9a565b8261074081610c27565b61075c5760405162461bcd60e51b81526004016103e090610f9a565b6000831161077c5760405162461bcd60e51b81526004016103e090610fc7565b61078585610585565b8311156107cb5760405162461bcd60e51b8152602060048201526014602482015273496e73756666696369656e742062616c616e636560601b60448201526064016103e0565b836001600160a01b0316856001600160a01b03167f4ce94e8bd94f62017197ba464f629a366572732970f6fe47c76f97bb53f763038560405161081091815260200190565b60405180910390a35050505050565b60008061083760055442610d4390919063ffffffff16565b6001600160a01b0384166000908152600360209081526040808320546002909252822054929350909161086991610d43565b9050801580610876575081155b15610899575050506001600160a01b031660009081526004602052604090205490565b60006108a6858385610362565b6001600160a01b0386166000908152600460205260409020549091506103ad9082610cdd565b6108d4610ce9565b6001600160a01b0381166109395760405162461bcd60e51b815260206004820152602660248201527f4f776e61626c653a206e6577206f776e657220697320746865207a65726f206160448201526564647265737360d01b60648201526084016103e0565b61094281610d4f565b50565b6006546001600160a01b0316331461096f5760405162461bcd60e51b81526004016103e090610f59565b8161097981610c27565b6109955760405162461bcd60e51b81526004016103e090610f9a565b61099d610c84565b600082116109bd5760405162461bcd60e51b81526004016103e090610fc7565b6109c683610585565b821115610a0c5760405162461bcd60e51b8152602060048201526014602482015273496e73756666696369656e742062616c616e636560601b60448201526064016103e0565b6001600160a01b038316600090815260036020526040902054610a2f9083610cdd565b6001600160a01b038416600081815260036020526040908190209290925590517f7084f5476618d8e60b11ef0d7d3f06914655adb8793e28ff7f018d4c76d505d5906104a99085815260200190565b6000610a9560055442610d4390919063ffffffff16565b9050610e10811015610ae95760405162461bcd60e51b815260206004820152601e60248201527f5969656c642063616c63756c6174696f6e20746f6f206672657175656e74000060448201526064016103e0565b6000610af3610da1565b905060005b8151811015610bff576000828281518110610b1557610b15610ffe565b6020908102919091018101516001600160a01b038116600090815260038352604080822054600290945281205491935091610b509190610d43565b90508015610bea576000610b65838388610362565b90508015610be8576001600160a01b038316600090815260046020526040902054610b909082610cdd565b6001600160a01b038416600081815260046020526040908190209290925590517f07616302615f148fb89acb6dadd27ccbeeaa18d4d6dbb193d2c046c94bb5a30390610bdf9084815260200190565b60405180910390a25b505b50508080610bf79061102a565b915050610af8565b50504260055550565b6000610c148284611043565b9392505050565b6000610c14828461105a565b60006001600160a01b0382167340a42baf86fc821f972ad2ac878729063ceef4031480610c7057506001600160a01b0382167396f3ce39ad2bfdcf92c0f6e2c2cabf83874660fc145b8061035c5750506001600160a01b03161590565b600260005403610cd65760405162461bcd60e51b815260206004820152601f60248201527f5265656e7472616e637947756172643a207265656e7472616e742063616c6c0060448201526064016103e0565b6002600055565b6000610c14828461107c565b6001546001600160a01b031633146106c25760405162461bcd60e51b815260206004820181905260248201527f4f776e61626c653a2063616c6c6572206973206e6f7420746865206f776e657260448201526064016103e0565b6000610c14828461108f565b600180546001600160a01b038381166001600160a01b0319831681179093556040519116919082907f8be0079c531659141344cd1fd0a4f28419497f9722a3daafe3b4186f6b6457e090600090a35050565b60408051600380825260808201909252606091600091906020820184803683370190505090507340a42baf86fc821f972ad2ac878729063ceef40381600081518110610def57610def610ffe565b60200260200101906001600160a01b031690816001600160a01b0316815250507396f3ce39ad2bfdcf92c0f6e2c2cabf83874660fc81600181518110610e3757610e37610ffe565b60200260200101906001600160a01b031690816001600160a01b031681525050600081600281518110610e6c57610e6c610ffe565b6001600160a01b0390921660209283029190910190910152919050565b80356001600160a01b0381168114610ea057600080fd5b919050565b600060208284031215610eb757600080fd5b610c1482610e89565b600080600060608486031215610ed557600080fd5b610ede84610e89565b95602085013595506040909401359392505050565b60008060408385031215610f0657600080fd5b610f0f83610e89565b946020939093013593505050565b600080600060608486031215610f3257600080fd5b610f3b84610e89565b9250610f4960208501610e89565b9150604084013590509250925092565b60208082526021908201527f4f6e6c79207661756c742063616e2063616c6c20746869732066756e6374696f6040820152603760f91b606082015260800190565b602080825260139082015272151bdad95b881b9bdd081cdd5c1c1bdc9d1959606a1b604082015260600190565b6020808252601d908201527f416d6f756e74206d7573742062652067726561746572207468616e2030000000604082015260600190565b634e487b7160e01b600052603260045260246000fd5b634e487b7160e01b600052601160045260246000fd5b60006001820161103c5761103c611014565b5060010190565b808202811582820484141761035c5761035c611014565b60008261107757634e487b7160e01b600052601260045260246000fd5b500490565b8082018082111561035c5761035c611014565b8181038181111561035c5761035c61101456fea26469706673582212209980eb12b6d14b7f2b99d2fb58c2f10b52f348eeadf153423255ee15b6cdd13764736f6c63430008130033",
  "linkReferences": {},
  "deployedLinkReferences": {}
}