{
  "_format": "hh-sol-artifact-1",
  "contractName": "TokenConfig",
  "sourceName": "contracts/libraries/TokenConfig.sol",
  "abi": [
    {
      "inputs": [],
      "name": "CELO_ADDRESS",
      "outputs": [
        {
          "internalType": "address",
          "name": "",
          "type": "address"
        }
      ],
      "stateMutability": "view",
      "type": "function"
    },
    {
      "inputs": [],
      "name": "CUSD_ADDRESS",
      "outputs": [
        {
          "internalType": "address",
          "name": "",
          "type": "address"
        }
      ],
      "stateMutability": "view",
      "type": "function"
    },
    {
      "inputs": [],
      "name": "USDC_ADDRESS",
      "outputs": [
        {
          "internalType": "address",
          "name": "",
          "type": "address"
        }
      ],
      "stateMutability": "view",
      "type": "function"
    }
  ],
  "bytecode": "0x60d9610039600b82828239805160001a60731461002c57634e487b7160e01b600052600060045260246000fd5b30600052607381538281f3fe730000000000000000000000000000000000000000301460806040526004361060475760003560e01c80632a4b914214604c578063465c66e914606f578063bb09d9b7146089575b600080fd5b6053600081565b6040516001600160a01b03909116815260200160405180910390f35b60537340a42baf86fc821f972ad2ac878729063ceef40381565b60537396f3ce39ad2bfdcf92c0f6e2c2cabf83874660fc8156fea2646970667358221220dc0cffe86a3492fd45eead850691b296ff9aebc88007bb66d22291a265fec14a64736f6c63430008130033",
  "linkReferences": {},
  "deployedLinkReferences": {}
}