{
  "_format": "hh-sol-artifact-1",
  "contractName": "InterestModel",
  "sourceName": "contracts/InterestModel.sol",
  "abi": [
    {
      "anonymous": false,
      "inputs": [
        {
          "indexed": true,
          "internalType": "address",
          "name": "previousOwner",
          "type": "address"
        },
        {
          "indexed": true,
          "internalType": "address",
          "name": "newOwner",
          "type": "address"
        }
      ],
      "name": "OwnershipTransferred",
      "type": "event"
    },
    {
      "anonymous": false,
      "inputs": [
        {
          "indexed": true,
          "internalType": "address",
          "name": "token",
          "type": "address"
        },
        {
          "indexed": false,
          "internalType": "uint256",
          "name": "oldPremium",
          "type": "uint256"
        },
        {
          "indexed": false,
          "internalType": "uint256",
          "name": "newPremium",
          "type": "uint256"
        }
      ],
      "name": "RiskPremiumUpdated",
      "type": "event"
    },
    {
      "inputs": [],
      "name": "BASE_RATE",
      "outputs": [
        {
          "internalType": "uint256",
          "name": "",
          "type": "uint256"
        }
      ],
      "stateMutability": "view",
      "type": "function"
    },
    {
      "inputs": [],
      "name": "BLOCKS_PER_YEAR",
      "outputs": [
        {
          "internalType": "uint256",
          "name": "",
          "type": "uint256"
        }
      ],
      "stateMutability": "view",
      "type": "function"
    },
    {
      "inputs": [],
      "name": "MAX_RISK_PREMIUM",
      "outputs": [
        {
          "internalType": "uint256",
          "name": "",
          "type": "uint256"
        }
      ],
      "stateMutability": "view",
      "type": "function"
    },
    {
      "inputs": [],
      "name": "PRECISION",
      "outputs": [
        {
          "internalType": "uint256",
          "name": "",
          "type": "uint256"
        }
      ],
      "stateMutability": "view",
      "type": "function"
    },
    {
      "inputs": [
        {
          "internalType": "uint256",
          "name": "annualRate",
          "type": "uint256"
        }
      ],
      "name": "convertToPerBlockRate",
      "outputs": [
        {
          "internalType": "uint256",
          "name": "perBlockRate",
          "type": "uint256"
        }
      ],
      "stateMutability": "pure",
      "type": "function"
    },
    {
      "inputs": [
        {
          "internalType": "address",
          "name": "token",
          "type": "address"
        },
        {
          "internalType": "uint256",
          "name": "totalDeposits",
          "type": "uint256"
        },
        {
          "internalType": "uint256",
          "name": "totalBorrows",
          "type": "uint256"
        },
        {
          "internalType": "uint256",
          "name": "marketVolatility",
          "type": "uint256"
        },
        {
          "internalType": "uint256",
          "name": "poolLiquidity",
          "type": "uint256"
        },
        {
          "internalType": "uint256",
          "name": "priceDeviation",
          "type": "uint256"
        }
      ],
      "name": "getBorrowRate",
      "outputs": [
        {
          "internalType": "uint256",
          "name": "borrowRate",
          "type": "uint256"
        }
      ],
      "stateMutability": "view",
      "type": "function"
    },
    {
      "inputs": [
        {
          "internalType": "address",
          "name": "token",
          "type": "address"
        }
      ],
      "name": "getMaxBorrowRate",
      "outputs": [
        {
          "internalType": "uint256",
          "name": "maxRate",
          "type": "uint256"
        }
      ],
      "stateMutability": "view",
      "type": "function"
    },
    {
      "inputs": [
        {
          "internalType": "address",
          "name": "token",
          "type": "address"
        }
      ],
      "name": "getMinBorrowRate",
      "outputs": [
        {
          "internalType": "uint256",
          "name": "minRate",
          "type": "uint256"
        }
      ],
      "stateMutability": "view",
      "type": "function"
    },
    {
      "inputs": [
        {
          "internalType": "address",
          "name": "token",
          "type": "address"
        }
      ],
      "name": "getRiskPremium",
      "outputs": [
        {
          "internalType": "uint256",
          "name": "premium",
          "type": "uint256"
        }
      ],
      "stateMutability": "view",
      "type": "function"
    },
    {
      "inputs": [
        {
          "internalType": "address",
          "name": "token",
          "type": "address"
        },
        {
          "internalType": "uint256",
          "name": "totalDeposits",
          "type": "uint256"
        },
        {
          "internalType": "uint256",
          "name": "totalBorrows",
          "type": "uint256"
        },
        {
          "internalType": "uint256",
          "name": "reserveFactor",
          "type": "uint256"
        }
      ],
      "name": "getSupplyRate",
      "outputs": [
        {
          "internalType": "uint256",
          "name": "supplyRate",
          "type": "uint256"
        }
      ],
      "stateMutability": "view",
      "type": "function"
    },
    {
      "inputs": [
        {
          "internalType": "uint256",
          "name": "totalDeposits",
          "type": "uint256"
        },
        {
          "internalType": "uint256",
          "name": "totalBorrows",
          "type": "uint256"
        }
      ],
      "name": "getUtilizationRate",
      "outputs": [
        {
          "internalType": "uint256",
          "name": "utilizationRate",
          "type": "uint256"
        }
      ],
      "stateMutability": "pure",
      "type": "function"
    },
    {
      "inputs": [],
      "name": "owner",
      "outputs": [
        {
          "internalType": "address",
          "name": "",
          "type": "address"
        }
      ],
      "stateMutability": "view",
      "type": "function"
    },
    {
      "inputs": [],
      "name": "renounceOwnership",
      "outputs": [],
      "stateMutability": "nonpayable",
      "type": "function"
    },
    {
      "inputs": [
        {
          "internalType": "address",
          "name": "",
          "type": "address"
        }
      ],
      "name": "riskPremium",
      "outputs": [
        {
          "internalType": "uint256",
          "name": "",
          "type": "uint256"
        }
      ],
      "stateMutability": "view",
      "type": "function"
    },
    {
      "inputs": [
        {
          "internalType": "address",
          "name": "token",
          "type": "address"
        },
        {
          "internalType": "uint256",
          "name": "value",
          "type": "uint256"
        }
      ],
      "name": "setRiskPremium",
      "outputs": [],
      "stateMutability": "nonpayable",
      "type": "function"
    },
    {
      "inputs": [
        {
          "internalType": "address",
          "name": "newOwner",
          "type": "address"
        }
      ],
      "name": "transferOwnership",
      "outputs": [],
      "stateMutability": "nonpayable",
      "type": "function"
    }
  ],
  "bytecode": "0x608060405234801561001057600080fd5b5061001a3361001f565b61006f565b600080546001600160a01b038381166001600160a01b0319831681178455604051919092169283917f8be0079c531659141344cd1fd0a4f28419497f9722a3daafe3b4186f6b6457e09190a35050565b6109258061007e6000396000f3fe608060405234801561001057600080fd5b50600436106101005760003560e01c8063aaf5eb6811610097578063e8c1b35711610066578063e8c1b357146101f6578063f2fde38b1461021f578063f6abde3f14610232578063fd72a5a81461024157600080fd5b8063aaf5eb68146101b7578063bbf0a81b146101c6578063be56bb14146101d9578063d37db1d2146101ec57600080fd5b8063715018a6116100d3578063715018a61461016c5780638da5cb5b14610176578063a6d17f0514610191578063a9fd8d40146101a457600080fd5b80632cee99b61461010557806341910f901461013857806345ade051146101465780635ea365aa14610159575b600080fd5b610125610113366004610777565b60016020526000908152604090205481565b6040519081526020015b60405180910390f35b61012566470de4df82000081565b610125610154366004610792565b610254565b6101256101673660046107b4565b61028c565b61017461029b565b005b6000546040516001600160a01b03909116815260200161012f565b61012561019f366004610777565b6102af565b6101746101b23660046107cd565b6102d9565b610125670de0b6b3a764000081565b6101256101d43660046107f7565b610397565b6101256101e7366004610830565b61047a565b61012562603d8081565b610125610204366004610777565b6001600160a01b031660009081526001602052604090205490565b61017461022d366004610777565b610497565b6101256706f05b59d3b2000081565b61012561024f366004610777565b610510565b60008260000361026657506000610286565b82610279670de0b6b3a764000084610890565b61028391906108a7565b90505b92915050565b600061028662603d80836108a7565b6102a361057f565b6102ad60006105d9565b565b6001600160a01b0381166000908152600160205260408120546102869066470de4df8200006108c9565b6102e161057f565b806706f05b59d3b200008111156103375760405162461bcd60e51b81526020600482015260156024820152740a4d2e6d640e0e4cadad2eada40e8dede40d0d2ced605b1b60448201526064015b60405180910390fd5b6001600160a01b038316600081815260016020908152604091829020805490869055825181815291820186905292917f4c9435692f0d547b30f5d3fb1d253c03237b4a20237b87e37dba8a6903580f02910160405180910390a250505050565b6000836000036103a957506000610472565b670de0b6b3a76400008211156104015760405162461bcd60e51b815260206004820152601760248201527f5265736572766520666163746f7220746f6f2068696768000000000000000000604482015260640161032e565b600061041b8686866000670de0b6b3a76400006000610629565b905060006104298686610254565b905061043d670de0b6b3a764000080610890565b61044f85670de0b6b3a76400006108dc565b6104598385610890565b6104639190610890565b61046d91906108a7565b925050505b949350505050565b600061048a878787878787610629565b90505b9695505050505050565b61049f61057f565b6001600160a01b0381166105045760405162461bcd60e51b815260206004820152602660248201527f4f776e61626c653a206e6577206f776e657220697320746865207a65726f206160448201526564647265737360d01b606482015260840161032e565b61050d816105d9565b50565b6001600160a01b03811660009081526001602052604081205461054266470de4df82000067011c37937e0800006108c9565b6105539066071afd498d00006108c9565b6105649066038d7ea4c680006108c9565b61057590660aa87bee5380006108c9565b61028691906108c9565b6000546001600160a01b031633146102ad5760405162461bcd60e51b815260206004820181905260248201527f4f776e61626c653a2063616c6c6572206973206e6f7420746865206f776e6572604482015260640161032e565b600080546001600160a01b038381166001600160a01b0319831681178455604051919092169283917f8be0079c531659141344cd1fd0a4f28419497f9722a3daafe3b4186f6b6457e09190a35050565b600085600003610664576001600160a01b03871660009081526001602052604090205461065d9066470de4df8200006108c9565b905061048d565b60006106708787610254565b66470de4df82000092509050670de0b6b3a76400006106978267011c37937e080000610890565b6106a191906108a7565b6106ab90836108c9565b9150670de0b6b3a76400006106c78666071afd498d0000610890565b6106d191906108a7565b6106db90836108c9565b9150670de0b6b3a76400006106f78466038d7ea4c68000610890565b61070191906108a7565b61070b90836108c9565b9150620f424084101561072c57610729660aa87bee538000836108c9565b91505b6001600160a01b03881660009081526001602052604090205461074f90836108c9565b98975050505050505050565b80356001600160a01b038116811461077257600080fd5b919050565b60006020828403121561078957600080fd5b6102838261075b565b600080604083850312156107a557600080fd5b50508035926020909101359150565b6000602082840312156107c657600080fd5b5035919050565b600080604083850312156107e057600080fd5b6107e98361075b565b946020939093013593505050565b6000806000806080858703121561080d57600080fd5b6108168561075b565b966020860135965060408601359560600135945092505050565b60008060008060008060c0878903121561084957600080fd5b6108528761075b565b9860208801359850604088013597606081013597506080810135965060a00135945092505050565b634e487b7160e01b600052601160045260246000fd5b80820281158282048414176102865761028661087a565b6000826108c457634e487b7160e01b600052601260045260246000fd5b500490565b808201808211156102865761028661087a565b818103818111156102865761028661087a56fea2646970667358221220d994492f859eb54efa734ce45bc83d78ffb351936079534b9c82dddff375812c64736f6c63430008130033",
  "linkReferences": {},
  "deployedLinkReferences": {}
}