{
  "_format": "hh-sol-artifact-1",
  "contractName": "MockERC20",
  "sourceName": "contracts/mocks/MockERC20.sol",
  "abi": [
    {
      "inputs": [
        {
          "internalType": "string",
          "name": "name_",
          "type": "string"
        },
        {
          "internalType": "string",
          "name": "symbol_",
          "type": "string"
        },
        {
          "internalType": "uint8",
          "name": "decimals_",
          "type": "uint8"
        },
        {
          "internalType": "uint256",
          "name": "initialSupply_",
          "type": "uint256"
        }
      ],
      "stateMutability": "nonpayable",
      "type": "constructor"
    },
    {
      "anonymous": false,
      "inputs": [
        {
          "indexed": true,
          "internalType": "address",
          "name": "owner",
          "type": "address"
        },
        {
          "indexed": true,
          "internalType": "address",
          "name": "spender",
          "type": "address"
        },
        {
          "indexed": false,
          "internalType": "uint256",
          "name": "value",
          "type": "uint256"
        }
      ],
      "name": "Approval",
      "type": "event"
    },
    {
      "anonymous": false,
      "inputs": [
        {
          "indexed": true,
          "internalType": "address",
          "name": "previousOwner",
          "type": "address"
        },
        {
          "indexed": true,
          "internalType": "address",
          "name": "newOwner",
          "type": "address"
        }
      ],
      "name": "OwnershipTransferred",
      "type": "event"
    },
    {
      "anonymous": false,
      "inputs": [
        {
          "indexed": true,
          "internalType": "address",
          "name": "from",
          "type": "address"
        },
        {
          "indexed": true,
          "internalType": "address",
          "name": "to",
          "type": "address"
        },
        {
          "indexed": false,
          "internalType": "uint256",
          "name": "value",
          "type": "uint256"
        }
      ],
      "name": "Transfer",
      "type": "event"
    },
    {
      "inputs": [
        {
          "internalType": "address",
          "name": "owner",
          "type": "address"
        },
        {
          "internalType": "address",
          "name": "spender",
          "type": "address"
        }
      ],
      "name": "allowance",
      "outputs": [
        {
          "internalType": "uint256",
          "name": "",
          "type": "uint256"
        }
      ],
      "stateMutability": "view",
      "type": "function"
    },
    {
      "inputs": [
        {
          "internalType": "address",
          "name": "spender",
          "type": "address"
        },
        {
          "internalType": "uint256",
          "name": "amount",
          "type": "uint256"
        }
      ],
      "name": "approve",
      "outputs": [
        {
          "internalType": "bool",
          "name": "",
          "type": "bool"
        }
      ],
      "stateMutability": "nonpayable",
      "type": "function"
    },
    {
      "inputs": [
        {
          "internalType": "address",
          "name": "account",
          "type": "address"
        }
      ],
      "name": "balanceOf",
      "outputs": [
        {
          "internalType": "uint256",
          "name": "",
          "type": "uint256"
        }
      ],
      "stateMutability": "view",
      "type": "function"
    },
    {
      "inputs": [
        {
          "internalType": "uint256",
          "name": "amount",
          "type": "uint256"
        }
      ],
      "name": "burn",
      "outputs": [],
      "stateMutability": "nonpayable",
      "type": "function"
    },
    {
      "inputs": [],
      "name": "decimals",
      "outputs": [
        {
          "internalType": "uint8",
          "name": "",
          "type": "uint8"
        }
      ],
      "stateMutability": "view",
      "type": "function"
    },
    {
      "inputs": [
        {
          "internalType": "address",
          "name": "spender",
          "type": "address"
        },
        {
          "internalType": "uint256",
          "name": "subtractedValue",
          "type": "uint256"
        }
      ],
      "name": "decreaseAllowance",
      "outputs": [
        {
          "internalType": "bool",
          "name": "",
          "type": "bool"
        }
      ],
      "stateMutability": "nonpayable",
      "type": "function"
    },
    {
      "inputs": [
        {
          "internalType": "address",
          "name": "spender",
          "type": "address"
        },
        {
          "internalType": "uint256",
          "name": "addedValue",
          "type": "uint256"
        }
      ],
      "name": "increaseAllowance",
      "outputs": [
        {
          "internalType": "bool",
          "name": "",
          "type": "bool"
        }
      ],
      "stateMutability": "nonpayable",
      "type": "function"
    },
    {
      "inputs": [
        {
          "internalType": "address",
          "name": "to",
          "type": "address"
        },
        {
          "internalType": "uint256",
          "name": "amount",
          "type": "uint256"
        }
      ],
      "name": "mint",
      "outputs": [],
      "stateMutability": "nonpayable",
      "type": "function"
    },
    {
      "inputs": [
        {
          "internalType": "address[]",
          "name": "recipients",
          "type": "address[]"
        },
        {
          "internalType": "uint256[]",
          "name": "amounts",
          "type": "uint256[]"
        }
      ],
      "name": "mintBatch",
      "outputs": [],
      "stateMutability": "nonpayable",
      "type": "function"
    },
    {
      "inputs": [],
      "name": "name",
      "outputs": [
        {
          "internalType": "string",
          "name": "",
          "type": "string"
        }
      ],
      "stateMutability": "view",
      "type": "function"
    },
    {
      "inputs": [],
      "name": "owner",
      "outputs": [
        {
          "internalType": "address",
          "name": "",
          "type": "address"
        }
      ],
      "stateMutability": "view",
      "type": "function"
    },
    {
      "inputs": [],
      "name": "renounceOwnership",
      "outputs": [],
      "stateMutability": "nonpayable",
      "type": "function"
    },
    {
      "inputs": [],
      "name": "symbol",
      "outputs": [
        {
          "internalType": "string",
          "name": "",
          "type": "string"
        }
      ],
      "stateMutability": "view",
      "type": "function"
    },
    {
      "inputs": [],
      "name": "totalSupply",
      "outputs": [
        {
          "internalType": "uint256",
          "name": "",
          "type": "uint256"
        }
      ],
      "stateMutability": "view",
      "type": "function"
    },
    {
      "inputs": [
        {
          "internalType": "address",
          "name": "to",
          "type": "address"
        },
        {
          "internalType": "uint256",
          "name": "amount",
          "type": "uint256"
        }
      ],
      "name": "transfer",
      "outputs": [
        {
          "internalType": "bool",
          "name": "",
          "type": "bool"
        }
      ],
      "stateMutability": "nonpayable",
      "type": "function"
    },
    {
      "inputs": [
        {
          "internalType": "address",
          "name": "from",
          "type": "address"
        },
        {
          "internalType": "address",
          "name": "to",
          "type": "address"
        },
        {
          "internalType": "uint256",
          "name": "amount",
          "type": "uint256"
        }
      ],
      "name": "transferFrom",
      "outputs": [
        {
          "internalType": "bool",
          "name": "",
          "type": "bool"
        }
      ],
      "stateMutability": "nonpayable",
      "type": "function"
    },
    {
      "inputs": [
        {
          "internalType": "address",
          "name": "newOwner",
          "type": "address"
        }
      ],
      "name": "transferOwnership",
      "outputs": [],
      "stateMutability": "nonpayable",
      "type": "function"
    }
  ],
  "bytecode": "0x60806040523480156200001157600080fd5b50604051620013093803806200130983398101604081905262000034916200028b565b83836003620000448382620003a4565b506004620000538282620003a4565b505050620000706200006a620000a560201b60201c565b620000a9565b6005805460ff60a01b1916600160a01b60ff85160217905580156200009b576200009b3382620000fb565b5050505062000498565b3390565b600580546001600160a01b038381166001600160a01b0319831681179093556040519116919082907f8be0079c531659141344cd1fd0a4f28419497f9722a3daafe3b4186f6b6457e090600090a35050565b6001600160a01b038216620001565760405162461bcd60e51b815260206004820152601f60248201527f45524332303a206d696e7420746f20746865207a65726f206164647265737300604482015260640160405180910390fd5b80600260008282546200016a919062000470565b90915550506001600160a01b038216600081815260208181526040808320805486019055518481527fddf252ad1be2c89b69c2b068fc378daa952ba7f163c4a11628f55a4df523b3ef910160405180910390a35050565b505050565b634e487b7160e01b600052604160045260246000fd5b600082601f830112620001ee57600080fd5b81516001600160401b03808211156200020b576200020b620001c6565b604051601f8301601f19908116603f01168101908282118183101715620002365762000236620001c6565b816040528381526020925086838588010111156200025357600080fd5b600091505b8382101562000277578582018301518183018401529082019062000258565b600093810190920192909252949350505050565b60008060008060808587031215620002a257600080fd5b84516001600160401b0380821115620002ba57600080fd5b620002c888838901620001dc565b95506020870151915080821115620002df57600080fd5b50620002ee87828801620001dc565b935050604085015160ff811681146200030657600080fd5b6060959095015193969295505050565b600181811c908216806200032b57607f821691505b6020821081036200034c57634e487b7160e01b600052602260045260246000fd5b50919050565b601f821115620001c157600081815260208120601f850160051c810160208610156200037b5750805b601f850160051c820191505b818110156200039c5782815560010162000387565b505050505050565b81516001600160401b03811115620003c057620003c0620001c6565b620003d881620003d1845462000316565b8462000352565b602080601f831160018114620004105760008415620003f75750858301515b600019600386901b1c1916600185901b1785556200039c565b600085815260208120601f198616915b82811015620004415788860151825594840194600190910190840162000420565b5085821015620004605787850151600019600388901b60f8161c191681555b5050505050600190811b01905550565b808201808211156200049257634e487b7160e01b600052601160045260246000fd5b92915050565b610e6180620004a86000396000f3fe608060405234801561001057600080fd5b506004361061010b5760003560e01c806370a08231116100a257806395d89b411161007157806395d89b4114610233578063a457c2d71461023b578063a9059cbb1461024e578063dd62ed3e14610261578063f2fde38b1461027457600080fd5b806370a08231146101d4578063715018a6146101fd5780637c88e3d9146102055780638da5cb5b1461021857600080fd5b8063313ce567116100de578063313ce5671461017a578063395093511461019957806340c10f19146101ac57806342966c68146101c157600080fd5b806306fdde0314610110578063095ea7b31461012e57806318160ddd1461015157806323b872dd14610167575b600080fd5b610118610287565b6040516101259190610ba3565b60405180910390f35b61014161013c366004610c0d565b610319565b6040519015158152602001610125565b610159610333565b604051908152602001610125565b610141610175366004610c37565b610343565b600554600160a01b900460ff1660405160ff9091168152602001610125565b6101416101a7366004610c0d565b610367565b6101bf6101ba366004610c0d565b610389565b005b6101bf6101cf366004610c73565b61039f565b6101596101e2366004610c8c565b6001600160a01b031660009081526020819052604090205490565b6101bf6103ac565b6101bf610213366004610cfa565b6103c0565b6005546040516001600160a01b039091168152602001610125565b610118610492565b610141610249366004610c0d565b6104a1565b61014161025c366004610c0d565b61051c565b61015961026f366004610d66565b61052a565b6101bf610282366004610c8c565b610555565b60606003805461029690610d99565b80601f01602080910402602001604051908101604052809291908181526020018280546102c290610d99565b801561030f5780601f106102e45761010080835404028352916020019161030f565b820191906000526020600020905b8154815290600101906020018083116102f257829003601f168201915b5050505050905090565b6000336103278185856105cb565b60019150505b92915050565b600061033e60025490565b905090565b6000336103518582856106f0565b61035c85858561076a565b506001949350505050565b60003361032781858561037a838361052a565b6103849190610de9565b6105cb565b61039161090e565b61039b8282610968565b5050565b6103a93382610a27565b50565b6103b461090e565b6103be6000610b51565b565b6103c861090e565b8281146104265760405162461bcd60e51b815260206004820152602160248201527f4d6f636b45524332303a20617272617973206c656e677468206d69736d6174636044820152600d60fb1b60648201526084015b60405180910390fd5b60005b8381101561048b5761047985858381811061044657610446610dfc565b905060200201602081019061045b9190610c8c565b84848481811061046d5761046d610dfc565b90506020020135610968565b8061048381610e12565b915050610429565b5050505050565b60606004805461029690610d99565b600033816104af828661052a565b90508381101561050f5760405162461bcd60e51b815260206004820152602560248201527f45524332303a2064656372656173656420616c6c6f77616e63652062656c6f77604482015264207a65726f60d81b606482015260840161041d565b61035c82868684036105cb565b60003361032781858561076a565b6001600160a01b03918216600090815260016020908152604080832093909416825291909152205490565b61055d61090e565b6001600160a01b0381166105c25760405162461bcd60e51b815260206004820152602660248201527f4f776e61626c653a206e6577206f776e657220697320746865207a65726f206160448201526564647265737360d01b606482015260840161041d565b6103a981610b51565b6001600160a01b03831661062d5760405162461bcd60e51b8152602060048201526024808201527f45524332303a20617070726f76652066726f6d20746865207a65726f206164646044820152637265737360e01b606482015260840161041d565b6001600160a01b03821661068e5760405162461bcd60e51b815260206004820152602260248201527f45524332303a20617070726f766520746f20746865207a65726f206164647265604482015261737360f01b606482015260840161041d565b6001600160a01b0383811660008181526001602090815260408083209487168084529482529182902085905590518481527f8c5be1e5ebec7d5bd14f71427d1e84f3dd0314c0f7b2291e5b200ac8c7c3b92591015b60405180910390a3505050565b60006106fc848461052a565b9050600019811461076457818110156107575760405162461bcd60e51b815260206004820152601d60248201527f45524332303a20696e73756666696369656e7420616c6c6f77616e6365000000604482015260640161041d565b61076484848484036105cb565b50505050565b6001600160a01b0383166107ce5760405162461bcd60e51b815260206004820152602560248201527f45524332303a207472616e736665722066726f6d20746865207a65726f206164604482015264647265737360d81b606482015260840161041d565b6001600160a01b0382166108305760405162461bcd60e51b815260206004820152602360248201527f45524332303a207472616e7366657220746f20746865207a65726f206164647260448201526265737360e81b606482015260840161041d565b6001600160a01b038316600090815260208190526040902054818110156108a85760405162461bcd60e51b815260206004820152602660248201527f45524332303a207472616e7366657220616d6f756e7420657863656564732062604482015265616c616e636560d01b606482015260840161041d565b6001600160a01b03848116600081815260208181526040808320878703905593871680835291849020805487019055925185815290927fddf252ad1be2c89b69c2b068fc378daa952ba7f163c4a11628f55a4df523b3ef910160405180910390a3610764565b6005546001600160a01b031633146103be5760405162461bcd60e51b815260206004820181905260248201527f4f776e61626c653a2063616c6c6572206973206e6f7420746865206f776e6572604482015260640161041d565b6001600160a01b0382166109be5760405162461bcd60e51b815260206004820152601f60248201527f45524332303a206d696e7420746f20746865207a65726f206164647265737300604482015260640161041d565b80600260008282546109d09190610de9565b90915550506001600160a01b038216600081815260208181526040808320805486019055518481527fddf252ad1be2c89b69c2b068fc378daa952ba7f163c4a11628f55a4df523b3ef910160405180910390a35050565b6001600160a01b038216610a875760405162461bcd60e51b815260206004820152602160248201527f45524332303a206275726e2066726f6d20746865207a65726f206164647265736044820152607360f81b606482015260840161041d565b6001600160a01b03821660009081526020819052604090205481811015610afb5760405162461bcd60e51b815260206004820152602260248201527f45524332303a206275726e20616d6f756e7420657863656564732062616c616e604482015261636560f01b606482015260840161041d565b6001600160a01b0383166000818152602081815260408083208686039055600280548790039055518581529192917fddf252ad1be2c89b69c2b068fc378daa952ba7f163c4a11628f55a4df523b3ef91016106e3565b600580546001600160a01b038381166001600160a01b0319831681179093556040519116919082907f8be0079c531659141344cd1fd0a4f28419497f9722a3daafe3b4186f6b6457e090600090a35050565b600060208083528351808285015260005b81811015610bd057858101830151858201604001528201610bb4565b506000604082860101526040601f19601f8301168501019250505092915050565b80356001600160a01b0381168114610c0857600080fd5b919050565b60008060408385031215610c2057600080fd5b610c2983610bf1565b946020939093013593505050565b600080600060608486031215610c4c57600080fd5b610c5584610bf1565b9250610c6360208501610bf1565b9150604084013590509250925092565b600060208284031215610c8557600080fd5b5035919050565b600060208284031215610c9e57600080fd5b610ca782610bf1565b9392505050565b60008083601f840112610cc057600080fd5b50813567ffffffffffffffff811115610cd857600080fd5b6020830191508360208260051b8501011115610cf357600080fd5b9250929050565b60008060008060408587031215610d1057600080fd5b843567ffffffffffffffff80821115610d2857600080fd5b610d3488838901610cae565b90965094506020870135915080821115610d4d57600080fd5b50610d5a87828801610cae565b95989497509550505050565b60008060408385031215610d7957600080fd5b610d8283610bf1565b9150610d9060208401610bf1565b90509250929050565b600181811c90821680610dad57607f821691505b602082108103610dcd57634e487b7160e01b600052602260045260246000fd5b50919050565b634e487b7160e01b600052601160045260246000fd5b8082018082111561032d5761032d610dd3565b634e487b7160e01b600052603260045260246000fd5b600060018201610e2457610e24610dd3565b506001019056fea26469706673582212207cc2d18a67ea9b6191453553cd226e02960e09f997486aa90cfad62168490a0e64736f6c63430008130033",
  "linkReferences": {},
  "deployedLinkReferences": {}
}