{
  "_format": "hh-sol-artifact-1",
  "contractName": "MultiTokenVault",
  "sourceName": "contracts/vault/MultiTokenVault.sol",
  "abi": [
    {
      "inputs": [
        {
          "internalType": "string",
          "name": "name",
          "type": "string"
        },
        {
          "internalType": "string",
          "name": "symbol",
          "type": "string"
        },
        {
          "internalType": "address",
          "name": "_strategy",
          "type": "address"
        }
      ],
      "stateMutability": "nonpayable",
      "type": "constructor"
    },
    {
      "anonymous": false,
      "inputs": [
        {
          "indexed": true,
          "internalType": "address",
          "name": "owner",
          "type": "address"
        },
        {
          "indexed": true,
          "internalType": "address",
          "name": "spender",
          "type": "address"
        },
        {
          "indexed": false,
          "internalType": "uint256",
          "name": "value",
          "type": "uint256"
        }
      ],
      "name": "Approval",
      "type": "event"
    },
    {
      "anonymous": false,
      "inputs": [
        {
          "indexed": true,
          "internalType": "address",
          "name": "user",
          "type": "address"
        },
        {
          "indexed": true,
          "internalType": "address",
          "name": "token",
          "type": "address"
        },
        {
          "indexed": false,
          "internalType": "uint256",
          "name": "amount",
          "type": "uint256"
        },
        {
          "indexed": false,
          "internalType": "uint256",
          "name": "shares",
          "type": "uint256"
        }
      ],
      "name": "Deposit",
      "type": "event"
    },
    {
      "anonymous": false,
      "inputs": [
        {
          "indexed": true,
          "internalType": "address",
          "name": "user",
          "type": "address"
        },
        {
          "indexed": true,
          "internalType": "address",
          "name": "token",
          "type": "address"
        },
        {
          "indexed": false,
          "internalType": "uint256",
          "name": "amount",
          "type": "uint256"
        }
      ],
      "name": "EmergencyWithdraw",
      "type": "event"
    },
    {
      "anonymous": false,
      "inputs": [
        {
          "indexed": true,
          "internalType": "address",
          "name": "previousOwner",
          "type": "address"
        },
        {
          "indexed": true,
          "internalType": "address",
          "name": "newOwner",
          "type": "address"
        }
      ],
      "name": "OwnershipTransferred",
      "type": "event"
    },
    {
      "anonymous": false,
      "inputs": [
        {
          "indexed": false,
          "internalType": "address",
          "name": "account",
          "type": "address"
        }
      ],
      "name": "Paused",
      "type": "event"
    },
    {
      "anonymous": false,
      "inputs": [
        {
          "indexed": true,
          "internalType": "address",
          "name": "oldStrategy",
          "type": "address"
        },
        {
          "indexed": true,
          "internalType": "address",
          "name": "newStrategy",
          "type": "address"
        }
      ],
      "name": "StrategyUpdated",
      "type": "event"
    },
    {
      "anonymous": false,
      "inputs": [
        {
          "indexed": true,
          "internalType": "address",
          "name": "token",
          "type": "address"
        },
        {
          "indexed": false,
          "internalType": "bool",
          "name": "isWhitelisted",
          "type": "bool"
        }
      ],
      "name": "TokenWhitelisted",
      "type": "event"
    },
    {
      "anonymous": false,
      "inputs": [
        {
          "indexed": true,
          "internalType": "address",
          "name": "from",
          "type": "address"
        },
        {
          "indexed": true,
          "internalType": "address",
          "name": "to",
          "type": "address"
        },
        {
          "indexed": false,
          "internalType": "uint256",
          "name": "value",
          "type": "uint256"
        }
      ],
      "name": "Transfer",
      "type": "event"
    },
    {
      "anonymous": false,
      "inputs": [
        {
          "indexed": false,
          "internalType": "address",
          "name": "account",
          "type": "address"
        }
      ],
      "name": "Unpaused",
      "type": "event"
    },
    {
      "anonymous": false,
      "inputs": [
        {
          "indexed": true,
          "internalType": "address",
          "name": "user",
          "type": "address"
        },
        {
          "indexed": true,
          "internalType": "address",
          "name": "token",
          "type": "address"
        },
        {
          "indexed": false,
          "internalType": "uint256",
          "name": "shares",
          "type": "uint256"
        },
        {
          "indexed": false,
          "internalType": "uint256",
          "name": "amount",
          "type": "uint256"
        }
      ],
      "name": "Withdraw",
      "type": "event"
    },
    {
      "inputs": [],
      "name": "MAX_FEE",
      "outputs": [
        {
          "internalType": "uint256",
          "name": "",
          "type": "uint256"
        }
      ],
      "stateMutability": "view",
      "type": "function"
    },
    {
      "inputs": [
        {
          "internalType": "address",
          "name": "owner",
          "type": "address"
        },
        {
          "internalType": "address",
          "name": "spender",
          "type": "address"
        }
      ],
      "name": "allowance",
      "outputs": [
        {
          "internalType": "uint256",
          "name": "",
          "type": "uint256"
        }
      ],
      "stateMutability": "view",
      "type": "function"
    },
    {
      "inputs": [
        {
          "internalType": "address",
          "name": "spender",
          "type": "address"
        },
        {
          "internalType": "uint256",
          "name": "amount",
          "type": "uint256"
        }
      ],
      "name": "approve",
      "outputs": [
        {
          "internalType": "bool",
          "name": "",
          "type": "bool"
        }
      ],
      "stateMutability": "nonpayable",
      "type": "function"
    },
    {
      "inputs": [
        {
          "internalType": "address",
          "name": "account",
          "type": "address"
        }
      ],
      "name": "balanceOf",
      "outputs": [
        {
          "internalType": "uint256",
          "name": "",
          "type": "uint256"
        }
      ],
      "stateMutability": "view",
      "type": "function"
    },
    {
      "inputs": [
        {
          "internalType": "address",
          "name": "token",
          "type": "address"
        },
        {
          "internalType": "uint256",
          "name": "shares",
          "type": "uint256"
        }
      ],
      "name": "convertToAssets",
      "outputs": [
        {
          "internalType": "uint256",
          "name": "",
          "type": "uint256"
        }
      ],
      "stateMutability": "view",
      "type": "function"
    },
    {
      "inputs": [
        {
          "internalType": "address",
          "name": "token",
          "type": "address"
        },
        {
          "internalType": "uint256",
          "name": "assets",
          "type": "uint256"
        }
      ],
      "name": "convertToShares",
      "outputs": [
        {
          "internalType": "uint256",
          "name": "",
          "type": "uint256"
        }
      ],
      "stateMutability": "view",
      "type": "function"
    },
    {
      "inputs": [],
      "name": "decimals",
      "outputs": [
        {
          "internalType": "uint8",
          "name": "",
          "type": "uint8"
        }
      ],
      "stateMutability": "view",
      "type": "function"
    },
    {
      "inputs": [
        {
          "internalType": "address",
          "name": "spender",
          "type": "address"
        },
        {
          "internalType": "uint256",
          "name": "subtractedValue",
          "type": "uint256"
        }
      ],
      "name": "decreaseAllowance",
      "outputs": [
        {
          "internalType": "bool",
          "name": "",
          "type": "bool"
        }
      ],
      "stateMutability": "nonpayable",
      "type": "function"
    },
    {
      "inputs": [
        {
          "internalType": "address",
          "name": "token",
          "type": "address"
        },
        {
          "internalType": "uint256",
          "name": "amount",
          "type": "uint256"
        }
      ],
      "name": "deposit",
      "outputs": [],
      "stateMutability": "payable",
      "type": "function"
    },
    {
      "inputs": [],
      "name": "depositFee",
      "outputs": [
        {
          "internalType": "uint256",
          "name": "",
          "type": "uint256"
        }
      ],
      "stateMutability": "view",
      "type": "function"
    },
    {
      "inputs": [
        {
          "internalType": "address",
          "name": "token",
          "type": "address"
        },
        {
          "internalType": "uint256",
          "name": "amount",
          "type": "uint256"
        }
      ],
      "name": "emergencyWithdraw",
      "outputs": [],
      "stateMutability": "nonpayable",
      "type": "function"
    },
    {
      "inputs": [
        {
          "internalType": "address",
          "name": "token",
          "type": "address"
        }
      ],
      "name": "getAPY",
      "outputs": [
        {
          "internalType": "uint256",
          "name": "",
          "type": "uint256"
        }
      ],
      "stateMutability": "view",
      "type": "function"
    },
    {
      "inputs": [
        {
          "internalType": "address",
          "name": "spender",
          "type": "address"
        },
        {
          "internalType": "uint256",
          "name": "addedValue",
          "type": "uint256"
        }
      ],
      "name": "increaseAllowance",
      "outputs": [
        {
          "internalType": "bool",
          "name": "",
          "type": "bool"
        }
      ],
      "stateMutability": "nonpayable",
      "type": "function"
    },
    {
      "inputs": [],
      "name": "name",
      "outputs": [
        {
          "internalType": "string",
          "name": "",
          "type": "string"
        }
      ],
      "stateMutability": "view",
      "type": "function"
    },
    {
      "inputs": [],
      "name": "owner",
      "outputs": [
        {
          "internalType": "address",
          "name": "",
          "type": "address"
        }
      ],
      "stateMutability": "view",
      "type": "function"
    },
    {
      "inputs": [],
      "name": "pause",
      "outputs": [],
      "stateMutability": "nonpayable",
      "type": "function"
    },
    {
      "inputs": [],
      "name": "paused",
      "outputs": [
        {
          "internalType": "bool",
          "name": "",
          "type": "bool"
        }
      ],
      "stateMutability": "view",
      "type": "function"
    },
    {
      "inputs": [],
      "name": "performanceFee",
      "outputs": [
        {
          "internalType": "uint256",
          "name": "",
          "type": "uint256"
        }
      ],
      "stateMutability": "view",
      "type": "function"
    },
    {
      "inputs": [],
      "name": "renounceOwnership",
      "outputs": [],
      "stateMutability": "nonpayable",
      "type": "function"
    },
    {
      "inputs": [
        {
          "internalType": "uint256",
          "name": "_depositFee",
          "type": "uint256"
        },
        {
          "internalType": "uint256",
          "name": "_withdrawalFee",
          "type": "uint256"
        },
        {
          "internalType": "uint256",
          "name": "_performanceFee",
          "type": "uint256"
        }
      ],
      "name": "setFees",
      "outputs": [],
      "stateMutability": "nonpayable",
      "type": "function"
    },
    {
      "inputs": [
        {
          "internalType": "address",
          "name": "token",
          "type": "address"
        },
        {
          "internalType": "bool",
          "name": "isWhitelisted",
          "type": "bool"
        }
      ],
      "name": "setTokenWhitelist",
      "outputs": [],
      "stateMutability": "nonpayable",
      "type": "function"
    },
    {
      "inputs": [],
      "name": "strategy",
      "outputs": [
        {
          "internalType": "address",
          "name": "",
          "type": "address"
        }
      ],
      "stateMutability": "view",
      "type": "function"
    },
    {
      "inputs": [],
      "name": "symbol",
      "outputs": [
        {
          "internalType": "string",
          "name": "",
          "type": "string"
        }
      ],
      "stateMutability": "view",
      "type": "function"
    },
    {
      "inputs": [
        {
          "internalType": "address",
          "name": "token",
          "type": "address"
        }
      ],
      "name": "totalAssets",
      "outputs": [
        {
          "internalType": "uint256",
          "name": "",
          "type": "uint256"
        }
      ],
      "stateMutability": "view",
      "type": "function"
    },
    {
      "inputs": [
        {
          "internalType": "address",
          "name": "token",
          "type": "address"
        }
      ],
      "name": "totalShares",
      "outputs": [
        {
          "internalType": "uint256",
          "name": "",
          "type": "uint256"
        }
      ],
      "stateMutability": "view",
      "type": "function"
    },
    {
      "inputs": [],
      "name": "totalSupply",
      "outputs": [
        {
          "internalType": "uint256",
          "name": "",
          "type": "uint256"
        }
      ],
      "stateMutability": "view",
      "type": "function"
    },
    {
      "inputs": [
        {
          "internalType": "address",
          "name": "",
          "type": "address"
        }
      ],
      "name": "totalTokenAssets",
      "outputs": [
        {
          "internalType": "uint256",
          "name": "",
          "type": "uint256"
        }
      ],
      "stateMutability": "view",
      "type": "function"
    },
    {
      "inputs": [
        {
          "internalType": "address",
          "name": "",
          "type": "address"
        }
      ],
      "name": "totalTokenShares",
      "outputs": [
        {
          "internalType": "uint256",
          "name": "",
          "type": "uint256"
        }
      ],
      "stateMutability": "view",
      "type": "function"
    },
    {
      "inputs": [
        {
          "internalType": "address",
          "name": "to",
          "type": "address"
        },
        {
          "internalType": "uint256",
          "name": "amount",
          "type": "uint256"
        }
      ],
      "name": "transfer",
      "outputs": [
        {
          "internalType": "bool",
          "name": "",
          "type": "bool"
        }
      ],
      "stateMutability": "nonpayable",
      "type": "function"
    },
    {
      "inputs": [
        {
          "internalType": "address",
          "name": "from",
          "type": "address"
        },
        {
          "internalType": "address",
          "name": "to",
          "type": "address"
        },
        {
          "internalType": "uint256",
          "name": "amount",
          "type": "uint256"
        }
      ],
      "name": "transferFrom",
      "outputs": [
        {
          "internalType": "bool",
          "name": "",
          "type": "bool"
        }
      ],
      "stateMutability": "nonpayable",
      "type": "function"
    },
    {
      "inputs": [
        {
          "internalType": "address",
          "name": "newOwner",
          "type": "address"
        }
      ],
      "name": "transferOwnership",
      "outputs": [],
      "stateMutability": "nonpayable",
      "type": "function"
    },
    {
      "inputs": [],
      "name": "unpause",
      "outputs": [],
      "stateMutability": "nonpayable",
      "type": "function"
    },
    {
      "inputs": [
        {
          "internalType": "address",
          "name": "newStrategy",
          "type": "address"
        }
      ],
      "name": "updateStrategy",
      "outputs": [],
      "stateMutability": "nonpayable",
      "type": "function"
    },
    {
      "inputs": [
        {
          "internalType": "address",
          "name": "user",
          "type": "address"
        },
        {
          "internalType": "address",
          "name": "token",
          "type": "address"
        }
      ],
      "name": "userAssetBalance",
      "outputs": [
        {
          "internalType": "uint256",
          "name": "",
          "type": "uint256"
        }
      ],
      "stateMutability": "view",
      "type": "function"
    },
    {
      "inputs": [
        {
          "internalType": "address",
          "name": "",
          "type": "address"
        },
        {
          "internalType": "address",
          "name": "",
          "type": "address"
        }
      ],
      "name": "userTokenShares",
      "outputs": [
        {
          "internalType": "uint256",
          "name": "",
          "type": "uint256"
        }
      ],
      "stateMutability": "view",
      "type": "function"
    },
    {
      "inputs": [
        {
          "internalType": "address",
          "name": "user",
          "type": "address"
        },
        {
          "internalType": "address",
          "name": "token",
          "type": "address"
        }
      ],
      "name": "userTokenSharesBalance",
      "outputs": [
        {
          "internalType": "uint256",
          "name": "",
          "type": "uint256"
        }
      ],
      "stateMutability": "view",
      "type": "function"
    },
    {
      "inputs": [
        {
          "internalType": "address",
          "name": "",
          "type": "address"
        }
      ],
      "name": "whitelistedTokens",
      "outputs": [
        {
          "internalType": "bool",
          "name": "",
          "type": "bool"
        }
      ],
      "stateMutability": "view",
      "type": "function"
    },
    {
      "inputs": [
        {
          "internalType": "address",
          "name": "token",
          "type": "address"
        },
        {
          "internalType": "uint256",
          "name": "shares",
          "type": "uint256"
        }
      ],
      "name": "withdraw",
      "outputs": [],
      "stateMutability": "nonpayable",
      "type": "function"
    },
    {
      "inputs": [],
      "name": "withdrawalFee",
      "outputs": [
        {
          "internalType": "uint256",
          "name": "",
          "type": "uint256"
        }
      ],
      "stateMutability": "view",
      "type": "function"
    },
    {
      "stateMutability": "payable",
      "type": "receive"
    }
  ],
  "bytecode": "0x60806040526000600c556000600d5560c8600e553480156200002057600080fd5b5060405162002b3138038062002b318339810160408190526200004391620003a2565b82826003620000538382620004be565b506004620000628282620004be565b50506001600555506006805460ff191690556200007f3362000192565b600b80546001600160a01b0319166001600160a01b0383161790556000620000a6620001ec565b905060005b81518110156200018757600160076000848481518110620000d057620000d06200058a565b60200260200101516001600160a01b03166001600160a01b0316815260200190815260200160002060006101000a81548160ff0219169083151502179055508181815181106200012457620001246200058a565b60200260200101516001600160a01b03167fef81a9943b96c8df4ef243401c9bf5159146166211356898b52d382086168d9260016040516200016a911515815260200190565b60405180910390a2806200017e81620005a0565b915050620000ab565b5050505050620005c8565b600680546001600160a01b03838116610100818102610100600160a81b031985161790945560405193909204169182907f8be0079c531659141344cd1fd0a4f28419497f9722a3daafe3b4186f6b6457e090600090a35050565b604080516003808252608082019092526060916000919060208201848036833701905050905073874069fa1eb16d44d622f2e0ca25eea172369bc1816000815181106200023d576200023d6200058a565b60200260200101906001600160a01b031690816001600160a01b031681525050732f25deb3848c207fc8e0c34035b3ba7fc157602b816001815181106200028857620002886200058a565b60200260200101906001600160a01b031690816001600160a01b031681525050600081600281518110620002c057620002c06200058a565b6001600160a01b0390921660209283029190910190910152919050565b634e487b7160e01b600052604160045260246000fd5b600082601f8301126200030557600080fd5b81516001600160401b0380821115620003225762000322620002dd565b604051601f8301601f19908116603f011681019082821181831017156200034d576200034d620002dd565b816040528381526020925086838588010111156200036a57600080fd5b600091505b838210156200038e57858201830151818301840152908201906200036f565b600093810190920192909252949350505050565b600080600060608486031215620003b857600080fd5b83516001600160401b0380821115620003d057600080fd5b620003de87838801620002f3565b94506020860151915080821115620003f557600080fd5b506200040486828701620002f3565b604086015190935090506001600160a01b03811681146200042457600080fd5b809150509250925092565b600181811c908216806200044457607f821691505b6020821081036200046557634e487b7160e01b600052602260045260246000fd5b50919050565b601f821115620004b957600081815260208120601f850160051c81016020861015620004945750805b601f850160051c820191505b81811015620004b557828155600101620004a0565b5050505b505050565b81516001600160401b03811115620004da57620004da620002dd565b620004f281620004eb84546200042f565b846200046b565b602080601f8311600181146200052a5760008415620005115750858301515b600019600386901b1c1916600185901b178555620004b5565b600085815260208120601f198616915b828110156200055b578886015182559484019460019091019084016200053a565b50858210156200057a5787850151600019600388901b60f8161c191681555b5050505050600190811b01905550565b634e487b7160e01b600052603260045260246000fd5b600060018201620005c157634e487b7160e01b600052601160045260246000fd5b5060010190565b61255980620005d86000396000f3fe6080604052600436106102345760003560e01c80638bc7e8c41161012e578063bf6b874e116100ab578063daf9c2101161006f578063daf9c2101461071b578063dd62ed3e1461074b578063f2fde38b1461076b578063f3e0ffbf1461078b578063f3fef3a3146107c157600080fd5b8063bf6b874e14610663578063c4f9870b14610699578063c9bcc97e146106bb578063cec10c11146106db578063daccaf63146106fb57600080fd5b80639b9f7107116100f25780639b9f7107146105b5578063a457c2d7146105ed578063a8c62e761461060d578063a9059cbb1461062d578063bc063e1a1461064d57600080fd5b80638bc7e8c4146104ed5780638da5cb5b146105035780638fb3850a1461053a57806395ccea671461058057806395d89b41146105a057600080fd5b80633f4ba83a116101bc5780636d69f707116101805780636d69f7071461045757806370a0823114610477578063715018a6146104ad5780638456cb59146104c257806387788782146104d757600080fd5b80633f4ba83a146103df57806347e7ef24146103f657806350603df3146104095780635c975abb1461042957806367a527931461044157600080fd5b806323b872dd1161020357806323b872dd14610336578063313ce56714610356578063328c7a8e14610372578063395093511461039f5780633e5541f1146103bf57600080fd5b806306fdde031461028b578063095ea7b3146102b657806310f485f5146102e657806318160ddd1461032157600080fd5b366102865760405162461bcd60e51b815260206004820152601d60248201527f557365206465706f7369742066756e6374696f6e20666f722043454c4f00000060448201526064015b60405180910390fd5b600080fd5b34801561029757600080fd5b506102a06107e1565b6040516102ad91906122b4565b60405180910390f35b3480156102c257600080fd5b506102d66102d1366004612319565b610873565b60405190151581526020016102ad565b3480156102f257600080fd5b50610313610301366004612343565b600a6020526000908152604090205481565b6040519081526020016102ad565b34801561032d57600080fd5b50600254610313565b34801561034257600080fd5b506102d661035136600461235e565b61088d565b34801561036257600080fd5b50604051601281526020016102ad565b34801561037e57600080fd5b5061031361038d366004612343565b60096020526000908152604090205481565b3480156103ab57600080fd5b506102d66103ba366004612319565b6108b1565b3480156103cb57600080fd5b506103136103da366004612319565b6108d3565b3480156103eb57600080fd5b506103f461093b565b005b6103f4610404366004612319565b61094d565b34801561041557600080fd5b50610313610424366004612319565b610dbc565b34801561043557600080fd5b5060065460ff166102d6565b34801561044d57600080fd5b50610313600c5481565b34801561046357600080fd5b5061031361047236600461239a565b610e18565b34801561048357600080fd5b50610313610492366004612343565b6001600160a01b031660009081526020819052604090205490565b3480156104b957600080fd5b506103f4610e52565b3480156104ce57600080fd5b506103f4610e64565b3480156104e357600080fd5b50610313600e5481565b3480156104f957600080fd5b50610313600d5481565b34801561050f57600080fd5b5060065461010090046001600160a01b03165b6040516001600160a01b0390911681526020016102ad565b34801561054657600080fd5b5061031361055536600461239a565b6001600160a01b03918216600090815260086020908152604080832093909416825291909152205490565b34801561058c57600080fd5b506103f461059b366004612319565b610e74565b3480156105ac57600080fd5b506102a06110e4565b3480156105c157600080fd5b506103136105d036600461239a565b600860209081526000928352604080842090915290825290205481565b3480156105f957600080fd5b506102d6610608366004612319565b6110f3565b34801561061957600080fd5b50600b54610522906001600160a01b031681565b34801561063957600080fd5b506102d6610648366004612319565b61116e565b34801561065957600080fd5b506103136103e881565b34801561066f57600080fd5b5061031361067e366004612343565b6001600160a01b03166000908152600a602052604090205490565b3480156106a557600080fd5b506103136106b4366004612343565b5061032090565b3480156106c757600080fd5b506103f46106d63660046123db565b61117c565b3480156106e757600080fd5b506103f46106f6366004612412565b6111e3565b34801561070757600080fd5b506103f4610716366004612343565b6112e6565b34801561072757600080fd5b506102d6610736366004612343565b60076020526000908152604090205460ff1681565b34801561075757600080fd5b5061031361076636600461239a565b611396565b34801561077757600080fd5b506103f4610786366004612343565b6113c1565b34801561079757600080fd5b506103136107a6366004612343565b6001600160a01b031660009081526009602052604090205490565b3480156107cd57600080fd5b506103f46107dc366004612319565b61143a565b6060600380546107f09061243e565b80601f016020809104026020016040519081016040528092919081815260200182805461081c9061243e565b80156108695780601f1061083e57610100808354040283529160200191610869565b820191906000526020600020905b81548152906001019060200180831161084c57829003601f168201915b5050505050905090565b600033610881818585611839565b60019150505b92915050565b60003361089b85828561195e565b6108a68585856119d8565b506001949350505050565b6000336108818185856108c48383611396565b6108ce919061248e565b611839565b6001600160a01b0382166000908152600a602052604081205481036108f9575080610887565b6001600160a01b038316600090815260096020908152604080832054600a90925290912054610934919061092e908590611b7c565b90611b88565b9392505050565b610943611b94565b61094b611bf4565b565b610955611c46565b61095d611c9f565b6001600160a01b038216600090815260076020526040902054829060ff166109bf5760405162461bcd60e51b8152602060048201526015602482015274151bdad95b881b9bdd081dda1a5d195b1a5cdd1959605a1b604482015260640161027d565b8160008111610a105760405162461bcd60e51b815260206004820152601d60248201527f416d6f756e74206d7573742062652067726561746572207468616e2030000000604482015260640161027d565b6000610a1b85611ce5565b90508060c00151841015610a685760405162461bcd60e51b8152602060048201526014602482015273416d6f756e742062656c6f77206d696e696d756d60601b604482015260640161027d565b8060a00151841115610ab35760405162461bcd60e51b8152602060048201526014602482015273416d6f756e742061626f7665206d6178696d756d60601b604482015260640161027d565b83610abd86611fbe565b15610b0e57843414610b095760405162461bcd60e51b8152602060048201526015602482015274125b98dbdc9c9958dd0810d15313c8185b5bdd5b9d605a1b604482015260640161027d565b610b87565b6040516323b872dd60e01b8152336004820152306024820152604481018690526001600160a01b038716906323b872dd906064016020604051808303816000875af1158015610b61573d6000803e3d6000fd5b505050506040513d601f19601f82011682018060405250810190610b8591906124a1565b505b6000610b9387836108d3565b905060008111610be55760405162461bcd60e51b815260206004820152601d60248201527f536861726573206d7573742062652067726561746572207468616e2030000000604482015260640161027d565b600c5415610c26576000610c0a61271061092e600c5486611b7c90919063ffffffff16565b9050610c168382611fd3565b9250610c2288846108d3565b9150505b3360009081526008602090815260408083206001600160a01b038b168452909152902054610c549082611fdf565b3360009081526008602090815260408083206001600160a01b038c168452825280832093909355600990522054610c8b9083611fdf565b6001600160a01b038816600090815260096020908152604080832093909355600a90522054610cba9082611fdf565b6001600160a01b0388166000908152600a6020526040902055610cdd3382611feb565b610ce687611fbe565b610d6357600b5460405163095ea7b360e01b81526001600160a01b039182166004820152602481018490529088169063095ea7b3906044016020604051808303816000875af1158015610d3d573d6000803e3d6000fd5b505050506040513d601f19601f82011682018060405250810190610d6191906124a1565b505b60408051838152602081018390526001600160a01b0389169133917fdcbc1c05240f31ff3ad067ef1ee35ce4997762752e3a095284754544f4c709d7910160405180910390a35050505050610db86001600555565b5050565b6001600160a01b0382166000908152600a60205260408120548103610de357506000610887565b6001600160a01b0383166000908152600a6020908152604080832054600990925290912054610934919061092e908590611b7c565b6001600160a01b038083166000908152600860209081526040808320938516835292905290812054610e4a8382610dbc565b949350505050565b610e5a611b94565b61094b60006120aa565b610e6c611b94565b61094b612104565b610e7c612141565b3360009081526008602090815260408083206001600160a01b0386168452909152902054610ee45760405162461bcd60e51b81526020600482015260156024820152744e6f2073686172657320746f20776974686472617760581b604482015260640161027d565b610eed82611fbe565b15610f755780471015610f425760405162461bcd60e51b815260206004820152601960248201527f496e73756666696369656e742043454c4f2062616c616e636500000000000000604482015260640161027d565b604051339082156108fc029083906000818181858888f19350505050158015610f6f573d6000803e3d6000fd5b506110a0565b6040516370a0823160e01b815230600482015281906001600160a01b038416906370a0823190602401602060405180830381865afa158015610fbb573d6000803e3d6000fd5b505050506040513d601f19601f82011682018060405250810190610fdf91906124be565b101561102d5760405162461bcd60e51b815260206004820152601a60248201527f496e73756666696369656e7420746f6b656e2062616c616e6365000000000000604482015260640161027d565b60405163a9059cbb60e01b8152336004820152602481018290526001600160a01b0383169063a9059cbb906044016020604051808303816000875af115801561107a573d6000803e3d6000fd5b505050506040513d601f19601f8201168201806040525081019061109e91906124a1565b505b6040518181526001600160a01b0383169033907ff24ef89f38eadc1bde50701ad6e4d6d11a2dc24f7cf834a486991f38833285049060200160405180910390a35050565b6060600480546107f09061243e565b600033816111018286611396565b9050838110156111615760405162461bcd60e51b815260206004820152602560248201527f45524332303a2064656372656173656420616c6c6f77616e63652062656c6f77604482015264207a65726f60d81b606482015260840161027d565b6108a68286868403611839565b6000336108818185856119d8565b611184611b94565b6001600160a01b038216600081815260076020908152604091829020805460ff191685151590811790915591519182527fef81a9943b96c8df4ef243401c9bf5159146166211356898b52d382086168d92910160405180910390a25050565b6111eb611b94565b6103e88311156112345760405162461bcd60e51b8152602060048201526014602482015273088cae0dee6d2e840cccaca40e8dede40d0d2ced60631b604482015260640161027d565b6103e88211156112865760405162461bcd60e51b815260206004820152601760248201527f5769746864726177616c2066656520746f6f2068696768000000000000000000604482015260640161027d565b6103e88111156112d85760405162461bcd60e51b815260206004820152601860248201527f506572666f726d616e63652066656520746f6f20686967680000000000000000604482015260640161027d565b600c92909255600d55600e55565b6112ee611b94565b6001600160a01b0381166113445760405162461bcd60e51b815260206004820152601860248201527f496e76616c696420737472617465677920616464726573730000000000000000604482015260640161027d565b600b80546001600160a01b038381166001600160a01b0319831681179093556040519116919082907fe4cec16b1a7e6b7979e923da619a8b1e5fd0f0fb6e5c1cf647f350430ee61ca990600090a35050565b6001600160a01b03918216600090815260016020908152604080832093909416825291909152205490565b6113c9611b94565b6001600160a01b03811661142e5760405162461bcd60e51b815260206004820152602660248201527f4f776e61626c653a206e6577206f776e657220697320746865207a65726f206160448201526564647265737360d01b606482015260840161027d565b611437816120aa565b50565b611442611c46565b61144a611c9f565b6001600160a01b038216600090815260076020526040902054829060ff166114ac5760405162461bcd60e51b8152602060048201526015602482015274151bdad95b881b9bdd081dda1a5d195b1a5cdd1959605a1b604482015260640161027d565b81600081116114fd5760405162461bcd60e51b815260206004820152601d60248201527f416d6f756e74206d7573742062652067726561746572207468616e2030000000604482015260640161027d565b3360009081526008602090815260408083206001600160a01b03881684529091529020548311156115665760405162461bcd60e51b8152602060048201526013602482015272496e73756666696369656e742073686172657360681b604482015260640161027d565b6001600160a01b0384166000908152600a60205260409020548311156115ce5760405162461bcd60e51b815260206004820152601960248201527f496e73756666696369656e7420746f74616c2073686172657300000000000000604482015260640161027d565b60006115da8585610dbc565b90506000811161162c5760405162461bcd60e51b815260206004820152601d60248201527f417373657473206d7573742062652067726561746572207468616e2030000000604482015260640161027d565b600d54600090156116615761165261271061092e600d5485611b7c90919063ffffffff16565b905061165e8282611fd3565b91505b3360009081526008602090815260408083206001600160a01b038a16845290915290205461168f9086611fd3565b3360009081526008602090815260408083206001600160a01b038b1684529091529020556116df6116c08383611fdf565b6001600160a01b03881660009081526009602052604090205490611fd3565b6001600160a01b038716600090815260096020908152604080832093909355600a9052205461170e9086611fd3565b6001600160a01b0387166000908152600a6020526040902055611731338661218a565b61173a86611fbe565b1561177257604051339083156108fc029084906000818181858888f1935050505015801561176c573d6000803e3d6000fd5b506117e5565b60405163a9059cbb60e01b8152336004820152602481018390526001600160a01b0387169063a9059cbb906044016020604051808303816000875af11580156117bf573d6000803e3d6000fd5b505050506040513d601f19601f820116820180604052508101906117e391906124a1565b505b60408051868152602081018490526001600160a01b0388169133917ff341246adaac6f497bc2a656f546ab9e182111d630394f0c57c710a59a2cb567910160405180910390a350505050610db86001600555565b6001600160a01b03831661189b5760405162461bcd60e51b8152602060048201526024808201527f45524332303a20617070726f76652066726f6d20746865207a65726f206164646044820152637265737360e01b606482015260840161027d565b6001600160a01b0382166118fc5760405162461bcd60e51b815260206004820152602260248201527f45524332303a20617070726f766520746f20746865207a65726f206164647265604482015261737360f01b606482015260840161027d565b6001600160a01b0383811660008181526001602090815260408083209487168084529482529182902085905590518481527f8c5be1e5ebec7d5bd14f71427d1e84f3dd0314c0f7b2291e5b200ac8c7c3b92591015b60405180910390a3505050565b600061196a8484611396565b905060001981146119d257818110156119c55760405162461bcd60e51b815260206004820152601d60248201527f45524332303a20696e73756666696369656e7420616c6c6f77616e6365000000604482015260640161027d565b6119d28484848403611839565b50505050565b6001600160a01b038316611a3c5760405162461bcd60e51b815260206004820152602560248201527f45524332303a207472616e736665722066726f6d20746865207a65726f206164604482015264647265737360d81b606482015260840161027d565b6001600160a01b038216611a9e5760405162461bcd60e51b815260206004820152602360248201527f45524332303a207472616e7366657220746f20746865207a65726f206164647260448201526265737360e81b606482015260840161027d565b6001600160a01b03831660009081526020819052604090205481811015611b165760405162461bcd60e51b815260206004820152602660248201527f45524332303a207472616e7366657220616d6f756e7420657863656564732062604482015265616c616e636560d01b606482015260840161027d565b6001600160a01b03848116600081815260208181526040808320878703905593871680835291849020805487019055925185815290927fddf252ad1be2c89b69c2b068fc378daa952ba7f163c4a11628f55a4df523b3ef910160405180910390a36119d2565b600061093482846124d7565b600061093482846124ee565b6006546001600160a01b0361010090910416331461094b5760405162461bcd60e51b815260206004820181905260248201527f4f776e61626c653a2063616c6c6572206973206e6f7420746865206f776e6572604482015260640161027d565b611bfc612141565b6006805460ff191690557f5db9ee0a495bf2e6ff9c91a7834c1ba4fdd244a5e8aa4e537bd38aeae4b073aa335b6040516001600160a01b03909116815260200160405180910390a1565b600260055403611c985760405162461bcd60e51b815260206004820152601f60248201527f5265656e7472616e637947756172643a207265656e7472616e742063616c6c00604482015260640161027d565b6002600555565b60065460ff161561094b5760405162461bcd60e51b815260206004820152601060248201526f14185d5cd8589b194e881c185d5cd95960821b604482015260640161027d565b611d3d60405180610100016040528060006001600160a01b031681526020016060815260200160608152602001600060ff16815260200160001515815260200160008152602001600081526020016000151581525090565b73874069fa1eb16d44d622f2e0ca25eea172369bc0196001600160a01b03831601611e07575050604080516101008101825273874069fa1eb16d44d622f2e0ca25eea172369bc1815281518083018352600481526318d554d160e21b6020828101919091528083019190915282518084018452600b81526a21b2b637902237b63630b960a91b9181019190915291810191909152601260608201526000608082015269d3c21bcecceda100000060a0820152670de0b6b3a764000060c0820152600160e082015290565b732f25deb3848c207fc8e0c34035b3ba7fc157602a196001600160a01b03831601611ec45750506040805161010081018252732f25deb3848c207fc8e0c34035b3ba7fc157602b81528151808301835260048152635553444360e01b602082810191909152808301919091528251808401845260088152672aa9a21021b7b4b760c11b9181019190915291810191909152600660608201526000608082015264e8d4a5100060a0820152620f424060c0820152600160e082015290565b6001600160a01b038216611f715760405180610100016040528060006001600160a01b031681526020016040518060400160405280600481526020016343454c4f60e01b81525081526020016040518060400160405280600481526020016343656c6f60e01b8152508152602001601260ff16815260200160011515815260200169152d02c7e14af68000008152602001670de0b6b3a76400008152602001600115158152509050919050565b60405162461bcd60e51b815260206004820152601e60248201527f546f6b656e436f6e6669673a20556e737570706f7274656420746f6b656e0000604482015260640161027d565b919050565b6000611fc982611ce5565b6080015192915050565b60006109348284612510565b6000610934828461248e565b6001600160a01b0382166120415760405162461bcd60e51b815260206004820152601f60248201527f45524332303a206d696e7420746f20746865207a65726f206164647265737300604482015260640161027d565b8060026000828254612053919061248e565b90915550506001600160a01b038216600081815260208181526040808320805486019055518481527fddf252ad1be2c89b69c2b068fc378daa952ba7f163c4a11628f55a4df523b3ef910160405180910390a35050565b600680546001600160a01b03838116610100818102610100600160a81b031985161790945560405193909204169182907f8be0079c531659141344cd1fd0a4f28419497f9722a3daafe3b4186f6b6457e090600090a35050565b61210c611c9f565b6006805460ff191660011790557f62e78cea01bee320cd4e420270b5ea74000d11b0c9f74754ebdbfc544b05a258611c293390565b60065460ff1661094b5760405162461bcd60e51b815260206004820152601460248201527314185d5cd8589b194e881b9bdd081c185d5cd95960621b604482015260640161027d565b6001600160a01b0382166121ea5760405162461bcd60e51b815260206004820152602160248201527f45524332303a206275726e2066726f6d20746865207a65726f206164647265736044820152607360f81b606482015260840161027d565b6001600160a01b0382166000908152602081905260409020548181101561225e5760405162461bcd60e51b815260206004820152602260248201527f45524332303a206275726e20616d6f756e7420657863656564732062616c616e604482015261636560f01b606482015260840161027d565b6001600160a01b0383166000818152602081815260408083208686039055600280548790039055518581529192917fddf252ad1be2c89b69c2b068fc378daa952ba7f163c4a11628f55a4df523b3ef9101611951565b600060208083528351808285015260005b818110156122e1578581018301518582016040015282016122c5565b506000604082860101526040601f19601f8301168501019250505092915050565b80356001600160a01b0381168114611fb957600080fd5b6000806040838503121561232c57600080fd5b61233583612302565b946020939093013593505050565b60006020828403121561235557600080fd5b61093482612302565b60008060006060848603121561237357600080fd5b61237c84612302565b925061238a60208501612302565b9150604084013590509250925092565b600080604083850312156123ad57600080fd5b6123b683612302565b91506123c460208401612302565b90509250929050565b801515811461143757600080fd5b600080604083850312156123ee57600080fd5b6123f783612302565b91506020830135612407816123cd565b809150509250929050565b60008060006060848603121561242757600080fd5b505081359360208301359350604090920135919050565b600181811c9082168061245257607f821691505b60208210810361247257634e487b7160e01b600052602260045260246000fd5b50919050565b634e487b7160e01b600052601160045260246000fd5b8082018082111561088757610887612478565b6000602082840312156124b357600080fd5b8151610934816123cd565b6000602082840312156124d057600080fd5b5051919050565b808202811582820484141761088757610887612478565b60008261250b57634e487b7160e01b600052601260045260246000fd5b500490565b818103818111156108875761088761247856fea2646970667358221220501bd6d2f8553e50f0562a31bab08d07c0f60d8c895023fa14da1659305053d764736f6c63430008130033",
  "linkReferences": {},
  "deployedLinkReferences": {}
}