{
  "_format": "hh-sol-artifact-1",
  "contractName": "MockPriceFeed",
  "sourceName": "contracts/mocks/MockPriceFeed.sol",
  "abi": [
    {
      "inputs": [
        {
          "internalType": "int256",
          "name": "price",
          "type": "int256"
        },
        {
          "internalType": "uint8",
          "name": "decimals_",
          "type": "uint8"
        }
      ],
      "stateMutability": "nonpayable",
      "type": "constructor"
    },
    {
      "inputs": [],
      "name": "decimals",
      "outputs": [
        {
          "internalType": "uint8",
          "name": "",
          "type": "uint8"
        }
      ],
      "stateMutability": "view",
      "type": "function"
    },
    {
      "inputs": [],
      "name": "description",
      "outputs": [
        {
          "internalType": "string",
          "name": "",
          "type": "string"
        }
      ],
      "stateMutability": "pure",
      "type": "function"
    },
    {
      "inputs": [
        {
          "internalType": "uint80",
          "name": "_roundId",
          "type": "uint80"
        }
      ],
      "name": "getRoundData",
      "outputs": [
        {
          "internalType": "uint80",
          "name": "roundId",
          "type": "uint80"
        },
        {
          "internalType": "int256",
          "name": "answer",
          "type": "int256"
        },
        {
          "internalType": "uint256",
          "name": "startedAt",
          "type": "uint256"
        },
        {
          "internalType": "uint256",
          "name": "updatedAt",
          "type": "uint256"
        },
        {
          "internalType": "uint80",
          "name": "answeredInRound",
          "type": "uint80"
        }
      ],
      "stateMutability": "view",
      "type": "function"
    },
    {
      "inputs": [],
      "name": "latestRoundData",
      "outputs": [
        {
          "internalType": "uint80",
          "name": "roundId",
          "type": "uint80"
        },
        {
          "internalType": "int256",
          "name": "answer",
          "type": "int256"
        },
        {
          "internalType": "uint256",
          "name": "startedAt",
          "type": "uint256"
        },
        {
          "internalType": "uint256",
          "name": "updatedAt",
          "type": "uint256"
        },
        {
          "internalType": "uint80",
          "name": "answeredInRound",
          "type": "uint80"
        }
      ],
      "stateMutability": "view",
      "type": "function"
    },
    {
      "inputs": [
        {
          "internalType": "int256",
          "name": "newPrice",
          "type": "int256"
        }
      ],
      "name": "setPrice",
      "outputs": [],
      "stateMutability": "nonpayable",
      "type": "function"
    },
    {
      "inputs": [],
      "name": "version",
      "outputs": [
        {
          "internalType": "uint256",
          "name": "",
          "type": "uint256"
        }
      ],
      "stateMutability": "pure",
      "type": "function"
    }
  ],
  "bytecode": "0x608060405234801561001057600080fd5b5060405161033b38038061033b83398101604081905261002f9161005b565b600091909155600180546001600160581b03191660ff9092169190911761010017905542600255610091565b6000806040838503121561006e57600080fd5b82519150602083015160ff8116811461008657600080fd5b809150509250929050565b61029b806100a06000396000f3fe608060405234801561001057600080fd5b50600436106100625760003560e01c8063313ce5671461006757806354fd4d50146100815780637284e416146100905780639a6fc8f5146100c1578063f7a3080614610114578063feaf968c14610129575b600080fd5b60015460405160ff90911681526020015b60405180910390f35b60405160018152602001610078565b604080518082018252600f81526e135bd8dac8141c9a58d94811995959608a1b60208201529051610078919061019a565b6100e06100cf3660046101e8565b600054600254919290919081908490565b604080516001600160501b03968716815260208101959095528401929092526060830152909116608082015260a001610078565b610127610122366004610218565b610149565b005b6001546000546002546101009092046001600160501b03169180836100e0565b60008190556001805461010090046001600160501b0316908061016b83610231565b91906101000a8154816001600160501b0302191690836001600160501b03160217905550504260028190555050565b600060208083528351808285015260005b818110156101c7578581018301518582016040015282016101ab565b506000604082860101526040601f19601f8301168501019250505092915050565b6000602082840312156101fa57600080fd5b81356001600160501b038116811461021157600080fd5b9392505050565b60006020828403121561022a57600080fd5b5035919050565b60006001600160501b0380831681810361025b57634e487b7160e01b600052601160045260246000fd5b600101939250505056fea2646970667358221220a8748c5f60b561edf1a454e66c1403eab39f9c9a04e5ef33095e8351c519719264736f6c63430008130033",
  "linkReferences": {},
  "deployedLinkReferences": {}
}