{
  "_format": "hh-sol-artifact-1",
  "contractName": "CollateralManager",
  "sourceName": "contracts/lending/CollateralManager.sol",
  "abi": [
    {
      "inputs": [
        {
          "internalType": "address",
          "name": "_oracle",
          "type": "address"
        },
        {
          "internalType": "address",
          "name": "_debtToken",
          "type": "address"
        },
        {
          "internalType": "uint256",
          "name": "_liquidationThreshold",
          "type": "uint256"
        },
        {
          "internalType": "uint256",
          "name": "_liquidationBonus",
          "type": "uint256"
        }
      ],
      "stateMutability": "nonpayable",
      "type": "constructor"
    },
    {
      "anonymous": false,
      "inputs": [
        {
          "indexed": true,
          "internalType": "address",
          "name": "user",
          "type": "address"
        },
        {
          "indexed": true,
          "internalType": "address",
          "name": "token",
          "type": "address"
        },
        {
          "indexed": false,
          "internalType": "uint256",
          "name": "amount",
          "type": "uint256"
        }
      ],
      "name": "CollateralAdded",
      "type": "event"
    },
    {
      "anonymous": false,
      "inputs": [
        {
          "indexed": true,
          "internalType": "address",
          "name": "user",
          "type": "address"
        },
        {
          "indexed": true,
          "internalType": "address",
          "name": "token",
          "type": "address"
        },
        {
          "indexed": false,
          "internalType": "uint256",
          "name": "amount",
          "type": "uint256"
        }
      ],
      "name": "CollateralRemoved",
      "type": "event"
    },
    {
      "anonymous": false,
      "inputs": [
        {
          "indexed": true,
          "internalType": "address",
          "name": "token",
          "type": "address"
        },
        {
          "indexed": false,
          "internalType": "bool",
          "name": "status",
          "type": "bool"
        }
      ],
      "name": "CollateralTokenStatusUpdated",
      "type": "event"
    },
    {
      "anonymous": false,
      "inputs": [
        {
          "indexed": false,
          "internalType": "uint256",
          "name": "newBonus",
          "type": "uint256"
        }
      ],
      "name": "LiquidationBonusUpdated",
      "type": "event"
    },
    {
      "anonymous": false,
      "inputs": [
        {
          "indexed": true,
          "internalType": "address",
          "name": "borrower",
          "type": "address"
        },
        {
          "indexed": true,
          "internalType": "address",
          "name": "liquidator",
          "type": "address"
        },
        {
          "indexed": true,
          "internalType": "address",
          "name": "repayToken",
          "type": "address"
        },
        {
          "indexed": false,
          "internalType": "uint256",
          "name": "repayAmount",
          "type": "uint256"
        },
        {
          "indexed": false,
          "internalType": "address",
          "name": "collateralToken",
          "type": "address"
        },
        {
          "indexed": false,
          "internalType": "uint256",
          "name": "collateralSeized",
          "type": "uint256"
        }
      ],
      "name": "LiquidationExecuted",
      "type": "event"
    },
    {
      "anonymous": false,
      "inputs": [
        {
          "indexed": false,
          "internalType": "uint256",
          "name": "newThreshold",
          "type": "uint256"
        }
      ],
      "name": "LiquidationThresholdUpdated",
      "type": "event"
    },
    {
      "anonymous": false,
      "inputs": [
        {
          "indexed": true,
          "internalType": "address",
          "name": "previousOwner",
          "type": "address"
        },
        {
          "indexed": true,
          "internalType": "address",
          "name": "newOwner",
          "type": "address"
        }
      ],
      "name": "OwnershipTransferred",
      "type": "event"
    },
    {
      "inputs": [],
      "name": "BPS_DIVISOR",
      "outputs": [
        {
          "internalType": "uint256",
          "name": "",
          "type": "uint256"
        }
      ],
      "stateMutability": "view",
      "type": "function"
    },
    {
      "inputs": [],
      "name": "PRECISION",
      "outputs": [
        {
          "internalType": "uint256",
          "name": "",
          "type": "uint256"
        }
      ],
      "stateMutability": "view",
      "type": "function"
    },
    {
      "inputs": [
        {
          "internalType": "address",
          "name": "token",
          "type": "address"
        },
        {
          "internalType": "uint256",
          "name": "amount",
          "type": "uint256"
        }
      ],
      "name": "addCollateral",
      "outputs": [],
      "stateMutability": "payable",
      "type": "function"
    },
    {
      "inputs": [
        {
          "internalType": "address",
          "name": "",
          "type": "address"
        }
      ],
      "name": "approvedCollateralTokens",
      "outputs": [
        {
          "internalType": "bool",
          "name": "",
          "type": "bool"
        }
      ],
      "stateMutability": "view",
      "type": "function"
    },
    {
      "inputs": [],
      "name": "debtToken",
      "outputs": [
        {
          "internalType": "contract DebtToken",
          "name": "",
          "type": "address"
        }
      ],
      "stateMutability": "view",
      "type": "function"
    },
    {
      "inputs": [
        {
          "internalType": "address",
          "name": "user",
          "type": "address"
        },
        {
          "internalType": "address",
          "name": "token",
          "type": "address"
        },
        {
          "internalType": "address",
          "name": "denomToken",
          "type": "address"
        }
      ],
      "name": "getCollateralValue",
      "outputs": [
        {
          "internalType": "uint256",
          "name": "",
          "type": "uint256"
        }
      ],
      "stateMutability": "view",
      "type": "function"
    },
    {
      "inputs": [
        {
          "internalType": "address",
          "name": "user",
          "type": "address"
        },
        {
          "internalType": "address",
          "name": "borrowToken",
          "type": "address"
        }
      ],
      "name": "getHealthFactor",
      "outputs": [
        {
          "internalType": "uint256",
          "name": "",
          "type": "uint256"
        }
      ],
      "stateMutability": "view",
      "type": "function"
    },
    {
      "inputs": [
        {
          "internalType": "address",
          "name": "user",
          "type": "address"
        },
        {
          "internalType": "address",
          "name": "borrowToken",
          "type": "address"
        },
        {
          "internalType": "address[]",
          "name": "collateralTokens",
          "type": "address[]"
        }
      ],
      "name": "getHealthFactorForTokens",
      "outputs": [
        {
          "internalType": "uint256",
          "name": "",
          "type": "uint256"
        }
      ],
      "stateMutability": "view",
      "type": "function"
    },
    {
      "inputs": [
        {
          "internalType": "address",
          "name": "user",
          "type": "address"
        },
        {
          "internalType": "address",
          "name": "denomToken",
          "type": "address"
        }
      ],
      "name": "getTotalCollateralValue",
      "outputs": [
        {
          "internalType": "uint256",
          "name": "",
          "type": "uint256"
        }
      ],
      "stateMutability": "view",
      "type": "function"
    },
    {
      "inputs": [
        {
          "internalType": "address",
          "name": "user",
          "type": "address"
        },
        {
          "internalType": "address[]",
          "name": "tokens",
          "type": "address[]"
        },
        {
          "internalType": "address",
          "name": "denomToken",
          "type": "address"
        }
      ],
      "name": "getTotalCollateralValueForTokens",
      "outputs": [
        {
          "internalType": "uint256",
          "name": "",
          "type": "uint256"
        }
      ],
      "stateMutability": "view",
      "type": "function"
    },
    {
      "inputs": [
        {
          "internalType": "address",
          "name": "user",
          "type": "address"
        }
      ],
      "name": "getUserCollateralTokens",
      "outputs": [
        {
          "internalType": "address[]",
          "name": "tokens",
          "type": "address[]"
        },
        {
          "internalType": "uint256[]",
          "name": "amounts",
          "type": "uint256[]"
        }
      ],
      "stateMutability": "view",
      "type": "function"
    },
    {
      "inputs": [
        {
          "internalType": "address",
          "name": "user",
          "type": "address"
        },
        {
          "internalType": "address[]",
          "name": "tokenList",
          "type": "address[]"
        }
      ],
      "name": "getUserCollateralTokensForList",
      "outputs": [
        {
          "internalType": "address[]",
          "name": "tokens",
          "type": "address[]"
        },
        {
          "internalType": "uint256[]",
          "name": "amounts",
          "type": "uint256[]"
        }
      ],
      "stateMutability": "view",
      "type": "function"
    },
    {
      "inputs": [
        {
          "internalType": "address",
          "name": "user",
          "type": "address"
        },
        {
          "internalType": "address",
          "name": "borrowToken",
          "type": "address"
        }
      ],
      "name": "isLiquidatable",
      "outputs": [
        {
          "internalType": "bool",
          "name": "",
          "type": "bool"
        }
      ],
      "stateMutability": "view",
      "type": "function"
    },
    {
      "inputs": [
        {
          "internalType": "address",
          "name": "user",
          "type": "address"
        },
        {
          "internalType": "address",
          "name": "borrowToken",
          "type": "address"
        },
        {
          "internalType": "address[]",
          "name": "collateralTokens",
          "type": "address[]"
        }
      ],
      "name": "isLiquidatableForTokens",
      "outputs": [
        {
          "internalType": "bool",
          "name": "",
          "type": "bool"
        }
      ],
      "stateMutability": "view",
      "type": "function"
    },
    {
      "inputs": [
        {
          "internalType": "address",
          "name": "borrower",
          "type": "address"
        },
        {
          "internalType": "address",
          "name": "repayToken",
          "type": "address"
        },
        {
          "internalType": "address",
          "name": "collateralToken",
          "type": "address"
        },
        {
          "internalType": "uint256",
          "name": "repayAmount",
          "type": "uint256"
        }
      ],
      "name": "liquidate",
      "outputs": [],
      "stateMutability": "nonpayable",
      "type": "function"
    },
    {
      "inputs": [
        {
          "internalType": "address",
          "name": "borrower",
          "type": "address"
        },
        {
          "internalType": "address",
          "name": "repayToken",
          "type": "address"
        },
        {
          "internalType": "address",
          "name": "collateralToken",
          "type": "address"
        },
        {
          "internalType": "uint256",
          "name": "repayAmount",
          "type": "uint256"
        },
        {
          "internalType": "address[]",
          "name": "collateralTokens",
          "type": "address[]"
        }
      ],
      "name": "liquidateForTokens",
      "outputs": [],
      "stateMutability": "nonpayable",
      "type": "function"
    },
    {
      "inputs": [],
      "name": "liquidationBonus",
      "outputs": [
        {
          "internalType": "uint256",
          "name": "",
          "type": "uint256"
        }
      ],
      "stateMutability": "view",
      "type": "function"
    },
    {
      "inputs": [],
      "name": "liquidationThreshold",
      "outputs": [
        {
          "internalType": "uint256",
          "name": "",
          "type": "uint256"
        }
      ],
      "stateMutability": "view",
      "type": "function"
    },
    {
      "inputs": [
        {
          "internalType": "address",
          "name": "borrower",
          "type": "address"
        },
        {
          "internalType": "uint256",
          "name": "amount",
          "type": "uint256"
        }
      ],
      "name": "mintDebtForTesting",
      "outputs": [],
      "stateMutability": "nonpayable",
      "type": "function"
    },
    {
      "inputs": [],
      "name": "oracle",
      "outputs": [
        {
          "internalType": "contract OracleAdapter",
          "name": "",
          "type": "address"
        }
      ],
      "stateMutability": "view",
      "type": "function"
    },
    {
      "inputs": [],
      "name": "owner",
      "outputs": [
        {
          "internalType": "address",
          "name": "",
          "type": "address"
        }
      ],
      "stateMutability": "view",
      "type": "function"
    },
    {
      "inputs": [
        {
          "internalType": "address",
          "name": "token",
          "type": "address"
        },
        {
          "internalType": "uint256",
          "name": "amount",
          "type": "uint256"
        }
      ],
      "name": "removeCollateral",
      "outputs": [],
      "stateMutability": "nonpayable",
      "type": "function"
    },
    {
      "inputs": [],
      "name": "renounceOwnership",
      "outputs": [],
      "stateMutability": "nonpayable",
      "type": "function"
    },
    {
      "inputs": [
        {
          "internalType": "address",
          "name": "token",
          "type": "address"
        },
        {
          "internalType": "bool",
          "name": "status",
          "type": "bool"
        }
      ],
      "name": "setApprovedCollateralToken",
      "outputs": [],
      "stateMutability": "nonpayable",
      "type": "function"
    },
    {
      "inputs": [
        {
          "internalType": "uint256",
          "name": "newBonus",
          "type": "uint256"
        }
      ],
      "name": "setLiquidationBonus",
      "outputs": [],
      "stateMutability": "nonpayable",
      "type": "function"
    },
    {
      "inputs": [
        {
          "internalType": "uint256",
          "name": "newThreshold",
          "type": "uint256"
        }
      ],
      "name": "setLiquidationThreshold",
      "outputs": [],
      "stateMutability": "nonpayable",
      "type": "function"
    },
    {
      "inputs": [
        {
          "internalType": "address",
          "name": "newOwner",
          "type": "address"
        }
      ],
      "name": "transferOwnership",
      "outputs": [],
      "stateMutability": "nonpayable",
      "type": "function"
    },
    {
      "inputs": [
        {
          "internalType": "address",
          "name": "",
          "type": "address"
        },
        {
          "internalType": "address",
          "name": "",
          "type": "address"
        }
      ],
      "name": "userCollateral",
      "outputs": [
        {
          "internalType": "uint256",
          "name": "",
          "type": "uint256"
        }
      ],
      "stateMutability": "view",
      "type": "function"
    }
  ],
  "bytecode": "0x60806040523480156200001157600080fd5b5060405162002d2f38038062002d2f833981016040819052620000349162000273565b6200003f3362000206565b60018055836001600160a01b0381166200009a5760405162461bcd60e51b8152602060048201526022602482015260008051602062002d0f833981519152604482015261737360f01b60648201526084015b60405180910390fd5b836001600160a01b038116620000ed5760405162461bcd60e51b8152602060048201526022602482015260008051602062002d0f833981519152604482015261737360f01b606482015260840162000091565b6127108411156200015b5760405162461bcd60e51b815260206004820152603160248201527f436f6c6c61746572616c4d616e616765723a206c69717569646174696f6e20746044820152700d0e4cae6d0ded8c840e8dede40d0d2ced607b1b606482015260840162000091565b612710831115620001c55760405162461bcd60e51b815260206004820152602d60248201527f436f6c6c61746572616c4d616e616765723a206c69717569646174696f6e206260448201526c0dedceae640e8dede40d0d2ced609b1b606482015260840162000091565b5050600480546001600160a01b039586166001600160a01b0319918216179091556005805494909516931692909217909255600691909155600755620002bb565b600080546001600160a01b038381166001600160a01b0319831681178455604051919092169283917f8be0079c531659141344cd1fd0a4f28419497f9722a3daafe3b4186f6b6457e09190a35050565b80516001600160a01b03811681146200026e57600080fd5b919050565b600080600080608085870312156200028a57600080fd5b620002958562000256565b9350620002a56020860162000256565b6040860151606090960151949790965092505050565b612a4480620002cb6000396000f3fe6080604052600436106101b75760003560e01c8063715018a6116100ec578063aab3f8681161008a578063d0b0c81611610064578063d0b0c816146104f3578063d4b7cfca14610513578063f2fde38b14610533578063f8d898981461055357600080fd5b8063aab3f86814610497578063aaf5eb68146104b7578063c4201a9f146104d357600080fd5b8063876467f8116100c6578063876467f8146104095780638d907502146104295780638da5cb5b14610449578063a8a5682f1461046757600080fd5b8063715018a6146103a65780637b7c1f4c146103bb5780637dc0d1d0146103d157600080fd5b806357c89a7d116101595780635e991af8116101335780635e991af8146103335780636d75b9ee146103535780636db30e971461036657806370a574611461038657600080fd5b806357c89a7d146102c55780635895d4cb146102e5578063599219dd1461030557600080fd5b80632b92a07d116101955780632b92a07d146102275780633966a28b1461025f5780634031234c1461028f57806350e9da24146102a557600080fd5b806318f198c1146101bc578063191fe1ed146101ef57806328842d4f14610205575b600080fd5b3480156101c857600080fd5b506101dc6101d7366004612326565b610573565b6040519081526020015b60405180910390f35b3480156101fb57600080fd5b506101dc61271081565b34801561021157600080fd5b50610225610220366004612369565b610673565b005b34801561023357600080fd5b506101dc610242366004612382565b600260209081526000928352604080842090915290825290205481565b34801561026b57600080fd5b5061027f61027a366004612382565b610724565b60405190151581526020016101e6565b34801561029b57600080fd5b506101dc60065481565b3480156102b157600080fd5b506102256102c03660046123c3565b6107e1565b3480156102d157600080fd5b506101dc6102e0366004612382565b610848565b3480156102f157600080fd5b506101dc610300366004612382565b6108fd565b34801561031157600080fd5b506103256103203660046123fa565b610a84565b6040516101e6929190612415565b34801561033f57600080fd5b506101dc61034e366004612546565b610de3565b61022561036136600461259b565b610e7f565b34801561037257600080fd5b5061022561038136600461259b565b610ff2565b34801561039257600080fd5b506103256103a13660046125c5565b611064565b3480156103b257600080fd5b506102256112db565b3480156103c757600080fd5b506101dc60075481565b3480156103dd57600080fd5b506004546103f1906001600160a01b031681565b6040516001600160a01b0390911681526020016101e6565b34801561041557600080fd5b5061022561042436600461259b565b6112ef565b34801561043557600080fd5b5061027f610444366004612613565b6115ee565b34801561045557600080fd5b506000546001600160a01b03166103f1565b34801561047357600080fd5b5061027f6104823660046123fa565b60036020526000908152604090205460ff1681565b3480156104a357600080fd5b506102256104b2366004612671565b6116ab565b3480156104c357600080fd5b506101dc670de0b6b3a764000081565b3480156104df57600080fd5b506102256104ee3660046126bc565b6119f3565b3480156104ff57600080fd5b5061022561050e366004612369565b611d3d565b34801561051f57600080fd5b506101dc61052e366004612613565b611de6565b34801561053f57600080fd5b5061022561054e3660046123fa565b611e89565b34801561055f57600080fd5b506005546103f1906001600160a01b031681565b6001600160a01b0380841660009081526002602090815260408083209386168352929052908120548082036105ac57600091505061066c565b826001600160a01b0316846001600160a01b0316036105cc57905061066c565b60048054604051635d5530df60e11b81526001600160a01b038781169382019390935285831660248201526000929091169063baaa61be90604401602060405180830381865afa158015610624573d6000803e3d6000fd5b505050506040513d601f19601f820116820180604052508101906106489190612735565b9050670de0b6b3a764000061065d8284612764565b610667919061277b565b925050505b9392505050565b61067b611f02565b6127108111156106e85760405162461bcd60e51b815260206004820152602d60248201527f436f6c6c61746572616c4d616e616765723a206c69717569646174696f6e206260448201526c0dedceae640e8dede40d0d2ced609b1b60648201526084015b60405180910390fd5b60078190556040518181527faebdbb2d62051c61387bf5a1cd77f093484880809eabd6b2ecefb2dc5869d23d906020015b60405180910390a150565b600554604051633959535960e21b81526001600160a01b038481166004830152600092839291169063e5654d6490602401602060405180830381865afa158015610772573d6000803e3d6000fd5b505050506040513d601f19601f820116820180604052508101906107969190612735565b9050806000036107aa5760009150506107db565b60006107b685856108fd565b90506000826107c761271084612764565b6107d1919061277b565b6006541193505050505b92915050565b6107e9611f02565b6001600160a01b038216600081815260036020908152604091829020805460ff191685151590811790915591519182527fd65827d8427abf392ed8c373698b4bedd3b9faeca8019887008f4f754da89cdf910160405180910390a25050565b600554604051633959535960e21b81526001600160a01b038481166004830152600092839291169063e5654d6490602401602060405180830381865afa158015610896573d6000803e3d6000fd5b505050506040513d601f19601f820116820180604052508101906108ba9190612735565b9050806000036108cf576000199150506107db565b60006108db85856108fd565b9050816108ea61271083612764565b6108f4919061277b565b95945050505050565b60408051600380825260808201909252600091829182916020820160608036833701905050905073874069fa1ee493706dbee6cf34ff9829832e6a008160008151811061094c5761094c61279d565b60200260200101906001600160a01b031690816001600160a01b0316815250507362b8b11039ff5064145d0d87d32c658da4cc2dc1816001815181106109945761099461279d565b60200260200101906001600160a01b031690816001600160a01b0316815250506000816002815181106109c9576109c961279d565b60200260200101906001600160a01b031690816001600160a01b03168152505060005b8151811015610a7a5760036000838381518110610a0b57610a0b61279d565b6020908102919091018101516001600160a01b031682528101919091526040016000205460ff1615610a6857610a5b86838381518110610a4d57610a4d61279d565b602002602001015187610573565b610a6590846127b3565b92505b80610a72816127c6565b9150506109ec565b5090949350505050565b60408051600380825260808201909252606091829160009160208201848036833701905050905073874069fa1ee493706dbee6cf34ff9829832e6a0081600081518110610ad357610ad361279d565b60200260200101906001600160a01b031690816001600160a01b0316815250507362b8b11039ff5064145d0d87d32c658da4cc2dc181600181518110610b1b57610b1b61279d565b60200260200101906001600160a01b031690816001600160a01b031681525050600081600281518110610b5057610b5061279d565b60200260200101906001600160a01b031690816001600160a01b0316815250506000805b8251811015610bfa576001600160a01b038616600090815260026020526040812084518290869085908110610bab57610bab61279d565b60200260200101516001600160a01b03166001600160a01b03168152602001908152602001600020541115610be85781610be4816127c6565b9250505b80610bf2816127c6565b915050610b74565b508067ffffffffffffffff811115610c1457610c14612499565b604051908082528060200260200182016040528015610c3d578160200160208202803683370190505b5093508067ffffffffffffffff811115610c5957610c59612499565b604051908082528060200260200182016040528015610c82578160200160208202803683370190505b5092506000805b8351811015610dda576001600160a01b038716600090815260026020526040812085518290879085908110610cc057610cc061279d565b60200260200101516001600160a01b03166001600160a01b03168152602001908152602001600020541115610dc857838181518110610d0157610d0161279d565b6020026020010151868381518110610d1b57610d1b61279d565b60200260200101906001600160a01b031690816001600160a01b03168152505060026000886001600160a01b03166001600160a01b031681526020019081526020016000206000858381518110610d7457610d7461279d565b60200260200101516001600160a01b03166001600160a01b0316815260200190815260200160002054858381518110610daf57610daf61279d565b602090810291909101015281610dc4816127c6565b9250505b80610dd2816127c6565b915050610c89565b50505050915091565b600080805b8451811015610e765760036000868381518110610e0757610e0761279d565b6020908102919091018101516001600160a01b031682528101919091526040016000205460ff1615610e6457610e5786868381518110610e4957610e4961279d565b602002602001015186610573565b610e6190836127b3565b91505b80610e6e816127c6565b915050610de8565b50949350505050565b610e87611f5c565b6001600160a01b038216600090815260036020526040902054829060ff16610ec15760405162461bcd60e51b81526004016106df906127df565b8160008111610ee25760405162461bcd60e51b81526004016106df90612832565b6001600160a01b038416610f5557823414610f505760405162461bcd60e51b815260206004820152602860248201527f436f6c6c61746572616c4d616e616765723a20696e636f72726563742043454c60448201526713c8185b5bdd5b9d60c21b60648201526084016106df565b610f6a565b610f6a6001600160a01b038516333086611fb5565b3360009081526002602090815260408083206001600160a01b038816845290915281208054859290610f9d9084906127b3565b90915550506040518381526001600160a01b0385169033907f8a844e786620b0b008b32c1151afb99261d854d9e0e911b2a5ee2f54bd5e3a0b906020015b60405180910390a35050610fee60018055565b5050565b610ffa611f02565b600554604051639d0bee0360e01b81526001600160a01b0384811660048301526024820184905290911690639d0bee0390604401600060405180830381600087803b15801561104857600080fd5b505af115801561105c573d6000803e3d6000fd5b505050505050565b6060806000805b84518110156110f1576001600160a01b0386166000908152600260205260408120865182908890859081106110a2576110a261279d565b60200260200101516001600160a01b03166001600160a01b031681526020019081526020016000205411156110df57816110db816127c6565b9250505b806110e9816127c6565b91505061106b565b508067ffffffffffffffff81111561110b5761110b612499565b604051908082528060200260200182016040528015611134578160200160208202803683370190505b5092508067ffffffffffffffff81111561115057611150612499565b604051908082528060200260200182016040528015611179578160200160208202803683370190505b5091506000805b85518110156112d1576001600160a01b0387166000908152600260205260408120875182908990859081106111b7576111b761279d565b60200260200101516001600160a01b03166001600160a01b031681526020019081526020016000205411156112bf578581815181106111f8576111f861279d565b60200260200101518583815181106112125761121261279d565b60200260200101906001600160a01b031690816001600160a01b03168152505060026000886001600160a01b03166001600160a01b03168152602001908152602001600020600087838151811061126b5761126b61279d565b60200260200101516001600160a01b03166001600160a01b03168152602001908152602001600020548483815181106112a6576112a661279d565b6020908102919091010152816112bb816127c6565b9250505b806112c9816127c6565b915050611180565b5050509250929050565b6112e3611f02565b6112ed6000612020565b565b6112f7611f5c565b80600081116113185760405162461bcd60e51b81526004016106df90612832565b3360009081526002602090815260408083206001600160a01b038716845290915290205482111561139e5760405162461bcd60e51b815260206004820152602a60248201527f436f6c6c61746572616c4d616e616765723a20696e73756666696369656e742060448201526918dbdb1b185d195c985b60b21b60648201526084016106df565b600554604051633959535960e21b81523360048201526000916001600160a01b03169063e5654d6490602401602060405180830381865afa1580156113e7573d6000803e3d6000fd5b505050506040513d601f19601f8201168201806040525081019061140b9190612735565b905080156114e957600061141f33866108fd565b9050600061142e338788610573565b9050600081831161144057600061144a565b61144a8284612885565b90506006548461145a9190612764565b61146661271083612764565b10156114e55760405162461bcd60e51b815260206004820152604260248201527f436f6c6c61746572616c4d616e616765723a2072656d6f76616c20776f756c6460448201527f206d616b6520706f736974696f6e20756e646572636f6c6c61746572616c697a606482015261195960f21b608482015260a4016106df565b5050505b3360009081526002602090815260408083206001600160a01b03881684529091528120805485929061151c908490612885565b90915550506001600160a01b03841661159d57604051600090339085908381818185875af1925050503d8060008114611571576040519150601f19603f3d011682016040523d82523d6000602084013e611576565b606091505b50509050806115975760405162461bcd60e51b81526004016106df90612898565b506115b1565b6115b16001600160a01b0385163385612070565b6040518381526001600160a01b0385169033907fce4d55ad6d5734bd8b947e19d64c51774bdc08ab4b2e59ee3a764476bea650de90602001610fdb565b600554604051633959535960e21b81526001600160a01b038581166004830152600092839291169063e5654d6490602401602060405180830381865afa15801561163c573d6000803e3d6000fd5b505050506040513d601f19601f820116820180604052508101906116609190612735565b90508060000361167457600091505061066c565b6000611681868587610de3565b905060008261169261271084612764565b61169c919061277b565b60065411979650505050505050565b6116b3611f5c565b80600081116116d45760405162461bcd60e51b81526004016106df90612832565b6001600160a01b038316600090815260036020526040902054839060ff1661170e5760405162461bcd60e51b81526004016106df906127df565b6117188686610724565b6117345760405162461bcd60e51b81526004016106df906128df565b60048054604051635d5530df60e11b81526001600160a01b038881169382019390935286831660248201526000929091169063baaa61be90604401602060405180830381865afa15801561178c573d6000803e3d6000fd5b505050506040513d601f19601f820116820180604052508101906117b09190612735565b90506000670de0b6b3a76400006117c78387612764565b6117d1919061277b565b905060006127106007546127106117e891906127b3565b6117f29084612764565b6117fc919061277b565b6001600160a01b03808b166000908152600260209081526040808320938c16835292905220549091508111156118445760405162461bcd60e51b81526004016106df9061292b565b6118596001600160a01b038916333089611fb5565b6005546040516324d91d3360e21b81526001600160a01b038b81166004830152602482018990529091169063936474cc90604401600060405180830381600087803b1580156118a757600080fd5b505af11580156118bb573d6000803e3d6000fd5b505050506001600160a01b038981166000908152600260209081526040808320938b16835292905290812080548392906118f6908490612885565b90915550506001600160a01b03871661197757604051600090339083908381818185875af1925050503d806000811461194b576040519150601f19603f3d011682016040523d82523d6000602084013e611950565b606091505b50509050806119715760405162461bcd60e51b81526004016106df90612898565b5061198b565b61198b6001600160a01b0388163383612070565b604080518781526001600160a01b038981166020830152918101839052818a16913391908c16907fb2ee9827c444f9055077a36568cf6f075a8bcac2510d4ae1d40e7a85ea94d8eb9060600160405180910390a450505050506119ed60018055565b50505050565b6119fb611f5c565b8160008111611a1c5760405162461bcd60e51b81526004016106df90612832565b6001600160a01b038416600090815260036020526040902054849060ff16611a565760405162461bcd60e51b81526004016106df906127df565b611a618787856115ee565b611a7d5760405162461bcd60e51b81526004016106df906128df565b60048054604051635d5530df60e11b81526001600160a01b038981169382019390935287831660248201526000929091169063baaa61be90604401602060405180830381865afa158015611ad5573d6000803e3d6000fd5b505050506040513d601f19601f82011682018060405250810190611af99190612735565b90506000670de0b6b3a7640000611b108388612764565b611b1a919061277b565b90506000612710600754612710611b3191906127b3565b611b3b9084612764565b611b45919061277b565b6001600160a01b03808c166000908152600260209081526040808320938d1683529290522054909150811115611b8d5760405162461bcd60e51b81526004016106df9061292b565b611ba26001600160a01b038a1633308a611fb5565b6005546040516324d91d3360e21b81526001600160a01b038c81166004830152602482018a90529091169063936474cc90604401600060405180830381600087803b158015611bf057600080fd5b505af1158015611c04573d6000803e3d6000fd5b505050506001600160a01b038a81166000908152600260209081526040808320938c1683529290529081208054839290611c3f908490612885565b90915550506001600160a01b038816611cc057604051600090339083908381818185875af1925050503d8060008114611c94576040519150601f19603f3d011682016040523d82523d6000602084013e611c99565b606091505b5050905080611cba5760405162461bcd60e51b81526004016106df90612898565b50611cd4565b611cd46001600160a01b0389163383612070565b604080518881526001600160a01b038a81166020830152918101839052818b16913391908d16907fb2ee9827c444f9055077a36568cf6f075a8bcac2510d4ae1d40e7a85ea94d8eb9060600160405180910390a45050505050611d3660018055565b5050505050565b611d45611f02565b612710811115611db15760405162461bcd60e51b815260206004820152603160248201527f436f6c6c61746572616c4d616e616765723a206c69717569646174696f6e20746044820152700d0e4cae6d0ded8c840e8dede40d0d2ced607b1b60648201526084016106df565b60068190556040518181527feba9f700db57a60a859189ecad4492254a5045e5cae74167bae53564fdea10ca90602001610719565b600554604051633959535960e21b81526001600160a01b038581166004830152600092839291169063e5654d6490602401602060405180830381865afa158015611e34573d6000803e3d6000fd5b505050506040513d601f19601f82011682018060405250810190611e589190612735565b905080600003611e6d5760001991505061066c565b6000611e7a868587610de3565b90508161065d61271083612764565b611e91611f02565b6001600160a01b038116611ef65760405162461bcd60e51b815260206004820152602660248201527f4f776e61626c653a206e6577206f776e657220697320746865207a65726f206160448201526564647265737360d01b60648201526084016106df565b611eff81612020565b50565b6000546001600160a01b031633146112ed5760405162461bcd60e51b815260206004820181905260248201527f4f776e61626c653a2063616c6c6572206973206e6f7420746865206f776e657260448201526064016106df565b600260015403611fae5760405162461bcd60e51b815260206004820152601f60248201527f5265656e7472616e637947756172643a207265656e7472616e742063616c6c0060448201526064016106df565b6002600155565b6040516001600160a01b03808516602483015283166044820152606481018290526119ed9085906323b872dd60e01b906084015b60408051601f198184030181529190526020810180516001600160e01b03166001600160e01b0319909316929092179091526120a5565b600080546001600160a01b038381166001600160a01b0319831681178455604051919092169283917f8be0079c531659141344cd1fd0a4f28419497f9722a3daafe3b4186f6b6457e09190a35050565b6040516001600160a01b0383166024820152604481018290526120a090849063a9059cbb60e01b90606401611fe9565b505050565b60006120fa826040518060400160405280602081526020017f5361666545524332303a206c6f772d6c6576656c2063616c6c206661696c6564815250856001600160a01b031661217a9092919063ffffffff16565b905080516000148061211b57508080602001905181019061211b919061297e565b6120a05760405162461bcd60e51b815260206004820152602a60248201527f5361666545524332303a204552433230206f7065726174696f6e20646964206e6044820152691bdd081cdd58d8d9595960b21b60648201526084016106df565b60606121898484600085612191565b949350505050565b6060824710156121f25760405162461bcd60e51b815260206004820152602660248201527f416464726573733a20696e73756666696369656e742062616c616e636520666f6044820152651c8818d85b1b60d21b60648201526084016106df565b600080866001600160a01b0316858760405161220e91906129bf565b60006040518083038185875af1925050503d806000811461224b576040519150601f19603f3d011682016040523d82523d6000602084013e612250565b606091505b50915091506122618783838761226c565b979650505050505050565b606083156122db5782516000036122d4576001600160a01b0385163b6122d45760405162461bcd60e51b815260206004820152601d60248201527f416464726573733a2063616c6c20746f206e6f6e2d636f6e747261637400000060448201526064016106df565b5081612189565b61218983838151156122f05781518083602001fd5b8060405162461bcd60e51b81526004016106df91906129db565b80356001600160a01b038116811461232157600080fd5b919050565b60008060006060848603121561233b57600080fd5b6123448461230a565b92506123526020850161230a565b91506123606040850161230a565b90509250925092565b60006020828403121561237b57600080fd5b5035919050565b6000806040838503121561239557600080fd5b61239e8361230a565b91506123ac6020840161230a565b90509250929050565b8015158114611eff57600080fd5b600080604083850312156123d657600080fd5b6123df8361230a565b915060208301356123ef816123b5565b809150509250929050565b60006020828403121561240c57600080fd5b61066c8261230a565b604080825283519082018190526000906020906060840190828701845b828110156124575781516001600160a01b031684529284019290840190600101612432565b5050508381038285015284518082528583019183019060005b8181101561248c57835183529284019291840191600101612470565b5090979650505050505050565b634e487b7160e01b600052604160045260246000fd5b600082601f8301126124c057600080fd5b8135602067ffffffffffffffff808311156124dd576124dd612499565b8260051b604051601f19603f8301168101818110848211171561250257612502612499565b60405293845285810183019383810192508785111561252057600080fd5b83870191505b84821015612261576125378261230a565b83529183019190830190612526565b60008060006060848603121561255b57600080fd5b6125648461230a565b9250602084013567ffffffffffffffff81111561258057600080fd5b61258c868287016124af565b9250506123606040850161230a565b600080604083850312156125ae57600080fd5b6125b78361230a565b946020939093013593505050565b600080604083850312156125d857600080fd5b6125e18361230a565b9150602083013567ffffffffffffffff8111156125fd57600080fd5b612609858286016124af565b9150509250929050565b60008060006060848603121561262857600080fd5b6126318461230a565b925061263f6020850161230a565b9150604084013567ffffffffffffffff81111561265b57600080fd5b612667868287016124af565b9150509250925092565b6000806000806080858703121561268757600080fd5b6126908561230a565b935061269e6020860161230a565b92506126ac6040860161230a565b9396929550929360600135925050565b600080600080600060a086880312156126d457600080fd5b6126dd8661230a565b94506126eb6020870161230a565b93506126f96040870161230a565b925060608601359150608086013567ffffffffffffffff81111561271c57600080fd5b612728888289016124af565b9150509295509295909350565b60006020828403121561274757600080fd5b5051919050565b634e487b7160e01b600052601160045260246000fd5b80820281158282048414176107db576107db61274e565b60008261279857634e487b7160e01b600052601260045260246000fd5b500490565b634e487b7160e01b600052603260045260246000fd5b808201808211156107db576107db61274e565b6000600182016127d8576127d861274e565b5060010190565b60208082526033908201527f436f6c6c61746572616c4d616e616765723a20746f6b656e206e6f74206170706040820152721c9bdd995908185cc818dbdb1b185d195c985b606a1b606082015260800190565b60208082526033908201527f436f6c6c61746572616c4d616e616765723a20616d6f756e74206d7573742062604082015272652067726561746572207468616e207a65726f60681b606082015260800190565b818103818111156107db576107db61274e565b60208082526027908201527f436f6c6c61746572616c4d616e616765723a2043454c4f207472616e736665726040820152660819985a5b195960ca1b606082015260800190565b6020808252602c908201527f436f6c6c61746572616c4d616e616765723a20706f736974696f6e206e6f742060408201526b6c6971756964617461626c6560a01b606082015260800190565b60208082526033908201527f436f6c6c61746572616c4d616e616765723a20696e73756666696369656e7420604082015272636f6c6c61746572616c20746f207365697a6560681b606082015260800190565b60006020828403121561299057600080fd5b815161066c816123b5565b60005b838110156129b657818101518382015260200161299e565b50506000910152565b600082516129d181846020870161299b565b9190910192915050565b60208152600082518060208401526129fa81604085016020870161299b565b601f01601f1916919091016040019291505056fea2646970667358221220dd3323d10610197cc4dfc36feb916a424d1cc998e8c650f6a84e6e0e93e306bb64736f6c63430008130033436f6c6c61746572616c4d616e616765723a20696e76616c6964206164647265",
  "linkReferences": {},
  "deployedLinkReferences": {}
}